{"contracts/SimpleMultisigFactory.sol":{"SimpleMultisigFactory":{"abi":[{"anonymous":false,"inputs":[{"indexed":true,"internalType":"address","name":"multisigAddress","type":"address"},{"indexed":true,"internalType":"address","name":"creator","type":"address"},{"indexed":false,"internalType":"address","name":"signer1","type":"address"},{"indexed":false,"internalType":"address","name":"signer2","type":"address"},{"indexed":false,"internalType":"address","name":"signer3","type":"address"}],"name":"MultisigCreated","type":"event"},{"inputs":[{"internalType":"address","name":"_signer1","type":"address"},{"internalType":"address","name":"_signer2","type":"address"},{"internalType":"address","name":"_signer3","type":"address"}],"name":"createMultisig","outputs":[{"internalType":"address","name":"","type":"address"}],"stateMutability":"nonpayable","type":"function"},{"inputs":[{"internalType":"uint256","name":"","type":"uint256"}],"name":"deployedMultisigs","outputs":[{"internalType":"address","name":"","type":"address"}],"stateMutability":"view","type":"function"},{"inputs":[],"name":"getDeployedMultisigs","outputs":[{"internalType":"address[]","name":"","type":"address[]"}],"stateMutability":"view","type":"function"},{"inputs":[{"internalType":"uint256","name":"index","type":"uint256"}],"name":"getMultisigByIndex","outputs":[{"internalType":"address","name":"","type":"address"}],"stateMutability":"view","type":"function"},{"inputs":[],"name":"getMultisigCount","outputs":[{"internalType":"uint256","name":"","type":"uint256"}],"stateMutability":"view","type":"function"}],"evm":{"bytecode":{"linkReferences":{},"object":"6080604052348015600f57600080fd5b50611c7e8061001f6000396000f3fe608060405234801561001057600080fd5b50600436106100575760003560e01c80636cceb00f1461005c57806391efde0d1461008c5780639a69f31b146100aa578063b71d815d146100da578063f6847e93146100f8575b600080fd5b610076600480360381019061007191906105ac565b610128565b604051610083919061061a565b60405180910390f35b6100946101b6565b6040516100a191906106f3565b60405180910390f35b6100c460048036038101906100bf91906105ac565b610244565b6040516100d1919061061a565b60405180910390f35b6100e2610283565b6040516100ef9190610724565b60405180910390f35b610112600480360381019061010d919061076b565b61028f565b60405161011f919061061a565b60405180910390f35b600080805490508210610170576040517f08c379a00000000000000000000000000000000000000000000000000000000081526004016101679061081b565b60405180910390fd5b600082815481106101845761018361083b565b5b9060005260206000200160009054906101000a900473ffffffffffffffffffffffffffffffffffffffff169050919050565b6060600080548060200260200160405190810160405280929190818152602001828054801561023a57602002820191906000526020600020905b8160009054906101000a900473ffffffffffffffffffffffffffffffffffffffff1673ffffffffffffffffffffffffffffffffffffffff16815260200190600101908083116101f0575b5050505050905090565b6000818154811061025457600080fd5b906000526020600020016000915054906101000a900473ffffffffffffffffffffffffffffffffffffffff1681565b60008080549050905090565b60008073ffffffffffffffffffffffffffffffffffffffff168473ffffffffffffffffffffffffffffffffffffffff16141580156102fa5750600073ffffffffffffffffffffffffffffffffffffffff168373ffffffffffffffffffffffffffffffffffffffff1614155b80156103335750600073ffffffffffffffffffffffffffffffffffffffff168273ffffffffffffffffffffffffffffffffffffffff1614155b610372576040517f08c379a0000000000000000000000000000000000000000000000000000000008152600401610369906108b6565b60405180910390fd5b8273ffffffffffffffffffffffffffffffffffffffff168473ffffffffffffffffffffffffffffffffffffffff16141580156103da57508173ffffffffffffffffffffffffffffffffffffffff168473ffffffffffffffffffffffffffffffffffffffff1614155b801561041257508173ffffffffffffffffffffffffffffffffffffffff168373ffffffffffffffffffffffffffffffffffffffff1614155b610451576040517f08c379a000000000000000000000000000000000000000000000000000000000815260040161044890610922565b60405180910390fd5b600084848460405161046290610564565b61046e93929190610942565b604051809103906000f08015801561048a573d6000803e3d6000fd5b5090506000819080600181540180825580915050600190039060005260206000200160009091909190916101000a81548173ffffffffffffffffffffffffffffffffffffffff021916908373ffffffffffffffffffffffffffffffffffffffff1602179055503373ffffffffffffffffffffffffffffffffffffffff168173ffffffffffffffffffffffffffffffffffffffff167f2104bf5d663b3d36aad06458ae749b4445f114e22b96a7517208e78fde7ca40d87878760405161055193929190610942565b60405180910390a3809150509392505050565b6112cf8061097a83390190565b600080fd5b6000819050919050565b61058981610576565b811461059457600080fd5b50565b6000813590506105a681610580565b92915050565b6000602082840312156105c2576105c1610571565b5b60006105d084828501610597565b91505092915050565b600073ffffffffffffffffffffffffffffffffffffffff82169050919050565b6000610604826105d9565b9050919050565b610614816105f9565b82525050565b600060208201905061062f600083018461060b565b92915050565b600081519050919050565b600082825260208201905092915050565b6000819050602082019050919050565b61066a816105f9565b82525050565b600061067c8383610661565b60208301905092915050565b6000602082019050919050565b60006106a082610635565b6106aa8185610640565b93506106b583610651565b8060005b838110156106e65781516106cd8882610670565b97506106d883610688565b9250506001810190506106b9565b5085935050505092915050565b6000602082019050818103600083015261070d8184610695565b905092915050565b61071e81610576565b82525050565b60006020820190506107396000830184610715565b92915050565b610748816105f9565b811461075357600080fd5b50565b6000813590506107658161073f565b92915050565b60008060006060848603121561078457610783610571565b5b600061079286828701610756565b93505060206107a386828701610756565b92505060406107b486828701610756565b9150509250925092565b600082825260208201905092915050565b7f496e646578206f7574206f6620626f756e647300000000000000000000000000600082015250565b60006108056013836107be565b9150610810826107cf565b602082019050919050565b60006020820190508181036000830152610834816107f8565b9050919050565b7f4e487b7100000000000000000000000000000000000000000000000000000000600052603260045260246000fd5b7f496e76616c6964207369676e6572206164647265737300000000000000000000600082015250565b60006108a06016836107be565b91506108ab8261086a565b602082019050919050565b600060208201905081810360008301526108cf81610893565b9050919050565b7f5369676e657273206d75737420626520756e6971756500000000000000000000600082015250565b600061090c6016836107be565b9150610917826108d6565b602082019050919050565b6000602082019050818103600083015261093b816108ff565b9050919050565b6000606082019050610957600083018661060b565b610964602083018561060b565b610971604083018461060b565b94935050505056fe608060405234801561001057600080fd5b506040516112cf3803806112cf8339818101604052810190610032919061015f565b826000806101000a81548173ffffffffffffffffffffffffffffffffffffffff021916908373ffffffffffffffffffffffffffffffffffffffff16021790555081600160006101000a81548173ffffffffffffffffffffffffffffffffffffffff021916908373ffffffffffffffffffffffffffffffffffffffff16021790555080600260006101000a81548173ffffffffffffffffffffffffffffffffffffffff021916908373ffffffffffffffffffffffffffffffffffffffff1602179055505050506101b2565b600080fd5b600073ffffffffffffffffffffffffffffffffffffffff82169050919050565b600061012c82610101565b9050919050565b61013c81610121565b811461014757600080fd5b50565b60008151905061015981610133565b92915050565b600080600060608486031215610178576101776100fc565b5b60006101868682870161014a565b93505060206101978682870161014a565b92505060406101a88682870161014a565b9150509250925092565b61110e806101c16000396000f3fe6080604052600436106100955760003560e01c80639ace38c2116100595780639ace38c214610176578063a4ee77f3146101b8578063b77bf600146101f7578063ee22610b14610222578063f19a66821461024b5761009c565b806312065fe0146100a1578063242232d1146100cc57806334107282146100f557806338c0ac5f146101205780633eeb92f61461014b5761009c565b3661009c57005b600080fd5b3480156100ad57600080fd5b506100b6610274565b6040516100c39190610c06565b60405180910390f35b3480156100d857600080fd5b506100f360048036038101906100ee9190610c52565b61027c565b005b34801561010157600080fd5b5061010a6104c2565b6040516101179190610cc0565b60405180910390f35b34801561012c57600080fd5b506101356104e6565b6040516101429190610cc0565b60405180910390f35b34801561015757600080fd5b5061016061050c565b60405161016d9190610cc0565b60405180910390f35b34801561018257600080fd5b5061019d60048036038101906101989190610c52565b610532565b6040516101af96959493929190610cf6565b60405180910390f35b3480156101c457600080fd5b506101df60048036038101906101da9190610c52565b6105c2565b6040516101ee93929190610d57565b60405180910390f35b34801561020357600080fd5b5061020c6106d1565b6040516102199190610c06565b60405180910390f35b34801561022e57600080fd5b5061024960048036038101906102449190610c52565b6106d7565b005b34801561025757600080fd5b50610272600480360381019061026d9190610dba565b61091e565b005b600047905090565b60006004600083815260200190815260200160002090508060020160039054906101000a900460ff16156102e5576040517f08c379a00000000000000000000000000000000000000000000000000000000081526004016102dc90610e57565b60405180910390fd5b60008054906101000a900473ffffffffffffffffffffffffffffffffffffffff1673ffffffffffffffffffffffffffffffffffffffff163373ffffffffffffffffffffffffffffffffffffffff160361035a5760018160020160006101000a81548160ff021916908315150217905550610485565b600160009054906101000a900473ffffffffffffffffffffffffffffffffffffffff1673ffffffffffffffffffffffffffffffffffffffff163373ffffffffffffffffffffffffffffffffffffffff16036103d15760018160020160016101000a81548160ff021916908315150217905550610484565b600260009054906101000a900473ffffffffffffffffffffffffffffffffffffffff1673ffffffffffffffffffffffffffffffffffffffff163373ffffffffffffffffffffffffffffffffffffffff16036104485760018160020160026101000a81548160ff021916908315150217905550610483565b6040517f08c379a000000000000000000000000000000000000000000000000000000000815260040161047a90610ec3565b60405180910390fd5b5b5b7f924813d717e221b5f46dcd8a56da1679e4612584ab3237d55e5faabf6f6a307982336040516104b6929190610ee3565b60405180910390a15050565b60008054906101000a900473ffffffffffffffffffffffffffffffffffffffff1681565b600160009054906101000a900473ffffffffffffffffffffffffffffffffffffffff1681565b600260009054906101000a900473ffffffffffffffffffffffffffffffffffffffff1681565b60046020528060005260406000206000915090508060000160009054906101000a900473ffffffffffffffffffffffffffffffffffffffff16908060010154908060020160009054906101000a900460ff16908060020160019054906101000a900460ff16908060020160029054906101000a900460ff16908060020160039054906101000a900460ff16905086565b600080600080600460008681526020019081526020016000206040518060c00160405290816000820160009054906101000a900473ffffffffffffffffffffffffffffffffffffffff1673ffffffffffffffffffffffffffffffffffffffff1673ffffffffffffffffffffffffffffffffffffffff168152602001600182015481526020016002820160009054906101000a900460ff161515151581526020016002820160019054906101000a900460ff161515151581526020016002820160029054906101000a900460ff161515151581526020016002820160039054906101000a900460ff1615151515815250509050806040015181606001518260800151935093509350509193909250565b60035481565b60006004600083815260200190815260200160002090508060020160039054906101000a900460ff1615610740576040517f08c379a000000000000000000000000000000000000000000000000000000000815260040161073790610e57565b60405180910390fd5b8060020160009054906101000a900460ff16801561076c57508060020160019054906101000a900460ff165b801561078657508060020160029054906101000a900460ff165b6107c5576040517f08c379a00000000000000000000000000000000000000000000000000000000081526004016107bc90610f58565b60405180910390fd5b60018160020160036101000a81548160ff02191690831515021790555060008160000160009054906101000a900473ffffffffffffffffffffffffffffffffffffffff1673ffffffffffffffffffffffffffffffffffffffff16826001015460405161083090610fa9565b60006040518083038185875af1925050503d806000811461086d576040519150601f19603f3d011682016040523d82523d6000602084013e610872565b606091505b50509050806108b6576040517f08c379a00000000000000000000000000000000000000000000000000000000081526004016108ad9061100a565b60405180910390fd5b7fda19024f6708ce28e75d9c0ec389fb05a8e5cc9dfe520f61239c10d51a11e59c838360000160009054906101000a900473ffffffffffffffffffffffffffffffffffffffff1684600101546040516109119392919061102a565b60405180910390a1505050565b60008054906101000a900473ffffffffffffffffffffffffffffffffffffffff1673ffffffffffffffffffffffffffffffffffffffff163373ffffffffffffffffffffffffffffffffffffffff1614806109c55750600160009054906101000a900473ffffffffffffffffffffffffffffffffffffffff1673ffffffffffffffffffffffffffffffffffffffff163373ffffffffffffffffffffffffffffffffffffffff16145b80610a1d5750600260009054906101000a900473ffffffffffffffffffffffffffffffffffffffff1673ffffffffffffffffffffffffffffffffffffffff163373ffffffffffffffffffffffffffffffffffffffff16145b610a5c576040517f08c379a0000000000000000000000000000000000000000000000000000000008152600401610a5390610ec3565b60405180910390fd5b6040518060c001604052808373ffffffffffffffffffffffffffffffffffffffff1681526020018281526020016000151581526020016000151581526020016000151581526020016000151581525060046000600354815260200190815260200160002060008201518160000160006101000a81548173ffffffffffffffffffffffffffffffffffffffff021916908373ffffffffffffffffffffffffffffffffffffffff1602179055506020820151816001015560408201518160020160006101000a81548160ff02191690831515021790555060608201518160020160016101000a81548160ff02191690831515021790555060808201518160020160026101000a81548160ff02191690831515021790555060a08201518160020160036101000a81548160ff0219169083151502179055509050507f34c1492f2b30aac2446b0b2de2e32501ff4742f7196db5ed9e0ddd6b7d7b25cf6003548383604051610bc99392919061102a565b60405180910390a160036000815480929190610be490611090565b91905055505050565b6000819050919050565b610c0081610bed565b82525050565b6000602082019050610c1b6000830184610bf7565b92915050565b600080fd5b610c2f81610bed565b8114610c3a57600080fd5b50565b600081359050610c4c81610c26565b92915050565b600060208284031215610c6857610c67610c21565b5b6000610c7684828501610c3d565b91505092915050565b600073ffffffffffffffffffffffffffffffffffffffff82169050919050565b6000610caa82610c7f565b9050919050565b610cba81610c9f565b82525050565b6000602082019050610cd56000830184610cb1565b92915050565b60008115159050919050565b610cf081610cdb565b82525050565b600060c082019050610d0b6000830189610cb1565b610d186020830188610bf7565b610d256040830187610ce7565b610d326060830186610ce7565b610d3f6080830185610ce7565b610d4c60a0830184610ce7565b979650505050505050565b6000606082019050610d6c6000830186610ce7565b610d796020830185610ce7565b610d866040830184610ce7565b949350505050565b610d9781610c9f565b8114610da257600080fd5b50565b600081359050610db481610d8e565b92915050565b60008060408385031215610dd157610dd0610c21565b5b6000610ddf85828601610da5565b9250506020610df085828601610c3d565b9150509250929050565b600082825260208201905092915050565b7f5472616e73616374696f6e20616c726561647920657865637574656400000000600082015250565b6000610e41601c83610dfa565b9150610e4c82610e0b565b602082019050919050565b60006020820190508181036000830152610e7081610e34565b9050919050565b7f4e6f742061207369676e65720000000000000000000000000000000000000000600082015250565b6000610ead600c83610dfa565b9150610eb882610e77565b602082019050919050565b60006020820190508181036000830152610edc81610ea0565b9050919050565b6000604082019050610ef86000830185610bf7565b610f056020830184610cb1565b9392505050565b7f4e65656420616c6c203320617070726f76616c73000000000000000000000000600082015250565b6000610f42601483610dfa565b9150610f4d82610f0c565b602082019050919050565b60006020820190508181036000830152610f7181610f35565b9050919050565b600081905092915050565b50565b6000610f93600083610f78565b9150610f9e82610f83565b600082019050919050565b6000610fb482610f86565b9150819050919050565b7f5472616e73666572206661696c65640000000000000000000000000000000000600082015250565b6000610ff4600f83610dfa565b9150610fff82610fbe565b602082019050919050565b6000602082019050818103600083015261102381610fe7565b9050919050565b600060608201905061103f6000830186610bf7565b61104c6020830185610cb1565b6110596040830184610bf7565b949350505050565b7f4e487b7100000000000000000000000000000000000000000000000000000000600052601160045260246000fd5b600061109b82610bed565b91507fffffffffffffffffffffffffffffffffffffffffffffffffffffffffffffffff82036110cd576110cc611061565b5b60018201905091905056fea26469706673582212209d8ff418ca3631c990b691a273974090887962480f5b0e999e914466e1ff95db64736f6c634300081c0033a2646970667358221220e293756cfd4089ce688bd9938fcc3fe8ff0b8f0461455daa3e0a9630b601b89d64736f6c634300081c0033","opcodes":"PUSH1 0x80 PUSH1 0x40 MSTORE CALLVALUE DUP1 ISZERO PUSH1 0xF JUMPI PUSH1 0x0 DUP1 REVERT JUMPDEST POP PUSH2 0x1C7E DUP1 PUSH2 0x1F PUSH1 0x0 CODECOPY PUSH1 0x0 RETURN INVALID PUSH1 0x80 PUSH1 0x40 MSTORE CALLVALUE DUP1 ISZERO PUSH2 0x10 JUMPI PUSH1 0x0 DUP1 REVERT JUMPDEST POP PUSH1 0x4 CALLDATASIZE LT PUSH2 0x57 JUMPI PUSH1 0x0 CALLDATALOAD PUSH1 0xE0 SHR DUP1 PUSH4 0x6CCEB00F EQ PUSH2 0x5C JUMPI DUP1 PUSH4 0x91EFDE0D EQ PUSH2 0x8C JUMPI DUP1 PUSH4 0x9A69F31B EQ PUSH2 0xAA JUMPI DUP1 PUSH4 0xB71D815D EQ PUSH2 0xDA JUMPI DUP1 PUSH4 0xF6847E93 EQ PUSH2 0xF8 JUMPI JUMPDEST PUSH1 0x0 DUP1 REVERT JUMPDEST PUSH2 0x76 PUSH1 0x4 DUP1 CALLDATASIZE SUB DUP2 ADD SWAP1 PUSH2 0x71 SWAP2 SWAP1 PUSH2 0x5AC JUMP JUMPDEST PUSH2 0x128 JUMP JUMPDEST PUSH1 0x40 MLOAD PUSH2 0x83 SWAP2 SWAP1 PUSH2 0x61A JUMP JUMPDEST PUSH1 0x40 MLOAD DUP1 SWAP2 SUB SWAP1 RETURN JUMPDEST PUSH2 0x94 PUSH2 0x1B6 JUMP JUMPDEST PUSH1 0x40 MLOAD PUSH2 0xA1 SWAP2 SWAP1 PUSH2 0x6F3 JUMP JUMPDEST PUSH1 0x40 MLOAD DUP1 SWAP2 SUB SWAP1 RETURN JUMPDEST PUSH2 0xC4 PUSH1 0x4 DUP1 CALLDATASIZE SUB DUP2 ADD SWAP1 PUSH2 0xBF SWAP2 SWAP1 PUSH2 0x5AC JUMP JUMPDEST PUSH2 0x244 JUMP JUMPDEST PUSH1 0x40 MLOAD PUSH2 0xD1 SWAP2 SWAP1 PUSH2 0x61A JUMP JUMPDEST PUSH1 0x40 MLOAD DUP1 SWAP2 SUB SWAP1 RETURN JUMPDEST PUSH2 0xE2 PUSH2 0x283 JUMP JUMPDEST PUSH1 0x40 MLOAD PUSH2 0xEF SWAP2 SWAP1 PUSH2 0x724 JUMP JUMPDEST PUSH1 0x40 MLOAD DUP1 SWAP2 SUB SWAP1 RETURN JUMPDEST PUSH2 0x112 PUSH1 0x4 DUP1 CALLDATASIZE SUB DUP2 ADD SWAP1 PUSH2 0x10D SWAP2 SWAP1 PUSH2 0x76B JUMP JUMPDEST PUSH2 0x28F JUMP JUMPDEST PUSH1 0x40 MLOAD PUSH2 0x11F SWAP2 SWAP1 PUSH2 0x61A JUMP JUMPDEST PUSH1 0x40 MLOAD DUP1 SWAP2 SUB SWAP1 RETURN JUMPDEST PUSH1 0x0 DUP1 DUP1 SLOAD SWAP1 POP DUP3 LT PUSH2 0x170 JUMPI PUSH1 0x40 MLOAD PUSH32 0x8C379A000000000000000000000000000000000000000000000000000000000 DUP2 MSTORE PUSH1 0x4 ADD PUSH2 0x167 SWAP1 PUSH2 0x81B JUMP JUMPDEST PUSH1 0x40 MLOAD DUP1 SWAP2 SUB SWAP1 REVERT JUMPDEST PUSH1 0x0 DUP3 DUP2 SLOAD DUP2 LT PUSH2 0x184 JUMPI PUSH2 0x183 PUSH2 0x83B JUMP JUMPDEST JUMPDEST SWAP1 PUSH1 0x0 MSTORE PUSH1 0x20 PUSH1 0x0 KECCAK256 ADD PUSH1 0x0 SWAP1 SLOAD SWAP1 PUSH2 0x100 EXP SWAP1 DIV PUSH20 0xFFFFFFFFFFFFFFFFFFFFFFFFFFFFFFFFFFFFFFFF AND SWAP1 POP SWAP2 SWAP1 POP JUMP JUMPDEST PUSH1 0x60 PUSH1 0x0 DUP1 SLOAD DUP1 PUSH1 0x20 MUL PUSH1 0x20 ADD PUSH1 0x40 MLOAD SWAP1 DUP2 ADD PUSH1 0x40 MSTORE DUP1 SWAP3 SWAP2 SWAP1 DUP2 DUP2 MSTORE PUSH1 0x20 ADD DUP3 DUP1 SLOAD DUP1 ISZERO PUSH2 0x23A JUMPI PUSH1 0x20 MUL DUP3 ADD SWAP2 SWAP1 PUSH1 0x0 MSTORE PUSH1 0x20 PUSH1 0x0 KECCAK256 SWAP1 JUMPDEST DUP2 PUSH1 0x0 SWAP1 SLOAD SWAP1 PUSH2 0x100 EXP SWAP1 DIV PUSH20 0xFFFFFFFFFFFFFFFFFFFFFFFFFFFFFFFFFFFFFFFF AND PUSH20 0xFFFFFFFFFFFFFFFFFFFFFFFFFFFFFFFFFFFFFFFF AND DUP2 MSTORE PUSH1 0x20 ADD SWAP1 PUSH1 0x1 ADD SWAP1 DUP1 DUP4 GT PUSH2 0x1F0 JUMPI JUMPDEST POP POP POP POP POP SWAP1 POP SWAP1 JUMP JUMPDEST PUSH1 0x0 DUP2 DUP2 SLOAD DUP2 LT PUSH2 0x254 JUMPI PUSH1 0x0 DUP1 REVERT JUMPDEST SWAP1 PUSH1 0x0 MSTORE PUSH1 0x20 PUSH1 0x0 KECCAK256 ADD PUSH1 0x0 SWAP2 POP SLOAD SWAP1 PUSH2 0x100 EXP SWAP1 DIV PUSH20 0xFFFFFFFFFFFFFFFFFFFFFFFFFFFFFFFFFFFFFFFF AND DUP2 JUMP JUMPDEST PUSH1 0x0 DUP1 DUP1 SLOAD SWAP1 POP SWAP1 POP SWAP1 JUMP JUMPDEST PUSH1 0x0 DUP1 PUSH20 0xFFFFFFFFFFFFFFFFFFFFFFFFFFFFFFFFFFFFFFFF AND DUP5 PUSH20 0xFFFFFFFFFFFFFFFFFFFFFFFFFFFFFFFFFFFFFFFF AND EQ ISZERO DUP1 ISZERO PUSH2 0x2FA JUMPI POP PUSH1 0x0 PUSH20 0xFFFFFFFFFFFFFFFFFFFFFFFFFFFFFFFFFFFFFFFF AND DUP4 PUSH20 0xFFFFFFFFFFFFFFFFFFFFFFFFFFFFFFFFFFFFFFFF AND EQ ISZERO JUMPDEST DUP1 ISZERO PUSH2 0x333 JUMPI POP PUSH1 0x0 PUSH20 0xFFFFFFFFFFFFFFFFFFFFFFFFFFFFFFFFFFFFFFFF AND DUP3 PUSH20 0xFFFFFFFFFFFFFFFFFFFFFFFFFFFFFFFFFFFFFFFF AND EQ ISZERO JUMPDEST PUSH2 0x372 JUMPI PUSH1 0x40 MLOAD PUSH32 0x8C379A000000000000000000000000000000000000000000000000000000000 DUP2 MSTORE PUSH1 0x4 ADD PUSH2 0x369 SWAP1 PUSH2 0x8B6 JUMP JUMPDEST PUSH1 0x40 MLOAD DUP1 SWAP2 SUB SWAP1 REVERT JUMPDEST DUP3 PUSH20 0xFFFFFFFFFFFFFFFFFFFFFFFFFFFFFFFFFFFFFFFF AND DUP5 PUSH20 0xFFFFFFFFFFFFFFFFFFFFFFFFFFFFFFFFFFFFFFFF AND EQ ISZERO DUP1 ISZERO PUSH2 0x3DA JUMPI POP DUP2 PUSH20 0xFFFFFFFFFFFFFFFFFFFFFFFFFFFFFFFFFFFFFFFF AND DUP5 PUSH20 0xFFFFFFFFFFFFFFFFFFFFFFFFFFFFFFFFFFFFFFFF AND EQ ISZERO JUMPDEST DUP1 ISZERO PUSH2 0x412 JUMPI POP DUP2 PUSH20 0xFFFFFFFFFFFFFFFFFFFFFFFFFFFFFFFFFFFFFFFF AND DUP4 PUSH20 0xFFFFFFFFFFFFFFFFFFFFFFFFFFFFFFFFFFFFFFFF AND EQ ISZERO JUMPDEST PUSH2 0x451 JUMPI PUSH1 0x40 MLOAD PUSH32 0x8C379A000000000000000000000000000000000000000000000000000000000 DUP2 MSTORE PUSH1 0x4 ADD PUSH2 0x448 SWAP1 PUSH2 0x922 JUMP JUMPDEST PUSH1 0x40 MLOAD DUP1 SWAP2 SUB SWAP1 REVERT JUMPDEST PUSH1 0x0 DUP5 DUP5 DUP5 PUSH1 0x40 MLOAD PUSH2 0x462 SWAP1 PUSH2 0x564 JUMP JUMPDEST PUSH2 0x46E SWAP4 SWAP3 SWAP2 SWAP1 PUSH2 0x942 JUMP JUMPDEST PUSH1 0x40 MLOAD DUP1 SWAP2 SUB SWAP1 PUSH1 0x0 CREATE DUP1 ISZERO DUP1 ISZERO PUSH2 0x48A JUMPI RETURNDATASIZE PUSH1 0x0 DUP1 RETURNDATACOPY RETURNDATASIZE PUSH1 0x0 REVERT JUMPDEST POP SWAP1 POP PUSH1 0x0 DUP2 SWAP1 DUP1 PUSH1 0x1 DUP2 SLOAD ADD DUP1 DUP3 SSTORE DUP1 SWAP2 POP POP PUSH1 0x1 SWAP1 SUB SWAP1 PUSH1 0x0 MSTORE PUSH1 0x20 PUSH1 0x0 KECCAK256 ADD PUSH1 0x0 SWAP1 SWAP2 SWAP1 SWAP2 SWAP1 SWAP2 PUSH2 0x100 EXP DUP2 SLOAD DUP2 PUSH20 0xFFFFFFFFFFFFFFFFFFFFFFFFFFFFFFFFFFFFFFFF MUL NOT AND SWAP1 DUP4 PUSH20 0xFFFFFFFFFFFFFFFFFFFFFFFFFFFFFFFFFFFFFFFF AND MUL OR SWAP1 SSTORE POP CALLER PUSH20 0xFFFFFFFFFFFFFFFFFFFFFFFFFFFFFFFFFFFFFFFF AND DUP2 PUSH20 0xFFFFFFFFFFFFFFFFFFFFFFFFFFFFFFFFFFFFFFFF AND PUSH32 0x2104BF5D663B3D36AAD06458AE749B4445F114E22B96A7517208E78FDE7CA40D DUP8 DUP8 DUP8 PUSH1 0x40 MLOAD PUSH2 0x551 SWAP4 SWAP3 SWAP2 SWAP1 PUSH2 0x942 JUMP JUMPDEST PUSH1 0x40 MLOAD DUP1 SWAP2 SUB SWAP1 LOG3 DUP1 SWAP2 POP POP SWAP4 SWAP3 POP POP POP JUMP JUMPDEST PUSH2 0x12CF DUP1 PUSH2 0x97A DUP4 CODECOPY ADD SWAP1 JUMP JUMPDEST PUSH1 0x0 DUP1 REVERT JUMPDEST PUSH1 0x0 DUP2 SWAP1 POP SWAP2 SWAP1 POP JUMP JUMPDEST PUSH2 0x589 DUP2 PUSH2 0x576 JUMP JUMPDEST DUP2 EQ PUSH2 0x594 JUMPI PUSH1 0x0 DUP1 REVERT JUMPDEST POP JUMP JUMPDEST PUSH1 0x0 DUP2 CALLDATALOAD SWAP1 POP PUSH2 0x5A6 DUP2 PUSH2 0x580 JUMP JUMPDEST SWAP3 SWAP2 POP POP JUMP JUMPDEST PUSH1 0x0 PUSH1 0x20 DUP3 DUP5 SUB SLT ISZERO PUSH2 0x5C2 JUMPI PUSH2 0x5C1 PUSH2 0x571 JUMP JUMPDEST JUMPDEST PUSH1 0x0 PUSH2 0x5D0 DUP5 DUP3 DUP6 ADD PUSH2 0x597 JUMP JUMPDEST SWAP2 POP POP SWAP3 SWAP2 POP POP JUMP JUMPDEST PUSH1 0x0 PUSH20 0xFFFFFFFFFFFFFFFFFFFFFFFFFFFFFFFFFFFFFFFF DUP3 AND SWAP1 POP SWAP2 SWAP1 POP JUMP JUMPDEST PUSH1 0x0 PUSH2 0x604 DUP3 PUSH2 0x5D9 JUMP JUMPDEST SWAP1 POP SWAP2 SWAP1 POP JUMP JUMPDEST PUSH2 0x614 DUP2 PUSH2 0x5F9 JUMP JUMPDEST DUP3 MSTORE POP POP JUMP JUMPDEST PUSH1 0x0 PUSH1 0x20 DUP3 ADD SWAP1 POP PUSH2 0x62F PUSH1 0x0 DUP4 ADD DUP5 PUSH2 0x60B JUMP JUMPDEST SWAP3 SWAP2 POP POP JUMP JUMPDEST PUSH1 0x0 DUP2 MLOAD SWAP1 POP SWAP2 SWAP1 POP JUMP JUMPDEST PUSH1 0x0 DUP3 DUP3 MSTORE PUSH1 0x20 DUP3 ADD SWAP1 POP SWAP3 SWAP2 POP POP JUMP JUMPDEST PUSH1 0x0 DUP2 SWAP1 POP PUSH1 0x20 DUP3 ADD SWAP1 POP SWAP2 SWAP1 POP JUMP JUMPDEST PUSH2 0x66A DUP2 PUSH2 0x5F9 JUMP JUMPDEST DUP3 MSTORE POP POP JUMP JUMPDEST PUSH1 0x0 PUSH2 0x67C DUP4 DUP4 PUSH2 0x661 JUMP JUMPDEST PUSH1 0x20 DUP4 ADD SWAP1 POP SWAP3 SWAP2 POP POP JUMP JUMPDEST PUSH1 0x0 PUSH1 0x20 DUP3 ADD SWAP1 POP SWAP2 SWAP1 POP JUMP JUMPDEST PUSH1 0x0 PUSH2 0x6A0 DUP3 PUSH2 0x635 JUMP JUMPDEST PUSH2 0x6AA DUP2 DUP6 PUSH2 0x640 JUMP JUMPDEST SWAP4 POP PUSH2 0x6B5 DUP4 PUSH2 0x651 JUMP JUMPDEST DUP1 PUSH1 0x0 JUMPDEST DUP4 DUP2 LT ISZERO PUSH2 0x6E6 JUMPI DUP2 MLOAD PUSH2 0x6CD DUP9 DUP3 PUSH2 0x670 JUMP JUMPDEST SWAP8 POP PUSH2 0x6D8 DUP4 PUSH2 0x688 JUMP JUMPDEST SWAP3 POP POP PUSH1 0x1 DUP2 ADD SWAP1 POP PUSH2 0x6B9 JUMP JUMPDEST POP DUP6 SWAP4 POP POP POP POP SWAP3 SWAP2 POP POP JUMP JUMPDEST PUSH1 0x0 PUSH1 0x20 DUP3 ADD SWAP1 POP DUP2 DUP2 SUB PUSH1 0x0 DUP4 ADD MSTORE PUSH2 0x70D DUP2 DUP5 PUSH2 0x695 JUMP JUMPDEST SWAP1 POP SWAP3 SWAP2 POP POP JUMP JUMPDEST PUSH2 0x71E DUP2 PUSH2 0x576 JUMP JUMPDEST DUP3 MSTORE POP POP JUMP JUMPDEST PUSH1 0x0 PUSH1 0x20 DUP3 ADD SWAP1 POP PUSH2 0x739 PUSH1 0x0 DUP4 ADD DUP5 PUSH2 0x715 JUMP JUMPDEST SWAP3 SWAP2 POP POP JUMP JUMPDEST PUSH2 0x748 DUP2 PUSH2 0x5F9 JUMP JUMPDEST DUP2 EQ PUSH2 0x753 JUMPI PUSH1 0x0 DUP1 REVERT JUMPDEST POP JUMP JUMPDEST PUSH1 0x0 DUP2 CALLDATALOAD SWAP1 POP PUSH2 0x765 DUP2 PUSH2 0x73F JUMP JUMPDEST SWAP3 SWAP2 POP POP JUMP JUMPDEST PUSH1 0x0 DUP1 PUSH1 0x0 PUSH1 0x60 DUP5 DUP7 SUB SLT ISZERO PUSH2 0x784 JUMPI PUSH2 0x783 PUSH2 0x571 JUMP JUMPDEST JUMPDEST PUSH1 0x0 PUSH2 0x792 DUP7 DUP3 DUP8 ADD PUSH2 0x756 JUMP JUMPDEST SWAP4 POP POP PUSH1 0x20 PUSH2 0x7A3 DUP7 DUP3 DUP8 ADD PUSH2 0x756 JUMP JUMPDEST SWAP3 POP POP PUSH1 0x40 PUSH2 0x7B4 DUP7 DUP3 DUP8 ADD PUSH2 0x756 JUMP JUMPDEST SWAP2 POP POP SWAP3 POP SWAP3 POP SWAP3 JUMP JUMPDEST PUSH1 0x0 DUP3 DUP3 MSTORE PUSH1 0x20 DUP3 ADD SWAP1 POP SWAP3 SWAP2 POP POP JUMP JUMPDEST PUSH32 0x496E646578206F7574206F6620626F756E647300000000000000000000000000 PUSH1 0x0 DUP3 ADD MSTORE POP JUMP JUMPDEST PUSH1 0x0 PUSH2 0x805 PUSH1 0x13 DUP4 PUSH2 0x7BE JUMP JUMPDEST SWAP2 POP PUSH2 0x810 DUP3 PUSH2 0x7CF JUMP JUMPDEST PUSH1 0x20 DUP3 ADD SWAP1 POP SWAP2 SWAP1 POP JUMP JUMPDEST PUSH1 0x0 PUSH1 0x20 DUP3 ADD SWAP1 POP DUP2 DUP2 SUB PUSH1 0x0 DUP4 ADD MSTORE PUSH2 0x834 DUP2 PUSH2 0x7F8 JUMP JUMPDEST SWAP1 POP SWAP2 SWAP1 POP JUMP JUMPDEST PUSH32 0x4E487B7100000000000000000000000000000000000000000000000000000000 PUSH1 0x0 MSTORE PUSH1 0x32 PUSH1 0x4 MSTORE PUSH1 0x24 PUSH1 0x0 REVERT JUMPDEST PUSH32 0x496E76616C6964207369676E6572206164647265737300000000000000000000 PUSH1 0x0 DUP3 ADD MSTORE POP JUMP JUMPDEST PUSH1 0x0 PUSH2 0x8A0 PUSH1 0x16 DUP4 PUSH2 0x7BE JUMP JUMPDEST SWAP2 POP PUSH2 0x8AB DUP3 PUSH2 0x86A JUMP JUMPDEST PUSH1 0x20 DUP3 ADD SWAP1 POP SWAP2 SWAP1 POP JUMP JUMPDEST PUSH1 0x0 PUSH1 0x20 DUP3 ADD SWAP1 POP DUP2 DUP2 SUB PUSH1 0x0 DUP4 ADD MSTORE PUSH2 0x8CF DUP2 PUSH2 0x893 JUMP JUMPDEST SWAP1 POP SWAP2 SWAP1 POP JUMP JUMPDEST PUSH32 0x5369676E657273206D75737420626520756E6971756500000000000000000000 PUSH1 0x0 DUP3 ADD MSTORE POP JUMP JUMPDEST PUSH1 0x0 PUSH2 0x90C PUSH1 0x16 DUP4 PUSH2 0x7BE JUMP JUMPDEST SWAP2 POP PUSH2 0x917 DUP3 PUSH2 0x8D6 JUMP JUMPDEST PUSH1 0x20 DUP3 ADD SWAP1 POP SWAP2 SWAP1 POP JUMP JUMPDEST PUSH1 0x0 PUSH1 0x20 DUP3 ADD SWAP1 POP DUP2 DUP2 SUB PUSH1 0x0 DUP4 ADD MSTORE PUSH2 0x93B DUP2 PUSH2 0x8FF JUMP JUMPDEST SWAP1 POP SWAP2 SWAP1 POP JUMP JUMPDEST PUSH1 0x0 PUSH1 0x60 DUP3 ADD SWAP1 POP PUSH2 0x957 PUSH1 0x0 DUP4 ADD DUP7 PUSH2 0x60B JUMP JUMPDEST PUSH2 0x964 PUSH1 0x20 DUP4 ADD DUP6 PUSH2 0x60B JUMP JUMPDEST PUSH2 0x971 PUSH1 0x40 DUP4 ADD DUP5 PUSH2 0x60B JUMP JUMPDEST SWAP5 SWAP4 POP POP POP POP JUMP INVALID PUSH1 0x80 PUSH1 0x40 MSTORE CALLVALUE DUP1 ISZERO PUSH2 0x10 JUMPI PUSH1 0x0 DUP1 REVERT JUMPDEST POP PUSH1 0x40 MLOAD PUSH2 0x12CF CODESIZE SUB DUP1 PUSH2 0x12CF DUP4 CODECOPY DUP2 DUP2 ADD PUSH1 0x40 MSTORE DUP2 ADD SWAP1 PUSH2 0x32 SWAP2 SWAP1 PUSH2 0x15F JUMP JUMPDEST DUP3 PUSH1 0x0 DUP1 PUSH2 0x100 EXP DUP2 SLOAD DUP2 PUSH20 0xFFFFFFFFFFFFFFFFFFFFFFFFFFFFFFFFFFFFFFFF MUL NOT AND SWAP1 DUP4 PUSH20 0xFFFFFFFFFFFFFFFFFFFFFFFFFFFFFFFFFFFFFFFF AND MUL OR SWAP1 SSTORE POP DUP2 PUSH1 0x1 PUSH1 0x0 PUSH2 0x100 EXP DUP2 SLOAD DUP2 PUSH20 0xFFFFFFFFFFFFFFFFFFFFFFFFFFFFFFFFFFFFFFFF MUL NOT AND SWAP1 DUP4 PUSH20 0xFFFFFFFFFFFFFFFFFFFFFFFFFFFFFFFFFFFFFFFF AND MUL OR SWAP1 SSTORE POP DUP1 PUSH1 0x2 PUSH1 0x0 PUSH2 0x100 EXP DUP2 SLOAD DUP2 PUSH20 0xFFFFFFFFFFFFFFFFFFFFFFFFFFFFFFFFFFFFFFFF MUL NOT AND SWAP1 DUP4 PUSH20 0xFFFFFFFFFFFFFFFFFFFFFFFFFFFFFFFFFFFFFFFF AND MUL OR SWAP1 SSTORE POP POP POP POP PUSH2 0x1B2 JUMP JUMPDEST PUSH1 0x0 DUP1 REVERT JUMPDEST PUSH1 0x0 PUSH20 0xFFFFFFFFFFFFFFFFFFFFFFFFFFFFFFFFFFFFFFFF DUP3 AND SWAP1 POP SWAP2 SWAP1 POP JUMP JUMPDEST PUSH1 0x0 PUSH2 0x12C DUP3 PUSH2 0x101 JUMP JUMPDEST SWAP1 POP SWAP2 SWAP1 POP JUMP JUMPDEST PUSH2 0x13C DUP2 PUSH2 0x121 JUMP JUMPDEST DUP2 EQ PUSH2 0x147 JUMPI PUSH1 0x0 DUP1 REVERT JUMPDEST POP JUMP JUMPDEST PUSH1 0x0 DUP2 MLOAD SWAP1 POP PUSH2 0x159 DUP2 PUSH2 0x133 JUMP JUMPDEST SWAP3 SWAP2 POP POP JUMP JUMPDEST PUSH1 0x0 DUP1 PUSH1 0x0 PUSH1 0x60 DUP5 DUP7 SUB SLT ISZERO PUSH2 0x178 JUMPI PUSH2 0x177 PUSH2 0xFC JUMP JUMPDEST JUMPDEST PUSH1 0x0 PUSH2 0x186 DUP7 DUP3 DUP8 ADD PUSH2 0x14A JUMP JUMPDEST SWAP4 POP POP PUSH1 0x20 PUSH2 0x197 DUP7 DUP3 DUP8 ADD PUSH2 0x14A JUMP JUMPDEST SWAP3 POP POP PUSH1 0x40 PUSH2 0x1A8 DUP7 DUP3 DUP8 ADD PUSH2 0x14A JUMP JUMPDEST SWAP2 POP POP SWAP3 POP SWAP3 POP SWAP3 JUMP JUMPDEST PUSH2 0x110E DUP1 PUSH2 0x1C1 PUSH1 0x0 CODECOPY PUSH1 0x0 RETURN INVALID PUSH1 0x80 PUSH1 0x40 MSTORE PUSH1 0x4 CALLDATASIZE LT PUSH2 0x95 JUMPI PUSH1 0x0 CALLDATALOAD PUSH1 0xE0 SHR DUP1 PUSH4 0x9ACE38C2 GT PUSH2 0x59 JUMPI DUP1 PUSH4 0x9ACE38C2 EQ PUSH2 0x176 JUMPI DUP1 PUSH4 0xA4EE77F3 EQ PUSH2 0x1B8 JUMPI DUP1 PUSH4 0xB77BF600 EQ PUSH2 0x1F7 JUMPI DUP1 PUSH4 0xEE22610B EQ PUSH2 0x222 JUMPI DUP1 PUSH4 0xF19A6682 EQ PUSH2 0x24B JUMPI PUSH2 0x9C JUMP JUMPDEST DUP1 PUSH4 0x12065FE0 EQ PUSH2 0xA1 JUMPI DUP1 PUSH4 0x242232D1 EQ PUSH2 0xCC JUMPI DUP1 PUSH4 0x34107282 EQ PUSH2 0xF5 JUMPI DUP1 PUSH4 0x38C0AC5F EQ PUSH2 0x120 JUMPI DUP1 PUSH4 0x3EEB92F6 EQ PUSH2 0x14B JUMPI PUSH2 0x9C JUMP JUMPDEST CALLDATASIZE PUSH2 0x9C JUMPI STOP JUMPDEST PUSH1 0x0 DUP1 REVERT JUMPDEST CALLVALUE DUP1 ISZERO PUSH2 0xAD JUMPI PUSH1 0x0 DUP1 REVERT JUMPDEST POP PUSH2 0xB6 PUSH2 0x274 JUMP JUMPDEST PUSH1 0x40 MLOAD PUSH2 0xC3 SWAP2 SWAP1 PUSH2 0xC06 JUMP JUMPDEST PUSH1 0x40 MLOAD DUP1 SWAP2 SUB SWAP1 RETURN JUMPDEST CALLVALUE DUP1 ISZERO PUSH2 0xD8 JUMPI PUSH1 0x0 DUP1 REVERT JUMPDEST POP PUSH2 0xF3 PUSH1 0x4 DUP1 CALLDATASIZE SUB DUP2 ADD SWAP1 PUSH2 0xEE SWAP2 SWAP1 PUSH2 0xC52 JUMP JUMPDEST PUSH2 0x27C JUMP JUMPDEST STOP JUMPDEST CALLVALUE DUP1 ISZERO PUSH2 0x101 JUMPI PUSH1 0x0 DUP1 REVERT JUMPDEST POP PUSH2 0x10A PUSH2 0x4C2 JUMP JUMPDEST PUSH1 0x40 MLOAD PUSH2 0x117 SWAP2 SWAP1 PUSH2 0xCC0 JUMP JUMPDEST PUSH1 0x40 MLOAD DUP1 SWAP2 SUB SWAP1 RETURN JUMPDEST CALLVALUE DUP1 ISZERO PUSH2 0x12C JUMPI PUSH1 0x0 DUP1 REVERT JUMPDEST POP PUSH2 0x135 PUSH2 0x4E6 JUMP JUMPDEST PUSH1 0x40 MLOAD PUSH2 0x142 SWAP2 SWAP1 PUSH2 0xCC0 JUMP JUMPDEST PUSH1 0x40 MLOAD DUP1 SWAP2 SUB SWAP1 RETURN JUMPDEST CALLVALUE DUP1 ISZERO PUSH2 0x157 JUMPI PUSH1 0x0 DUP1 REVERT JUMPDEST POP PUSH2 0x160 PUSH2 0x50C JUMP JUMPDEST PUSH1 0x40 MLOAD PUSH2 0x16D SWAP2 SWAP1 PUSH2 0xCC0 JUMP JUMPDEST PUSH1 0x40 MLOAD DUP1 SWAP2 SUB SWAP1 RETURN JUMPDEST CALLVALUE DUP1 ISZERO PUSH2 0x182 JUMPI PUSH1 0x0 DUP1 REVERT JUMPDEST POP PUSH2 0x19D PUSH1 0x4 DUP1 CALLDATASIZE SUB DUP2 ADD SWAP1 PUSH2 0x198 SWAP2 SWAP1 PUSH2 0xC52 JUMP JUMPDEST PUSH2 0x532 JUMP JUMPDEST PUSH1 0x40 MLOAD PUSH2 0x1AF SWAP7 SWAP6 SWAP5 SWAP4 SWAP3 SWAP2 SWAP1 PUSH2 0xCF6 JUMP JUMPDEST PUSH1 0x40 MLOAD DUP1 SWAP2 SUB SWAP1 RETURN JUMPDEST CALLVALUE DUP1 ISZERO PUSH2 0x1C4 JUMPI PUSH1 0x0 DUP1 REVERT JUMPDEST POP PUSH2 0x1DF PUSH1 0x4 DUP1 CALLDATASIZE SUB DUP2 ADD SWAP1 PUSH2 0x1DA SWAP2 SWAP1 PUSH2 0xC52 JUMP JUMPDEST PUSH2 0x5C2 JUMP JUMPDEST PUSH1 0x40 MLOAD PUSH2 0x1EE SWAP4 SWAP3 SWAP2 SWAP1 PUSH2 0xD57 JUMP JUMPDEST PUSH1 0x40 MLOAD DUP1 SWAP2 SUB SWAP1 RETURN JUMPDEST CALLVALUE DUP1 ISZERO PUSH2 0x203 JUMPI PUSH1 0x0 DUP1 REVERT JUMPDEST POP PUSH2 0x20C PUSH2 0x6D1 JUMP JUMPDEST PUSH1 0x40 MLOAD PUSH2 0x219 SWAP2 SWAP1 PUSH2 0xC06 JUMP JUMPDEST PUSH1 0x40 MLOAD DUP1 SWAP2 SUB SWAP1 RETURN JUMPDEST CALLVALUE DUP1 ISZERO PUSH2 0x22E JUMPI PUSH1 0x0 DUP1 REVERT JUMPDEST POP PUSH2 0x249 PUSH1 0x4 DUP1 CALLDATASIZE SUB DUP2 ADD SWAP1 PUSH2 0x244 SWAP2 SWAP1 PUSH2 0xC52 JUMP JUMPDEST PUSH2 0x6D7 JUMP JUMPDEST STOP JUMPDEST CALLVALUE DUP1 ISZERO PUSH2 0x257 JUMPI PUSH1 0x0 DUP1 REVERT JUMPDEST POP PUSH2 0x272 PUSH1 0x4 DUP1 CALLDATASIZE SUB DUP2 ADD SWAP1 PUSH2 0x26D SWAP2 SWAP1 PUSH2 0xDBA JUMP JUMPDEST PUSH2 0x91E JUMP JUMPDEST STOP JUMPDEST PUSH1 0x0 SELFBALANCE SWAP1 POP SWAP1 JUMP JUMPDEST PUSH1 0x0 PUSH1 0x4 PUSH1 0x0 DUP4 DUP2 MSTORE PUSH1 0x20 ADD SWAP1 DUP2 MSTORE PUSH1 0x20 ADD PUSH1 0x0 KECCAK256 SWAP1 POP DUP1 PUSH1 0x2 ADD PUSH1 0x3 SWAP1 SLOAD SWAP1 PUSH2 0x100 EXP SWAP1 DIV PUSH1 0xFF AND ISZERO PUSH2 0x2E5 JUMPI PUSH1 0x40 MLOAD PUSH32 0x8C379A000000000000000000000000000000000000000000000000000000000 DUP2 MSTORE PUSH1 0x4 ADD PUSH2 0x2DC SWAP1 PUSH2 0xE57 JUMP JUMPDEST PUSH1 0x40 MLOAD DUP1 SWAP2 SUB SWAP1 REVERT JUMPDEST PUSH1 0x0 DUP1 SLOAD SWAP1 PUSH2 0x100 EXP SWAP1 DIV PUSH20 0xFFFFFFFFFFFFFFFFFFFFFFFFFFFFFFFFFFFFFFFF AND PUSH20 0xFFFFFFFFFFFFFFFFFFFFFFFFFFFFFFFFFFFFFFFF AND CALLER PUSH20 0xFFFFFFFFFFFFFFFFFFFFFFFFFFFFFFFFFFFFFFFF AND SUB PUSH2 0x35A JUMPI PUSH1 0x1 DUP2 PUSH1 0x2 ADD PUSH1 0x0 PUSH2 0x100 EXP DUP2 SLOAD DUP2 PUSH1 0xFF MUL NOT AND SWAP1 DUP4 ISZERO ISZERO MUL OR SWAP1 SSTORE POP PUSH2 0x485 JUMP JUMPDEST PUSH1 0x1 PUSH1 0x0 SWAP1 SLOAD SWAP1 PUSH2 0x100 EXP SWAP1 DIV PUSH20 0xFFFFFFFFFFFFFFFFFFFFFFFFFFFFFFFFFFFFFFFF AND PUSH20 0xFFFFFFFFFFFFFFFFFFFFFFFFFFFFFFFFFFFFFFFF AND CALLER PUSH20 0xFFFFFFFFFFFFFFFFFFFFFFFFFFFFFFFFFFFFFFFF AND SUB PUSH2 0x3D1 JUMPI PUSH1 0x1 DUP2 PUSH1 0x2 ADD PUSH1 0x1 PUSH2 0x100 EXP DUP2 SLOAD DUP2 PUSH1 0xFF MUL NOT AND SWAP1 DUP4 ISZERO ISZERO MUL OR SWAP1 SSTORE POP PUSH2 0x484 JUMP JUMPDEST PUSH1 0x2 PUSH1 0x0 SWAP1 SLOAD SWAP1 PUSH2 0x100 EXP SWAP1 DIV PUSH20 0xFFFFFFFFFFFFFFFFFFFFFFFFFFFFFFFFFFFFFFFF AND PUSH20 0xFFFFFFFFFFFFFFFFFFFFFFFFFFFFFFFFFFFFFFFF AND CALLER PUSH20 0xFFFFFFFFFFFFFFFFFFFFFFFFFFFFFFFFFFFFFFFF AND SUB PUSH2 0x448 JUMPI PUSH1 0x1 DUP2 PUSH1 0x2 ADD PUSH1 0x2 PUSH2 0x100 EXP DUP2 SLOAD DUP2 PUSH1 0xFF MUL NOT AND SWAP1 DUP4 ISZERO ISZERO MUL OR SWAP1 SSTORE POP PUSH2 0x483 JUMP JUMPDEST PUSH1 0x40 MLOAD PUSH32 0x8C379A000000000000000000000000000000000000000000000000000000000 DUP2 MSTORE PUSH1 0x4 ADD PUSH2 0x47A SWAP1 PUSH2 0xEC3 JUMP JUMPDEST PUSH1 0x40 MLOAD DUP1 SWAP2 SUB SWAP1 REVERT JUMPDEST JUMPDEST JUMPDEST PUSH32 0x924813D717E221B5F46DCD8A56DA1679E4612584AB3237D55E5FAABF6F6A3079 DUP3 CALLER PUSH1 0x40 MLOAD PUSH2 0x4B6 SWAP3 SWAP2 SWAP1 PUSH2 0xEE3 JUMP JUMPDEST PUSH1 0x40 MLOAD DUP1 SWAP2 SUB SWAP1 LOG1 POP POP JUMP JUMPDEST PUSH1 0x0 DUP1 SLOAD SWAP1 PUSH2 0x100 EXP SWAP1 DIV PUSH20 0xFFFFFFFFFFFFFFFFFFFFFFFFFFFFFFFFFFFFFFFF AND DUP2 JUMP JUMPDEST PUSH1 0x1 PUSH1 0x0 SWAP1 SLOAD SWAP1 PUSH2 0x100 EXP SWAP1 DIV PUSH20 0xFFFFFFFFFFFFFFFFFFFFFFFFFFFFFFFFFFFFFFFF AND DUP2 JUMP JUMPDEST PUSH1 0x2 PUSH1 0x0 SWAP1 SLOAD SWAP1 PUSH2 0x100 EXP SWAP1 DIV PUSH20 0xFFFFFFFFFFFFFFFFFFFFFFFFFFFFFFFFFFFFFFFF AND DUP2 JUMP JUMPDEST PUSH1 0x4 PUSH1 0x20 MSTORE DUP1 PUSH1 0x0 MSTORE PUSH1 0x40 PUSH1 0x0 KECCAK256 PUSH1 0x0 SWAP2 POP SWAP1 POP DUP1 PUSH1 0x0 ADD PUSH1 0x0 SWAP1 SLOAD SWAP1 PUSH2 0x100 EXP SWAP1 DIV PUSH20 0xFFFFFFFFFFFFFFFFFFFFFFFFFFFFFFFFFFFFFFFF AND SWAP1 DUP1 PUSH1 0x1 ADD SLOAD SWAP1 DUP1 PUSH1 0x2 ADD PUSH1 0x0 SWAP1 SLOAD SWAP1 PUSH2 0x100 EXP SWAP1 DIV PUSH1 0xFF AND SWAP1 DUP1 PUSH1 0x2 ADD PUSH1 0x1 SWAP1 SLOAD SWAP1 PUSH2 0x100 EXP SWAP1 DIV PUSH1 0xFF AND SWAP1 DUP1 PUSH1 0x2 ADD PUSH1 0x2 SWAP1 SLOAD SWAP1 PUSH2 0x100 EXP SWAP1 DIV PUSH1 0xFF AND SWAP1 DUP1 PUSH1 0x2 ADD PUSH1 0x3 SWAP1 SLOAD SWAP1 PUSH2 0x100 EXP SWAP1 DIV PUSH1 0xFF AND SWAP1 POP DUP7 JUMP JUMPDEST PUSH1 0x0 DUP1 PUSH1 0x0 DUP1 PUSH1 0x4 PUSH1 0x0 DUP7 DUP2 MSTORE PUSH1 0x20 ADD SWAP1 DUP2 MSTORE PUSH1 0x20 ADD PUSH1 0x0 KECCAK256 PUSH1 0x40 MLOAD DUP1 PUSH1 0xC0 ADD PUSH1 0x40 MSTORE SWAP1 DUP2 PUSH1 0x0 DUP3 ADD PUSH1 0x0 SWAP1 SLOAD SWAP1 PUSH2 0x100 EXP SWAP1 DIV PUSH20 0xFFFFFFFFFFFFFFFFFFFFFFFFFFFFFFFFFFFFFFFF AND PUSH20 0xFFFFFFFFFFFFFFFFFFFFFFFFFFFFFFFFFFFFFFFF AND PUSH20 0xFFFFFFFFFFFFFFFFFFFFFFFFFFFFFFFFFFFFFFFF AND DUP2 MSTORE PUSH1 0x20 ADD PUSH1 0x1 DUP3 ADD SLOAD DUP2 MSTORE PUSH1 0x20 ADD PUSH1 0x2 DUP3 ADD PUSH1 0x0 SWAP1 SLOAD SWAP1 PUSH2 0x100 EXP SWAP1 DIV PUSH1 0xFF AND ISZERO ISZERO ISZERO ISZERO DUP2 MSTORE PUSH1 0x20 ADD PUSH1 0x2 DUP3 ADD PUSH1 0x1 SWAP1 SLOAD SWAP1 PUSH2 0x100 EXP SWAP1 DIV PUSH1 0xFF AND ISZERO ISZERO ISZERO ISZERO DUP2 MSTORE PUSH1 0x20 ADD PUSH1 0x2 DUP3 ADD PUSH1 0x2 SWAP1 SLOAD SWAP1 PUSH2 0x100 EXP SWAP1 DIV PUSH1 0xFF AND ISZERO ISZERO ISZERO ISZERO DUP2 MSTORE PUSH1 0x20 ADD PUSH1 0x2 DUP3 ADD PUSH1 0x3 SWAP1 SLOAD SWAP1 PUSH2 0x100 EXP SWAP1 DIV PUSH1 0xFF AND ISZERO ISZERO ISZERO ISZERO DUP2 MSTORE POP POP SWAP1 POP DUP1 PUSH1 0x40 ADD MLOAD DUP2 PUSH1 0x60 ADD MLOAD DUP3 PUSH1 0x80 ADD MLOAD SWAP4 POP SWAP4 POP SWAP4 POP POP SWAP2 SWAP4 SWAP1 SWAP3 POP JUMP JUMPDEST PUSH1 0x3 SLOAD DUP2 JUMP JUMPDEST PUSH1 0x0 PUSH1 0x4 PUSH1 0x0 DUP4 DUP2 MSTORE PUSH1 0x20 ADD SWAP1 DUP2 MSTORE PUSH1 0x20 ADD PUSH1 0x0 KECCAK256 SWAP1 POP DUP1 PUSH1 0x2 ADD PUSH1 0x3 SWAP1 SLOAD SWAP1 PUSH2 0x100 EXP SWAP1 DIV PUSH1 0xFF AND ISZERO PUSH2 0x740 JUMPI PUSH1 0x40 MLOAD PUSH32 0x8C379A000000000000000000000000000000000000000000000000000000000 DUP2 MSTORE PUSH1 0x4 ADD PUSH2 0x737 SWAP1 PUSH2 0xE57 JUMP JUMPDEST PUSH1 0x40 MLOAD DUP1 SWAP2 SUB SWAP1 REVERT JUMPDEST DUP1 PUSH1 0x2 ADD PUSH1 0x0 SWAP1 SLOAD SWAP1 PUSH2 0x100 EXP SWAP1 DIV PUSH1 0xFF AND DUP1 ISZERO PUSH2 0x76C JUMPI POP DUP1 PUSH1 0x2 ADD PUSH1 0x1 SWAP1 SLOAD SWAP1 PUSH2 0x100 EXP SWAP1 DIV PUSH1 0xFF AND JUMPDEST DUP1 ISZERO PUSH2 0x786 JUMPI POP DUP1 PUSH1 0x2 ADD PUSH1 0x2 SWAP1 SLOAD SWAP1 PUSH2 0x100 EXP SWAP1 DIV PUSH1 0xFF AND JUMPDEST PUSH2 0x7C5 JUMPI PUSH1 0x40 MLOAD PUSH32 0x8C379A000000000000000000000000000000000000000000000000000000000 DUP2 MSTORE PUSH1 0x4 ADD PUSH2 0x7BC SWAP1 PUSH2 0xF58 JUMP JUMPDEST PUSH1 0x40 MLOAD DUP1 SWAP2 SUB SWAP1 REVERT JUMPDEST PUSH1 0x1 DUP2 PUSH1 0x2 ADD PUSH1 0x3 PUSH2 0x100 EXP DUP2 SLOAD DUP2 PUSH1 0xFF MUL NOT AND SWAP1 DUP4 ISZERO ISZERO MUL OR SWAP1 SSTORE POP PUSH1 0x0 DUP2 PUSH1 0x0 ADD PUSH1 0x0 SWAP1 SLOAD SWAP1 PUSH2 0x100 EXP SWAP1 DIV PUSH20 0xFFFFFFFFFFFFFFFFFFFFFFFFFFFFFFFFFFFFFFFF AND PUSH20 0xFFFFFFFFFFFFFFFFFFFFFFFFFFFFFFFFFFFFFFFF AND DUP3 PUSH1 0x1 ADD SLOAD PUSH1 0x40 MLOAD PUSH2 0x830 SWAP1 PUSH2 0xFA9 JUMP JUMPDEST PUSH1 0x0 PUSH1 0x40 MLOAD DUP1 DUP4 SUB DUP2 DUP6 DUP8 GAS CALL SWAP3 POP POP POP RETURNDATASIZE DUP1 PUSH1 0x0 DUP2 EQ PUSH2 0x86D JUMPI PUSH1 0x40 MLOAD SWAP2 POP PUSH1 0x1F NOT PUSH1 0x3F RETURNDATASIZE ADD AND DUP3 ADD PUSH1 0x40 MSTORE RETURNDATASIZE DUP3 MSTORE RETURNDATASIZE PUSH1 0x0 PUSH1 0x20 DUP5 ADD RETURNDATACOPY PUSH2 0x872 JUMP JUMPDEST PUSH1 0x60 SWAP2 POP JUMPDEST POP POP SWAP1 POP DUP1 PUSH2 0x8B6 JUMPI PUSH1 0x40 MLOAD PUSH32 0x8C379A000000000000000000000000000000000000000000000000000000000 DUP2 MSTORE PUSH1 0x4 ADD PUSH2 0x8AD SWAP1 PUSH2 0x100A JUMP JUMPDEST PUSH1 0x40 MLOAD DUP1 SWAP2 SUB SWAP1 REVERT JUMPDEST PUSH32 0xDA19024F6708CE28E75D9C0EC389FB05A8E5CC9DFE520F61239C10D51A11E59C DUP4 DUP4 PUSH1 0x0 ADD PUSH1 0x0 SWAP1 SLOAD SWAP1 PUSH2 0x100 EXP SWAP1 DIV PUSH20 0xFFFFFFFFFFFFFFFFFFFFFFFFFFFFFFFFFFFFFFFF AND DUP5 PUSH1 0x1 ADD SLOAD PUSH1 0x40 MLOAD PUSH2 0x911 SWAP4 SWAP3 SWAP2 SWAP1 PUSH2 0x102A JUMP JUMPDEST PUSH1 0x40 MLOAD DUP1 SWAP2 SUB SWAP1 LOG1 POP POP POP JUMP JUMPDEST PUSH1 0x0 DUP1 SLOAD SWAP1 PUSH2 0x100 EXP SWAP1 DIV PUSH20 0xFFFFFFFFFFFFFFFFFFFFFFFFFFFFFFFFFFFFFFFF AND PUSH20 0xFFFFFFFFFFFFFFFFFFFFFFFFFFFFFFFFFFFFFFFF AND CALLER PUSH20 0xFFFFFFFFFFFFFFFFFFFFFFFFFFFFFFFFFFFFFFFF AND EQ DUP1 PUSH2 0x9C5 JUMPI POP PUSH1 0x1 PUSH1 0x0 SWAP1 SLOAD SWAP1 PUSH2 0x100 EXP SWAP1 DIV PUSH20 0xFFFFFFFFFFFFFFFFFFFFFFFFFFFFFFFFFFFFFFFF AND PUSH20 0xFFFFFFFFFFFFFFFFFFFFFFFFFFFFFFFFFFFFFFFF AND CALLER PUSH20 0xFFFFFFFFFFFFFFFFFFFFFFFFFFFFFFFFFFFFFFFF AND EQ JUMPDEST DUP1 PUSH2 0xA1D JUMPI POP PUSH1 0x2 PUSH1 0x0 SWAP1 SLOAD SWAP1 PUSH2 0x100 EXP SWAP1 DIV PUSH20 0xFFFFFFFFFFFFFFFFFFFFFFFFFFFFFFFFFFFFFFFF AND PUSH20 0xFFFFFFFFFFFFFFFFFFFFFFFFFFFFFFFFFFFFFFFF AND CALLER PUSH20 0xFFFFFFFFFFFFFFFFFFFFFFFFFFFFFFFFFFFFFFFF AND EQ JUMPDEST PUSH2 0xA5C JUMPI PUSH1 0x40 MLOAD PUSH32 0x8C379A000000000000000000000000000000000000000000000000000000000 DUP2 MSTORE PUSH1 0x4 ADD PUSH2 0xA53 SWAP1 PUSH2 0xEC3 JUMP JUMPDEST PUSH1 0x40 MLOAD DUP1 SWAP2 SUB SWAP1 REVERT JUMPDEST PUSH1 0x40 MLOAD DUP1 PUSH1 0xC0 ADD PUSH1 0x40 MSTORE DUP1 DUP4 PUSH20 0xFFFFFFFFFFFFFFFFFFFFFFFFFFFFFFFFFFFFFFFF AND DUP2 MSTORE PUSH1 0x20 ADD DUP3 DUP2 MSTORE PUSH1 0x20 ADD PUSH1 0x0 ISZERO ISZERO DUP2 MSTORE PUSH1 0x20 ADD PUSH1 0x0 ISZERO ISZERO DUP2 MSTORE PUSH1 0x20 ADD PUSH1 0x0 ISZERO ISZERO DUP2 MSTORE PUSH1 0x20 ADD PUSH1 0x0 ISZERO ISZERO DUP2 MSTORE POP PUSH1 0x4 PUSH1 0x0 PUSH1 0x3 SLOAD DUP2 MSTORE PUSH1 0x20 ADD SWAP1 DUP2 MSTORE PUSH1 0x20 ADD PUSH1 0x0 KECCAK256 PUSH1 0x0 DUP3 ADD MLOAD DUP2 PUSH1 0x0 ADD PUSH1 0x0 PUSH2 0x100 EXP DUP2 SLOAD DUP2 PUSH20 0xFFFFFFFFFFFFFFFFFFFFFFFFFFFFFFFFFFFFFFFF MUL NOT AND SWAP1 DUP4 PUSH20 0xFFFFFFFFFFFFFFFFFFFFFFFFFFFFFFFFFFFFFFFF AND MUL OR SWAP1 SSTORE POP PUSH1 0x20 DUP3 ADD MLOAD DUP2 PUSH1 0x1 ADD SSTORE PUSH1 0x40 DUP3 ADD MLOAD DUP2 PUSH1 0x2 ADD PUSH1 0x0 PUSH2 0x100 EXP DUP2 SLOAD DUP2 PUSH1 0xFF MUL NOT AND SWAP1 DUP4 ISZERO ISZERO MUL OR SWAP1 SSTORE POP PUSH1 0x60 DUP3 ADD MLOAD DUP2 PUSH1 0x2 ADD PUSH1 0x1 PUSH2 0x100 EXP DUP2 SLOAD DUP2 PUSH1 0xFF MUL NOT AND SWAP1 DUP4 ISZERO ISZERO MUL OR SWAP1 SSTORE POP PUSH1 0x80 DUP3 ADD MLOAD DUP2 PUSH1 0x2 ADD PUSH1 0x2 PUSH2 0x100 EXP DUP2 SLOAD DUP2 PUSH1 0xFF MUL NOT AND SWAP1 DUP4 ISZERO ISZERO MUL OR SWAP1 SSTORE POP PUSH1 0xA0 DUP3 ADD MLOAD DUP2 PUSH1 0x2 ADD PUSH1 0x3 PUSH2 0x100 EXP DUP2 SLOAD DUP2 PUSH1 0xFF MUL NOT AND SWAP1 DUP4 ISZERO ISZERO MUL OR SWAP1 SSTORE POP SWAP1 POP POP PUSH32 0x34C1492F2B30AAC2446B0B2DE2E32501FF4742F7196DB5ED9E0DDD6B7D7B25CF PUSH1 0x3 SLOAD DUP4 DUP4 PUSH1 0x40 MLOAD PUSH2 0xBC9 SWAP4 SWAP3 SWAP2 SWAP1 PUSH2 0x102A JUMP JUMPDEST PUSH1 0x40 MLOAD DUP1 SWAP2 SUB SWAP1 LOG1 PUSH1 0x3 PUSH1 0x0 DUP2 SLOAD DUP1 SWAP3 SWAP2 SWAP1 PUSH2 0xBE4 SWAP1 PUSH2 0x1090 JUMP JUMPDEST SWAP2 SWAP1 POP SSTORE POP POP POP JUMP JUMPDEST PUSH1 0x0 DUP2 SWAP1 POP SWAP2 SWAP1 POP JUMP JUMPDEST PUSH2 0xC00 DUP2 PUSH2 0xBED JUMP JUMPDEST DUP3 MSTORE POP POP JUMP JUMPDEST PUSH1 0x0 PUSH1 0x20 DUP3 ADD SWAP1 POP PUSH2 0xC1B PUSH1 0x0 DUP4 ADD DUP5 PUSH2 0xBF7 JUMP JUMPDEST SWAP3 SWAP2 POP POP JUMP JUMPDEST PUSH1 0x0 DUP1 REVERT JUMPDEST PUSH2 0xC2F DUP2 PUSH2 0xBED JUMP JUMPDEST DUP2 EQ PUSH2 0xC3A JUMPI PUSH1 0x0 DUP1 REVERT JUMPDEST POP JUMP JUMPDEST PUSH1 0x0 DUP2 CALLDATALOAD SWAP1 POP PUSH2 0xC4C DUP2 PUSH2 0xC26 JUMP JUMPDEST SWAP3 SWAP2 POP POP JUMP JUMPDEST PUSH1 0x0 PUSH1 0x20 DUP3 DUP5 SUB SLT ISZERO PUSH2 0xC68 JUMPI PUSH2 0xC67 PUSH2 0xC21 JUMP JUMPDEST JUMPDEST PUSH1 0x0 PUSH2 0xC76 DUP5 DUP3 DUP6 ADD PUSH2 0xC3D JUMP JUMPDEST SWAP2 POP POP SWAP3 SWAP2 POP POP JUMP JUMPDEST PUSH1 0x0 PUSH20 0xFFFFFFFFFFFFFFFFFFFFFFFFFFFFFFFFFFFFFFFF DUP3 AND SWAP1 POP SWAP2 SWAP1 POP JUMP JUMPDEST PUSH1 0x0 PUSH2 0xCAA DUP3 PUSH2 0xC7F JUMP JUMPDEST SWAP1 POP SWAP2 SWAP1 POP JUMP JUMPDEST PUSH2 0xCBA DUP2 PUSH2 0xC9F JUMP JUMPDEST DUP3 MSTORE POP POP JUMP JUMPDEST PUSH1 0x0 PUSH1 0x20 DUP3 ADD SWAP1 POP PUSH2 0xCD5 PUSH1 0x0 DUP4 ADD DUP5 PUSH2 0xCB1 JUMP JUMPDEST SWAP3 SWAP2 POP POP JUMP JUMPDEST PUSH1 0x0 DUP2 ISZERO ISZERO SWAP1 POP SWAP2 SWAP1 POP JUMP JUMPDEST PUSH2 0xCF0 DUP2 PUSH2 0xCDB JUMP JUMPDEST DUP3 MSTORE POP POP JUMP JUMPDEST PUSH1 0x0 PUSH1 0xC0 DUP3 ADD SWAP1 POP PUSH2 0xD0B PUSH1 0x0 DUP4 ADD DUP10 PUSH2 0xCB1 JUMP JUMPDEST PUSH2 0xD18 PUSH1 0x20 DUP4 ADD DUP9 PUSH2 0xBF7 JUMP JUMPDEST PUSH2 0xD25 PUSH1 0x40 DUP4 ADD DUP8 PUSH2 0xCE7 JUMP JUMPDEST PUSH2 0xD32 PUSH1 0x60 DUP4 ADD DUP7 PUSH2 0xCE7 JUMP JUMPDEST PUSH2 0xD3F PUSH1 0x80 DUP4 ADD DUP6 PUSH2 0xCE7 JUMP JUMPDEST PUSH2 0xD4C PUSH1 0xA0 DUP4 ADD DUP5 PUSH2 0xCE7 JUMP JUMPDEST SWAP8 SWAP7 POP POP POP POP POP POP POP JUMP JUMPDEST PUSH1 0x0 PUSH1 0x60 DUP3 ADD SWAP1 POP PUSH2 0xD6C PUSH1 0x0 DUP4 ADD DUP7 PUSH2 0xCE7 JUMP JUMPDEST PUSH2 0xD79 PUSH1 0x20 DUP4 ADD DUP6 PUSH2 0xCE7 JUMP JUMPDEST PUSH2 0xD86 PUSH1 0x40 DUP4 ADD DUP5 PUSH2 0xCE7 JUMP JUMPDEST SWAP5 SWAP4 POP POP POP POP JUMP JUMPDEST PUSH2 0xD97 DUP2 PUSH2 0xC9F JUMP JUMPDEST DUP2 EQ PUSH2 0xDA2 JUMPI PUSH1 0x0 DUP1 REVERT JUMPDEST POP JUMP JUMPDEST PUSH1 0x0 DUP2 CALLDATALOAD SWAP1 POP PUSH2 0xDB4 DUP2 PUSH2 0xD8E JUMP JUMPDEST SWAP3 SWAP2 POP POP JUMP JUMPDEST PUSH1 0x0 DUP1 PUSH1 0x40 DUP4 DUP6 SUB SLT ISZERO PUSH2 0xDD1 JUMPI PUSH2 0xDD0 PUSH2 0xC21 JUMP JUMPDEST JUMPDEST PUSH1 0x0 PUSH2 0xDDF DUP6 DUP3 DUP7 ADD PUSH2 0xDA5 JUMP JUMPDEST SWAP3 POP POP PUSH1 0x20 PUSH2 0xDF0 DUP6 DUP3 DUP7 ADD PUSH2 0xC3D JUMP JUMPDEST SWAP2 POP POP SWAP3 POP SWAP3 SWAP1 POP JUMP JUMPDEST PUSH1 0x0 DUP3 DUP3 MSTORE PUSH1 0x20 DUP3 ADD SWAP1 POP SWAP3 SWAP2 POP POP JUMP JUMPDEST PUSH32 0x5472616E73616374696F6E20616C726561647920657865637574656400000000 PUSH1 0x0 DUP3 ADD MSTORE POP JUMP JUMPDEST PUSH1 0x0 PUSH2 0xE41 PUSH1 0x1C DUP4 PUSH2 0xDFA JUMP JUMPDEST SWAP2 POP PUSH2 0xE4C DUP3 PUSH2 0xE0B JUMP JUMPDEST PUSH1 0x20 DUP3 ADD SWAP1 POP SWAP2 SWAP1 POP JUMP JUMPDEST PUSH1 0x0 PUSH1 0x20 DUP3 ADD SWAP1 POP DUP2 DUP2 SUB PUSH1 0x0 DUP4 ADD MSTORE PUSH2 0xE70 DUP2 PUSH2 0xE34 JUMP JUMPDEST SWAP1 POP SWAP2 SWAP1 POP JUMP JUMPDEST PUSH32 0x4E6F742061207369676E65720000000000000000000000000000000000000000 PUSH1 0x0 DUP3 ADD MSTORE POP JUMP JUMPDEST PUSH1 0x0 PUSH2 0xEAD PUSH1 0xC DUP4 PUSH2 0xDFA JUMP JUMPDEST SWAP2 POP PUSH2 0xEB8 DUP3 PUSH2 0xE77 JUMP JUMPDEST PUSH1 0x20 DUP3 ADD SWAP1 POP SWAP2 SWAP1 POP JUMP JUMPDEST PUSH1 0x0 PUSH1 0x20 DUP3 ADD SWAP1 POP DUP2 DUP2 SUB PUSH1 0x0 DUP4 ADD MSTORE PUSH2 0xEDC DUP2 PUSH2 0xEA0 JUMP JUMPDEST SWAP1 POP SWAP2 SWAP1 POP JUMP JUMPDEST PUSH1 0x0 PUSH1 0x40 DUP3 ADD SWAP1 POP PUSH2 0xEF8 PUSH1 0x0 DUP4 ADD DUP6 PUSH2 0xBF7 JUMP JUMPDEST PUSH2 0xF05 PUSH1 0x20 DUP4 ADD DUP5 PUSH2 0xCB1 JUMP JUMPDEST SWAP4 SWAP3 POP POP POP JUMP JUMPDEST PUSH32 0x4E65656420616C6C203320617070726F76616C73000000000000000000000000 PUSH1 0x0 DUP3 ADD MSTORE POP JUMP JUMPDEST PUSH1 0x0 PUSH2 0xF42 PUSH1 0x14 DUP4 PUSH2 0xDFA JUMP JUMPDEST SWAP2 POP PUSH2 0xF4D DUP3 PUSH2 0xF0C JUMP JUMPDEST PUSH1 0x20 DUP3 ADD SWAP1 POP SWAP2 SWAP1 POP JUMP JUMPDEST PUSH1 0x0 PUSH1 0x20 DUP3 ADD SWAP1 POP DUP2 DUP2 SUB PUSH1 0x0 DUP4 ADD MSTORE PUSH2 0xF71 DUP2 PUSH2 0xF35 JUMP JUMPDEST SWAP1 POP SWAP2 SWAP1 POP JUMP JUMPDEST PUSH1 0x0 DUP2 SWAP1 POP SWAP3 SWAP2 POP POP JUMP JUMPDEST POP JUMP JUMPDEST PUSH1 0x0 PUSH2 0xF93 PUSH1 0x0 DUP4 PUSH2 0xF78 JUMP JUMPDEST SWAP2 POP PUSH2 0xF9E DUP3 PUSH2 0xF83 JUMP JUMPDEST PUSH1 0x0 DUP3 ADD SWAP1 POP SWAP2 SWAP1 POP JUMP JUMPDEST PUSH1 0x0 PUSH2 0xFB4 DUP3 PUSH2 0xF86 JUMP JUMPDEST SWAP2 POP DUP2 SWAP1 POP SWAP2 SWAP1 POP JUMP JUMPDEST PUSH32 0x5472616E73666572206661696C65640000000000000000000000000000000000 PUSH1 0x0 DUP3 ADD MSTORE POP JUMP JUMPDEST PUSH1 0x0 PUSH2 0xFF4 PUSH1 0xF DUP4 PUSH2 0xDFA JUMP JUMPDEST SWAP2 POP PUSH2 0xFFF DUP3 PUSH2 0xFBE JUMP JUMPDEST PUSH1 0x20 DUP3 ADD SWAP1 POP SWAP2 SWAP1 POP JUMP JUMPDEST PUSH1 0x0 PUSH1 0x20 DUP3 ADD SWAP1 POP DUP2 DUP2 SUB PUSH1 0x0 DUP4 ADD MSTORE PUSH2 0x1023 DUP2 PUSH2 0xFE7 JUMP JUMPDEST SWAP1 POP SWAP2 SWAP1 POP JUMP JUMPDEST PUSH1 0x0 PUSH1 0x60 DUP3 ADD SWAP1 POP PUSH2 0x103F PUSH1 0x0 DUP4 ADD DUP7 PUSH2 0xBF7 JUMP JUMPDEST PUSH2 0x104C PUSH1 0x20 DUP4 ADD DUP6 PUSH2 0xCB1 JUMP JUMPDEST PUSH2 0x1059 PUSH1 0x40 DUP4 ADD DUP5 PUSH2 0xBF7 JUMP JUMPDEST SWAP5 SWAP4 POP POP POP POP JUMP JUMPDEST PUSH32 0x4E487B7100000000000000000000000000000000000000000000000000000000 PUSH1 0x0 MSTORE PUSH1 0x11 PUSH1 0x4 MSTORE PUSH1 0x24 PUSH1 0x0 REVERT JUMPDEST PUSH1 0x0 PUSH2 0x109B DUP3 PUSH2 0xBED JUMP JUMPDEST SWAP2 POP PUSH32 0xFFFFFFFFFFFFFFFFFFFFFFFFFFFFFFFFFFFFFFFFFFFFFFFFFFFFFFFFFFFFFFFF DUP3 SUB PUSH2 0x10CD JUMPI PUSH2 0x10CC PUSH2 0x1061 JUMP JUMPDEST JUMPDEST PUSH1 0x1 DUP3 ADD SWAP1 POP SWAP2 SWAP1 POP JUMP INVALID LOG2 PUSH5 0x6970667358 0x22 SLT KECCAK256 SWAP14 DUP16 DELEGATECALL XOR 0xCA CALLDATASIZE BALANCE 0xC9 SWAP1 0xB6 SWAP2 LOG2 PUSH20 0x974090887962480F5B0E999E914466E1FF95DB64 PUSH20 0x6F6C634300081C0033A2646970667358221220E2 SWAP4 PUSH22 0x6CFD4089CE688BD9938FCC3FE8FF0B8F0461455DAA3E EXP SWAP7 ADDRESS 0xB6 ADD 0xB8 SWAP14 PUSH5 0x736F6C6343 STOP ADDMOD SHR STOP CALLER "},"methodIdentifiers":{"createMultisig(address,address,address)":"f6847e93","deployedMultisigs(uint256)":"9a69f31b","getDeployedMultisigs()":"91efde0d","getMultisigByIndex(uint256)":"6cceb00f","getMultisigCount()":"b71d815d"}}}}}