{"abi":[{"type":"constructor","inputs":[{"name":"_permit2","type":"address","internalType":"address"},{"name":"_uniswapRouter","type":"address","internalType":"address"}],"stateMutability":"nonpayable"},{"type":"function","name":"permit2","inputs":[],"outputs":[{"name":"","type":"address","internalType":"contract ISignatureTransfer"}],"stateMutability":"view"},{"type":"function","name":"permitAndSwap","inputs":[{"name":"permit","type":"tuple","internalType":"struct ISignatureTransfer.PermitTransferFrom","components":[{"name":"permitted","type":"tuple","internalType":"struct ISignatureTransfer.TokenPermissions","components":[{"name":"token","type":"address","internalType":"address"},{"name":"amount","type":"uint256","internalType":"uint256"}]},{"name":"nonce","type":"uint256","internalType":"uint256"},{"name":"deadline","type":"uint256","internalType":"uint256"}]},{"name":"signature","type":"bytes","internalType":"bytes"},{"name":"path","type":"address[]","internalType":"address[]"},{"name":"amountOutMin","type":"uint256","internalType":"uint256"},{"name":"to","type":"address","internalType":"address"},{"name":"deadline","type":"uint256","internalType":"uint256"}],"outputs":[],"stateMutability":"nonpayable"},{"type":"function","name":"uniswapRouter","inputs":[],"outputs":[{"name":"","type":"address","internalType":"contract IUniswapV2Router02"}],"stateMutability":"view"}],"bytecode":{"object":"0x608060405234801561000f575f5ffd5b50604051610ce7380380610ce783398181016040528101906100319190610115565b815f5f6101000a81548173ffffffffffffffffffffffffffffffffffffffff021916908373ffffffffffffffffffffffffffffffffffffffff1602179055508060015f6101000a81548173ffffffffffffffffffffffffffffffffffffffff021916908373ffffffffffffffffffffffffffffffffffffffff1602179055505050610153565b5f5ffd5b5f73ffffffffffffffffffffffffffffffffffffffff82169050919050565b5f6100e4826100bb565b9050919050565b6100f4816100da565b81146100fe575f5ffd5b50565b5f8151905061010f816100eb565b92915050565b5f5f6040838503121561012b5761012a6100b7565b5b5f61013885828601610101565b925050602061014985828601610101565b9150509250929050565b610b87806101605f395ff3fe608060405234801561000f575f5ffd5b506004361061003f575f3560e01c806312261ee714610043578063735de9f714610061578063a6867bb01461007f575b5f5ffd5b61004b61009b565b604051610058919061039e565b60405180910390f35b6100696100bf565b60405161007691906103d7565b60405180910390f35b61009960048036038101906100949190610547565b6100e4565b005b5f5f9054906101000a900473ffffffffffffffffffffffffffffffffffffffff1681565b60015f9054906101000a900473ffffffffffffffffffffffffffffffffffffffff1681565b5f5f9054906101000a900473ffffffffffffffffffffffffffffffffffffffff1673ffffffffffffffffffffffffffffffffffffffff166330f28b7a8960405180604001604052803073ffffffffffffffffffffffffffffffffffffffff1681526020018c5f0160200135815250338b8b6040518663ffffffff1660e01b8152600401610175959493929190610792565b5f604051808303815f87803b15801561018c575f5ffd5b505af115801561019e573d5f5f3e3d5ffd5b5050505084845f8181106101b5576101b46107df565b5b90506020020160208101906101ca919061080c565b73ffffffffffffffffffffffffffffffffffffffff1663095ea7b360015f9054906101000a900473ffffffffffffffffffffffffffffffffffffffff168a5f01602001356040518363ffffffff1660e01b815260040161022b929190610846565b6020604051808303815f875af1158015610247573d5f5f3e3d5ffd5b505050506040513d601f19601f8201168201806040525081019061026b91906108a2565b5060015f9054906101000a900473ffffffffffffffffffffffffffffffffffffffff1673ffffffffffffffffffffffffffffffffffffffff166338ed1739895f016020013585888887876040518763ffffffff1660e01b81526004016102d696959493929190610964565b5f604051808303815f875af11580156102f1573d5f5f3e3d5ffd5b505050506040513d5f823e3d601f19601f820116820180604052508101906103199190610b0a565b505050505050505050565b5f73ffffffffffffffffffffffffffffffffffffffff82169050919050565b5f819050919050565b5f61036661036161035c84610324565b610343565b610324565b9050919050565b5f6103778261034c565b9050919050565b5f6103888261036d565b9050919050565b6103988161037e565b82525050565b5f6020820190506103b15f83018461038f565b92915050565b5f6103c18261036d565b9050919050565b6103d1816103b7565b82525050565b5f6020820190506103ea5f8301846103c8565b92915050565b5f604051905090565b5f5ffd5b5f5ffd5b5f5ffd5b5f6080828403121561041a57610419610401565b5b81905092915050565b5f5ffd5b5f5ffd5b5f5ffd5b5f5f83601f84011261044457610443610423565b5b8235905067ffffffffffffffff81111561046157610460610427565b5b60208301915083600182028301111561047d5761047c61042b565b5b9250929050565b5f5f83601f84011261049957610498610423565b5b8235905067ffffffffffffffff8111156104b6576104b5610427565b5b6020830191508360208202830111156104d2576104d161042b565b5b9250929050565b5f819050919050565b6104eb816104d9565b81146104f5575f5ffd5b50565b5f81359050610506816104e2565b92915050565b5f61051682610324565b9050919050565b6105268161050c565b8114610530575f5ffd5b50565b5f813590506105418161051d565b92915050565b5f5f5f5f5f5f5f5f610120898b031215610564576105636103f9565b5b5f6105718b828c01610405565b985050608089013567ffffffffffffffff811115610592576105916103fd565b5b61059e8b828c0161042f565b975097505060a089013567ffffffffffffffff8111156105c1576105c06103fd565b5b6105cd8b828c01610484565b955095505060c06105e08b828c016104f8565b93505060e06105f18b828c01610533565b9250506101006106038b828c016104f8565b9150509295985092959890939650565b5f82905092915050565b5f61062b6020840184610533565b905092915050565b61063c8161050c565b82525050565b5f61065060208401846104f8565b905092915050565b610661816104d9565b82525050565b604082016106775f83018361061d565b6106835f850182610633565b506106916020830183610642565b61069e6020850182610658565b50505050565b608082016106b45f830183610613565b6106c05f850182610667565b506106ce6040830183610642565b6106db6040850182610658565b506106e96060830183610642565b6106f66060850182610658565b50505050565b604082015f8201516107105f850182610633565b5060208201516107236020850182610658565b50505050565b6107328161050c565b82525050565b5f82825260208201905092915050565b828183375f83830152505050565b5f601f19601f8301169050919050565b5f6107718385610738565b935061077e838584610748565b61078783610756565b840190509392505050565b5f610100820190506107a65f8301886106a4565b6107b360808301876106fc565b6107c060c0830186610729565b81810360e08301526107d3818486610766565b90509695505050505050565b7f4e487b71000000000000000000000000000000000000000000000000000000005f52603260045260245ffd5b5f60208284031215610821576108206103f9565b5b5f61082e84828501610533565b91505092915050565b610840816104d9565b82525050565b5f6040820190506108595f830185610729565b6108666020830184610837565b9392505050565b5f8115159050919050565b6108818161086d565b811461088b575f5ffd5b50565b5f8151905061089c81610878565b92915050565b5f602082840312156108b7576108b66103f9565b5b5f6108c48482850161088e565b91505092915050565b5f82825260208201905092915050565b5f819050919050565b5f6108f18383610633565b60208301905092915050565b5f602082019050919050565b5f61091483856108cd565b935061091f826108dd565b805f5b8581101561095757610934828461061d565b61093e88826108e6565b9750610949836108fd565b925050600181019050610922565b5085925050509392505050565b5f60a0820190506109775f830189610837565b6109846020830188610837565b8181036040830152610997818688610909565b90506109a66060830185610729565b6109b36080830184610837565b979650505050505050565b7f4e487b71000000000000000000000000000000000000000000000000000000005f52604160045260245ffd5b6109f482610756565b810181811067ffffffffffffffff82111715610a1357610a126109be565b5b80604052505050565b5f610a256103f0565b9050610a3182826109eb565b919050565b5f67ffffffffffffffff821115610a5057610a4f6109be565b5b602082029050602081019050919050565b5f81519050610a6f816104e2565b92915050565b5f610a87610a8284610a36565b610a1c565b90508083825260208201905060208402830185811115610aaa57610aa961042b565b5b835b81811015610ad35780610abf8882610a61565b845260208401935050602081019050610aac565b5050509392505050565b5f82601f830112610af157610af0610423565b5b8151610b01848260208601610a75565b91505092915050565b5f60208284031215610b1f57610b1e6103f9565b5b5f82015167ffffffffffffffff811115610b3c57610b3b6103fd565b5b610b4884828501610add565b9150509291505056fea264697066735822122053402fd443fb9088a5d2cc1d1b084b18ac196d5e80f656fe78642877727fa1c864736f6c634300081e0033","linkReferences":{}},"methodIdentifiers":{"permit2()":"12261ee7","permitAndSwap(((address,uint256),uint256,uint256),bytes,address[],uint256,address,uint256)":"a6867bb0","uniswapRouter()":"735de9f7"},"id":30}