{"abi":[{"type":"constructor","inputs":[{"name":"_paymentToken","type":"address","internalType":"address"},{"name":"_ticketNFT","type":"address","internalType":"address"},{"name":"_ticketPrice","type":"uint256","internalType":"uint256"}],"stateMutability":"nonpayable"},{"type":"function","name":"buyTicket","inputs":[{"name":"eventId","type":"uint256","internalType":"uint256"},{"name":"seat","type":"string","internalType":"string"}],"outputs":[],"stateMutability":"nonpayable"},{"type":"function","name":"createEvent","inputs":[{"name":"name","type":"string","internalType":"string"},{"name":"totalTickets","type":"uint256","internalType":"uint256"}],"outputs":[{"name":"","type":"uint256","internalType":"uint256"}],"stateMutability":"nonpayable"},{"type":"function","name":"events","inputs":[{"name":"","type":"uint256","internalType":"uint256"}],"outputs":[{"name":"name","type":"string","internalType":"string"},{"name":"totalTickets","type":"uint256","internalType":"uint256"},{"name":"totalAvailable","type":"uint256","internalType":"uint256"},{"name":"totalSold","type":"uint256","internalType":"uint256"}],"stateMutability":"view"},{"type":"function","name":"nextEventId","inputs":[],"outputs":[{"name":"","type":"uint256","internalType":"uint256"}],"stateMutability":"view"},{"type":"function","name":"owner","inputs":[],"outputs":[{"name":"","type":"address","internalType":"address"}],"stateMutability":"view"},{"type":"function","name":"paymentToken","inputs":[],"outputs":[{"name":"","type":"address","internalType":"contract TicketToken"}],"stateMutability":"view"},{"type":"function","name":"setTicketPrice","inputs":[{"name":"_ticketPrice","type":"uint256","internalType":"uint256"}],"outputs":[],"stateMutability":"nonpayable"},{"type":"function","name":"ticketNFT","inputs":[],"outputs":[{"name":"","type":"address","internalType":"contract TicketNft"}],"stateMutability":"view"},{"type":"function","name":"ticketPrice","inputs":[],"outputs":[{"name":"","type":"uint256","internalType":"uint256"}],"stateMutability":"view"},{"type":"function","name":"tickets","inputs":[{"name":"","type":"uint256","internalType":"uint256"}],"outputs":[{"name":"owner","type":"address","internalType":"address"},{"name":"purchaseTime","type":"uint256","internalType":"uint256"},{"name":"eventId","type":"uint256","internalType":"uint256"},{"name":"seat","type":"string","internalType":"string"}],"stateMutability":"view"},{"type":"event","name":"EventCreated","inputs":[{"name":"eventId","type":"uint256","indexed":true,"internalType":"uint256"},{"name":"name","type":"string","indexed":false,"internalType":"string"},{"name":"totalTickets","type":"uint256","indexed":false,"internalType":"uint256"}],"anonymous":false},{"type":"event","name":"TicketPurchased","inputs":[{"name":"buyer","type":"address","indexed":true,"internalType":"address"},{"name":"tokenId","type":"uint256","indexed":true,"internalType":"uint256"},{"name":"eventId","type":"uint256","indexed":true,"internalType":"uint256"}],"anonymous":false}],"bytecode":{"object":"0x608060405234801561000f575f5ffd5b506040516116dd3803806116dd83398181016040528101906100319190610190565b825f5f6101000a81548173ffffffffffffffffffffffffffffffffffffffff021916908373ffffffffffffffffffffffffffffffffffffffff1602179055508160015f6101000a81548173ffffffffffffffffffffffffffffffffffffffff021916908373ffffffffffffffffffffffffffffffffffffffff160217905550806002819055503360035f6101000a81548173ffffffffffffffffffffffffffffffffffffffff021916908373ffffffffffffffffffffffffffffffffffffffff1602179055505050506101e0565b5f5ffd5b5f73ffffffffffffffffffffffffffffffffffffffff82169050919050565b5f61012c82610103565b9050919050565b61013c81610122565b8114610146575f5ffd5b50565b5f8151905061015781610133565b92915050565b5f819050919050565b61016f8161015d565b8114610179575f5ffd5b50565b5f8151905061018a81610166565b92915050565b5f5f5f606084860312156101a7576101a66100ff565b5b5f6101b486828701610149565b93505060206101c586828701610149565b92505060406101d68682870161017c565b9150509250925092565b6114f0806101ed5f395ff3fe608060405234801561000f575f5ffd5b506004361061009c575f3560e01c80638da5cb5b116100645780638da5cb5b1461015e5780639a4d43851461017c5780639afb93cb146101ac5780639f9d903a146101c8578063b393391b146101e65761009c565b80630b791430146100a05780631209b1f6146100d357806315981650146100f15780633013ce291461010d57806350b447121461012b575b5f5ffd5b6100ba60048036038101906100b59190610a72565b610204565b6040516100ca9493929190610b1c565b60405180910390f35b6100db6102b6565b6040516100e89190610b66565b60405180910390f35b61010b60048036038101906101069190610a72565b6102bc565b005b610115610355565b6040516101229190610bf9565b60405180910390f35b61014560048036038101906101409190610a72565b610379565b6040516101559493929190610c32565b60405180910390f35b61016661044a565b6040516101739190610c7c565b60405180910390f35b61019660048036038101906101919190610cf6565b61046f565b6040516101a39190610b66565b60405180910390f35b6101c660048036038101906101c19190610d53565b61064b565b005b6101d0610a0c565b6040516101dd9190610b66565b60405180910390f35b6101ee610a12565b6040516101fb9190610dd0565b60405180910390f35b6004602052805f5260405f205f91509050805f01805461022390610e16565b80601f016020809104026020016040519081016040528092919081815260200182805461024f90610e16565b801561029a5780601f106102715761010080835404028352916020019161029a565b820191905f5260205f20905b81548152906001019060200180831161027d57829003601f168201915b5050505050908060010154908060020154908060030154905084565b60025481565b60035f9054906101000a900473ffffffffffffffffffffffffffffffffffffffff1673ffffffffffffffffffffffffffffffffffffffff163373ffffffffffffffffffffffffffffffffffffffff161461034b576040517f08c379a000000000000000000000000000000000000000000000000000000000815260040161034290610e90565b60405180910390fd5b8060028190555050565b5f5f9054906101000a900473ffffffffffffffffffffffffffffffffffffffff1681565b6006602052805f5260405f205f91509050805f015f9054906101000a900473ffffffffffffffffffffffffffffffffffffffff16908060010154908060020154908060030180546103c990610e16565b80601f01602080910402602001604051908101604052809291908181526020018280546103f590610e16565b80156104405780601f1061041757610100808354040283529160200191610440565b820191905f5260205f20905b81548152906001019060200180831161042357829003601f168201915b5050505050905084565b60035f9054906101000a900473ffffffffffffffffffffffffffffffffffffffff1681565b5f60035f9054906101000a900473ffffffffffffffffffffffffffffffffffffffff1673ffffffffffffffffffffffffffffffffffffffff163373ffffffffffffffffffffffffffffffffffffffff16146104ff576040517f08c379a00000000000000000000000000000000000000000000000000000000081526004016104f690610e90565b60405180910390fd5b5f8211610541576040517f08c379a000000000000000000000000000000000000000000000000000000000815260040161053890610ef8565b60405180910390fd5b5f60055f81548092919061055490610f43565b919050559050604051806080016040528086868080601f0160208091040260200160405190810160405280939291908181526020018383808284375f81840152601f19601f8201169050808301925050505050505081526020018481526020018481526020015f81525060045f8381526020019081526020015f205f820151815f0190816105e2919061114e565b50602082015181600101556040820151816002015560608201518160030155905050807fee37bb5143a14810f72e86fce895be08e16090409d2e18f79b308995e39b73d486868660405161063893929190611257565b60405180910390a2809150509392505050565b5f60045f8581526020019081526020015f2090505f815f01805461066e90610e16565b9050116106b0576040517f08c379a00000000000000000000000000000000000000000000000000000000081526004016106a7906112d1565b60405180910390fd5b5f8160020154116106f6576040517f08c379a00000000000000000000000000000000000000000000000000000000081526004016106ed90611339565b60405180910390fd5b5f5f9054906101000a900473ffffffffffffffffffffffffffffffffffffffff1673ffffffffffffffffffffffffffffffffffffffff166323b872dd3360035f9054906101000a900473ffffffffffffffffffffffffffffffffffffffff166002546040518463ffffffff1660e01b815260040161077693929190611357565b6020604051808303815f875af1158015610792573d5f5f3e3d5ffd5b505050506040513d601f19601f820116820180604052508101906107b691906113c1565b6107f5576040517f08c379a00000000000000000000000000000000000000000000000000000000081526004016107ec90611436565b60405180910390fd5b5f60015f9054906101000a900473ffffffffffffffffffffffffffffffffffffffff1673ffffffffffffffffffffffffffffffffffffffff16636a627842336040518263ffffffff1660e01b81526004016108509190610c7c565b6020604051808303815f875af115801561086c573d5f5f3e3d5ffd5b505050506040513d601f19601f820116820180604052508101906108909190611468565b905060405180608001604052803373ffffffffffffffffffffffffffffffffffffffff16815260200142815260200186815260200185858080601f0160208091040260200160405190810160405280939291908181526020018383808284375f81840152601f19601f8201169050808301925050505050505081525060065f8381526020019081526020015f205f820151815f015f6101000a81548173ffffffffffffffffffffffffffffffffffffffff021916908373ffffffffffffffffffffffffffffffffffffffff1602179055506020820151816001015560408201518160020155606082015181600301908161098a919061114e565b50905050816002015f8154809291906109a290611493565b9190505550816003015f8154809291906109bb90610f43565b919050555084813373ffffffffffffffffffffffffffffffffffffffff167f2a91574e12ad96234e84923e146b0946ecfb871cd8d5534dc1fdcbe87a7c01b360405160405180910390a45050505050565b60055481565b60015f9054906101000a900473ffffffffffffffffffffffffffffffffffffffff1681565b5f5ffd5b5f5ffd5b5f819050919050565b610a5181610a3f565b8114610a5b575f5ffd5b50565b5f81359050610a6c81610a48565b92915050565b5f60208284031215610a8757610a86610a37565b5b5f610a9484828501610a5e565b91505092915050565b5f81519050919050565b5f82825260208201905092915050565b8281835e5f83830152505050565b5f601f19601f8301169050919050565b5f610adf82610a9d565b610ae98185610aa7565b9350610af9818560208601610ab7565b610b0281610ac5565b840191505092915050565b610b1681610a3f565b82525050565b5f6080820190508181035f830152610b348187610ad5565b9050610b436020830186610b0d565b610b506040830185610b0d565b610b5d6060830184610b0d565b95945050505050565b5f602082019050610b795f830184610b0d565b92915050565b5f73ffffffffffffffffffffffffffffffffffffffff82169050919050565b5f819050919050565b5f610bc1610bbc610bb784610b7f565b610b9e565b610b7f565b9050919050565b5f610bd282610ba7565b9050919050565b5f610be382610bc8565b9050919050565b610bf381610bd9565b82525050565b5f602082019050610c0c5f830184610bea565b92915050565b5f610c1c82610b7f565b9050919050565b610c2c81610c12565b82525050565b5f608082019050610c455f830187610c23565b610c526020830186610b0d565b610c5f6040830185610b0d565b8181036060830152610c718184610ad5565b905095945050505050565b5f602082019050610c8f5f830184610c23565b92915050565b5f5ffd5b5f5ffd5b5f5ffd5b5f5f83601f840112610cb657610cb5610c95565b5b8235905067ffffffffffffffff811115610cd357610cd2610c99565b5b602083019150836001820283011115610cef57610cee610c9d565b5b9250929050565b5f5f5f60408486031215610d0d57610d0c610a37565b5b5f84013567ffffffffffffffff811115610d2a57610d29610a3b565b5b610d3686828701610ca1565b93509350506020610d4986828701610a5e565b9150509250925092565b5f5f5f60408486031215610d6a57610d69610a37565b5b5f610d7786828701610a5e565b935050602084013567ffffffffffffffff811115610d9857610d97610a3b565b5b610da486828701610ca1565b92509250509250925092565b5f610dba82610bc8565b9050919050565b610dca81610db0565b82525050565b5f602082019050610de35f830184610dc1565b92915050565b7f4e487b71000000000000000000000000000000000000000000000000000000005f52602260045260245ffd5b5f6002820490506001821680610e2d57607f821691505b602082108103610e4057610e3f610de9565b5b50919050565b7f4e6f74206f776e657200000000000000000000000000000000000000000000005f82015250565b5f610e7a600983610aa7565b9150610e8582610e46565b602082019050919050565b5f6020820190508181035f830152610ea781610e6e565b9050919050565b7f4d7573742068617665207469636b6574730000000000000000000000000000005f82015250565b5f610ee2601183610aa7565b9150610eed82610eae565b602082019050919050565b5f6020820190508181035f830152610f0f81610ed6565b9050919050565b7f4e487b71000000000000000000000000000000000000000000000000000000005f52601160045260245ffd5b5f610f4d82610a3f565b91507fffffffffffffffffffffffffffffffffffffffffffffffffffffffffffffffff8203610f7f57610f7e610f16565b5b600182019050919050565b7f4e487b71000000000000000000000000000000000000000000000000000000005f52604160045260245ffd5b5f819050815f5260205f209050919050565b5f6020601f8301049050919050565b5f82821b905092915050565b5f600883026110137fffffffffffffffffffffffffffffffffffffffffffffffffffffffffffffffff82610fd8565b61101d8683610fd8565b95508019841693508086168417925050509392505050565b5f61104f61104a61104584610a3f565b610b9e565b610a3f565b9050919050565b5f819050919050565b61106883611035565b61107c61107482611056565b848454610fe4565b825550505050565b5f5f905090565b611093611084565b61109e81848461105f565b505050565b5b818110156110c1576110b65f8261108b565b6001810190506110a4565b5050565b601f821115611106576110d781610fb7565b6110e084610fc9565b810160208510156110ef578190505b6111036110fb85610fc9565b8301826110a3565b50505b505050565b5f82821c905092915050565b5f6111265f198460080261110b565b1980831691505092915050565b5f61113e8383611117565b9150826002028217905092915050565b61115782610a9d565b67ffffffffffffffff8111156111705761116f610f8a565b5b61117a8254610e16565b6111858282856110c5565b5f60209050601f8311600181146111b6575f84156111a4578287015190505b6111ae8582611133565b865550611215565b601f1984166111c486610fb7565b5f5b828110156111eb578489015182556001820191506020850194506020810190506111c6565b868310156112085784890151611204601f891682611117565b8355505b6001600288020188555050505b505050505050565b828183375f83830152505050565b5f6112368385610aa7565b935061124383858461121d565b61124c83610ac5565b840190509392505050565b5f6040820190508181035f83015261127081858761122b565b905061127f6020830184610b0d565b949350505050565b7f4576656e7420646f6573206e6f742065786973740000000000000000000000005f82015250565b5f6112bb601483610aa7565b91506112c682611287565b602082019050919050565b5f6020820190508181035f8301526112e8816112af565b9050919050565b7f536f6c64206f75740000000000000000000000000000000000000000000000005f82015250565b5f611323600883610aa7565b915061132e826112ef565b602082019050919050565b5f6020820190508181035f83015261135081611317565b9050919050565b5f60608201905061136a5f830186610c23565b6113776020830185610c23565b6113846040830184610b0d565b949350505050565b5f8115159050919050565b6113a08161138c565b81146113aa575f5ffd5b50565b5f815190506113bb81611397565b92915050565b5f602082840312156113d6576113d5610a37565b5b5f6113e3848285016113ad565b91505092915050565b7f5061796d656e74206661696c65640000000000000000000000000000000000005f82015250565b5f611420600e83610aa7565b915061142b826113ec565b602082019050919050565b5f6020820190508181035f83015261144d81611414565b9050919050565b5f8151905061146281610a48565b92915050565b5f6020828403121561147d5761147c610a37565b5b5f61148a84828501611454565b91505092915050565b5f61149d82610a3f565b91505f82036114af576114ae610f16565b5b60018203905091905056fea26469706673582212209bb516e3ea4370d04e41d524bd496b92a82033ec3488a69db33d28f1e346ff9f64736f6c634300081e0033","linkReferences":{}},"methodIdentifiers":{"buyTicket(uint256,string)":"9afb93cb","createEvent(string,uint256)":"9a4d4385","events(uint256)":"0b791430","nextEventId()":"9f9d903a","owner()":"8da5cb5b","paymentToken()":"3013ce29","setTicketPrice(uint256)":"15981650","ticketNFT()":"b393391b","ticketPrice()":"1209b1f6","tickets(uint256)":"50b44712"},"id":36}