{"contracts/Sms.sol":{"Sms":{"abi":[{"inputs":[{"internalType":"enum Sms.Gender","name":"_gender","type":"uint8"}],"name":"GenderToString","outputs":[{"internalType":"string","name":"","type":"string"}],"stateMutability":"pure","type":"function"},{"inputs":[{"internalType":"enum Sms.Status","name":"_status","type":"uint8"}],"name":"StatusToString","outputs":[{"internalType":"string","name":"","type":"string"}],"stateMutability":"pure","type":"function"},{"inputs":[{"internalType":"string","name":"_first_name","type":"string"},{"internalType":"string","name":"_last_name","type":"string"},{"internalType":"uint256","name":"_age","type":"uint256"},{"internalType":"enum Sms.Gender","name":"_gender","type":"uint8"},{"internalType":"enum Sms.Status","name":"_status","type":"uint8"}],"name":"addStudent","outputs":[],"stateMutability":"nonpayable","type":"function"},{"inputs":[{"internalType":"uint256","name":"_index","type":"uint256"}],"name":"deleteStudent","outputs":[],"stateMutability":"nonpayable","type":"function"},{"inputs":[],"name":"getAllStudents","outputs":[{"components":[{"internalType":"bytes16","name":"id","type":"bytes16"},{"internalType":"string","name":"first_name","type":"string"},{"internalType":"string","name":"last_name","type":"string"},{"internalType":"uint256","name":"age","type":"uint256"},{"internalType":"enum Sms.Gender","name":"gender","type":"uint8"},{"internalType":"enum Sms.Status","name":"status","type":"uint8"}],"internalType":"struct Sms.Student[]","name":"","type":"tuple[]"}],"stateMutability":"view","type":"function"},{"inputs":[{"internalType":"bytes16","name":"_id","type":"bytes16"}],"name":"getStudent","outputs":[{"internalType":"string","name":"","type":"string"},{"internalType":"string","name":"","type":"string"},{"internalType":"uint256","name":"","type":"uint256"},{"internalType":"string","name":"","type":"string"},{"internalType":"string","name":"","type":"string"}],"stateMutability":"view","type":"function"},{"inputs":[],"name":"getTotalStudents","outputs":[{"internalType":"uint256","name":"","type":"uint256"}],"stateMutability":"view","type":"function"},{"inputs":[{"internalType":"uint256","name":"","type":"uint256"}],"name":"studentList","outputs":[{"internalType":"bytes16","name":"id","type":"bytes16"},{"internalType":"string","name":"first_name","type":"string"},{"internalType":"string","name":"last_name","type":"string"},{"internalType":"uint256","name":"age","type":"uint256"},{"internalType":"enum Sms.Gender","name":"gender","type":"uint8"},{"internalType":"enum Sms.Status","name":"status","type":"uint8"}],"stateMutability":"view","type":"function"},{"inputs":[{"internalType":"uint256","name":"_index","type":"uint256"},{"internalType":"string","name":"_first_name","type":"string"},{"internalType":"string","name":"_last_name","type":"string"},{"internalType":"uint256","name":"_age","type":"uint256"},{"internalType":"enum Sms.Status","name":"_status","type":"uint8"}],"name":"updateStudent","outputs":[],"stateMutability":"nonpayable","type":"function"}],"evm":{"bytecode":{"linkReferences":{},"object":"6080604052348015600f57600080fd5b50611c428061001f6000396000f3fe608060405234801561001057600080fd5b50600436106100935760003560e01c8063b645307d11610066578063b645307d14610137578063cd3acd9a14610153578063e9e309271461016f578063f2fdef531461018d578063f42d5ca2146101bd57610093565b80631adca0b51461009857806328bcb51a146100c8578063299f0f04146100e65780637df221e914610102575b600080fd5b6100b260048036038101906100ad9190610ed5565b6101f1565b6040516100bf9190610f92565b60405180910390f35b6100d0610309565b6040516100dd9190610fcd565b60405180910390f35b61010060048036038101906100fb9190611149565b610315565b005b61011c600480360381019061011791906111fc565b610466565b60405161012e96959493929190611323565b60405180910390f35b610151600480360381019061014c91906111fc565b6105e9565b005b61016d600480360381019061016891906113b7565b6106cb565b005b61017761087c565b6040516101849190611642565b60405180910390f35b6101a760048036038101906101a29190611664565b610abc565b6040516101b49190610f92565b60405180910390f35b6101d760048036038101906101d291906116bd565b610b68565b6040516101e89594939291906116ea565b60405180910390f35b6060806000600281111561020857610207611264565b5b83600281111561021b5761021a611264565b5b0361025d576040518060400160405280600681526020017f41435449564500000000000000000000000000000000000000000000000000008152509050610300565b6001600281111561027157610270611264565b5b83600281111561028457610283611264565b5b036102c6576040518060400160405280600881526020017f444546455252454400000000000000000000000000000000000000000000000081525090506102ff565b6040518060400160405280600a81526020017f525553544943415445440000000000000000000000000000000000000000000081525090505b5b80915050919050565b60008080549050905090565b600080549050851061035c576040517f08c379a0000000000000000000000000000000000000000000000000000000008152600401610353906117a5565b60405180910390fd5b600084511415801561037057506000835114155b801561037c5750600082115b1561045f578360008681548110610396576103956117c5565b5b906000526020600020906005020160010190816103b39190611a00565b5082600086815481106103c9576103c86117c5565b5b906000526020600020906005020160020190816103e69190611a00565b5081600086815481106103fc576103fb6117c5565b5b9060005260206000209060050201600301819055508060008681548110610426576104256117c5565b5b906000526020600020906005020160040160016101000a81548160ff0219169083600281111561045957610458611264565b5b02179055505b5050505050565b6000818154811061047657600080fd5b90600052602060002090600502016000915090508060000160009054906101000a900460801b908060010180546104ac90611823565b80601f01602080910402602001604051908101604052809291908181526020018280546104d890611823565b80156105255780601f106104fa57610100808354040283529160200191610525565b820191906000526020600020905b81548152906001019060200180831161050857829003601f168201915b50505050509080600201805461053a90611823565b80601f016020809104026020016040519081016040528092919081815260200182805461056690611823565b80156105b35780601f10610588576101008083540402835291602001916105b3565b820191906000526020600020905b81548152906001019060200180831161059657829003601f168201915b5050505050908060030154908060040160009054906101000a900460ff16908060040160019054906101000a900460ff16905086565b6000805490508110610630576040517f08c379a0000000000000000000000000000000000000000000000000000000008152600401610627906117a5565b60405180910390fd5b60008181548110610644576106436117c5565b5b9060005260206000209060050201600080820160006101000a8154906fffffffffffffffffffffffffffffffff02191690556001820160006106869190610e3f565b6002820160006106969190610e3f565b60038201600090556004820160006101000a81549060ff02191690556004820160016101000a81549060ff0219169055505050565b600085856040516020016106e0929190611b5a565b60405160208183030381529060405290506000816040516020016107049190611b89565b60405160208183030381529060405280519060200120905060006040518060c00160405280836fffffffffffffffffffffffffffffffff1916815260200189815260200188815260200187815260200186600181111561076757610766611264565b5b815260200185600281111561077f5761077e611264565b5b815250908060018154018082558091505060019003906000526020600020906005020160009091909190915060008201518160000160006101000a8154816fffffffffffffffffffffffffffffffff021916908360801c021790555060208201518160010190816107f09190611a00565b5060408201518160020190816108069190611a00565b506060820151816003015560808201518160040160006101000a81548160ff0219169083600181111561083c5761083b611264565b5b021790555060a08201518160040160016101000a81548160ff0219169083600281111561086c5761086b611264565b5b0217905550505050505050505050565b60606000805480602002602001604051908101604052809291908181526020016000905b82821015610ab357838290600052602060002090600502016040518060c00160405290816000820160009054906101000a900460801b6fffffffffffffffffffffffffffffffff19166fffffffffffffffffffffffffffffffff1916815260200160018201805461091090611823565b80601f016020809104026020016040519081016040528092919081815260200182805461093c90611823565b80156109895780601f1061095e57610100808354040283529160200191610989565b820191906000526020600020905b81548152906001019060200180831161096c57829003601f168201915b505050505081526020016002820180546109a290611823565b80601f01602080910402602001604051908101604052809291908181526020018280546109ce90611823565b8015610a1b5780601f106109f057610100808354040283529160200191610a1b565b820191906000526020600020905b8154815290600101906020018083116109fe57829003601f168201915b50505050508152602001600382015481526020016004820160009054906101000a900460ff166001811115610a5357610a52611264565b5b6001811115610a6557610a64611264565b5b81526020016004820160019054906101000a900460ff166002811115610a8e57610a8d611264565b5b6002811115610aa057610a9f611264565b5b81525050815260200190600101906108a0565b50505050905090565b60606000806001811115610ad357610ad2611264565b5b836001811115610ae657610ae5611264565b5b14610b26576040518060400160405280600681526020017f46454d414c450000000000000000000000000000000000000000000000000000815250610b5d565b6040518060400160405280600481526020017f4d414c45000000000000000000000000000000000000000000000000000000008152505b905080915050919050565b606080600060608060005b600080549050811015610dfa57866fffffffffffffffffffffffffffffffff191660008281548110610ba857610ba76117c5565b5b906000526020600020906005020160000160009054906101000a900460801b6fffffffffffffffffffffffffffffffff191603610ded5760008181548110610bf357610bf26117c5565b5b906000526020600020906005020160010160008281548110610c1857610c176117c5565b5b906000526020600020906005020160020160008381548110610c3d57610c3c6117c5565b5b906000526020600020906005020160030154610c8a60008581548110610c6657610c656117c5565b5b906000526020600020906005020160040160009054906101000a900460ff16610abc565b610cc560008681548110610ca157610ca06117c5565b5b906000526020600020906005020160040160019054906101000a900460ff166101f1565b848054610cd190611823565b80601f0160208091040260200160405190810160405280929190818152602001828054610cfd90611823565b8015610d4a5780601f10610d1f57610100808354040283529160200191610d4a565b820191906000526020600020905b815481529060010190602001808311610d2d57829003601f168201915b50505050509450838054610d5d90611823565b80601f0160208091040260200160405190810160405280929190818152602001828054610d8990611823565b8015610dd65780601f10610dab57610100808354040283529160200191610dd6565b820191906000526020600020905b815481529060010190602001808311610db957829003601f168201915b505050505093509550955095509550955050610e36565b8080600101915050610b73565b506040517f08c379a0000000000000000000000000000000000000000000000000000000008152600401610e2d90611bec565b60405180910390fd5b91939590929450565b508054610e4b90611823565b6000825580601f10610e5d5750610e7c565b601f016020900490600052602060002090810190610e7b9190610e7f565b5b50565b5b80821115610e98576000816000905550600101610e80565b5090565b6000604051905090565b600080fd5b600080fd5b60038110610ebd57600080fd5b50565b600081359050610ecf81610eb0565b92915050565b600060208284031215610eeb57610eea610ea6565b5b6000610ef984828501610ec0565b91505092915050565b600081519050919050565b600082825260208201905092915050565b60005b83811015610f3c578082015181840152602081019050610f21565b60008484015250505050565b6000601f19601f8301169050919050565b6000610f6482610f02565b610f6e8185610f0d565b9350610f7e818560208601610f1e565b610f8781610f48565b840191505092915050565b60006020820190508181036000830152610fac8184610f59565b905092915050565b6000819050919050565b610fc781610fb4565b82525050565b6000602082019050610fe26000830184610fbe565b92915050565b610ff181610fb4565b8114610ffc57600080fd5b50565b60008135905061100e81610fe8565b92915050565b600080fd5b600080fd5b7f4e487b7100000000000000000000000000000000000000000000000000000000600052604160045260246000fd5b61105682610f48565b810181811067ffffffffffffffff821117156110755761107461101e565b5b80604052505050565b6000611088610e9c565b9050611094828261104d565b919050565b600067ffffffffffffffff8211156110b4576110b361101e565b5b6110bd82610f48565b9050602081019050919050565b82818337600083830152505050565b60006110ec6110e784611099565b61107e565b90508281526020810184848401111561110857611107611019565b5b6111138482856110ca565b509392505050565b600082601f8301126111305761112f611014565b5b81356111408482602086016110d9565b91505092915050565b600080600080600060a0868803121561116557611164610ea6565b5b600061117388828901610fff565b955050602086013567ffffffffffffffff81111561119457611193610eab565b5b6111a08882890161111b565b945050604086013567ffffffffffffffff8111156111c1576111c0610eab565b5b6111cd8882890161111b565b93505060606111de88828901610fff565b92505060806111ef88828901610ec0565b9150509295509295909350565b60006020828403121561121257611211610ea6565b5b600061122084828501610fff565b91505092915050565b60007fffffffffffffffffffffffffffffffff0000000000000000000000000000000082169050919050565b61125e81611229565b82525050565b7f4e487b7100000000000000000000000000000000000000000000000000000000600052602160045260246000fd5b600281106112a4576112a3611264565b5b50565b60008190506112b582611293565b919050565b60006112c5826112a7565b9050919050565b6112d5816112ba565b82525050565b600381106112ec576112eb611264565b5b50565b60008190506112fd826112db565b919050565b600061130d826112ef565b9050919050565b61131d81611302565b82525050565b600060c0820190506113386000830189611255565b818103602083015261134a8188610f59565b9050818103604083015261135e8187610f59565b905061136d6060830186610fbe565b61137a60808301856112cc565b61138760a0830184611314565b979650505050505050565b6002811061139f57600080fd5b50565b6000813590506113b181611392565b92915050565b600080600080600060a086880312156113d3576113d2610ea6565b5b600086013567ffffffffffffffff8111156113f1576113f0610eab565b5b6113fd8882890161111b565b955050602086013567ffffffffffffffff81111561141e5761141d610eab565b5b61142a8882890161111b565b945050604061143b88828901610fff565b935050606061144c888289016113a2565b925050608061145d88828901610ec0565b9150509295509295909350565b600081519050919050565b600082825260208201905092915050565b6000819050602082019050919050565b61149f81611229565b82525050565b600082825260208201905092915050565b60006114c182610f02565b6114cb81856114a5565b93506114db818560208601610f1e565b6114e481610f48565b840191505092915050565b6114f881610fb4565b82525050565b611507816112ba565b82525050565b61151681611302565b82525050565b600060c0830160008301516115346000860182611496565b506020830151848203602086015261154c82826114b6565b9150506040830151848203604086015261156682826114b6565b915050606083015161157b60608601826114ef565b50608083015161158e60808601826114fe565b5060a08301516115a160a086018261150d565b508091505092915050565b60006115b8838361151c565b905092915050565b6000602082019050919050565b60006115d88261146a565b6115e28185611475565b9350836020820285016115f485611486565b8060005b85811015611630578484038952815161161185826115ac565b945061161c836115c0565b925060208a019950506001810190506115f8565b50829750879550505050505092915050565b6000602082019050818103600083015261165c81846115cd565b905092915050565b60006020828403121561167a57611679610ea6565b5b6000611688848285016113a2565b91505092915050565b61169a81611229565b81146116a557600080fd5b50565b6000813590506116b781611691565b92915050565b6000602082840312156116d3576116d2610ea6565b5b60006116e1848285016116a8565b91505092915050565b600060a08201905081810360008301526117048188610f59565b905081810360208301526117188187610f59565b90506117276040830186610fbe565b81810360608301526117398185610f59565b9050818103608083015261174d8184610f59565b90509695505050505050565b7f496e76616c69642073747564656e7420696e6465780000000000000000000000600082015250565b600061178f601583610f0d565b915061179a82611759565b602082019050919050565b600060208201905081810360008301526117be81611782565b9050919050565b7f4e487b7100000000000000000000000000000000000000000000000000000000600052603260045260246000fd5b7f4e487b7100000000000000000000000000000000000000000000000000000000600052602260045260246000fd5b6000600282049050600182168061183b57607f821691505b60208210810361184e5761184d6117f4565b5b50919050565b60008190508160005260206000209050919050565b60006020601f8301049050919050565b600082821b905092915050565b6000600883026118b67fffffffffffffffffffffffffffffffffffffffffffffffffffffffffffffffff82611879565b6118c08683611879565b95508019841693508086168417925050509392505050565b6000819050919050565b60006118fd6118f86118f384610fb4565b6118d8565b610fb4565b9050919050565b6000819050919050565b611917836118e2565b61192b61192382611904565b848454611886565b825550505050565b600090565b611940611933565b61194b81848461190e565b505050565b5b8181101561196f57611964600082611938565b600181019050611951565b5050565b601f8211156119b45761198581611854565b61198e84611869565b8101602085101561199d578190505b6119b16119a985611869565b830182611950565b50505b505050565b600082821c905092915050565b60006119d7600019846008026119b9565b1980831691505092915050565b60006119f083836119c6565b9150826002028217905092915050565b611a0982610f02565b67ffffffffffffffff811115611a2257611a2161101e565b5b611a2c8254611823565b611a37828285611973565b600060209050601f831160018114611a6a5760008415611a58578287015190505b611a6285826119e4565b865550611aca565b601f198416611a7886611854565b60005b82811015611aa057848901518255600182019150602085019450602081019050611a7b565b86831015611abd5784890151611ab9601f8916826119c6565b8355505b6001600288020188555050505b505050505050565b600081905092915050565b6000611ae882610f02565b611af28185611ad2565b9350611b02818560208601610f1e565b80840191505092915050565b7f2000000000000000000000000000000000000000000000000000000000000000600082015250565b6000611b44600183611ad2565b9150611b4f82611b0e565b600182019050919050565b6000611b668285611add565b9150611b7182611b37565b9150611b7d8284611add565b91508190509392505050565b6000611b958284611add565b915081905092915050565b7f53747564656e74206e6f7420666f756e64000000000000000000000000000000600082015250565b6000611bd6601183610f0d565b9150611be182611ba0565b602082019050919050565b60006020820190508181036000830152611c0581611bc9565b905091905056fea2646970667358221220d8f05d68674492c226e8d7451aac0834849979ca11b6649e5b91f7dddab6a46864736f6c634300081c0033","opcodes":"PUSH1 0x80 PUSH1 0x40 MSTORE CALLVALUE DUP1 ISZERO PUSH1 0xF JUMPI PUSH1 0x0 DUP1 REVERT JUMPDEST POP PUSH2 0x1C42 DUP1 PUSH2 0x1F PUSH1 0x0 CODECOPY PUSH1 0x0 RETURN INVALID PUSH1 0x80 PUSH1 0x40 MSTORE CALLVALUE DUP1 ISZERO PUSH2 0x10 JUMPI PUSH1 0x0 DUP1 REVERT JUMPDEST POP PUSH1 0x4 CALLDATASIZE LT PUSH2 0x93 JUMPI PUSH1 0x0 CALLDATALOAD PUSH1 0xE0 SHR DUP1 PUSH4 0xB645307D GT PUSH2 0x66 JUMPI DUP1 PUSH4 0xB645307D EQ PUSH2 0x137 JUMPI DUP1 PUSH4 0xCD3ACD9A EQ PUSH2 0x153 JUMPI DUP1 PUSH4 0xE9E30927 EQ PUSH2 0x16F JUMPI DUP1 PUSH4 0xF2FDEF53 EQ PUSH2 0x18D JUMPI DUP1 PUSH4 0xF42D5CA2 EQ PUSH2 0x1BD JUMPI PUSH2 0x93 JUMP JUMPDEST DUP1 PUSH4 0x1ADCA0B5 EQ PUSH2 0x98 JUMPI DUP1 PUSH4 0x28BCB51A EQ PUSH2 0xC8 JUMPI DUP1 PUSH4 0x299F0F04 EQ PUSH2 0xE6 JUMPI DUP1 PUSH4 0x7DF221E9 EQ PUSH2 0x102 JUMPI JUMPDEST PUSH1 0x0 DUP1 REVERT JUMPDEST PUSH2 0xB2 PUSH1 0x4 DUP1 CALLDATASIZE SUB DUP2 ADD SWAP1 PUSH2 0xAD SWAP2 SWAP1 PUSH2 0xED5 JUMP JUMPDEST PUSH2 0x1F1 JUMP JUMPDEST PUSH1 0x40 MLOAD PUSH2 0xBF SWAP2 SWAP1 PUSH2 0xF92 JUMP JUMPDEST PUSH1 0x40 MLOAD DUP1 SWAP2 SUB SWAP1 RETURN JUMPDEST PUSH2 0xD0 PUSH2 0x309 JUMP JUMPDEST PUSH1 0x40 MLOAD PUSH2 0xDD SWAP2 SWAP1 PUSH2 0xFCD JUMP JUMPDEST PUSH1 0x40 MLOAD DUP1 SWAP2 SUB SWAP1 RETURN JUMPDEST PUSH2 0x100 PUSH1 0x4 DUP1 CALLDATASIZE SUB DUP2 ADD SWAP1 PUSH2 0xFB SWAP2 SWAP1 PUSH2 0x1149 JUMP JUMPDEST PUSH2 0x315 JUMP JUMPDEST STOP JUMPDEST PUSH2 0x11C PUSH1 0x4 DUP1 CALLDATASIZE SUB DUP2 ADD SWAP1 PUSH2 0x117 SWAP2 SWAP1 PUSH2 0x11FC JUMP JUMPDEST PUSH2 0x466 JUMP JUMPDEST PUSH1 0x40 MLOAD PUSH2 0x12E SWAP7 SWAP6 SWAP5 SWAP4 SWAP3 SWAP2 SWAP1 PUSH2 0x1323 JUMP JUMPDEST PUSH1 0x40 MLOAD DUP1 SWAP2 SUB SWAP1 RETURN JUMPDEST PUSH2 0x151 PUSH1 0x4 DUP1 CALLDATASIZE SUB DUP2 ADD SWAP1 PUSH2 0x14C SWAP2 SWAP1 PUSH2 0x11FC JUMP JUMPDEST PUSH2 0x5E9 JUMP JUMPDEST STOP JUMPDEST PUSH2 0x16D PUSH1 0x4 DUP1 CALLDATASIZE SUB DUP2 ADD SWAP1 PUSH2 0x168 SWAP2 SWAP1 PUSH2 0x13B7 JUMP JUMPDEST PUSH2 0x6CB JUMP JUMPDEST STOP JUMPDEST PUSH2 0x177 PUSH2 0x87C JUMP JUMPDEST PUSH1 0x40 MLOAD PUSH2 0x184 SWAP2 SWAP1 PUSH2 0x1642 JUMP JUMPDEST PUSH1 0x40 MLOAD DUP1 SWAP2 SUB SWAP1 RETURN JUMPDEST PUSH2 0x1A7 PUSH1 0x4 DUP1 CALLDATASIZE SUB DUP2 ADD SWAP1 PUSH2 0x1A2 SWAP2 SWAP1 PUSH2 0x1664 JUMP JUMPDEST PUSH2 0xABC JUMP JUMPDEST PUSH1 0x40 MLOAD PUSH2 0x1B4 SWAP2 SWAP1 PUSH2 0xF92 JUMP JUMPDEST PUSH1 0x40 MLOAD DUP1 SWAP2 SUB SWAP1 RETURN JUMPDEST PUSH2 0x1D7 PUSH1 0x4 DUP1 CALLDATASIZE SUB DUP2 ADD SWAP1 PUSH2 0x1D2 SWAP2 SWAP1 PUSH2 0x16BD JUMP JUMPDEST PUSH2 0xB68 JUMP JUMPDEST PUSH1 0x40 MLOAD PUSH2 0x1E8 SWAP6 SWAP5 SWAP4 SWAP3 SWAP2 SWAP1 PUSH2 0x16EA JUMP JUMPDEST PUSH1 0x40 MLOAD DUP1 SWAP2 SUB SWAP1 RETURN JUMPDEST PUSH1 0x60 DUP1 PUSH1 0x0 PUSH1 0x2 DUP2 GT ISZERO PUSH2 0x208 JUMPI PUSH2 0x207 PUSH2 0x1264 JUMP JUMPDEST JUMPDEST DUP4 PUSH1 0x2 DUP2 GT ISZERO PUSH2 0x21B JUMPI PUSH2 0x21A PUSH2 0x1264 JUMP JUMPDEST JUMPDEST SUB PUSH2 0x25D JUMPI PUSH1 0x40 MLOAD DUP1 PUSH1 0x40 ADD PUSH1 0x40 MSTORE DUP1 PUSH1 0x6 DUP2 MSTORE PUSH1 0x20 ADD PUSH32 0x4143544956450000000000000000000000000000000000000000000000000000 DUP2 MSTORE POP SWAP1 POP PUSH2 0x300 JUMP JUMPDEST PUSH1 0x1 PUSH1 0x2 DUP2 GT ISZERO PUSH2 0x271 JUMPI PUSH2 0x270 PUSH2 0x1264 JUMP JUMPDEST JUMPDEST DUP4 PUSH1 0x2 DUP2 GT ISZERO PUSH2 0x284 JUMPI PUSH2 0x283 PUSH2 0x1264 JUMP JUMPDEST JUMPDEST SUB PUSH2 0x2C6 JUMPI PUSH1 0x40 MLOAD DUP1 PUSH1 0x40 ADD PUSH1 0x40 MSTORE DUP1 PUSH1 0x8 DUP2 MSTORE PUSH1 0x20 ADD PUSH32 0x4445464552524544000000000000000000000000000000000000000000000000 DUP2 MSTORE POP SWAP1 POP PUSH2 0x2FF JUMP JUMPDEST PUSH1 0x40 MLOAD DUP1 PUSH1 0x40 ADD PUSH1 0x40 MSTORE DUP1 PUSH1 0xA DUP2 MSTORE PUSH1 0x20 ADD PUSH32 0x5255535449434154454400000000000000000000000000000000000000000000 DUP2 MSTORE POP SWAP1 POP JUMPDEST JUMPDEST DUP1 SWAP2 POP POP SWAP2 SWAP1 POP JUMP JUMPDEST PUSH1 0x0 DUP1 DUP1 SLOAD SWAP1 POP SWAP1 POP SWAP1 JUMP JUMPDEST PUSH1 0x0 DUP1 SLOAD SWAP1 POP DUP6 LT PUSH2 0x35C JUMPI PUSH1 0x40 MLOAD PUSH32 0x8C379A000000000000000000000000000000000000000000000000000000000 DUP2 MSTORE PUSH1 0x4 ADD PUSH2 0x353 SWAP1 PUSH2 0x17A5 JUMP JUMPDEST PUSH1 0x40 MLOAD DUP1 SWAP2 SUB SWAP1 REVERT JUMPDEST PUSH1 0x0 DUP5 MLOAD EQ ISZERO DUP1 ISZERO PUSH2 0x370 JUMPI POP PUSH1 0x0 DUP4 MLOAD EQ ISZERO JUMPDEST DUP1 ISZERO PUSH2 0x37C JUMPI POP PUSH1 0x0 DUP3 GT JUMPDEST ISZERO PUSH2 0x45F JUMPI DUP4 PUSH1 0x0 DUP7 DUP2 SLOAD DUP2 LT PUSH2 0x396 JUMPI PUSH2 0x395 PUSH2 0x17C5 JUMP JUMPDEST JUMPDEST SWAP1 PUSH1 0x0 MSTORE PUSH1 0x20 PUSH1 0x0 KECCAK256 SWAP1 PUSH1 0x5 MUL ADD PUSH1 0x1 ADD SWAP1 DUP2 PUSH2 0x3B3 SWAP2 SWAP1 PUSH2 0x1A00 JUMP JUMPDEST POP DUP3 PUSH1 0x0 DUP7 DUP2 SLOAD DUP2 LT PUSH2 0x3C9 JUMPI PUSH2 0x3C8 PUSH2 0x17C5 JUMP JUMPDEST JUMPDEST SWAP1 PUSH1 0x0 MSTORE PUSH1 0x20 PUSH1 0x0 KECCAK256 SWAP1 PUSH1 0x5 MUL ADD PUSH1 0x2 ADD SWAP1 DUP2 PUSH2 0x3E6 SWAP2 SWAP1 PUSH2 0x1A00 JUMP JUMPDEST POP DUP2 PUSH1 0x0 DUP7 DUP2 SLOAD DUP2 LT PUSH2 0x3FC JUMPI PUSH2 0x3FB PUSH2 0x17C5 JUMP JUMPDEST JUMPDEST SWAP1 PUSH1 0x0 MSTORE PUSH1 0x20 PUSH1 0x0 KECCAK256 SWAP1 PUSH1 0x5 MUL ADD PUSH1 0x3 ADD DUP2 SWAP1 SSTORE POP DUP1 PUSH1 0x0 DUP7 DUP2 SLOAD DUP2 LT PUSH2 0x426 JUMPI PUSH2 0x425 PUSH2 0x17C5 JUMP JUMPDEST JUMPDEST SWAP1 PUSH1 0x0 MSTORE PUSH1 0x20 PUSH1 0x0 KECCAK256 SWAP1 PUSH1 0x5 MUL ADD PUSH1 0x4 ADD PUSH1 0x1 PUSH2 0x100 EXP DUP2 SLOAD DUP2 PUSH1 0xFF MUL NOT AND SWAP1 DUP4 PUSH1 0x2 DUP2 GT ISZERO PUSH2 0x459 JUMPI PUSH2 0x458 PUSH2 0x1264 JUMP JUMPDEST JUMPDEST MUL OR SWAP1 SSTORE POP JUMPDEST POP POP POP POP POP JUMP JUMPDEST PUSH1 0x0 DUP2 DUP2 SLOAD DUP2 LT PUSH2 0x476 JUMPI PUSH1 0x0 DUP1 REVERT JUMPDEST SWAP1 PUSH1 0x0 MSTORE PUSH1 0x20 PUSH1 0x0 KECCAK256 SWAP1 PUSH1 0x5 MUL ADD PUSH1 0x0 SWAP2 POP SWAP1 POP DUP1 PUSH1 0x0 ADD PUSH1 0x0 SWAP1 SLOAD SWAP1 PUSH2 0x100 EXP SWAP1 DIV PUSH1 0x80 SHL SWAP1 DUP1 PUSH1 0x1 ADD DUP1 SLOAD PUSH2 0x4AC SWAP1 PUSH2 0x1823 JUMP JUMPDEST DUP1 PUSH1 0x1F ADD PUSH1 0x20 DUP1 SWAP2 DIV MUL PUSH1 0x20 ADD PUSH1 0x40 MLOAD SWAP1 DUP2 ADD PUSH1 0x40 MSTORE DUP1 SWAP3 SWAP2 SWAP1 DUP2 DUP2 MSTORE PUSH1 0x20 ADD DUP3 DUP1 SLOAD PUSH2 0x4D8 SWAP1 PUSH2 0x1823 JUMP JUMPDEST DUP1 ISZERO PUSH2 0x525 JUMPI DUP1 PUSH1 0x1F LT PUSH2 0x4FA JUMPI PUSH2 0x100 DUP1 DUP4 SLOAD DIV MUL DUP4 MSTORE SWAP2 PUSH1 0x20 ADD SWAP2 PUSH2 0x525 JUMP JUMPDEST DUP3 ADD SWAP2 SWAP1 PUSH1 0x0 MSTORE PUSH1 0x20 PUSH1 0x0 KECCAK256 SWAP1 JUMPDEST DUP2 SLOAD DUP2 MSTORE SWAP1 PUSH1 0x1 ADD SWAP1 PUSH1 0x20 ADD DUP1 DUP4 GT PUSH2 0x508 JUMPI DUP3 SWAP1 SUB PUSH1 0x1F AND DUP3 ADD SWAP2 JUMPDEST POP POP POP POP POP SWAP1 DUP1 PUSH1 0x2 ADD DUP1 SLOAD PUSH2 0x53A SWAP1 PUSH2 0x1823 JUMP JUMPDEST DUP1 PUSH1 0x1F ADD PUSH1 0x20 DUP1 SWAP2 DIV MUL PUSH1 0x20 ADD PUSH1 0x40 MLOAD SWAP1 DUP2 ADD PUSH1 0x40 MSTORE DUP1 SWAP3 SWAP2 SWAP1 DUP2 DUP2 MSTORE PUSH1 0x20 ADD DUP3 DUP1 SLOAD PUSH2 0x566 SWAP1 PUSH2 0x1823 JUMP JUMPDEST DUP1 ISZERO PUSH2 0x5B3 JUMPI DUP1 PUSH1 0x1F LT PUSH2 0x588 JUMPI PUSH2 0x100 DUP1 DUP4 SLOAD DIV MUL DUP4 MSTORE SWAP2 PUSH1 0x20 ADD SWAP2 PUSH2 0x5B3 JUMP JUMPDEST DUP3 ADD SWAP2 SWAP1 PUSH1 0x0 MSTORE PUSH1 0x20 PUSH1 0x0 KECCAK256 SWAP1 JUMPDEST DUP2 SLOAD DUP2 MSTORE SWAP1 PUSH1 0x1 ADD SWAP1 PUSH1 0x20 ADD DUP1 DUP4 GT PUSH2 0x596 JUMPI DUP3 SWAP1 SUB PUSH1 0x1F AND DUP3 ADD SWAP2 JUMPDEST POP POP POP POP POP SWAP1 DUP1 PUSH1 0x3 ADD SLOAD SWAP1 DUP1 PUSH1 0x4 ADD PUSH1 0x0 SWAP1 SLOAD SWAP1 PUSH2 0x100 EXP SWAP1 DIV PUSH1 0xFF AND SWAP1 DUP1 PUSH1 0x4 ADD PUSH1 0x1 SWAP1 SLOAD SWAP1 PUSH2 0x100 EXP SWAP1 DIV PUSH1 0xFF AND SWAP1 POP DUP7 JUMP JUMPDEST PUSH1 0x0 DUP1 SLOAD SWAP1 POP DUP2 LT PUSH2 0x630 JUMPI PUSH1 0x40 MLOAD PUSH32 0x8C379A000000000000000000000000000000000000000000000000000000000 DUP2 MSTORE PUSH1 0x4 ADD PUSH2 0x627 SWAP1 PUSH2 0x17A5 JUMP JUMPDEST PUSH1 0x40 MLOAD DUP1 SWAP2 SUB SWAP1 REVERT JUMPDEST PUSH1 0x0 DUP2 DUP2 SLOAD DUP2 LT PUSH2 0x644 JUMPI PUSH2 0x643 PUSH2 0x17C5 JUMP JUMPDEST JUMPDEST SWAP1 PUSH1 0x0 MSTORE PUSH1 0x20 PUSH1 0x0 KECCAK256 SWAP1 PUSH1 0x5 MUL ADD PUSH1 0x0 DUP1 DUP3 ADD PUSH1 0x0 PUSH2 0x100 EXP DUP2 SLOAD SWAP1 PUSH16 0xFFFFFFFFFFFFFFFFFFFFFFFFFFFFFFFF MUL NOT AND SWAP1 SSTORE PUSH1 0x1 DUP3 ADD PUSH1 0x0 PUSH2 0x686 SWAP2 SWAP1 PUSH2 0xE3F JUMP JUMPDEST PUSH1 0x2 DUP3 ADD PUSH1 0x0 PUSH2 0x696 SWAP2 SWAP1 PUSH2 0xE3F JUMP JUMPDEST PUSH1 0x3 DUP3 ADD PUSH1 0x0 SWAP1 SSTORE PUSH1 0x4 DUP3 ADD PUSH1 0x0 PUSH2 0x100 EXP DUP2 SLOAD SWAP1 PUSH1 0xFF MUL NOT AND SWAP1 SSTORE PUSH1 0x4 DUP3 ADD PUSH1 0x1 PUSH2 0x100 EXP DUP2 SLOAD SWAP1 PUSH1 0xFF MUL NOT AND SWAP1 SSTORE POP POP POP JUMP JUMPDEST PUSH1 0x0 DUP6 DUP6 PUSH1 0x40 MLOAD PUSH1 0x20 ADD PUSH2 0x6E0 SWAP3 SWAP2 SWAP1 PUSH2 0x1B5A JUMP JUMPDEST PUSH1 0x40 MLOAD PUSH1 0x20 DUP2 DUP4 SUB SUB DUP2 MSTORE SWAP1 PUSH1 0x40 MSTORE SWAP1 POP PUSH1 0x0 DUP2 PUSH1 0x40 MLOAD PUSH1 0x20 ADD PUSH2 0x704 SWAP2 SWAP1 PUSH2 0x1B89 JUMP JUMPDEST PUSH1 0x40 MLOAD PUSH1 0x20 DUP2 DUP4 SUB SUB DUP2 MSTORE SWAP1 PUSH1 0x40 MSTORE DUP1 MLOAD SWAP1 PUSH1 0x20 ADD KECCAK256 SWAP1 POP PUSH1 0x0 PUSH1 0x40 MLOAD DUP1 PUSH1 0xC0 ADD PUSH1 0x40 MSTORE DUP1 DUP4 PUSH16 0xFFFFFFFFFFFFFFFFFFFFFFFFFFFFFFFF NOT AND DUP2 MSTORE PUSH1 0x20 ADD DUP10 DUP2 MSTORE PUSH1 0x20 ADD DUP9 DUP2 MSTORE PUSH1 0x20 ADD DUP8 DUP2 MSTORE PUSH1 0x20 ADD DUP7 PUSH1 0x1 DUP2 GT ISZERO PUSH2 0x767 JUMPI PUSH2 0x766 PUSH2 0x1264 JUMP JUMPDEST JUMPDEST DUP2 MSTORE PUSH1 0x20 ADD DUP6 PUSH1 0x2 DUP2 GT ISZERO PUSH2 0x77F JUMPI PUSH2 0x77E PUSH2 0x1264 JUMP JUMPDEST JUMPDEST DUP2 MSTORE POP SWAP1 DUP1 PUSH1 0x1 DUP2 SLOAD ADD DUP1 DUP3 SSTORE DUP1 SWAP2 POP POP PUSH1 0x1 SWAP1 SUB SWAP1 PUSH1 0x0 MSTORE PUSH1 0x20 PUSH1 0x0 KECCAK256 SWAP1 PUSH1 0x5 MUL ADD PUSH1 0x0 SWAP1 SWAP2 SWAP1 SWAP2 SWAP1 SWAP2 POP PUSH1 0x0 DUP3 ADD MLOAD DUP2 PUSH1 0x0 ADD PUSH1 0x0 PUSH2 0x100 EXP DUP2 SLOAD DUP2 PUSH16 0xFFFFFFFFFFFFFFFFFFFFFFFFFFFFFFFF MUL NOT AND SWAP1 DUP4 PUSH1 0x80 SHR MUL OR SWAP1 SSTORE POP PUSH1 0x20 DUP3 ADD MLOAD DUP2 PUSH1 0x1 ADD SWAP1 DUP2 PUSH2 0x7F0 SWAP2 SWAP1 PUSH2 0x1A00 JUMP JUMPDEST POP PUSH1 0x40 DUP3 ADD MLOAD DUP2 PUSH1 0x2 ADD SWAP1 DUP2 PUSH2 0x806 SWAP2 SWAP1 PUSH2 0x1A00 JUMP JUMPDEST POP PUSH1 0x60 DUP3 ADD MLOAD DUP2 PUSH1 0x3 ADD SSTORE PUSH1 0x80 DUP3 ADD MLOAD DUP2 PUSH1 0x4 ADD PUSH1 0x0 PUSH2 0x100 EXP DUP2 SLOAD DUP2 PUSH1 0xFF MUL NOT AND SWAP1 DUP4 PUSH1 0x1 DUP2 GT ISZERO PUSH2 0x83C JUMPI PUSH2 0x83B PUSH2 0x1264 JUMP JUMPDEST JUMPDEST MUL OR SWAP1 SSTORE POP PUSH1 0xA0 DUP3 ADD MLOAD DUP2 PUSH1 0x4 ADD PUSH1 0x1 PUSH2 0x100 EXP DUP2 SLOAD DUP2 PUSH1 0xFF MUL NOT AND SWAP1 DUP4 PUSH1 0x2 DUP2 GT ISZERO PUSH2 0x86C JUMPI PUSH2 0x86B PUSH2 0x1264 JUMP JUMPDEST JUMPDEST MUL OR SWAP1 SSTORE POP POP POP POP POP POP POP POP POP POP JUMP JUMPDEST PUSH1 0x60 PUSH1 0x0 DUP1 SLOAD DUP1 PUSH1 0x20 MUL PUSH1 0x20 ADD PUSH1 0x40 MLOAD SWAP1 DUP2 ADD PUSH1 0x40 MSTORE DUP1 SWAP3 SWAP2 SWAP1 DUP2 DUP2 MSTORE PUSH1 0x20 ADD PUSH1 0x0 SWAP1 JUMPDEST DUP3 DUP3 LT ISZERO PUSH2 0xAB3 JUMPI DUP4 DUP3 SWAP1 PUSH1 0x0 MSTORE PUSH1 0x20 PUSH1 0x0 KECCAK256 SWAP1 PUSH1 0x5 MUL ADD PUSH1 0x40 MLOAD DUP1 PUSH1 0xC0 ADD PUSH1 0x40 MSTORE SWAP1 DUP2 PUSH1 0x0 DUP3 ADD PUSH1 0x0 SWAP1 SLOAD SWAP1 PUSH2 0x100 EXP SWAP1 DIV PUSH1 0x80 SHL PUSH16 0xFFFFFFFFFFFFFFFFFFFFFFFFFFFFFFFF NOT AND PUSH16 0xFFFFFFFFFFFFFFFFFFFFFFFFFFFFFFFF NOT AND DUP2 MSTORE PUSH1 0x20 ADD PUSH1 0x1 DUP3 ADD DUP1 SLOAD PUSH2 0x910 SWAP1 PUSH2 0x1823 JUMP JUMPDEST DUP1 PUSH1 0x1F ADD PUSH1 0x20 DUP1 SWAP2 DIV MUL PUSH1 0x20 ADD PUSH1 0x40 MLOAD SWAP1 DUP2 ADD PUSH1 0x40 MSTORE DUP1 SWAP3 SWAP2 SWAP1 DUP2 DUP2 MSTORE PUSH1 0x20 ADD DUP3 DUP1 SLOAD PUSH2 0x93C SWAP1 PUSH2 0x1823 JUMP JUMPDEST DUP1 ISZERO PUSH2 0x989 JUMPI DUP1 PUSH1 0x1F LT PUSH2 0x95E JUMPI PUSH2 0x100 DUP1 DUP4 SLOAD DIV MUL DUP4 MSTORE SWAP2 PUSH1 0x20 ADD SWAP2 PUSH2 0x989 JUMP JUMPDEST DUP3 ADD SWAP2 SWAP1 PUSH1 0x0 MSTORE PUSH1 0x20 PUSH1 0x0 KECCAK256 SWAP1 JUMPDEST DUP2 SLOAD DUP2 MSTORE SWAP1 PUSH1 0x1 ADD SWAP1 PUSH1 0x20 ADD DUP1 DUP4 GT PUSH2 0x96C JUMPI DUP3 SWAP1 SUB PUSH1 0x1F AND DUP3 ADD SWAP2 JUMPDEST POP POP POP POP POP DUP2 MSTORE PUSH1 0x20 ADD PUSH1 0x2 DUP3 ADD DUP1 SLOAD PUSH2 0x9A2 SWAP1 PUSH2 0x1823 JUMP JUMPDEST DUP1 PUSH1 0x1F ADD PUSH1 0x20 DUP1 SWAP2 DIV MUL PUSH1 0x20 ADD PUSH1 0x40 MLOAD SWAP1 DUP2 ADD PUSH1 0x40 MSTORE DUP1 SWAP3 SWAP2 SWAP1 DUP2 DUP2 MSTORE PUSH1 0x20 ADD DUP3 DUP1 SLOAD PUSH2 0x9CE SWAP1 PUSH2 0x1823 JUMP JUMPDEST DUP1 ISZERO PUSH2 0xA1B JUMPI DUP1 PUSH1 0x1F LT PUSH2 0x9F0 JUMPI PUSH2 0x100 DUP1 DUP4 SLOAD DIV MUL DUP4 MSTORE SWAP2 PUSH1 0x20 ADD SWAP2 PUSH2 0xA1B JUMP JUMPDEST DUP3 ADD SWAP2 SWAP1 PUSH1 0x0 MSTORE PUSH1 0x20 PUSH1 0x0 KECCAK256 SWAP1 JUMPDEST DUP2 SLOAD DUP2 MSTORE SWAP1 PUSH1 0x1 ADD SWAP1 PUSH1 0x20 ADD DUP1 DUP4 GT PUSH2 0x9FE JUMPI DUP3 SWAP1 SUB PUSH1 0x1F AND DUP3 ADD SWAP2 JUMPDEST POP POP POP POP POP DUP2 MSTORE PUSH1 0x20 ADD PUSH1 0x3 DUP3 ADD SLOAD DUP2 MSTORE PUSH1 0x20 ADD PUSH1 0x4 DUP3 ADD PUSH1 0x0 SWAP1 SLOAD SWAP1 PUSH2 0x100 EXP SWAP1 DIV PUSH1 0xFF AND PUSH1 0x1 DUP2 GT ISZERO PUSH2 0xA53 JUMPI PUSH2 0xA52 PUSH2 0x1264 JUMP JUMPDEST JUMPDEST PUSH1 0x1 DUP2 GT ISZERO PUSH2 0xA65 JUMPI PUSH2 0xA64 PUSH2 0x1264 JUMP JUMPDEST JUMPDEST DUP2 MSTORE PUSH1 0x20 ADD PUSH1 0x4 DUP3 ADD PUSH1 0x1 SWAP1 SLOAD SWAP1 PUSH2 0x100 EXP SWAP1 DIV PUSH1 0xFF AND PUSH1 0x2 DUP2 GT ISZERO PUSH2 0xA8E JUMPI PUSH2 0xA8D PUSH2 0x1264 JUMP JUMPDEST JUMPDEST PUSH1 0x2 DUP2 GT ISZERO PUSH2 0xAA0 JUMPI PUSH2 0xA9F PUSH2 0x1264 JUMP JUMPDEST JUMPDEST DUP2 MSTORE POP POP DUP2 MSTORE PUSH1 0x20 ADD SWAP1 PUSH1 0x1 ADD SWAP1 PUSH2 0x8A0 JUMP JUMPDEST POP POP POP POP SWAP1 POP SWAP1 JUMP JUMPDEST PUSH1 0x60 PUSH1 0x0 DUP1 PUSH1 0x1 DUP2 GT ISZERO PUSH2 0xAD3 JUMPI PUSH2 0xAD2 PUSH2 0x1264 JUMP JUMPDEST JUMPDEST DUP4 PUSH1 0x1 DUP2 GT ISZERO PUSH2 0xAE6 JUMPI PUSH2 0xAE5 PUSH2 0x1264 JUMP JUMPDEST JUMPDEST EQ PUSH2 0xB26 JUMPI PUSH1 0x40 MLOAD DUP1 PUSH1 0x40 ADD PUSH1 0x40 MSTORE DUP1 PUSH1 0x6 DUP2 MSTORE PUSH1 0x20 ADD PUSH32 0x46454D414C450000000000000000000000000000000000000000000000000000 DUP2 MSTORE POP PUSH2 0xB5D JUMP JUMPDEST PUSH1 0x40 MLOAD DUP1 PUSH1 0x40 ADD PUSH1 0x40 MSTORE DUP1 PUSH1 0x4 DUP2 MSTORE PUSH1 0x20 ADD PUSH32 0x4D414C4500000000000000000000000000000000000000000000000000000000 DUP2 MSTORE POP JUMPDEST SWAP1 POP DUP1 SWAP2 POP POP SWAP2 SWAP1 POP JUMP JUMPDEST PUSH1 0x60 DUP1 PUSH1 0x0 PUSH1 0x60 DUP1 PUSH1 0x0 JUMPDEST PUSH1 0x0 DUP1 SLOAD SWAP1 POP DUP2 LT ISZERO PUSH2 0xDFA JUMPI DUP7 PUSH16 0xFFFFFFFFFFFFFFFFFFFFFFFFFFFFFFFF NOT AND PUSH1 0x0 DUP3 DUP2 SLOAD DUP2 LT PUSH2 0xBA8 JUMPI PUSH2 0xBA7 PUSH2 0x17C5 JUMP JUMPDEST JUMPDEST SWAP1 PUSH1 0x0 MSTORE PUSH1 0x20 PUSH1 0x0 KECCAK256 SWAP1 PUSH1 0x5 MUL ADD PUSH1 0x0 ADD PUSH1 0x0 SWAP1 SLOAD SWAP1 PUSH2 0x100 EXP SWAP1 DIV PUSH1 0x80 SHL PUSH16 0xFFFFFFFFFFFFFFFFFFFFFFFFFFFFFFFF NOT AND SUB PUSH2 0xDED JUMPI PUSH1 0x0 DUP2 DUP2 SLOAD DUP2 LT PUSH2 0xBF3 JUMPI PUSH2 0xBF2 PUSH2 0x17C5 JUMP JUMPDEST JUMPDEST SWAP1 PUSH1 0x0 MSTORE PUSH1 0x20 PUSH1 0x0 KECCAK256 SWAP1 PUSH1 0x5 MUL ADD PUSH1 0x1 ADD PUSH1 0x0 DUP3 DUP2 SLOAD DUP2 LT PUSH2 0xC18 JUMPI PUSH2 0xC17 PUSH2 0x17C5 JUMP JUMPDEST JUMPDEST SWAP1 PUSH1 0x0 MSTORE PUSH1 0x20 PUSH1 0x0 KECCAK256 SWAP1 PUSH1 0x5 MUL ADD PUSH1 0x2 ADD PUSH1 0x0 DUP4 DUP2 SLOAD DUP2 LT PUSH2 0xC3D JUMPI PUSH2 0xC3C PUSH2 0x17C5 JUMP JUMPDEST JUMPDEST SWAP1 PUSH1 0x0 MSTORE PUSH1 0x20 PUSH1 0x0 KECCAK256 SWAP1 PUSH1 0x5 MUL ADD PUSH1 0x3 ADD SLOAD PUSH2 0xC8A PUSH1 0x0 DUP6 DUP2 SLOAD DUP2 LT PUSH2 0xC66 JUMPI PUSH2 0xC65 PUSH2 0x17C5 JUMP JUMPDEST JUMPDEST SWAP1 PUSH1 0x0 MSTORE PUSH1 0x20 PUSH1 0x0 KECCAK256 SWAP1 PUSH1 0x5 MUL ADD PUSH1 0x4 ADD PUSH1 0x0 SWAP1 SLOAD SWAP1 PUSH2 0x100 EXP SWAP1 DIV PUSH1 0xFF AND PUSH2 0xABC JUMP JUMPDEST PUSH2 0xCC5 PUSH1 0x0 DUP7 DUP2 SLOAD DUP2 LT PUSH2 0xCA1 JUMPI PUSH2 0xCA0 PUSH2 0x17C5 JUMP JUMPDEST JUMPDEST SWAP1 PUSH1 0x0 MSTORE PUSH1 0x20 PUSH1 0x0 KECCAK256 SWAP1 PUSH1 0x5 MUL ADD PUSH1 0x4 ADD PUSH1 0x1 SWAP1 SLOAD SWAP1 PUSH2 0x100 EXP SWAP1 DIV PUSH1 0xFF AND PUSH2 0x1F1 JUMP JUMPDEST DUP5 DUP1 SLOAD PUSH2 0xCD1 SWAP1 PUSH2 0x1823 JUMP JUMPDEST DUP1 PUSH1 0x1F ADD PUSH1 0x20 DUP1 SWAP2 DIV MUL PUSH1 0x20 ADD PUSH1 0x40 MLOAD SWAP1 DUP2 ADD PUSH1 0x40 MSTORE DUP1 SWAP3 SWAP2 SWAP1 DUP2 DUP2 MSTORE PUSH1 0x20 ADD DUP3 DUP1 SLOAD PUSH2 0xCFD SWAP1 PUSH2 0x1823 JUMP JUMPDEST DUP1 ISZERO PUSH2 0xD4A JUMPI DUP1 PUSH1 0x1F LT PUSH2 0xD1F JUMPI PUSH2 0x100 DUP1 DUP4 SLOAD DIV MUL DUP4 MSTORE SWAP2 PUSH1 0x20 ADD SWAP2 PUSH2 0xD4A JUMP JUMPDEST DUP3 ADD SWAP2 SWAP1 PUSH1 0x0 MSTORE PUSH1 0x20 PUSH1 0x0 KECCAK256 SWAP1 JUMPDEST DUP2 SLOAD DUP2 MSTORE SWAP1 PUSH1 0x1 ADD SWAP1 PUSH1 0x20 ADD DUP1 DUP4 GT PUSH2 0xD2D JUMPI DUP3 SWAP1 SUB PUSH1 0x1F AND DUP3 ADD SWAP2 JUMPDEST POP POP POP POP POP SWAP5 POP DUP4 DUP1 SLOAD PUSH2 0xD5D SWAP1 PUSH2 0x1823 JUMP JUMPDEST DUP1 PUSH1 0x1F ADD PUSH1 0x20 DUP1 SWAP2 DIV MUL PUSH1 0x20 ADD PUSH1 0x40 MLOAD SWAP1 DUP2 ADD PUSH1 0x40 MSTORE DUP1 SWAP3 SWAP2 SWAP1 DUP2 DUP2 MSTORE PUSH1 0x20 ADD DUP3 DUP1 SLOAD PUSH2 0xD89 SWAP1 PUSH2 0x1823 JUMP JUMPDEST DUP1 ISZERO PUSH2 0xDD6 JUMPI DUP1 PUSH1 0x1F LT PUSH2 0xDAB JUMPI PUSH2 0x100 DUP1 DUP4 SLOAD DIV MUL DUP4 MSTORE SWAP2 PUSH1 0x20 ADD SWAP2 PUSH2 0xDD6 JUMP JUMPDEST DUP3 ADD SWAP2 SWAP1 PUSH1 0x0 MSTORE PUSH1 0x20 PUSH1 0x0 KECCAK256 SWAP1 JUMPDEST DUP2 SLOAD DUP2 MSTORE SWAP1 PUSH1 0x1 ADD SWAP1 PUSH1 0x20 ADD DUP1 DUP4 GT PUSH2 0xDB9 JUMPI DUP3 SWAP1 SUB PUSH1 0x1F AND DUP3 ADD SWAP2 JUMPDEST POP POP POP POP POP SWAP4 POP SWAP6 POP SWAP6 POP SWAP6 POP SWAP6 POP SWAP6 POP POP PUSH2 0xE36 JUMP JUMPDEST DUP1 DUP1 PUSH1 0x1 ADD SWAP2 POP POP PUSH2 0xB73 JUMP JUMPDEST POP PUSH1 0x40 MLOAD PUSH32 0x8C379A000000000000000000000000000000000000000000000000000000000 DUP2 MSTORE PUSH1 0x4 ADD PUSH2 0xE2D SWAP1 PUSH2 0x1BEC JUMP JUMPDEST PUSH1 0x40 MLOAD DUP1 SWAP2 SUB SWAP1 REVERT JUMPDEST SWAP2 SWAP4 SWAP6 SWAP1 SWAP3 SWAP5 POP JUMP JUMPDEST POP DUP1 SLOAD PUSH2 0xE4B SWAP1 PUSH2 0x1823 JUMP JUMPDEST PUSH1 0x0 DUP3 SSTORE DUP1 PUSH1 0x1F LT PUSH2 0xE5D JUMPI POP PUSH2 0xE7C JUMP JUMPDEST PUSH1 0x1F ADD PUSH1 0x20 SWAP1 DIV SWAP1 PUSH1 0x0 MSTORE PUSH1 0x20 PUSH1 0x0 KECCAK256 SWAP1 DUP2 ADD SWAP1 PUSH2 0xE7B SWAP2 SWAP1 PUSH2 0xE7F JUMP JUMPDEST JUMPDEST POP JUMP JUMPDEST JUMPDEST DUP1 DUP3 GT ISZERO PUSH2 0xE98 JUMPI PUSH1 0x0 DUP2 PUSH1 0x0 SWAP1 SSTORE POP PUSH1 0x1 ADD PUSH2 0xE80 JUMP JUMPDEST POP SWAP1 JUMP JUMPDEST PUSH1 0x0 PUSH1 0x40 MLOAD SWAP1 POP SWAP1 JUMP JUMPDEST PUSH1 0x0 DUP1 REVERT JUMPDEST PUSH1 0x0 DUP1 REVERT JUMPDEST PUSH1 0x3 DUP2 LT PUSH2 0xEBD JUMPI PUSH1 0x0 DUP1 REVERT JUMPDEST POP JUMP JUMPDEST PUSH1 0x0 DUP2 CALLDATALOAD SWAP1 POP PUSH2 0xECF DUP2 PUSH2 0xEB0 JUMP JUMPDEST SWAP3 SWAP2 POP POP JUMP JUMPDEST PUSH1 0x0 PUSH1 0x20 DUP3 DUP5 SUB SLT ISZERO PUSH2 0xEEB JUMPI PUSH2 0xEEA PUSH2 0xEA6 JUMP JUMPDEST JUMPDEST PUSH1 0x0 PUSH2 0xEF9 DUP5 DUP3 DUP6 ADD PUSH2 0xEC0 JUMP JUMPDEST SWAP2 POP POP SWAP3 SWAP2 POP POP JUMP JUMPDEST PUSH1 0x0 DUP2 MLOAD SWAP1 POP SWAP2 SWAP1 POP JUMP JUMPDEST PUSH1 0x0 DUP3 DUP3 MSTORE PUSH1 0x20 DUP3 ADD SWAP1 POP SWAP3 SWAP2 POP POP JUMP JUMPDEST PUSH1 0x0 JUMPDEST DUP4 DUP2 LT ISZERO PUSH2 0xF3C JUMPI DUP1 DUP3 ADD MLOAD DUP2 DUP5 ADD MSTORE PUSH1 0x20 DUP2 ADD SWAP1 POP PUSH2 0xF21 JUMP JUMPDEST PUSH1 0x0 DUP5 DUP5 ADD MSTORE POP POP POP POP JUMP JUMPDEST PUSH1 0x0 PUSH1 0x1F NOT PUSH1 0x1F DUP4 ADD AND SWAP1 POP SWAP2 SWAP1 POP JUMP JUMPDEST PUSH1 0x0 PUSH2 0xF64 DUP3 PUSH2 0xF02 JUMP JUMPDEST PUSH2 0xF6E DUP2 DUP6 PUSH2 0xF0D JUMP JUMPDEST SWAP4 POP PUSH2 0xF7E DUP2 DUP6 PUSH1 0x20 DUP7 ADD PUSH2 0xF1E JUMP JUMPDEST PUSH2 0xF87 DUP2 PUSH2 0xF48 JUMP JUMPDEST DUP5 ADD SWAP2 POP POP SWAP3 SWAP2 POP POP JUMP JUMPDEST PUSH1 0x0 PUSH1 0x20 DUP3 ADD SWAP1 POP DUP2 DUP2 SUB PUSH1 0x0 DUP4 ADD MSTORE PUSH2 0xFAC DUP2 DUP5 PUSH2 0xF59 JUMP JUMPDEST SWAP1 POP SWAP3 SWAP2 POP POP JUMP JUMPDEST PUSH1 0x0 DUP2 SWAP1 POP SWAP2 SWAP1 POP JUMP JUMPDEST PUSH2 0xFC7 DUP2 PUSH2 0xFB4 JUMP JUMPDEST DUP3 MSTORE POP POP JUMP JUMPDEST PUSH1 0x0 PUSH1 0x20 DUP3 ADD SWAP1 POP PUSH2 0xFE2 PUSH1 0x0 DUP4 ADD DUP5 PUSH2 0xFBE JUMP JUMPDEST SWAP3 SWAP2 POP POP JUMP JUMPDEST PUSH2 0xFF1 DUP2 PUSH2 0xFB4 JUMP JUMPDEST DUP2 EQ PUSH2 0xFFC JUMPI PUSH1 0x0 DUP1 REVERT JUMPDEST POP JUMP JUMPDEST PUSH1 0x0 DUP2 CALLDATALOAD SWAP1 POP PUSH2 0x100E DUP2 PUSH2 0xFE8 JUMP JUMPDEST SWAP3 SWAP2 POP POP JUMP JUMPDEST PUSH1 0x0 DUP1 REVERT JUMPDEST PUSH1 0x0 DUP1 REVERT JUMPDEST PUSH32 0x4E487B7100000000000000000000000000000000000000000000000000000000 PUSH1 0x0 MSTORE PUSH1 0x41 PUSH1 0x4 MSTORE PUSH1 0x24 PUSH1 0x0 REVERT JUMPDEST PUSH2 0x1056 DUP3 PUSH2 0xF48 JUMP JUMPDEST DUP2 ADD DUP2 DUP2 LT PUSH8 0xFFFFFFFFFFFFFFFF DUP3 GT OR ISZERO PUSH2 0x1075 JUMPI PUSH2 0x1074 PUSH2 0x101E JUMP JUMPDEST JUMPDEST DUP1 PUSH1 0x40 MSTORE POP POP POP JUMP JUMPDEST PUSH1 0x0 PUSH2 0x1088 PUSH2 0xE9C JUMP JUMPDEST SWAP1 POP PUSH2 0x1094 DUP3 DUP3 PUSH2 0x104D JUMP JUMPDEST SWAP2 SWAP1 POP JUMP JUMPDEST PUSH1 0x0 PUSH8 0xFFFFFFFFFFFFFFFF DUP3 GT ISZERO PUSH2 0x10B4 JUMPI PUSH2 0x10B3 PUSH2 0x101E JUMP JUMPDEST JUMPDEST PUSH2 0x10BD DUP3 PUSH2 0xF48 JUMP JUMPDEST SWAP1 POP PUSH1 0x20 DUP2 ADD SWAP1 POP SWAP2 SWAP1 POP JUMP JUMPDEST DUP3 DUP2 DUP4 CALLDATACOPY PUSH1 0x0 DUP4 DUP4 ADD MSTORE POP POP POP JUMP JUMPDEST PUSH1 0x0 PUSH2 0x10EC PUSH2 0x10E7 DUP5 PUSH2 0x1099 JUMP JUMPDEST PUSH2 0x107E JUMP JUMPDEST SWAP1 POP DUP3 DUP2 MSTORE PUSH1 0x20 DUP2 ADD DUP5 DUP5 DUP5 ADD GT ISZERO PUSH2 0x1108 JUMPI PUSH2 0x1107 PUSH2 0x1019 JUMP JUMPDEST JUMPDEST PUSH2 0x1113 DUP5 DUP3 DUP6 PUSH2 0x10CA JUMP JUMPDEST POP SWAP4 SWAP3 POP POP POP JUMP JUMPDEST PUSH1 0x0 DUP3 PUSH1 0x1F DUP4 ADD SLT PUSH2 0x1130 JUMPI PUSH2 0x112F PUSH2 0x1014 JUMP JUMPDEST JUMPDEST DUP2 CALLDATALOAD PUSH2 0x1140 DUP5 DUP3 PUSH1 0x20 DUP7 ADD PUSH2 0x10D9 JUMP JUMPDEST SWAP2 POP POP SWAP3 SWAP2 POP POP JUMP JUMPDEST PUSH1 0x0 DUP1 PUSH1 0x0 DUP1 PUSH1 0x0 PUSH1 0xA0 DUP7 DUP9 SUB SLT ISZERO PUSH2 0x1165 JUMPI PUSH2 0x1164 PUSH2 0xEA6 JUMP JUMPDEST JUMPDEST PUSH1 0x0 PUSH2 0x1173 DUP9 DUP3 DUP10 ADD PUSH2 0xFFF JUMP JUMPDEST SWAP6 POP POP PUSH1 0x20 DUP7 ADD CALLDATALOAD PUSH8 0xFFFFFFFFFFFFFFFF DUP2 GT ISZERO PUSH2 0x1194 JUMPI PUSH2 0x1193 PUSH2 0xEAB JUMP JUMPDEST JUMPDEST PUSH2 0x11A0 DUP9 DUP3 DUP10 ADD PUSH2 0x111B JUMP JUMPDEST SWAP5 POP POP PUSH1 0x40 DUP7 ADD CALLDATALOAD PUSH8 0xFFFFFFFFFFFFFFFF DUP2 GT ISZERO PUSH2 0x11C1 JUMPI PUSH2 0x11C0 PUSH2 0xEAB JUMP JUMPDEST JUMPDEST PUSH2 0x11CD DUP9 DUP3 DUP10 ADD PUSH2 0x111B JUMP JUMPDEST SWAP4 POP POP PUSH1 0x60 PUSH2 0x11DE DUP9 DUP3 DUP10 ADD PUSH2 0xFFF JUMP JUMPDEST SWAP3 POP POP PUSH1 0x80 PUSH2 0x11EF DUP9 DUP3 DUP10 ADD PUSH2 0xEC0 JUMP JUMPDEST SWAP2 POP POP SWAP3 SWAP6 POP SWAP3 SWAP6 SWAP1 SWAP4 POP JUMP JUMPDEST PUSH1 0x0 PUSH1 0x20 DUP3 DUP5 SUB SLT ISZERO PUSH2 0x1212 JUMPI PUSH2 0x1211 PUSH2 0xEA6 JUMP JUMPDEST JUMPDEST PUSH1 0x0 PUSH2 0x1220 DUP5 DUP3 DUP6 ADD PUSH2 0xFFF JUMP JUMPDEST SWAP2 POP POP SWAP3 SWAP2 POP POP JUMP JUMPDEST PUSH1 0x0 PUSH32 0xFFFFFFFFFFFFFFFFFFFFFFFFFFFFFFFF00000000000000000000000000000000 DUP3 AND SWAP1 POP SWAP2 SWAP1 POP JUMP JUMPDEST PUSH2 0x125E DUP2 PUSH2 0x1229 JUMP JUMPDEST DUP3 MSTORE POP POP JUMP JUMPDEST PUSH32 0x4E487B7100000000000000000000000000000000000000000000000000000000 PUSH1 0x0 MSTORE PUSH1 0x21 PUSH1 0x4 MSTORE PUSH1 0x24 PUSH1 0x0 REVERT JUMPDEST PUSH1 0x2 DUP2 LT PUSH2 0x12A4 JUMPI PUSH2 0x12A3 PUSH2 0x1264 JUMP JUMPDEST JUMPDEST POP JUMP JUMPDEST PUSH1 0x0 DUP2 SWAP1 POP PUSH2 0x12B5 DUP3 PUSH2 0x1293 JUMP JUMPDEST SWAP2 SWAP1 POP JUMP JUMPDEST PUSH1 0x0 PUSH2 0x12C5 DUP3 PUSH2 0x12A7 JUMP JUMPDEST SWAP1 POP SWAP2 SWAP1 POP JUMP JUMPDEST PUSH2 0x12D5 DUP2 PUSH2 0x12BA JUMP JUMPDEST DUP3 MSTORE POP POP JUMP JUMPDEST PUSH1 0x3 DUP2 LT PUSH2 0x12EC JUMPI PUSH2 0x12EB PUSH2 0x1264 JUMP JUMPDEST JUMPDEST POP JUMP JUMPDEST PUSH1 0x0 DUP2 SWAP1 POP PUSH2 0x12FD DUP3 PUSH2 0x12DB JUMP JUMPDEST SWAP2 SWAP1 POP JUMP JUMPDEST PUSH1 0x0 PUSH2 0x130D DUP3 PUSH2 0x12EF JUMP JUMPDEST SWAP1 POP SWAP2 SWAP1 POP JUMP JUMPDEST PUSH2 0x131D DUP2 PUSH2 0x1302 JUMP JUMPDEST DUP3 MSTORE POP POP JUMP JUMPDEST PUSH1 0x0 PUSH1 0xC0 DUP3 ADD SWAP1 POP PUSH2 0x1338 PUSH1 0x0 DUP4 ADD DUP10 PUSH2 0x1255 JUMP JUMPDEST DUP2 DUP2 SUB PUSH1 0x20 DUP4 ADD MSTORE PUSH2 0x134A DUP2 DUP9 PUSH2 0xF59 JUMP JUMPDEST SWAP1 POP DUP2 DUP2 SUB PUSH1 0x40 DUP4 ADD MSTORE PUSH2 0x135E DUP2 DUP8 PUSH2 0xF59 JUMP JUMPDEST SWAP1 POP PUSH2 0x136D PUSH1 0x60 DUP4 ADD DUP7 PUSH2 0xFBE JUMP JUMPDEST PUSH2 0x137A PUSH1 0x80 DUP4 ADD DUP6 PUSH2 0x12CC JUMP JUMPDEST PUSH2 0x1387 PUSH1 0xA0 DUP4 ADD DUP5 PUSH2 0x1314 JUMP JUMPDEST SWAP8 SWAP7 POP POP POP POP POP POP POP JUMP JUMPDEST PUSH1 0x2 DUP2 LT PUSH2 0x139F JUMPI PUSH1 0x0 DUP1 REVERT JUMPDEST POP JUMP JUMPDEST PUSH1 0x0 DUP2 CALLDATALOAD SWAP1 POP PUSH2 0x13B1 DUP2 PUSH2 0x1392 JUMP JUMPDEST SWAP3 SWAP2 POP POP JUMP JUMPDEST PUSH1 0x0 DUP1 PUSH1 0x0 DUP1 PUSH1 0x0 PUSH1 0xA0 DUP7 DUP9 SUB SLT ISZERO PUSH2 0x13D3 JUMPI PUSH2 0x13D2 PUSH2 0xEA6 JUMP JUMPDEST JUMPDEST PUSH1 0x0 DUP7 ADD CALLDATALOAD PUSH8 0xFFFFFFFFFFFFFFFF DUP2 GT ISZERO PUSH2 0x13F1 JUMPI PUSH2 0x13F0 PUSH2 0xEAB JUMP JUMPDEST JUMPDEST PUSH2 0x13FD DUP9 DUP3 DUP10 ADD PUSH2 0x111B JUMP JUMPDEST SWAP6 POP POP PUSH1 0x20 DUP7 ADD CALLDATALOAD PUSH8 0xFFFFFFFFFFFFFFFF DUP2 GT ISZERO PUSH2 0x141E JUMPI PUSH2 0x141D PUSH2 0xEAB JUMP JUMPDEST JUMPDEST PUSH2 0x142A DUP9 DUP3 DUP10 ADD PUSH2 0x111B JUMP JUMPDEST SWAP5 POP POP PUSH1 0x40 PUSH2 0x143B DUP9 DUP3 DUP10 ADD PUSH2 0xFFF JUMP JUMPDEST SWAP4 POP POP PUSH1 0x60 PUSH2 0x144C DUP9 DUP3 DUP10 ADD PUSH2 0x13A2 JUMP JUMPDEST SWAP3 POP POP PUSH1 0x80 PUSH2 0x145D DUP9 DUP3 DUP10 ADD PUSH2 0xEC0 JUMP JUMPDEST SWAP2 POP POP SWAP3 SWAP6 POP SWAP3 SWAP6 SWAP1 SWAP4 POP JUMP JUMPDEST PUSH1 0x0 DUP2 MLOAD SWAP1 POP SWAP2 SWAP1 POP JUMP JUMPDEST PUSH1 0x0 DUP3 DUP3 MSTORE PUSH1 0x20 DUP3 ADD SWAP1 POP SWAP3 SWAP2 POP POP JUMP JUMPDEST PUSH1 0x0 DUP2 SWAP1 POP PUSH1 0x20 DUP3 ADD SWAP1 POP SWAP2 SWAP1 POP JUMP JUMPDEST PUSH2 0x149F DUP2 PUSH2 0x1229 JUMP JUMPDEST DUP3 MSTORE POP POP JUMP JUMPDEST PUSH1 0x0 DUP3 DUP3 MSTORE PUSH1 0x20 DUP3 ADD SWAP1 POP SWAP3 SWAP2 POP POP JUMP JUMPDEST PUSH1 0x0 PUSH2 0x14C1 DUP3 PUSH2 0xF02 JUMP JUMPDEST PUSH2 0x14CB DUP2 DUP6 PUSH2 0x14A5 JUMP JUMPDEST SWAP4 POP PUSH2 0x14DB DUP2 DUP6 PUSH1 0x20 DUP7 ADD PUSH2 0xF1E JUMP JUMPDEST PUSH2 0x14E4 DUP2 PUSH2 0xF48 JUMP JUMPDEST DUP5 ADD SWAP2 POP POP SWAP3 SWAP2 POP POP JUMP JUMPDEST PUSH2 0x14F8 DUP2 PUSH2 0xFB4 JUMP JUMPDEST DUP3 MSTORE POP POP JUMP JUMPDEST PUSH2 0x1507 DUP2 PUSH2 0x12BA JUMP JUMPDEST DUP3 MSTORE POP POP JUMP JUMPDEST PUSH2 0x1516 DUP2 PUSH2 0x1302 JUMP JUMPDEST DUP3 MSTORE POP POP JUMP JUMPDEST PUSH1 0x0 PUSH1 0xC0 DUP4 ADD PUSH1 0x0 DUP4 ADD MLOAD PUSH2 0x1534 PUSH1 0x0 DUP7 ADD DUP3 PUSH2 0x1496 JUMP JUMPDEST POP PUSH1 0x20 DUP4 ADD MLOAD DUP5 DUP3 SUB PUSH1 0x20 DUP7 ADD MSTORE PUSH2 0x154C DUP3 DUP3 PUSH2 0x14B6 JUMP JUMPDEST SWAP2 POP POP PUSH1 0x40 DUP4 ADD MLOAD DUP5 DUP3 SUB PUSH1 0x40 DUP7 ADD MSTORE PUSH2 0x1566 DUP3 DUP3 PUSH2 0x14B6 JUMP JUMPDEST SWAP2 POP POP PUSH1 0x60 DUP4 ADD MLOAD PUSH2 0x157B PUSH1 0x60 DUP7 ADD DUP3 PUSH2 0x14EF JUMP JUMPDEST POP PUSH1 0x80 DUP4 ADD MLOAD PUSH2 0x158E PUSH1 0x80 DUP7 ADD DUP3 PUSH2 0x14FE JUMP JUMPDEST POP PUSH1 0xA0 DUP4 ADD MLOAD PUSH2 0x15A1 PUSH1 0xA0 DUP7 ADD DUP3 PUSH2 0x150D JUMP JUMPDEST POP DUP1 SWAP2 POP POP SWAP3 SWAP2 POP POP JUMP JUMPDEST PUSH1 0x0 PUSH2 0x15B8 DUP4 DUP4 PUSH2 0x151C JUMP JUMPDEST SWAP1 POP SWAP3 SWAP2 POP POP JUMP JUMPDEST PUSH1 0x0 PUSH1 0x20 DUP3 ADD SWAP1 POP SWAP2 SWAP1 POP JUMP JUMPDEST PUSH1 0x0 PUSH2 0x15D8 DUP3 PUSH2 0x146A JUMP JUMPDEST PUSH2 0x15E2 DUP2 DUP6 PUSH2 0x1475 JUMP JUMPDEST SWAP4 POP DUP4 PUSH1 0x20 DUP3 MUL DUP6 ADD PUSH2 0x15F4 DUP6 PUSH2 0x1486 JUMP JUMPDEST DUP1 PUSH1 0x0 JUMPDEST DUP6 DUP2 LT ISZERO PUSH2 0x1630 JUMPI DUP5 DUP5 SUB DUP10 MSTORE DUP2 MLOAD PUSH2 0x1611 DUP6 DUP3 PUSH2 0x15AC JUMP JUMPDEST SWAP5 POP PUSH2 0x161C DUP4 PUSH2 0x15C0 JUMP JUMPDEST SWAP3 POP PUSH1 0x20 DUP11 ADD SWAP10 POP POP PUSH1 0x1 DUP2 ADD SWAP1 POP PUSH2 0x15F8 JUMP JUMPDEST POP DUP3 SWAP8 POP DUP8 SWAP6 POP POP POP POP POP POP SWAP3 SWAP2 POP POP JUMP JUMPDEST PUSH1 0x0 PUSH1 0x20 DUP3 ADD SWAP1 POP DUP2 DUP2 SUB PUSH1 0x0 DUP4 ADD MSTORE PUSH2 0x165C DUP2 DUP5 PUSH2 0x15CD JUMP JUMPDEST SWAP1 POP SWAP3 SWAP2 POP POP JUMP JUMPDEST PUSH1 0x0 PUSH1 0x20 DUP3 DUP5 SUB SLT ISZERO PUSH2 0x167A JUMPI PUSH2 0x1679 PUSH2 0xEA6 JUMP JUMPDEST JUMPDEST PUSH1 0x0 PUSH2 0x1688 DUP5 DUP3 DUP6 ADD PUSH2 0x13A2 JUMP JUMPDEST SWAP2 POP POP SWAP3 SWAP2 POP POP JUMP JUMPDEST PUSH2 0x169A DUP2 PUSH2 0x1229 JUMP JUMPDEST DUP2 EQ PUSH2 0x16A5 JUMPI PUSH1 0x0 DUP1 REVERT JUMPDEST POP JUMP JUMPDEST PUSH1 0x0 DUP2 CALLDATALOAD SWAP1 POP PUSH2 0x16B7 DUP2 PUSH2 0x1691 JUMP JUMPDEST SWAP3 SWAP2 POP POP JUMP JUMPDEST PUSH1 0x0 PUSH1 0x20 DUP3 DUP5 SUB SLT ISZERO PUSH2 0x16D3 JUMPI PUSH2 0x16D2 PUSH2 0xEA6 JUMP JUMPDEST JUMPDEST PUSH1 0x0 PUSH2 0x16E1 DUP5 DUP3 DUP6 ADD PUSH2 0x16A8 JUMP JUMPDEST SWAP2 POP POP SWAP3 SWAP2 POP POP JUMP JUMPDEST PUSH1 0x0 PUSH1 0xA0 DUP3 ADD SWAP1 POP DUP2 DUP2 SUB PUSH1 0x0 DUP4 ADD MSTORE PUSH2 0x1704 DUP2 DUP9 PUSH2 0xF59 JUMP JUMPDEST SWAP1 POP DUP2 DUP2 SUB PUSH1 0x20 DUP4 ADD MSTORE PUSH2 0x1718 DUP2 DUP8 PUSH2 0xF59 JUMP JUMPDEST SWAP1 POP PUSH2 0x1727 PUSH1 0x40 DUP4 ADD DUP7 PUSH2 0xFBE JUMP JUMPDEST DUP2 DUP2 SUB PUSH1 0x60 DUP4 ADD MSTORE PUSH2 0x1739 DUP2 DUP6 PUSH2 0xF59 JUMP JUMPDEST SWAP1 POP DUP2 DUP2 SUB PUSH1 0x80 DUP4 ADD MSTORE PUSH2 0x174D DUP2 DUP5 PUSH2 0xF59 JUMP JUMPDEST SWAP1 POP SWAP7 SWAP6 POP POP POP POP POP POP JUMP JUMPDEST PUSH32 0x496E76616C69642073747564656E7420696E6465780000000000000000000000 PUSH1 0x0 DUP3 ADD MSTORE POP JUMP JUMPDEST PUSH1 0x0 PUSH2 0x178F PUSH1 0x15 DUP4 PUSH2 0xF0D JUMP JUMPDEST SWAP2 POP PUSH2 0x179A DUP3 PUSH2 0x1759 JUMP JUMPDEST PUSH1 0x20 DUP3 ADD SWAP1 POP SWAP2 SWAP1 POP JUMP JUMPDEST PUSH1 0x0 PUSH1 0x20 DUP3 ADD SWAP1 POP DUP2 DUP2 SUB PUSH1 0x0 DUP4 ADD MSTORE PUSH2 0x17BE DUP2 PUSH2 0x1782 JUMP JUMPDEST SWAP1 POP SWAP2 SWAP1 POP JUMP JUMPDEST PUSH32 0x4E487B7100000000000000000000000000000000000000000000000000000000 PUSH1 0x0 MSTORE PUSH1 0x32 PUSH1 0x4 MSTORE PUSH1 0x24 PUSH1 0x0 REVERT JUMPDEST PUSH32 0x4E487B7100000000000000000000000000000000000000000000000000000000 PUSH1 0x0 MSTORE PUSH1 0x22 PUSH1 0x4 MSTORE PUSH1 0x24 PUSH1 0x0 REVERT JUMPDEST PUSH1 0x0 PUSH1 0x2 DUP3 DIV SWAP1 POP PUSH1 0x1 DUP3 AND DUP1 PUSH2 0x183B JUMPI PUSH1 0x7F DUP3 AND SWAP2 POP JUMPDEST PUSH1 0x20 DUP3 LT DUP2 SUB PUSH2 0x184E JUMPI PUSH2 0x184D PUSH2 0x17F4 JUMP JUMPDEST JUMPDEST POP SWAP2 SWAP1 POP JUMP JUMPDEST PUSH1 0x0 DUP2 SWAP1 POP DUP2 PUSH1 0x0 MSTORE PUSH1 0x20 PUSH1 0x0 KECCAK256 SWAP1 POP SWAP2 SWAP1 POP JUMP JUMPDEST PUSH1 0x0 PUSH1 0x20 PUSH1 0x1F DUP4 ADD DIV SWAP1 POP SWAP2 SWAP1 POP JUMP JUMPDEST PUSH1 0x0 DUP3 DUP3 SHL SWAP1 POP SWAP3 SWAP2 POP POP JUMP JUMPDEST PUSH1 0x0 PUSH1 0x8 DUP4 MUL PUSH2 0x18B6 PUSH32 0xFFFFFFFFFFFFFFFFFFFFFFFFFFFFFFFFFFFFFFFFFFFFFFFFFFFFFFFFFFFFFFFF DUP3 PUSH2 0x1879 JUMP JUMPDEST PUSH2 0x18C0 DUP7 DUP4 PUSH2 0x1879 JUMP JUMPDEST SWAP6 POP DUP1 NOT DUP5 AND SWAP4 POP DUP1 DUP7 AND DUP5 OR SWAP3 POP POP POP SWAP4 SWAP3 POP POP POP JUMP JUMPDEST PUSH1 0x0 DUP2 SWAP1 POP SWAP2 SWAP1 POP JUMP JUMPDEST PUSH1 0x0 PUSH2 0x18FD PUSH2 0x18F8 PUSH2 0x18F3 DUP5 PUSH2 0xFB4 JUMP JUMPDEST PUSH2 0x18D8 JUMP JUMPDEST PUSH2 0xFB4 JUMP JUMPDEST SWAP1 POP SWAP2 SWAP1 POP JUMP JUMPDEST PUSH1 0x0 DUP2 SWAP1 POP SWAP2 SWAP1 POP JUMP JUMPDEST PUSH2 0x1917 DUP4 PUSH2 0x18E2 JUMP JUMPDEST PUSH2 0x192B PUSH2 0x1923 DUP3 PUSH2 0x1904 JUMP JUMPDEST DUP5 DUP5 SLOAD PUSH2 0x1886 JUMP JUMPDEST DUP3 SSTORE POP POP POP POP JUMP JUMPDEST PUSH1 0x0 SWAP1 JUMP JUMPDEST PUSH2 0x1940 PUSH2 0x1933 JUMP JUMPDEST PUSH2 0x194B DUP2 DUP5 DUP5 PUSH2 0x190E JUMP JUMPDEST POP POP POP JUMP JUMPDEST JUMPDEST DUP2 DUP2 LT ISZERO PUSH2 0x196F JUMPI PUSH2 0x1964 PUSH1 0x0 DUP3 PUSH2 0x1938 JUMP JUMPDEST PUSH1 0x1 DUP2 ADD SWAP1 POP PUSH2 0x1951 JUMP JUMPDEST POP POP JUMP JUMPDEST PUSH1 0x1F DUP3 GT ISZERO PUSH2 0x19B4 JUMPI PUSH2 0x1985 DUP2 PUSH2 0x1854 JUMP JUMPDEST PUSH2 0x198E DUP5 PUSH2 0x1869 JUMP JUMPDEST DUP2 ADD PUSH1 0x20 DUP6 LT ISZERO PUSH2 0x199D JUMPI DUP2 SWAP1 POP JUMPDEST PUSH2 0x19B1 PUSH2 0x19A9 DUP6 PUSH2 0x1869 JUMP JUMPDEST DUP4 ADD DUP3 PUSH2 0x1950 JUMP JUMPDEST POP POP JUMPDEST POP POP POP JUMP JUMPDEST PUSH1 0x0 DUP3 DUP3 SHR SWAP1 POP SWAP3 SWAP2 POP POP JUMP JUMPDEST PUSH1 0x0 PUSH2 0x19D7 PUSH1 0x0 NOT DUP5 PUSH1 0x8 MUL PUSH2 0x19B9 JUMP JUMPDEST NOT DUP1 DUP4 AND SWAP2 POP POP SWAP3 SWAP2 POP POP JUMP JUMPDEST PUSH1 0x0 PUSH2 0x19F0 DUP4 DUP4 PUSH2 0x19C6 JUMP JUMPDEST SWAP2 POP DUP3 PUSH1 0x2 MUL DUP3 OR SWAP1 POP SWAP3 SWAP2 POP POP JUMP JUMPDEST PUSH2 0x1A09 DUP3 PUSH2 0xF02 JUMP JUMPDEST PUSH8 0xFFFFFFFFFFFFFFFF DUP2 GT ISZERO PUSH2 0x1A22 JUMPI PUSH2 0x1A21 PUSH2 0x101E JUMP JUMPDEST JUMPDEST PUSH2 0x1A2C DUP3 SLOAD PUSH2 0x1823 JUMP JUMPDEST PUSH2 0x1A37 DUP3 DUP3 DUP6 PUSH2 0x1973 JUMP JUMPDEST PUSH1 0x0 PUSH1 0x20 SWAP1 POP PUSH1 0x1F DUP4 GT PUSH1 0x1 DUP2 EQ PUSH2 0x1A6A JUMPI PUSH1 0x0 DUP5 ISZERO PUSH2 0x1A58 JUMPI DUP3 DUP8 ADD MLOAD SWAP1 POP JUMPDEST PUSH2 0x1A62 DUP6 DUP3 PUSH2 0x19E4 JUMP JUMPDEST DUP7 SSTORE POP PUSH2 0x1ACA JUMP JUMPDEST PUSH1 0x1F NOT DUP5 AND PUSH2 0x1A78 DUP7 PUSH2 0x1854 JUMP JUMPDEST PUSH1 0x0 JUMPDEST DUP3 DUP2 LT ISZERO PUSH2 0x1AA0 JUMPI DUP5 DUP10 ADD MLOAD DUP3 SSTORE PUSH1 0x1 DUP3 ADD SWAP2 POP PUSH1 0x20 DUP6 ADD SWAP5 POP PUSH1 0x20 DUP2 ADD SWAP1 POP PUSH2 0x1A7B JUMP JUMPDEST DUP7 DUP4 LT ISZERO PUSH2 0x1ABD JUMPI DUP5 DUP10 ADD MLOAD PUSH2 0x1AB9 PUSH1 0x1F DUP10 AND DUP3 PUSH2 0x19C6 JUMP JUMPDEST DUP4 SSTORE POP JUMPDEST PUSH1 0x1 PUSH1 0x2 DUP9 MUL ADD DUP9 SSTORE POP POP POP JUMPDEST POP POP POP POP POP POP JUMP JUMPDEST PUSH1 0x0 DUP2 SWAP1 POP SWAP3 SWAP2 POP POP JUMP JUMPDEST PUSH1 0x0 PUSH2 0x1AE8 DUP3 PUSH2 0xF02 JUMP JUMPDEST PUSH2 0x1AF2 DUP2 DUP6 PUSH2 0x1AD2 JUMP JUMPDEST SWAP4 POP PUSH2 0x1B02 DUP2 DUP6 PUSH1 0x20 DUP7 ADD PUSH2 0xF1E JUMP JUMPDEST DUP1 DUP5 ADD SWAP2 POP POP SWAP3 SWAP2 POP POP JUMP JUMPDEST PUSH32 0x2000000000000000000000000000000000000000000000000000000000000000 PUSH1 0x0 DUP3 ADD MSTORE POP JUMP JUMPDEST PUSH1 0x0 PUSH2 0x1B44 PUSH1 0x1 DUP4 PUSH2 0x1AD2 JUMP JUMPDEST SWAP2 POP PUSH2 0x1B4F DUP3 PUSH2 0x1B0E JUMP JUMPDEST PUSH1 0x1 DUP3 ADD SWAP1 POP SWAP2 SWAP1 POP JUMP JUMPDEST PUSH1 0x0 PUSH2 0x1B66 DUP3 DUP6 PUSH2 0x1ADD JUMP JUMPDEST SWAP2 POP PUSH2 0x1B71 DUP3 PUSH2 0x1B37 JUMP JUMPDEST SWAP2 POP PUSH2 0x1B7D DUP3 DUP5 PUSH2 0x1ADD JUMP JUMPDEST SWAP2 POP DUP2 SWAP1 POP SWAP4 SWAP3 POP POP POP JUMP JUMPDEST PUSH1 0x0 PUSH2 0x1B95 DUP3 DUP5 PUSH2 0x1ADD JUMP JUMPDEST SWAP2 POP DUP2 SWAP1 POP SWAP3 SWAP2 POP POP JUMP JUMPDEST PUSH32 0x53747564656E74206E6F7420666F756E64000000000000000000000000000000 PUSH1 0x0 DUP3 ADD MSTORE POP JUMP JUMPDEST PUSH1 0x0 PUSH2 0x1BD6 PUSH1 0x11 DUP4 PUSH2 0xF0D JUMP JUMPDEST SWAP2 POP PUSH2 0x1BE1 DUP3 PUSH2 0x1BA0 JUMP JUMPDEST PUSH1 0x20 DUP3 ADD SWAP1 POP SWAP2 SWAP1 POP JUMP JUMPDEST PUSH1 0x0 PUSH1 0x20 DUP3 ADD SWAP1 POP DUP2 DUP2 SUB PUSH1 0x0 DUP4 ADD MSTORE PUSH2 0x1C05 DUP2 PUSH2 0x1BC9 JUMP JUMPDEST SWAP1 POP SWAP2 SWAP1 POP JUMP INVALID LOG2 PUSH5 0x6970667358 0x22 SLT KECCAK256 0xD8 CREATE TSTORE PUSH9 0x674492C226E8D7451A 0xAC ADDMOD CALLVALUE DUP5 SWAP10 PUSH26 0xCA11B6649E5B91F7DDDAB6A46864736F6C634300081C00330000 "},"methodIdentifiers":{"GenderToString(uint8)":"f2fdef53","StatusToString(uint8)":"1adca0b5","addStudent(string,string,uint256,uint8,uint8)":"cd3acd9a","deleteStudent(uint256)":"b645307d","getAllStudents()":"e9e30927","getStudent(bytes16)":"f42d5ca2","getTotalStudents()":"28bcb51a","studentList(uint256)":"7df221e9","updateStudent(uint256,string,string,uint256,uint8)":"299f0f04"}}}}}