{
  "_format": "hh-sol-artifact-1",
  "contractName": "EngancheTokenFactory",
  "sourceName": "contracts/EngancheTokenFactory.sol",
  "abi": [
    {
      "anonymous": false,
      "inputs": [
        {
          "indexed": true,
          "internalType": "address",
          "name": "tokenAddress",
          "type": "address"
        },
        {
          "indexed": false,
          "internalType": "string",
          "name": "name",
          "type": "string"
        },
        {
          "indexed": false,
          "internalType": "string",
          "name": "symbol",
          "type": "string"
        },
        {
          "indexed": false,
          "internalType": "uint8",
          "name": "decimals",
          "type": "uint8"
        },
        {
          "indexed": false,
          "internalType": "uint256",
          "name": "totalSupply",
          "type": "uint256"
        }
      ],
      "name": "TokenCreated",
      "type": "event"
    },
    {
      "inputs": [
        {
          "internalType": "string",
          "name": "name_",
          "type": "string"
        },
        {
          "internalType": "string",
          "name": "symbol_",
          "type": "string"
        },
        {
          "internalType": "uint8",
          "name": "decimals_",
          "type": "uint8"
        },
        {
          "internalType": "uint256",
          "name": "totalSupply_",
          "type": "uint256"
        }
      ],
      "name": "createToken",
      "outputs": [
        {
          "internalType": "address",
          "name": "",
          "type": "address"
        }
      ],
      "stateMutability": "nonpayable",
      "type": "function"
    },
    {
      "inputs": [
        {
          "internalType": "uint256",
          "name": "",
          "type": "uint256"
        }
      ],
      "name": "tokens",
      "outputs": [
        {
          "internalType": "address",
          "name": "",
          "type": "address"
        }
      ],
      "stateMutability": "view",
      "type": "function"
    }
  ],
  "bytecode": "0x6080604052348015600f57600080fd5b50611d4e8061001f6000396000f3fe608060405234801561001057600080fd5b50600436106100365760003560e01c8063210f5dda1461003b5780634f64b2be1461006b575b600080fd5b610055600480360381019061005091906103b2565b61009b565b6040516100629190610492565b60405180910390f35b610085600480360381019061008091906104ad565b61019d565b6040516100929190610492565b60405180910390f35b600080858585856040516100ae906101dc565b6100bb9493929190610577565b604051809103906000f0801580156100d7573d6000803e3d6000fd5b5090506000819080600181540180825580915050600190039060005260206000200160009091909190916101000a81548173ffffffffffffffffffffffffffffffffffffffff021916908373ffffffffffffffffffffffffffffffffffffffff1602179055508073ffffffffffffffffffffffffffffffffffffffff167f0b0bcdebd2813328a89a9ed5971e5863201ed78fc4e0e2b271cceddb9ce90510878787876040516101899493929190610577565b60405180910390a280915050949350505050565b600081815481106101ad57600080fd5b906000526020600020016000915054906101000a900473ffffffffffffffffffffffffffffffffffffffff1681565b61174e806105cb83390190565b6000604051905090565b600080fd5b600080fd5b600080fd5b600080fd5b6000601f19601f8301169050919050565b7f4e487b7100000000000000000000000000000000000000000000000000000000600052604160045260246000fd5b61025082610207565b810181811067ffffffffffffffff8211171561026f5761026e610218565b5b80604052505050565b60006102826101e9565b905061028e8282610247565b919050565b600067ffffffffffffffff8211156102ae576102ad610218565b5b6102b782610207565b9050602081019050919050565b82818337600083830152505050565b60006102e66102e184610293565b610278565b90508281526020810184848401111561030257610301610202565b5b61030d8482856102c4565b509392505050565b600082601f83011261032a576103296101fd565b5b813561033a8482602086016102d3565b91505092915050565b600060ff82169050919050565b61035981610343565b811461036457600080fd5b50565b60008135905061037681610350565b92915050565b6000819050919050565b61038f8161037c565b811461039a57600080fd5b50565b6000813590506103ac81610386565b92915050565b600080600080608085870312156103cc576103cb6101f3565b5b600085013567ffffffffffffffff8111156103ea576103e96101f8565b5b6103f687828801610315565b945050602085013567ffffffffffffffff811115610417576104166101f8565b5b61042387828801610315565b935050604061043487828801610367565b92505060606104458782880161039d565b91505092959194509250565b600073ffffffffffffffffffffffffffffffffffffffff82169050919050565b600061047c82610451565b9050919050565b61048c81610471565b82525050565b60006020820190506104a76000830184610483565b92915050565b6000602082840312156104c3576104c26101f3565b5b60006104d18482850161039d565b91505092915050565b600081519050919050565b600082825260208201905092915050565b60005b838110156105145780820151818401526020810190506104f9565b60008484015250505050565b600061052b826104da565b61053581856104e5565b93506105458185602086016104f6565b61054e81610207565b840191505092915050565b61056281610343565b82525050565b6105718161037c565b82525050565b600060808201905081810360008301526105918187610520565b905081810360208301526105a58186610520565b90506105b46040830185610559565b6105c16060830184610568565b9594505050505056fe608060405234801561001057600080fd5b5060405161174e38038061174e8339818101604052810190610032919061030f565b836003908161004191906105c5565b50826004908161005191906105c5565b5081600560006101000a81548160ff021916908360ff16021790555080600081905550600054600160003373ffffffffffffffffffffffffffffffffffffffff1673ffffffffffffffffffffffffffffffffffffffff168152602001908152602001600020819055503373ffffffffffffffffffffffffffffffffffffffff16600073ffffffffffffffffffffffffffffffffffffffff167fddf252ad1be2c89b69c2b068fc378daa952ba7f163c4a11628f55a4df523b3ef60005460405161011a91906106a6565b60405180910390a3505050506106c1565b6000604051905090565b600080fd5b600080fd5b600080fd5b600080fd5b6000601f19601f8301169050919050565b7f4e487b7100000000000000000000000000000000000000000000000000000000600052604160045260246000fd5b61019282610149565b810181811067ffffffffffffffff821117156101b1576101b061015a565b5b80604052505050565b60006101c461012b565b90506101d08282610189565b919050565b600067ffffffffffffffff8211156101f0576101ef61015a565b5b6101f982610149565b9050602081019050919050565b60005b83811015610224578082015181840152602081019050610209565b60008484015250505050565b600061024361023e846101d5565b6101ba565b90508281526020810184848401111561025f5761025e610144565b5b61026a848285610206565b509392505050565b600082601f8301126102875761028661013f565b5b8151610297848260208601610230565b91505092915050565b600060ff82169050919050565b6102b6816102a0565b81146102c157600080fd5b50565b6000815190506102d3816102ad565b92915050565b6000819050919050565b6102ec816102d9565b81146102f757600080fd5b50565b600081519050610309816102e3565b92915050565b6000806000806080858703121561032957610328610135565b5b600085015167ffffffffffffffff8111156103475761034661013a565b5b61035387828801610272565b945050602085015167ffffffffffffffff8111156103745761037361013a565b5b61038087828801610272565b9350506040610391878288016102c4565b92505060606103a2878288016102fa565b91505092959194509250565b600081519050919050565b7f4e487b7100000000000000000000000000000000000000000000000000000000600052602260045260246000fd5b6000600282049050600182168061040057607f821691505b602082108103610413576104126103b9565b5b50919050565b60008190508160005260206000209050919050565b60006020601f8301049050919050565b600082821b905092915050565b60006008830261047b7fffffffffffffffffffffffffffffffffffffffffffffffffffffffffffffffff8261043e565b610485868361043e565b95508019841693508086168417925050509392505050565b6000819050919050565b60006104c26104bd6104b8846102d9565b61049d565b6102d9565b9050919050565b6000819050919050565b6104dc836104a7565b6104f06104e8826104c9565b84845461044b565b825550505050565b600090565b6105056104f8565b6105108184846104d3565b505050565b5b81811015610534576105296000826104fd565b600181019050610516565b5050565b601f8211156105795761054a81610419565b6105538461042e565b81016020851015610562578190505b61057661056e8561042e565b830182610515565b50505b505050565b600082821c905092915050565b600061059c6000198460080261057e565b1980831691505092915050565b60006105b5838361058b565b9150826002028217905092915050565b6105ce826103ae565b67ffffffffffffffff8111156105e7576105e661015a565b5b6105f182546103e8565b6105fc828285610538565b600060209050601f83116001811461062f576000841561061d578287015190505b61062785826105a9565b86555061068f565b601f19841661063d86610419565b60005b8281101561066557848901518255600182019150602085019450602081019050610640565b86831015610682578489015161067e601f89168261058b565b8355505b6001600288020188555050505b505050505050565b6106a0816102d9565b82525050565b60006020820190506106bb6000830184610697565b92915050565b61107e806106d06000396000f3fe608060405234801561001057600080fd5b50600436106100935760003560e01c8063313ce56711610066578063313ce5671461013457806370a082311461015257806395d89b4114610182578063a9059cbb146101a0578063dd62ed3e146101d057610093565b806306fdde0314610098578063095ea7b3146100b657806318160ddd146100e657806323b872dd14610104575b600080fd5b6100a0610200565b6040516100ad9190610b03565b60405180910390f35b6100d060048036038101906100cb9190610bbe565b610292565b6040516100dd9190610c19565b60405180910390f35b6100ee610384565b6040516100fb9190610c43565b60405180910390f35b61011e60048036038101906101199190610c5e565b61038d565b60405161012b9190610c19565b60405180910390f35b61013c6106ed565b6040516101499190610ccd565b60405180910390f35b61016c60048036038101906101679190610ce8565b610704565b6040516101799190610c43565b60405180910390f35b61018a61074d565b6040516101979190610b03565b60405180910390f35b6101ba60048036038101906101b59190610bbe565b6107df565b6040516101c79190610c19565b60405180910390f35b6101ea60048036038101906101e59190610d15565b6109ec565b6040516101f79190610c43565b60405180910390f35b60606003805461020f90610d84565b80601f016020809104026020016040519081016040528092919081815260200182805461023b90610d84565b80156102885780601f1061025d57610100808354040283529160200191610288565b820191906000526020600020905b81548152906001019060200180831161026b57829003601f168201915b5050505050905090565b600081600260003373ffffffffffffffffffffffffffffffffffffffff1673ffffffffffffffffffffffffffffffffffffffff16815260200190815260200160002060008573ffffffffffffffffffffffffffffffffffffffff1673ffffffffffffffffffffffffffffffffffffffff168152602001908152602001600020819055508273ffffffffffffffffffffffffffffffffffffffff163373ffffffffffffffffffffffffffffffffffffffff167f8c5be1e5ebec7d5bd14f71427d1e84f3dd0314c0f7b2291e5b200ac8c7c3b925846040516103729190610c43565b60405180910390a36001905092915050565b60008054905090565b600081600260008673ffffffffffffffffffffffffffffffffffffffff1673ffffffffffffffffffffffffffffffffffffffff16815260200190815260200160002060003373ffffffffffffffffffffffffffffffffffffffff1673ffffffffffffffffffffffffffffffffffffffff16815260200190815260200160002054101561044e576040517f08c379a000000000000000000000000000000000000000000000000000000000815260040161044590610e01565b60405180910390fd5b81600160008673ffffffffffffffffffffffffffffffffffffffff1673ffffffffffffffffffffffffffffffffffffffff1681526020019081526020016000205410156104d0576040517f08c379a00000000000000000000000000000000000000000000000000000000081526004016104c790610e93565b60405180910390fd5b3073ffffffffffffffffffffffffffffffffffffffff168373ffffffffffffffffffffffffffffffffffffffff160361053e576040517f08c379a000000000000000000000000000000000000000000000000000000000815260040161053590610f25565b60405180910390fd5b81600260008673ffffffffffffffffffffffffffffffffffffffff1673ffffffffffffffffffffffffffffffffffffffff16815260200190815260200160002060003373ffffffffffffffffffffffffffffffffffffffff1673ffffffffffffffffffffffffffffffffffffffff16815260200190815260200160002060008282546105ca9190610f74565b9250508190555081600160008673ffffffffffffffffffffffffffffffffffffffff1673ffffffffffffffffffffffffffffffffffffffff16815260200190815260200160002060008282546106209190610f74565b9250508190555081600160008573ffffffffffffffffffffffffffffffffffffffff1673ffffffffffffffffffffffffffffffffffffffff16815260200190815260200160002060008282546106769190610fa8565b925050819055508273ffffffffffffffffffffffffffffffffffffffff168473ffffffffffffffffffffffffffffffffffffffff167fddf252ad1be2c89b69c2b068fc378daa952ba7f163c4a11628f55a4df523b3ef846040516106da9190610c43565b60405180910390a3600190509392505050565b6000600560009054906101000a900460ff16905090565b6000600160008373ffffffffffffffffffffffffffffffffffffffff1673ffffffffffffffffffffffffffffffffffffffff168152602001908152602001600020549050919050565b60606004805461075c90610d84565b80601f016020809104026020016040519081016040528092919081815260200182805461078890610d84565b80156107d55780601f106107aa576101008083540402835291602001916107d5565b820191906000526020600020905b8154815290600101906020018083116107b857829003601f168201915b5050505050905090565b600081600160003373ffffffffffffffffffffffffffffffffffffffff1673ffffffffffffffffffffffffffffffffffffffff168152602001908152602001600020541015610863576040517f08c379a000000000000000000000000000000000000000000000000000000000815260040161085a90611028565b60405180910390fd5b3073ffffffffffffffffffffffffffffffffffffffff168373ffffffffffffffffffffffffffffffffffffffff16036108d1576040517f08c379a00000000000000000000000000000000000000000000000000000000081526004016108c890610f25565b60405180910390fd5b81600160003373ffffffffffffffffffffffffffffffffffffffff1673ffffffffffffffffffffffffffffffffffffffff16815260200190815260200160002060008282546109209190610f74565b9250508190555081600160008573ffffffffffffffffffffffffffffffffffffffff1673ffffffffffffffffffffffffffffffffffffffff16815260200190815260200160002060008282546109769190610fa8565b925050819055508273ffffffffffffffffffffffffffffffffffffffff163373ffffffffffffffffffffffffffffffffffffffff167fddf252ad1be2c89b69c2b068fc378daa952ba7f163c4a11628f55a4df523b3ef846040516109da9190610c43565b60405180910390a36001905092915050565b6000600260008473ffffffffffffffffffffffffffffffffffffffff1673ffffffffffffffffffffffffffffffffffffffff16815260200190815260200160002060008373ffffffffffffffffffffffffffffffffffffffff1673ffffffffffffffffffffffffffffffffffffffff16815260200190815260200160002054905092915050565b600081519050919050565b600082825260208201905092915050565b60005b83811015610aad578082015181840152602081019050610a92565b60008484015250505050565b6000601f19601f8301169050919050565b6000610ad582610a73565b610adf8185610a7e565b9350610aef818560208601610a8f565b610af881610ab9565b840191505092915050565b60006020820190508181036000830152610b1d8184610aca565b905092915050565b600080fd5b600073ffffffffffffffffffffffffffffffffffffffff82169050919050565b6000610b5582610b2a565b9050919050565b610b6581610b4a565b8114610b7057600080fd5b50565b600081359050610b8281610b5c565b92915050565b6000819050919050565b610b9b81610b88565b8114610ba657600080fd5b50565b600081359050610bb881610b92565b92915050565b60008060408385031215610bd557610bd4610b25565b5b6000610be385828601610b73565b9250506020610bf485828601610ba9565b9150509250929050565b60008115159050919050565b610c1381610bfe565b82525050565b6000602082019050610c2e6000830184610c0a565b92915050565b610c3d81610b88565b82525050565b6000602082019050610c586000830184610c34565b92915050565b600080600060608486031215610c7757610c76610b25565b5b6000610c8586828701610b73565b9350506020610c9686828701610b73565b9250506040610ca786828701610ba9565b9150509250925092565b600060ff82169050919050565b610cc781610cb1565b82525050565b6000602082019050610ce26000830184610cbe565b92915050565b600060208284031215610cfe57610cfd610b25565b5b6000610d0c84828501610b73565b91505092915050565b60008060408385031215610d2c57610d2b610b25565b5b6000610d3a85828601610b73565b9250506020610d4b85828601610b73565b9150509250929050565b7f4e487b7100000000000000000000000000000000000000000000000000000000600052602260045260246000fd5b60006002820490506001821680610d9c57607f821691505b602082108103610daf57610dae610d55565b5b50919050565b7f4e6f7420616c6c6f77656420746f207370656e642074686973206d7563682100600082015250565b6000610deb601f83610a7e565b9150610df682610db5565b602082019050919050565b60006020820190508181036000830152610e1a81610dde565b9050919050565b7f53656e64657220646f65736e2774206861766520656e6f75676820746f6b656e60008201527f7321000000000000000000000000000000000000000000000000000000000000602082015250565b6000610e7d602283610a7e565b9150610e8882610e21565b604082019050919050565b60006020820190508181036000830152610eac81610e70565b9050919050565b7f43616e6e6f74207472616e7366657220746f20746f6b656e20636f6e7472616360008201527f7420697473656c66000000000000000000000000000000000000000000000000602082015250565b6000610f0f602883610a7e565b9150610f1a82610eb3565b604082019050919050565b60006020820190508181036000830152610f3e81610f02565b9050919050565b7f4e487b7100000000000000000000000000000000000000000000000000000000600052601160045260246000fd5b6000610f7f82610b88565b9150610f8a83610b88565b9250828203905081811115610fa257610fa1610f45565b5b92915050565b6000610fb382610b88565b9150610fbe83610b88565b9250828201905080821115610fd657610fd5610f45565b5b92915050565b7f496e73756666696369656e7420746f6b656e7321000000000000000000000000600082015250565b6000611012601483610a7e565b915061101d82610fdc565b602082019050919050565b6000602082019050818103600083015261104181611005565b905091905056fea2646970667358221220ca14076b5030546042e747bfc5714f0600c0ca3ba305bc3b78425afbe425284564736f6c634300081c0033a2646970667358221220906fa5521e549adb616cf436c34e48480da6f336ad3567d855e9bf7ffe29f1b464736f6c634300081c0033",
  "linkReferences": {},
  "deployedLinkReferences": {}
}