{
  "_format": "hh-sol-artifact-1",
  "contractName": "StaffSalaryManager",
  "sourceName": "contracts/StaffSalaryManager.sol",
  "abi": [
    {
      "inputs": [],
      "stateMutability": "nonpayable",
      "type": "constructor"
    },
    {
      "inputs": [
        {
          "internalType": "address",
          "name": "_staffAddress",
          "type": "address"
        },
        {
          "internalType": "string",
          "name": "_name",
          "type": "string"
        },
        {
          "internalType": "enum IStaffSalaryManager.Status",
          "name": "_status",
          "type": "uint8"
        },
        {
          "internalType": "enum IStaffSalaryManager.Role",
          "name": "_role",
          "type": "uint8"
        }
      ],
      "name": "addStaff",
      "outputs": [],
      "stateMutability": "nonpayable",
      "type": "function"
    },
    {
      "inputs": [
        {
          "internalType": "address",
          "name": "",
          "type": "address"
        }
      ],
      "name": "addressToStaff",
      "outputs": [
        {
          "internalType": "string",
          "name": "name",
          "type": "string"
        },
        {
          "internalType": "uint256",
          "name": "salary",
          "type": "uint256"
        },
        {
          "internalType": "enum IStaffSalaryManager.Status",
          "name": "status",
          "type": "uint8"
        },
        {
          "internalType": "enum IStaffSalaryManager.Role",
          "name": "role",
          "type": "uint8"
        }
      ],
      "stateMutability": "view",
      "type": "function"
    },
    {
      "inputs": [
        {
          "internalType": "uint256",
          "name": "",
          "type": "uint256"
        }
      ],
      "name": "allStaff",
      "outputs": [
        {
          "internalType": "string",
          "name": "name",
          "type": "string"
        },
        {
          "internalType": "uint256",
          "name": "salary",
          "type": "uint256"
        },
        {
          "internalType": "enum IStaffSalaryManager.Status",
          "name": "status",
          "type": "uint8"
        },
        {
          "internalType": "enum IStaffSalaryManager.Role",
          "name": "role",
          "type": "uint8"
        }
      ],
      "stateMutability": "view",
      "type": "function"
    },
    {
      "inputs": [
        {
          "internalType": "address",
          "name": "_staffAddress",
          "type": "address"
        }
      ],
      "name": "getStaff",
      "outputs": [
        {
          "components": [
            {
              "internalType": "string",
              "name": "name",
              "type": "string"
            },
            {
              "internalType": "uint256",
              "name": "salary",
              "type": "uint256"
            },
            {
              "internalType": "enum IStaffSalaryManager.Status",
              "name": "status",
              "type": "uint8"
            },
            {
              "internalType": "enum IStaffSalaryManager.Role",
              "name": "role",
              "type": "uint8"
            }
          ],
          "internalType": "struct IStaffSalaryManager.Staff",
          "name": "",
          "type": "tuple"
        }
      ],
      "stateMutability": "view",
      "type": "function"
    },
    {
      "inputs": [],
      "name": "getTotalStaffs",
      "outputs": [
        {
          "internalType": "uint256",
          "name": "",
          "type": "uint256"
        }
      ],
      "stateMutability": "view",
      "type": "function"
    },
    {
      "inputs": [],
      "name": "owner",
      "outputs": [
        {
          "internalType": "address",
          "name": "",
          "type": "address"
        }
      ],
      "stateMutability": "view",
      "type": "function"
    },
    {
      "inputs": [
        {
          "internalType": "address payable",
          "name": "_staffAddress",
          "type": "address"
        }
      ],
      "name": "paySalary",
      "outputs": [],
      "stateMutability": "nonpayable",
      "type": "function"
    },
    {
      "inputs": [
        {
          "internalType": "address",
          "name": "_address",
          "type": "address"
        },
        {
          "internalType": "enum IStaffSalaryManager.Status",
          "name": "_status",
          "type": "uint8"
        }
      ],
      "name": "updateStaffStatus",
      "outputs": [],
      "stateMutability": "nonpayable",
      "type": "function"
    },
    {
      "stateMutability": "payable",
      "type": "receive"
    }
  ],
  "bytecode": "0x6080604052348015600f57600080fd5b5033600260006101000a81548173ffffffffffffffffffffffffffffffffffffffff021916908373ffffffffffffffffffffffffffffffffffffffff160217905550611ae8806100606000396000f3fe60806040526004361061007f5760003560e01c8063a669a10f1161004e578063a669a10f1461014a578063a95ae38b14610173578063ddd795041461019c578063f17157b6146101d957610086565b80630ea37aef1461008b578063144dceaa146100b4578063238ef027146100f45780638da5cb5b1461011f57610086565b3661008657005b600080fd5b34801561009757600080fd5b506100b260048036038101906100ad9190610ded565b610219565b005b3480156100c057600080fd5b506100db60048036038101906100d69190610e50565b6104d5565b6040516100eb9493929190610fdb565b60405180910390f35b34801561010057600080fd5b506101096105b7565b6040516101169190611027565b60405180910390f35b34801561012b57600080fd5b506101346105c4565b6040516101419190611063565b60405180910390f35b34801561015657600080fd5b50610171600480360381019061016c91906110cf565b6105ea565b005b34801561017f57600080fd5b5061019a60048036038101906101959190611269565b6106e7565b005b3480156101a857600080fd5b506101c360048036038101906101be91906112ec565b610af3565b6040516101d091906113f3565b60405180910390f35b3480156101e557600080fd5b5061020060048036038101906101fb91906112ec565b610c5d565b6040516102109493929190610fdb565b60405180910390f35b60008060008373ffffffffffffffffffffffffffffffffffffffff1673ffffffffffffffffffffffffffffffffffffffff16815260200190815260200160002060405180608001604052908160008201805461027490611444565b80601f01602080910402602001604051908101604052809291908181526020018280546102a090611444565b80156102ed5780601f106102c2576101008083540402835291602001916102ed565b820191906000526020600020905b8154815290600101906020018083116102d057829003601f168201915b50505050508152602001600182015481526020016002820160009054906101000a900460ff16600281111561032557610324610f1c565b5b600281111561033757610336610f1c565b5b81526020016002820160019054906101000a900460ff1660028111156103605761035f610f1c565b5b600281111561037257610371610f1c565b5b81525050905060008160200151116103bf576040517f08c379a00000000000000000000000000000000000000000000000000000000081526004016103b6906114c1565b60405180910390fd5b600060028111156103d3576103d2610f1c565b5b816040015160028111156103ea576103e9610f1c565b5b1461042a576040517f08c379a00000000000000000000000000000000000000000000000000000000081526004016104219061152d565b60405180910390fd5b6000670de0b6b3a76400008260200151610444919061157c565b905080471015610489576040517f08c379a00000000000000000000000000000000000000000000000000000000081526004016104809061160a565b60405180910390fd5b8273ffffffffffffffffffffffffffffffffffffffff166108fc829081150290604051600060405180830381858888f193505050501580156104cf573d6000803e3d6000fd5b50505050565b600181815481106104e557600080fd5b906000526020600020906003020160009150905080600001805461050890611444565b80601f016020809104026020016040519081016040528092919081815260200182805461053490611444565b80156105815780601f1061055657610100808354040283529160200191610581565b820191906000526020600020905b81548152906001019060200180831161056457829003601f168201915b5050505050908060010154908060020160009054906101000a900460ff16908060020160019054906101000a900460ff16905084565b6000600180549050905090565b600260009054906101000a900473ffffffffffffffffffffffffffffffffffffffff1681565b600260009054906101000a900473ffffffffffffffffffffffffffffffffffffffff1673ffffffffffffffffffffffffffffffffffffffff163373ffffffffffffffffffffffffffffffffffffffff161461067a576040517f08c379a000000000000000000000000000000000000000000000000000000000815260040161067190611676565b60405180910390fd5b806000808473ffffffffffffffffffffffffffffffffffffffff1673ffffffffffffffffffffffffffffffffffffffff16815260200190815260200160002060020160006101000a81548160ff021916908360028111156106de576106dd610f1c565b5b02179055505050565b600260009054906101000a900473ffffffffffffffffffffffffffffffffffffffff1673ffffffffffffffffffffffffffffffffffffffff163373ffffffffffffffffffffffffffffffffffffffff1614610777576040517f08c379a000000000000000000000000000000000000000000000000000000000815260040161076e90611676565b60405180910390fd5b60008060008673ffffffffffffffffffffffffffffffffffffffff1673ffffffffffffffffffffffffffffffffffffffff16815260200190815260200160002060010154146107fb576040517f08c379a00000000000000000000000000000000000000000000000000000000081526004016107f2906116e2565b60405180910390fd5b60006001600281111561081157610810610f1c565b5b82600281111561082457610823610f1c565b5b036108335761044c9050610870565b6000600281111561084757610846610f1c565b5b82600281111561085a57610859610f1c565b5b03610869576103e8905061086f565b6101f490505b5b60028081111561088357610882610f1c565b5b83600281111561089657610895610f1c565b5b036108b05761012c816108a99190611702565b90506108e2565b600160028111156108c4576108c3610f1c565b5b8360028111156108d7576108d6610f1c565b5b036108e157600090505b5b604051806080016040528085815260200182815260200184600281111561090c5761090b610f1c565b5b815260200183600281111561092457610923610f1c565b5b8152506000808773ffffffffffffffffffffffffffffffffffffffff1673ffffffffffffffffffffffffffffffffffffffff168152602001908152602001600020600082015181600001908161097a91906118e2565b506020820151816001015560408201518160020160006101000a81548160ff021916908360028111156109b0576109af610f1c565b5b021790555060608201518160020160016101000a81548160ff021916908360028111156109e0576109df610f1c565b5b021790555090505060016000808773ffffffffffffffffffffffffffffffffffffffff1673ffffffffffffffffffffffffffffffffffffffff168152602001908152602001600020908060018154018082558091505060019003906000526020600020906003020160009091909190915060008201816000019081610a6591906119ca565b50600182015481600101556002820160009054906101000a900460ff168160020160006101000a81548160ff02191690836002811115610aa857610aa7610f1c565b5b02179055506002820160019054906101000a900460ff168160020160016101000a81548160ff02191690836002811115610ae557610ae4610f1c565b5b021790555050505050505050565b610afb610d2f565b6000808373ffffffffffffffffffffffffffffffffffffffff1673ffffffffffffffffffffffffffffffffffffffff168152602001908152602001600020604051806080016040529081600082018054610b5490611444565b80601f0160208091040260200160405190810160405280929190818152602001828054610b8090611444565b8015610bcd5780601f10610ba257610100808354040283529160200191610bcd565b820191906000526020600020905b815481529060010190602001808311610bb057829003601f168201915b50505050508152602001600182015481526020016002820160009054906101000a900460ff166002811115610c0557610c04610f1c565b5b6002811115610c1757610c16610f1c565b5b81526020016002820160019054906101000a900460ff166002811115610c4057610c3f610f1c565b5b6002811115610c5257610c51610f1c565b5b815250509050919050565b6000602052806000526040600020600091509050806000018054610c8090611444565b80601f0160208091040260200160405190810160405280929190818152602001828054610cac90611444565b8015610cf95780601f10610cce57610100808354040283529160200191610cf9565b820191906000526020600020905b815481529060010190602001808311610cdc57829003601f168201915b5050505050908060010154908060020160009054906101000a900460ff16908060020160019054906101000a900460ff16905084565b6040518060800160405280606081526020016000815260200160006002811115610d5c57610d5b610f1c565b5b815260200160006002811115610d7557610d74610f1c565b5b81525090565b6000604051905090565b600080fd5b600080fd5b600073ffffffffffffffffffffffffffffffffffffffff82169050919050565b6000610dba82610d8f565b9050919050565b610dca81610daf565b8114610dd557600080fd5b50565b600081359050610de781610dc1565b92915050565b600060208284031215610e0357610e02610d85565b5b6000610e1184828501610dd8565b91505092915050565b6000819050919050565b610e2d81610e1a565b8114610e3857600080fd5b50565b600081359050610e4a81610e24565b92915050565b600060208284031215610e6657610e65610d85565b5b6000610e7484828501610e3b565b91505092915050565b600081519050919050565b600082825260208201905092915050565b60005b83811015610eb7578082015181840152602081019050610e9c565b60008484015250505050565b6000601f19601f8301169050919050565b6000610edf82610e7d565b610ee98185610e88565b9350610ef9818560208601610e99565b610f0281610ec3565b840191505092915050565b610f1681610e1a565b82525050565b7f4e487b7100000000000000000000000000000000000000000000000000000000600052602160045260246000fd5b60038110610f5c57610f5b610f1c565b5b50565b6000819050610f6d82610f4b565b919050565b6000610f7d82610f5f565b9050919050565b610f8d81610f72565b82525050565b60038110610fa457610fa3610f1c565b5b50565b6000819050610fb582610f93565b919050565b6000610fc582610fa7565b9050919050565b610fd581610fba565b82525050565b60006080820190508181036000830152610ff58187610ed4565b90506110046020830186610f0d565b6110116040830185610f84565b61101e6060830184610fcc565b95945050505050565b600060208201905061103c6000830184610f0d565b92915050565b600061104d82610d8f565b9050919050565b61105d81611042565b82525050565b60006020820190506110786000830184611054565b92915050565b61108781611042565b811461109257600080fd5b50565b6000813590506110a48161107e565b92915050565b600381106110b757600080fd5b50565b6000813590506110c9816110aa565b92915050565b600080604083850312156110e6576110e5610d85565b5b60006110f485828601611095565b9250506020611105858286016110ba565b9150509250929050565b600080fd5b600080fd5b7f4e487b7100000000000000000000000000000000000000000000000000000000600052604160045260246000fd5b61115182610ec3565b810181811067ffffffffffffffff821117156111705761116f611119565b5b80604052505050565b6000611183610d7b565b905061118f8282611148565b919050565b600067ffffffffffffffff8211156111af576111ae611119565b5b6111b882610ec3565b9050602081019050919050565b82818337600083830152505050565b60006111e76111e284611194565b611179565b90508281526020810184848401111561120357611202611114565b5b61120e8482856111c5565b509392505050565b600082601f83011261122b5761122a61110f565b5b813561123b8482602086016111d4565b91505092915050565b6003811061125157600080fd5b50565b60008135905061126381611244565b92915050565b6000806000806080858703121561128357611282610d85565b5b600061129187828801611095565b945050602085013567ffffffffffffffff8111156112b2576112b1610d8a565b5b6112be87828801611216565b93505060406112cf878288016110ba565b92505060606112e087828801611254565b91505092959194509250565b60006020828403121561130257611301610d85565b5b600061131084828501611095565b91505092915050565b600082825260208201905092915050565b600061133582610e7d565b61133f8185611319565b935061134f818560208601610e99565b61135881610ec3565b840191505092915050565b61136c81610e1a565b82525050565b61137b81610f72565b82525050565b61138a81610fba565b82525050565b600060808301600083015184820360008601526113ad828261132a565b91505060208301516113c26020860182611363565b5060408301516113d56040860182611372565b5060608301516113e86060860182611381565b508091505092915050565b6000602082019050818103600083015261140d8184611390565b905092915050565b7f4e487b7100000000000000000000000000000000000000000000000000000000600052602260045260246000fd5b6000600282049050600182168061145c57607f821691505b60208210810361146f5761146e611415565b5b50919050565b7f4e6f2073616c6172792061737369676e65640000000000000000000000000000600082015250565b60006114ab601283610e88565b91506114b682611475565b602082019050919050565b600060208201905081810360008301526114da8161149e565b9050919050565b7f5374616666206e6f7420656d706c6f7965640000000000000000000000000000600082015250565b6000611517601283610e88565b9150611522826114e1565b602082019050919050565b600060208201905081810360008301526115468161150a565b9050919050565b7f4e487b7100000000000000000000000000000000000000000000000000000000600052601160045260246000fd5b600061158782610e1a565b915061159283610e1a565b92508282026115a081610e1a565b915082820484148315176115b7576115b661154d565b5b5092915050565b7f496e73756666696369656e7420636f6e74726163742062616c616e6365000000600082015250565b60006115f4601d83610e88565b91506115ff826115be565b602082019050919050565b60006020820190508181036000830152611623816115e7565b9050919050565b7f4e6f7420617574686f72697a6564000000000000000000000000000000000000600082015250565b6000611660600e83610e88565b915061166b8261162a565b602082019050919050565b6000602082019050818103600083015261168f81611653565b9050919050565b7f5465616368657220616c72656164792065786973747300000000000000000000600082015250565b60006116cc601683610e88565b91506116d782611696565b602082019050919050565b600060208201905081810360008301526116fb816116bf565b9050919050565b600061170d82610e1a565b915061171883610e1a565b92508282039050818111156117305761172f61154d565b5b92915050565b60008190508160005260206000209050919050565b60006020601f8301049050919050565b600082821b905092915050565b6000600883026117987fffffffffffffffffffffffffffffffffffffffffffffffffffffffffffffffff8261175b565b6117a2868361175b565b95508019841693508086168417925050509392505050565b6000819050919050565b60006117df6117da6117d584610e1a565b6117ba565b610e1a565b9050919050565b6000819050919050565b6117f9836117c4565b61180d611805826117e6565b848454611768565b825550505050565b600090565b611822611815565b61182d8184846117f0565b505050565b5b818110156118515761184660008261181a565b600181019050611833565b5050565b601f8211156118965761186781611736565b6118708461174b565b8101602085101561187f578190505b61189361188b8561174b565b830182611832565b50505b505050565b600082821c905092915050565b60006118b96000198460080261189b565b1980831691505092915050565b60006118d283836118a8565b9150826002028217905092915050565b6118eb82610e7d565b67ffffffffffffffff81111561190457611903611119565b5b61190e8254611444565b611919828285611855565b600060209050601f83116001811461194c576000841561193a578287015190505b61194485826118c6565b8655506119ac565b601f19841661195a86611736565b60005b828110156119825784890151825560018201915060208501945060208101905061195d565b8683101561199f578489015161199b601f8916826118a8565b8355505b6001600288020188555050505b505050505050565b6000815490506119c381611444565b9050919050565b8181036119d8575050611ab0565b6119e1826119b4565b67ffffffffffffffff8111156119fa576119f9611119565b5b611a048254611444565b611a0f828285611855565b6000601f831160018114611a3e5760008415611a2c578287015490505b611a3685826118c6565b865550611aa9565b601f198416611a4c87611736565b9650611a5786611736565b60005b82811015611a7f57848901548255600182019150600185019450602081019050611a5a565b86831015611a9c5784890154611a98601f8916826118a8565b8355505b6001600288020188555050505b5050505050505b56fea2646970667358221220cbc07a295f0b916ea42da650b613e97b2ab3c9ea42b41a726f1ab2fb613a4f9664736f6c634300081c0033",
  "linkReferences": {},
  "deployedLinkReferences": {}
}