{
  "_format": "hh-sol-artifact-1",
  "contractName": "TodoList",
  "sourceName": "contracts/TodoList.sol",
  "abi": [
    {
      "inputs": [
        {
          "internalType": "string",
          "name": "_title",
          "type": "string"
        },
        {
          "internalType": "string",
          "name": "_description",
          "type": "string"
        },
        {
          "internalType": "enum TodoList.Status",
          "name": "_status",
          "type": "uint8"
        }
      ],
      "name": "addTodo",
      "outputs": [],
      "stateMutability": "nonpayable",
      "type": "function"
    },
    {
      "inputs": [
        {
          "internalType": "uint256",
          "name": "_index",
          "type": "uint256"
        }
      ],
      "name": "getTodo",
      "outputs": [
        {
          "internalType": "string",
          "name": "",
          "type": "string"
        },
        {
          "internalType": "string",
          "name": "",
          "type": "string"
        },
        {
          "internalType": "string",
          "name": "",
          "type": "string"
        }
      ],
      "stateMutability": "view",
      "type": "function"
    },
    {
      "inputs": [
        {
          "internalType": "address",
          "name": "",
          "type": "address"
        },
        {
          "internalType": "uint256",
          "name": "",
          "type": "uint256"
        }
      ],
      "name": "todos",
      "outputs": [
        {
          "internalType": "string",
          "name": "title",
          "type": "string"
        },
        {
          "internalType": "string",
          "name": "description",
          "type": "string"
        },
        {
          "internalType": "enum TodoList.Status",
          "name": "status",
          "type": "uint8"
        }
      ],
      "stateMutability": "view",
      "type": "function"
    },
    {
      "inputs": [
        {
          "internalType": "uint256",
          "name": "_index",
          "type": "uint256"
        },
        {
          "internalType": "string",
          "name": "_title",
          "type": "string"
        },
        {
          "internalType": "string",
          "name": "description",
          "type": "string"
        },
        {
          "internalType": "enum TodoList.Status",
          "name": "_status",
          "type": "uint8"
        }
      ],
      "name": "updateTodos",
      "outputs": [],
      "stateMutability": "nonpayable",
      "type": "function"
    }
  ],
  "bytecode": "0x6080604052348015600f57600080fd5b506111798061001f6000396000f3fe608060405234801561001057600080fd5b506004361061004c5760003560e01c8063428c1889146100515780638bd9a9bc14610083578063923788571461009f578063dd68afb6146100bb575b600080fd5b61006b60048036038101906100669190610941565b6100ed565b60405161007a93929190610a88565b60405180910390f35b61009d60048036038101906100989190610c27565b610251565b005b6100b960048036038101906100b49190610cc6565b610341565b005b6100d560048036038101906100d09190610d51565b61043e565b6040516100e493929190610d7e565b60405180910390f35b6000602052816000526040600020818154811061010957600080fd5b90600052602060002090600302016000915091505080600001805461012d90610df9565b80601f016020809104026020016040519081016040528092919081815260200182805461015990610df9565b80156101a65780601f1061017b576101008083540402835291602001916101a6565b820191906000526020600020905b81548152906001019060200180831161018957829003601f168201915b5050505050908060010180546101bb90610df9565b80601f01602080910402602001604051908101604052809291908181526020018280546101e790610df9565b80156102345780601f1061020957610100808354040283529160200191610234565b820191906000526020600020905b81548152906001019060200180831161021757829003601f168201915b5050505050908060020160009054906101000a900460ff16905083565b604051806060016040528084815260200183815260200182600281111561027b5761027a610a11565b5b8152506000803373ffffffffffffffffffffffffffffffffffffffff1673ffffffffffffffffffffffffffffffffffffffff16815260200190815260200160002085815481106102ce576102cd610e2a565b5b906000526020600020906003020160008201518160000190816102f19190611005565b5060208201518160010190816103079190611005565b5060408201518160020160006101000a81548160ff0219169083600281111561033357610332610a11565b5b021790555090505050505050565b6000604051806060016040528085815260200184815260200183600281111561036d5761036c610a11565b5b81525090506000803373ffffffffffffffffffffffffffffffffffffffff1673ffffffffffffffffffffffffffffffffffffffff16815260200190815260200160002081908060018154018082558091505060019003906000526020600020906003020160009091909190915060008201518160000190816103ef9190611005565b5060208201518160010190816104059190611005565b5060408201518160020160006101000a81548160ff0219169083600281111561043157610430610a11565b5b0217905550505050505050565b60608060606000803373ffffffffffffffffffffffffffffffffffffffff1673ffffffffffffffffffffffffffffffffffffffff1681526020019081526020016000208054905084116104c6576040517f08c379a00000000000000000000000000000000000000000000000000000000081526004016104bd90611123565b60405180910390fd5b6060600060028111156104dc576104db610a11565b5b6000803373ffffffffffffffffffffffffffffffffffffffff1673ffffffffffffffffffffffffffffffffffffffff168152602001908152602001600020868154811061052c5761052b610e2a565b5b906000526020600020906003020160020160009054906101000a900460ff16600281111561055d5761055c610a11565b5b0361059f576040518060400160405280600781526020017f50656e64696e670000000000000000000000000000000000000000000000000081525090506106b0565b600160028111156105b3576105b2610a11565b5b6000803373ffffffffffffffffffffffffffffffffffffffff1673ffffffffffffffffffffffffffffffffffffffff168152602001908152602001600020868154811061060357610602610e2a565b5b906000526020600020906003020160020160009054906101000a900460ff16600281111561063457610633610a11565b5b03610676576040518060400160405280600981526020017f436f6d706c65746564000000000000000000000000000000000000000000000081525090506106af565b6040518060400160405280600981526020017f43616e63656c6c6564000000000000000000000000000000000000000000000081525090505b5b6000803373ffffffffffffffffffffffffffffffffffffffff1673ffffffffffffffffffffffffffffffffffffffff1681526020019081526020016000208581548110610700576106ff610e2a565b5b90600052602060002090600302016000016000803373ffffffffffffffffffffffffffffffffffffffff1673ffffffffffffffffffffffffffffffffffffffff168152602001908152602001600020868154811061076157610760610e2a565b5b90600052602060002090600302016001018282805461077f90610df9565b80601f01602080910402602001604051908101604052809291908181526020018280546107ab90610df9565b80156107f85780601f106107cd576101008083540402835291602001916107f8565b820191906000526020600020905b8154815290600101906020018083116107db57829003601f168201915b5050505050925081805461080b90610df9565b80601f016020809104026020016040519081016040528092919081815260200182805461083790610df9565b80156108845780601f1061085957610100808354040283529160200191610884565b820191906000526020600020905b81548152906001019060200180831161086757829003601f168201915b50505050509150935093509350509193909250565b6000604051905090565b600080fd5b600080fd5b600073ffffffffffffffffffffffffffffffffffffffff82169050919050565b60006108d8826108ad565b9050919050565b6108e8816108cd565b81146108f357600080fd5b50565b600081359050610905816108df565b92915050565b6000819050919050565b61091e8161090b565b811461092957600080fd5b50565b60008135905061093b81610915565b92915050565b60008060408385031215610958576109576108a3565b5b6000610966858286016108f6565b92505060206109778582860161092c565b9150509250929050565b600081519050919050565b600082825260208201905092915050565b60005b838110156109bb5780820151818401526020810190506109a0565b60008484015250505050565b6000601f19601f8301169050919050565b60006109e382610981565b6109ed818561098c565b93506109fd81856020860161099d565b610a06816109c7565b840191505092915050565b7f4e487b7100000000000000000000000000000000000000000000000000000000600052602160045260246000fd5b60038110610a5157610a50610a11565b5b50565b6000819050610a6282610a40565b919050565b6000610a7282610a54565b9050919050565b610a8281610a67565b82525050565b60006060820190508181036000830152610aa281866109d8565b90508181036020830152610ab681856109d8565b9050610ac56040830184610a79565b949350505050565b600080fd5b600080fd5b7f4e487b7100000000000000000000000000000000000000000000000000000000600052604160045260246000fd5b610b0f826109c7565b810181811067ffffffffffffffff82111715610b2e57610b2d610ad7565b5b80604052505050565b6000610b41610899565b9050610b4d8282610b06565b919050565b600067ffffffffffffffff821115610b6d57610b6c610ad7565b5b610b76826109c7565b9050602081019050919050565b82818337600083830152505050565b6000610ba5610ba084610b52565b610b37565b905082815260208101848484011115610bc157610bc0610ad2565b5b610bcc848285610b83565b509392505050565b600082601f830112610be957610be8610acd565b5b8135610bf9848260208601610b92565b91505092915050565b60038110610c0f57600080fd5b50565b600081359050610c2181610c02565b92915050565b60008060008060808587031215610c4157610c406108a3565b5b6000610c4f8782880161092c565b945050602085013567ffffffffffffffff811115610c7057610c6f6108a8565b5b610c7c87828801610bd4565b935050604085013567ffffffffffffffff811115610c9d57610c9c6108a8565b5b610ca987828801610bd4565b9250506060610cba87828801610c12565b91505092959194509250565b600080600060608486031215610cdf57610cde6108a3565b5b600084013567ffffffffffffffff811115610cfd57610cfc6108a8565b5b610d0986828701610bd4565b935050602084013567ffffffffffffffff811115610d2a57610d296108a8565b5b610d3686828701610bd4565b9250506040610d4786828701610c12565b9150509250925092565b600060208284031215610d6757610d666108a3565b5b6000610d758482850161092c565b91505092915050565b60006060820190508181036000830152610d9881866109d8565b90508181036020830152610dac81856109d8565b90508181036040830152610dc081846109d8565b9050949350505050565b7f4e487b7100000000000000000000000000000000000000000000000000000000600052602260045260246000fd5b60006002820490506001821680610e1157607f821691505b602082108103610e2457610e23610dca565b5b50919050565b7f4e487b7100000000000000000000000000000000000000000000000000000000600052603260045260246000fd5b60008190508160005260206000209050919050565b60006020601f8301049050919050565b600082821b905092915050565b600060088302610ebb7fffffffffffffffffffffffffffffffffffffffffffffffffffffffffffffffff82610e7e565b610ec58683610e7e565b95508019841693508086168417925050509392505050565b6000819050919050565b6000610f02610efd610ef88461090b565b610edd565b61090b565b9050919050565b6000819050919050565b610f1c83610ee7565b610f30610f2882610f09565b848454610e8b565b825550505050565b600090565b610f45610f38565b610f50818484610f13565b505050565b5b81811015610f7457610f69600082610f3d565b600181019050610f56565b5050565b601f821115610fb957610f8a81610e59565b610f9384610e6e565b81016020851015610fa2578190505b610fb6610fae85610e6e565b830182610f55565b50505b505050565b600082821c905092915050565b6000610fdc60001984600802610fbe565b1980831691505092915050565b6000610ff58383610fcb565b9150826002028217905092915050565b61100e82610981565b67ffffffffffffffff81111561102757611026610ad7565b5b6110318254610df9565b61103c828285610f78565b600060209050601f83116001811461106f576000841561105d578287015190505b6110678582610fe9565b8655506110cf565b601f19841661107d86610e59565b60005b828110156110a557848901518255600182019150602085019450602081019050611080565b868310156110c257848901516110be601f891682610fcb565b8355505b6001600288020188555050505b505050505050565b7f4f7574206f6620626f756e64732e000000000000000000000000000000000000600082015250565b600061110d600e8361098c565b9150611118826110d7565b602082019050919050565b6000602082019050818103600083015261113c81611100565b905091905056fea264697066735822122011a3000a56adacf381b81294e51e7d99d6ce3a17d8df6639844b969306c68fd464736f6c634300081c0033",
  "linkReferences": {},
  "deployedLinkReferences": {}
}