{
  "contracts/StaffSalaryManager.sol": {
    "StaffSalaryManager": {
      "abi": [
        {
          "inputs": [],
          "stateMutability": "nonpayable",
          "type": "constructor"
        },
        {
          "inputs": [
            {
              "internalType": "address",
              "name": "_address",
              "type": "address"
            },
            {
              "internalType": "string",
              "name": "_name",
              "type": "string"
            },
            {
              "internalType": "enum IStaffSalaryManager.Status",
              "name": "_status",
              "type": "uint8"
            },
            {
              "internalType": "enum IStaffSalaryManager.Role",
              "name": "_role",
              "type": "uint8"
            }
          ],
          "name": "addStaff",
          "outputs": [],
          "stateMutability": "nonpayable",
          "type": "function"
        },
        {
          "inputs": [
            {
              "internalType": "address",
              "name": "",
              "type": "address"
            }
          ],
          "name": "addressToStaff",
          "outputs": [
            {
              "internalType": "string",
              "name": "name",
              "type": "string"
            },
            {
              "internalType": "uint256",
              "name": "salary",
              "type": "uint256"
            },
            {
              "internalType": "enum IStaffSalaryManager.Status",
              "name": "status",
              "type": "uint8"
            },
            {
              "internalType": "enum IStaffSalaryManager.Role",
              "name": "role",
              "type": "uint8"
            }
          ],
          "stateMutability": "view",
          "type": "function"
        },
        {
          "inputs": [
            {
              "internalType": "uint256",
              "name": "",
              "type": "uint256"
            }
          ],
          "name": "allStaff",
          "outputs": [
            {
              "internalType": "string",
              "name": "name",
              "type": "string"
            },
            {
              "internalType": "uint256",
              "name": "salary",
              "type": "uint256"
            },
            {
              "internalType": "enum IStaffSalaryManager.Status",
              "name": "status",
              "type": "uint8"
            },
            {
              "internalType": "enum IStaffSalaryManager.Role",
              "name": "role",
              "type": "uint8"
            }
          ],
          "stateMutability": "view",
          "type": "function"
        },
        {
          "inputs": [
            {
              "internalType": "address",
              "name": "_address",
              "type": "address"
            }
          ],
          "name": "getStaff",
          "outputs": [
            {
              "components": [
                {
                  "internalType": "string",
                  "name": "name",
                  "type": "string"
                },
                {
                  "internalType": "uint256",
                  "name": "salary",
                  "type": "uint256"
                },
                {
                  "internalType": "enum IStaffSalaryManager.Status",
                  "name": "status",
                  "type": "uint8"
                },
                {
                  "internalType": "enum IStaffSalaryManager.Role",
                  "name": "role",
                  "type": "uint8"
                }
              ],
              "internalType": "struct IStaffSalaryManager.Staff",
              "name": "",
              "type": "tuple"
            }
          ],
          "stateMutability": "view",
          "type": "function"
        },
        {
          "inputs": [],
          "name": "getTotalStaffs",
          "outputs": [
            {
              "internalType": "uint256",
              "name": "",
              "type": "uint256"
            }
          ],
          "stateMutability": "view",
          "type": "function"
        },
        {
          "inputs": [],
          "name": "owner",
          "outputs": [
            {
              "internalType": "address",
              "name": "",
              "type": "address"
            }
          ],
          "stateMutability": "view",
          "type": "function"
        },
        {
          "inputs": [
            {
              "internalType": "address payable",
              "name": "_staffAddress",
              "type": "address"
            }
          ],
          "name": "paySalary",
          "outputs": [],
          "stateMutability": "nonpayable",
          "type": "function"
        },
        {
          "inputs": [
            {
              "internalType": "address",
              "name": "_address",
              "type": "address"
            },
            {
              "internalType": "enum IStaffSalaryManager.Status",
              "name": "_status",
              "type": "uint8"
            }
          ],
          "name": "updateStaffStatus",
          "outputs": [],
          "stateMutability": "nonpayable",
          "type": "function"
        },
        {
          "stateMutability": "payable",
          "type": "receive"
        }
      ],
      "evm": {
        "bytecode": {
          "linkReferences": {},
          "object": "6080604052348015600f57600080fd5b5033600260006101000a81548173ffffffffffffffffffffffffffffffffffffffff021916908373ffffffffffffffffffffffffffffffffffffffff160217905550611b91806100606000396000f3fe60806040526004361061007f5760003560e01c8063a669a10f1161004e578063a669a10f1461014a578063a95ae38b14610173578063ddd795041461019c578063f17157b6146101d957610086565b80630ea37aef1461008b578063144dceaa146100b4578063238ef027146100f45780638da5cb5b1461011f57610086565b3661008657005b600080fd5b34801561009757600080fd5b506100b260048036038101906100ad9190610e96565b610219565b005b3480156100c057600080fd5b506100db60048036038101906100d69190610ef9565b610565565b6040516100eb9493929190611084565b60405180910390f35b34801561010057600080fd5b50610109610647565b60405161011691906110d0565b60405180910390f35b34801561012b57600080fd5b50610134610654565b604051610141919061110c565b60405180910390f35b34801561015657600080fd5b50610171600480360381019061016c9190611178565b61067a565b005b34801561017f57600080fd5b5061019a60048036038101906101959190611312565b610777565b005b3480156101a857600080fd5b506101c360048036038101906101be9190611395565b610aaa565b6040516101d0919061149c565b60405180910390f35b3480156101e557600080fd5b5061020060048036038101906101fb9190611395565b610c14565b6040516102109493929190611084565b60405180910390f35b600260009054906101000a900473ffffffffffffffffffffffffffffffffffffffff1673ffffffffffffffffffffffffffffffffffffffff163373ffffffffffffffffffffffffffffffffffffffff16146102a9576040517f08c379a00000000000000000000000000000000000000000000000000000000081526004016102a09061150a565b60405180910390fd5b60008060008373ffffffffffffffffffffffffffffffffffffffff1673ffffffffffffffffffffffffffffffffffffffff16815260200190815260200160002060405180608001604052908160008201805461030490611559565b80601f016020809104026020016040519081016040528092919081815260200182805461033090611559565b801561037d5780601f106103525761010080835404028352916020019161037d565b820191906000526020600020905b81548152906001019060200180831161036057829003601f168201915b50505050508152602001600182015481526020016002820160009054906101000a900460ff1660028111156103b5576103b4610fc5565b5b60028111156103c7576103c6610fc5565b5b81526020016002820160019054906101000a900460ff1660028111156103f0576103ef610fc5565b5b600281111561040257610401610fc5565b5b815250509050600081602001511161044f576040517f08c379a0000000000000000000000000000000000000000000000000000000008152600401610446906115d6565b60405180910390fd5b6000600281111561046357610462610fc5565b5b8160400151600281111561047a57610479610fc5565b5b146104ba576040517f08c379a00000000000000000000000000000000000000000000000000000000081526004016104b190611642565b60405180910390fd5b6000670de0b6b3a764000082602001516104d49190611691565b905080471015610519576040517f08c379a00000000000000000000000000000000000000000000000000000000081526004016105109061171f565b60405180910390fd5b8273ffffffffffffffffffffffffffffffffffffffff166108fc829081150290604051600060405180830381858888f1935050505015801561055f573d6000803e3d6000fd5b50505050565b6001818154811061057557600080fd5b906000526020600020906003020160009150905080600001805461059890611559565b80601f01602080910402602001604051908101604052809291908181526020018280546105c490611559565b80156106115780601f106105e657610100808354040283529160200191610611565b820191906000526020600020905b8154815290600101906020018083116105f457829003601f168201915b5050505050908060010154908060020160009054906101000a900460ff16908060020160019054906101000a900460ff16905084565b6000600180549050905090565b600260009054906101000a900473ffffffffffffffffffffffffffffffffffffffff1681565b600260009054906101000a900473ffffffffffffffffffffffffffffffffffffffff1673ffffffffffffffffffffffffffffffffffffffff163373ffffffffffffffffffffffffffffffffffffffff161461070a576040517f08c379a00000000000000000000000000000000000000000000000000000000081526004016107019061150a565b60405180910390fd5b806000808473ffffffffffffffffffffffffffffffffffffffff1673ffffffffffffffffffffffffffffffffffffffff16815260200190815260200160002060020160006101000a81548160ff0219169083600281111561076e5761076d610fc5565b5b02179055505050565b600260009054906101000a900473ffffffffffffffffffffffffffffffffffffffff1673ffffffffffffffffffffffffffffffffffffffff163373ffffffffffffffffffffffffffffffffffffffff1614610807576040517f08c379a00000000000000000000000000000000000000000000000000000000081526004016107fe9061150a565b60405180910390fd5b60008060008673ffffffffffffffffffffffffffffffffffffffff1673ffffffffffffffffffffffffffffffffffffffff168152602001908152602001600020600101541461088b576040517f08c379a00000000000000000000000000000000000000000000000000000000081526004016108829061178b565b60405180910390fd5b60006108978383610ce6565b905060405180608001604052808581526020018281526020018460028111156108c3576108c2610fc5565b5b81526020018360028111156108db576108da610fc5565b5b8152506000803373ffffffffffffffffffffffffffffffffffffffff1673ffffffffffffffffffffffffffffffffffffffff16815260200190815260200160002060008201518160000190816109319190611957565b506020820151816001015560408201518160020160006101000a81548160ff0219169083600281111561096757610966610fc5565b5b021790555060608201518160020160016101000a81548160ff0219169083600281111561099757610996610fc5565b5b021790555090505060016000803373ffffffffffffffffffffffffffffffffffffffff1673ffffffffffffffffffffffffffffffffffffffff168152602001908152602001600020908060018154018082558091505060019003906000526020600020906003020160009091909190915060008201816000019081610a1c9190611a3f565b50600182015481600101556002820160009054906101000a900460ff168160020160006101000a81548160ff02191690836002811115610a5f57610a5e610fc5565b5b02179055506002820160019054906101000a900460ff168160020160016101000a81548160ff02191690836002811115610a9c57610a9b610fc5565b5b021790555050505050505050565b610ab2610dd8565b6000808373ffffffffffffffffffffffffffffffffffffffff1673ffffffffffffffffffffffffffffffffffffffff168152602001908152602001600020604051806080016040529081600082018054610b0b90611559565b80601f0160208091040260200160405190810160405280929190818152602001828054610b3790611559565b8015610b845780601f10610b5957610100808354040283529160200191610b84565b820191906000526020600020905b815481529060010190602001808311610b6757829003601f168201915b50505050508152602001600182015481526020016002820160009054906101000a900460ff166002811115610bbc57610bbb610fc5565b5b6002811115610bce57610bcd610fc5565b5b81526020016002820160019054906101000a900460ff166002811115610bf757610bf6610fc5565b5b6002811115610c0957610c08610fc5565b5b815250509050919050565b6000602052806000526040600020600091509050806000018054610c3790611559565b80601f0160208091040260200160405190810160405280929190818152602001828054610c6390611559565b8015610cb05780601f10610c8557610100808354040283529160200191610cb0565b820191906000526020600020905b815481529060010190602001808311610c9357829003601f168201915b5050505050908060010154908060020160009054906101000a900460ff16908060020160019054906101000a900460ff16905084565b60008060016002811115610cfd57610cfc610fc5565b5b836002811115610d1057610d0f610fc5565b5b03610d1f5761044c9050610d5c565b60006002811115610d3357610d32610fc5565b5b836002811115610d4657610d45610fc5565b5b03610d55576103e89050610d5b565b6101f490505b5b600280811115610d6f57610d6e610fc5565b5b846002811115610d8257610d81610fc5565b5b03610d9c5761012c81610d959190611b27565b9050610dce565b60016002811115610db057610daf610fc5565b5b846002811115610dc357610dc2610fc5565b5b03610dcd57600090505b5b8091505092915050565b6040518060800160405280606081526020016000815260200160006002811115610e0557610e04610fc5565b5b815260200160006002811115610e1e57610e1d610fc5565b5b81525090565b6000604051905090565b600080fd5b600080fd5b600073ffffffffffffffffffffffffffffffffffffffff82169050919050565b6000610e6382610e38565b9050919050565b610e7381610e58565b8114610e7e57600080fd5b50565b600081359050610e9081610e6a565b92915050565b600060208284031215610eac57610eab610e2e565b5b6000610eba84828501610e81565b91505092915050565b6000819050919050565b610ed681610ec3565b8114610ee157600080fd5b50565b600081359050610ef381610ecd565b92915050565b600060208284031215610f0f57610f0e610e2e565b5b6000610f1d84828501610ee4565b91505092915050565b600081519050919050565b600082825260208201905092915050565b60005b83811015610f60578082015181840152602081019050610f45565b60008484015250505050565b6000601f19601f8301169050919050565b6000610f8882610f26565b610f928185610f31565b9350610fa2818560208601610f42565b610fab81610f6c565b840191505092915050565b610fbf81610ec3565b82525050565b7f4e487b7100000000000000000000000000000000000000000000000000000000600052602160045260246000fd5b6003811061100557611004610fc5565b5b50565b600081905061101682610ff4565b919050565b600061102682611008565b9050919050565b6110368161101b565b82525050565b6003811061104d5761104c610fc5565b5b50565b600081905061105e8261103c565b919050565b600061106e82611050565b9050919050565b61107e81611063565b82525050565b6000608082019050818103600083015261109e8187610f7d565b90506110ad6020830186610fb6565b6110ba604083018561102d565b6110c76060830184611075565b95945050505050565b60006020820190506110e56000830184610fb6565b92915050565b60006110f682610e38565b9050919050565b611106816110eb565b82525050565b600060208201905061112160008301846110fd565b92915050565b611130816110eb565b811461113b57600080fd5b50565b60008135905061114d81611127565b92915050565b6003811061116057600080fd5b50565b60008135905061117281611153565b92915050565b6000806040838503121561118f5761118e610e2e565b5b600061119d8582860161113e565b92505060206111ae85828601611163565b9150509250929050565b600080fd5b600080fd5b7f4e487b7100000000000000000000000000000000000000000000000000000000600052604160045260246000fd5b6111fa82610f6c565b810181811067ffffffffffffffff82111715611219576112186111c2565b5b80604052505050565b600061122c610e24565b905061123882826111f1565b919050565b600067ffffffffffffffff821115611258576112576111c2565b5b61126182610f6c565b9050602081019050919050565b82818337600083830152505050565b600061129061128b8461123d565b611222565b9050828152602081018484840111156112ac576112ab6111bd565b5b6112b784828561126e565b509392505050565b600082601f8301126112d4576112d36111b8565b5b81356112e484826020860161127d565b91505092915050565b600381106112fa57600080fd5b50565b60008135905061130c816112ed565b92915050565b6000806000806080858703121561132c5761132b610e2e565b5b600061133a8782880161113e565b945050602085013567ffffffffffffffff81111561135b5761135a610e33565b5b611367878288016112bf565b935050604061137887828801611163565b9250506060611389878288016112fd565b91505092959194509250565b6000602082840312156113ab576113aa610e2e565b5b60006113b98482850161113e565b91505092915050565b600082825260208201905092915050565b60006113de82610f26565b6113e881856113c2565b93506113f8818560208601610f42565b61140181610f6c565b840191505092915050565b61141581610ec3565b82525050565b6114248161101b565b82525050565b61143381611063565b82525050565b6000608083016000830151848203600086015261145682826113d3565b915050602083015161146b602086018261140c565b50604083015161147e604086018261141b565b506060830151611491606086018261142a565b508091505092915050565b600060208201905081810360008301526114b68184611439565b905092915050565b7f4e6f7420617574686f72697a6564000000000000000000000000000000000000600082015250565b60006114f4600e83610f31565b91506114ff826114be565b602082019050919050565b60006020820190508181036000830152611523816114e7565b9050919050565b7f4e487b7100000000000000000000000000000000000000000000000000000000600052602260045260246000fd5b6000600282049050600182168061157157607f821691505b6020821081036115845761158361152a565b5b50919050565b7f4e6f2073616c6172792061737369676e65640000000000000000000000000000600082015250565b60006115c0601283610f31565b91506115cb8261158a565b602082019050919050565b600060208201905081810360008301526115ef816115b3565b9050919050565b7f5374616666206e6f7420656d706c6f7965640000000000000000000000000000600082015250565b600061162c601283610f31565b9150611637826115f6565b602082019050919050565b6000602082019050818103600083015261165b8161161f565b9050919050565b7f4e487b7100000000000000000000000000000000000000000000000000000000600052601160045260246000fd5b600061169c82610ec3565b91506116a783610ec3565b92508282026116b581610ec3565b915082820484148315176116cc576116cb611662565b5b5092915050565b7f496e73756666696369656e7420636f6e74726163742062616c616e6365000000600082015250565b6000611709601d83610f31565b9150611714826116d3565b602082019050919050565b60006020820190508181036000830152611738816116fc565b9050919050565b7f537461666620616c726561647920657869737473000000000000000000000000600082015250565b6000611775601483610f31565b91506117808261173f565b602082019050919050565b600060208201905081810360008301526117a481611768565b9050919050565b60008190508160005260206000209050919050565b60006020601f8301049050919050565b600082821b905092915050565b60006008830261180d7fffffffffffffffffffffffffffffffffffffffffffffffffffffffffffffffff826117d0565b61181786836117d0565b95508019841693508086168417925050509392505050565b6000819050919050565b600061185461184f61184a84610ec3565b61182f565b610ec3565b9050919050565b6000819050919050565b61186e83611839565b61188261187a8261185b565b8484546117dd565b825550505050565b600090565b61189761188a565b6118a2818484611865565b505050565b5b818110156118c6576118bb60008261188f565b6001810190506118a8565b5050565b601f82111561190b576118dc816117ab565b6118e5846117c0565b810160208510156118f4578190505b611908611900856117c0565b8301826118a7565b50505b505050565b600082821c905092915050565b600061192e60001984600802611910565b1980831691505092915050565b6000611947838361191d565b9150826002028217905092915050565b61196082610f26565b67ffffffffffffffff811115611979576119786111c2565b5b6119838254611559565b61198e8282856118ca565b600060209050601f8311600181146119c157600084156119af578287015190505b6119b9858261193b565b865550611a21565b601f1984166119cf866117ab565b60005b828110156119f7578489015182556001820191506020850194506020810190506119d2565b86831015611a145784890151611a10601f89168261191d565b8355505b6001600288020188555050505b505050505050565b600081549050611a3881611559565b9050919050565b818103611a4d575050611b25565b611a5682611a29565b67ffffffffffffffff811115611a6f57611a6e6111c2565b5b611a798254611559565b611a848282856118ca565b6000601f831160018114611ab35760008415611aa1578287015490505b611aab858261193b565b865550611b1e565b601f198416611ac1876117ab565b9650611acc866117ab565b60005b82811015611af457848901548255600182019150600185019450602081019050611acf565b86831015611b115784890154611b0d601f89168261191d565b8355505b6001600288020188555050505b5050505050505b565b6000611b3282610ec3565b9150611b3d83610ec3565b9250828203905081811115611b5557611b54611662565b5b9291505056fea2646970667358221220e951b902afa69cda0bc072e388448757aeb7c6235cfcf88ba92004ca674d75bc64736f6c634300081c0033",
          "opcodes": "PUSH1 0x80 PUSH1 0x40 MSTORE CALLVALUE DUP1 ISZERO PUSH1 0xF JUMPI PUSH1 0x0 DUP1 REVERT JUMPDEST POP CALLER PUSH1 0x2 PUSH1 0x0 PUSH2 0x100 EXP DUP2 SLOAD DUP2 PUSH20 0xFFFFFFFFFFFFFFFFFFFFFFFFFFFFFFFFFFFFFFFF MUL NOT AND SWAP1 DUP4 PUSH20 0xFFFFFFFFFFFFFFFFFFFFFFFFFFFFFFFFFFFFFFFF AND MUL OR SWAP1 SSTORE POP PUSH2 0x1B91 DUP1 PUSH2 0x60 PUSH1 0x0 CODECOPY PUSH1 0x0 RETURN INVALID PUSH1 0x80 PUSH1 0x40 MSTORE PUSH1 0x4 CALLDATASIZE LT PUSH2 0x7F JUMPI PUSH1 0x0 CALLDATALOAD PUSH1 0xE0 SHR DUP1 PUSH4 0xA669A10F GT PUSH2 0x4E JUMPI DUP1 PUSH4 0xA669A10F EQ PUSH2 0x14A JUMPI DUP1 PUSH4 0xA95AE38B EQ PUSH2 0x173 JUMPI DUP1 PUSH4 0xDDD79504 EQ PUSH2 0x19C JUMPI DUP1 PUSH4 0xF17157B6 EQ PUSH2 0x1D9 JUMPI PUSH2 0x86 JUMP JUMPDEST DUP1 PUSH4 0xEA37AEF EQ PUSH2 0x8B JUMPI DUP1 PUSH4 0x144DCEAA EQ PUSH2 0xB4 JUMPI DUP1 PUSH4 0x238EF027 EQ PUSH2 0xF4 JUMPI DUP1 PUSH4 0x8DA5CB5B EQ PUSH2 0x11F JUMPI PUSH2 0x86 JUMP JUMPDEST CALLDATASIZE PUSH2 0x86 JUMPI STOP JUMPDEST PUSH1 0x0 DUP1 REVERT JUMPDEST CALLVALUE DUP1 ISZERO PUSH2 0x97 JUMPI PUSH1 0x0 DUP1 REVERT JUMPDEST POP PUSH2 0xB2 PUSH1 0x4 DUP1 CALLDATASIZE SUB DUP2 ADD SWAP1 PUSH2 0xAD SWAP2 SWAP1 PUSH2 0xE96 JUMP JUMPDEST PUSH2 0x219 JUMP JUMPDEST STOP JUMPDEST CALLVALUE DUP1 ISZERO PUSH2 0xC0 JUMPI PUSH1 0x0 DUP1 REVERT JUMPDEST POP PUSH2 0xDB PUSH1 0x4 DUP1 CALLDATASIZE SUB DUP2 ADD SWAP1 PUSH2 0xD6 SWAP2 SWAP1 PUSH2 0xEF9 JUMP JUMPDEST PUSH2 0x565 JUMP JUMPDEST PUSH1 0x40 MLOAD PUSH2 0xEB SWAP5 SWAP4 SWAP3 SWAP2 SWAP1 PUSH2 0x1084 JUMP JUMPDEST PUSH1 0x40 MLOAD DUP1 SWAP2 SUB SWAP1 RETURN JUMPDEST CALLVALUE DUP1 ISZERO PUSH2 0x100 JUMPI PUSH1 0x0 DUP1 REVERT JUMPDEST POP PUSH2 0x109 PUSH2 0x647 JUMP JUMPDEST PUSH1 0x40 MLOAD PUSH2 0x116 SWAP2 SWAP1 PUSH2 0x10D0 JUMP JUMPDEST PUSH1 0x40 MLOAD DUP1 SWAP2 SUB SWAP1 RETURN JUMPDEST CALLVALUE DUP1 ISZERO PUSH2 0x12B JUMPI PUSH1 0x0 DUP1 REVERT JUMPDEST POP PUSH2 0x134 PUSH2 0x654 JUMP JUMPDEST PUSH1 0x40 MLOAD PUSH2 0x141 SWAP2 SWAP1 PUSH2 0x110C JUMP JUMPDEST PUSH1 0x40 MLOAD DUP1 SWAP2 SUB SWAP1 RETURN JUMPDEST CALLVALUE DUP1 ISZERO PUSH2 0x156 JUMPI PUSH1 0x0 DUP1 REVERT JUMPDEST POP PUSH2 0x171 PUSH1 0x4 DUP1 CALLDATASIZE SUB DUP2 ADD SWAP1 PUSH2 0x16C SWAP2 SWAP1 PUSH2 0x1178 JUMP JUMPDEST PUSH2 0x67A JUMP JUMPDEST STOP JUMPDEST CALLVALUE DUP1 ISZERO PUSH2 0x17F JUMPI PUSH1 0x0 DUP1 REVERT JUMPDEST POP PUSH2 0x19A PUSH1 0x4 DUP1 CALLDATASIZE SUB DUP2 ADD SWAP1 PUSH2 0x195 SWAP2 SWAP1 PUSH2 0x1312 JUMP JUMPDEST PUSH2 0x777 JUMP JUMPDEST STOP JUMPDEST CALLVALUE DUP1 ISZERO PUSH2 0x1A8 JUMPI PUSH1 0x0 DUP1 REVERT JUMPDEST POP PUSH2 0x1C3 PUSH1 0x4 DUP1 CALLDATASIZE SUB DUP2 ADD SWAP1 PUSH2 0x1BE SWAP2 SWAP1 PUSH2 0x1395 JUMP JUMPDEST PUSH2 0xAAA JUMP JUMPDEST PUSH1 0x40 MLOAD PUSH2 0x1D0 SWAP2 SWAP1 PUSH2 0x149C JUMP JUMPDEST PUSH1 0x40 MLOAD DUP1 SWAP2 SUB SWAP1 RETURN JUMPDEST CALLVALUE DUP1 ISZERO PUSH2 0x1E5 JUMPI PUSH1 0x0 DUP1 REVERT JUMPDEST POP PUSH2 0x200 PUSH1 0x4 DUP1 CALLDATASIZE SUB DUP2 ADD SWAP1 PUSH2 0x1FB SWAP2 SWAP1 PUSH2 0x1395 JUMP JUMPDEST PUSH2 0xC14 JUMP JUMPDEST PUSH1 0x40 MLOAD PUSH2 0x210 SWAP5 SWAP4 SWAP3 SWAP2 SWAP1 PUSH2 0x1084 JUMP JUMPDEST PUSH1 0x40 MLOAD DUP1 SWAP2 SUB SWAP1 RETURN JUMPDEST PUSH1 0x2 PUSH1 0x0 SWAP1 SLOAD SWAP1 PUSH2 0x100 EXP SWAP1 DIV PUSH20 0xFFFFFFFFFFFFFFFFFFFFFFFFFFFFFFFFFFFFFFFF AND PUSH20 0xFFFFFFFFFFFFFFFFFFFFFFFFFFFFFFFFFFFFFFFF AND CALLER PUSH20 0xFFFFFFFFFFFFFFFFFFFFFFFFFFFFFFFFFFFFFFFF AND EQ PUSH2 0x2A9 JUMPI PUSH1 0x40 MLOAD PUSH32 0x8C379A000000000000000000000000000000000000000000000000000000000 DUP2 MSTORE PUSH1 0x4 ADD PUSH2 0x2A0 SWAP1 PUSH2 0x150A JUMP JUMPDEST PUSH1 0x40 MLOAD DUP1 SWAP2 SUB SWAP1 REVERT JUMPDEST PUSH1 0x0 DUP1 PUSH1 0x0 DUP4 PUSH20 0xFFFFFFFFFFFFFFFFFFFFFFFFFFFFFFFFFFFFFFFF AND PUSH20 0xFFFFFFFFFFFFFFFFFFFFFFFFFFFFFFFFFFFFFFFF AND DUP2 MSTORE PUSH1 0x20 ADD SWAP1 DUP2 MSTORE PUSH1 0x20 ADD PUSH1 0x0 KECCAK256 PUSH1 0x40 MLOAD DUP1 PUSH1 0x80 ADD PUSH1 0x40 MSTORE SWAP1 DUP2 PUSH1 0x0 DUP3 ADD DUP1 SLOAD PUSH2 0x304 SWAP1 PUSH2 0x1559 JUMP JUMPDEST DUP1 PUSH1 0x1F ADD PUSH1 0x20 DUP1 SWAP2 DIV MUL PUSH1 0x20 ADD PUSH1 0x40 MLOAD SWAP1 DUP2 ADD PUSH1 0x40 MSTORE DUP1 SWAP3 SWAP2 SWAP1 DUP2 DUP2 MSTORE PUSH1 0x20 ADD DUP3 DUP1 SLOAD PUSH2 0x330 SWAP1 PUSH2 0x1559 JUMP JUMPDEST DUP1 ISZERO PUSH2 0x37D JUMPI DUP1 PUSH1 0x1F LT PUSH2 0x352 JUMPI PUSH2 0x100 DUP1 DUP4 SLOAD DIV MUL DUP4 MSTORE SWAP2 PUSH1 0x20 ADD SWAP2 PUSH2 0x37D JUMP JUMPDEST DUP3 ADD SWAP2 SWAP1 PUSH1 0x0 MSTORE PUSH1 0x20 PUSH1 0x0 KECCAK256 SWAP1 JUMPDEST DUP2 SLOAD DUP2 MSTORE SWAP1 PUSH1 0x1 ADD SWAP1 PUSH1 0x20 ADD DUP1 DUP4 GT PUSH2 0x360 JUMPI DUP3 SWAP1 SUB PUSH1 0x1F AND DUP3 ADD SWAP2 JUMPDEST POP POP POP POP POP DUP2 MSTORE PUSH1 0x20 ADD PUSH1 0x1 DUP3 ADD SLOAD DUP2 MSTORE PUSH1 0x20 ADD PUSH1 0x2 DUP3 ADD PUSH1 0x0 SWAP1 SLOAD SWAP1 PUSH2 0x100 EXP SWAP1 DIV PUSH1 0xFF AND PUSH1 0x2 DUP2 GT ISZERO PUSH2 0x3B5 JUMPI PUSH2 0x3B4 PUSH2 0xFC5 JUMP JUMPDEST JUMPDEST PUSH1 0x2 DUP2 GT ISZERO PUSH2 0x3C7 JUMPI PUSH2 0x3C6 PUSH2 0xFC5 JUMP JUMPDEST JUMPDEST DUP2 MSTORE PUSH1 0x20 ADD PUSH1 0x2 DUP3 ADD PUSH1 0x1 SWAP1 SLOAD SWAP1 PUSH2 0x100 EXP SWAP1 DIV PUSH1 0xFF AND PUSH1 0x2 DUP2 GT ISZERO PUSH2 0x3F0 JUMPI PUSH2 0x3EF PUSH2 0xFC5 JUMP JUMPDEST JUMPDEST PUSH1 0x2 DUP2 GT ISZERO PUSH2 0x402 JUMPI PUSH2 0x401 PUSH2 0xFC5 JUMP JUMPDEST JUMPDEST DUP2 MSTORE POP POP SWAP1 POP PUSH1 0x0 DUP2 PUSH1 0x20 ADD MLOAD GT PUSH2 0x44F JUMPI PUSH1 0x40 MLOAD PUSH32 0x8C379A000000000000000000000000000000000000000000000000000000000 DUP2 MSTORE PUSH1 0x4 ADD PUSH2 0x446 SWAP1 PUSH2 0x15D6 JUMP JUMPDEST PUSH1 0x40 MLOAD DUP1 SWAP2 SUB SWAP1 REVERT JUMPDEST PUSH1 0x0 PUSH1 0x2 DUP2 GT ISZERO PUSH2 0x463 JUMPI PUSH2 0x462 PUSH2 0xFC5 JUMP JUMPDEST JUMPDEST DUP2 PUSH1 0x40 ADD MLOAD PUSH1 0x2 DUP2 GT ISZERO PUSH2 0x47A JUMPI PUSH2 0x479 PUSH2 0xFC5 JUMP JUMPDEST JUMPDEST EQ PUSH2 0x4BA JUMPI PUSH1 0x40 MLOAD PUSH32 0x8C379A000000000000000000000000000000000000000000000000000000000 DUP2 MSTORE PUSH1 0x4 ADD PUSH2 0x4B1 SWAP1 PUSH2 0x1642 JUMP JUMPDEST PUSH1 0x40 MLOAD DUP1 SWAP2 SUB SWAP1 REVERT JUMPDEST PUSH1 0x0 PUSH8 0xDE0B6B3A7640000 DUP3 PUSH1 0x20 ADD MLOAD PUSH2 0x4D4 SWAP2 SWAP1 PUSH2 0x1691 JUMP JUMPDEST SWAP1 POP DUP1 SELFBALANCE LT ISZERO PUSH2 0x519 JUMPI PUSH1 0x40 MLOAD PUSH32 0x8C379A000000000000000000000000000000000000000000000000000000000 DUP2 MSTORE PUSH1 0x4 ADD PUSH2 0x510 SWAP1 PUSH2 0x171F JUMP JUMPDEST PUSH1 0x40 MLOAD DUP1 SWAP2 SUB SWAP1 REVERT JUMPDEST DUP3 PUSH20 0xFFFFFFFFFFFFFFFFFFFFFFFFFFFFFFFFFFFFFFFF AND PUSH2 0x8FC DUP3 SWAP1 DUP2 ISZERO MUL SWAP1 PUSH1 0x40 MLOAD PUSH1 0x0 PUSH1 0x40 MLOAD DUP1 DUP4 SUB DUP2 DUP6 DUP9 DUP9 CALL SWAP4 POP POP POP POP ISZERO DUP1 ISZERO PUSH2 0x55F JUMPI RETURNDATASIZE PUSH1 0x0 DUP1 RETURNDATACOPY RETURNDATASIZE PUSH1 0x0 REVERT JUMPDEST POP POP POP POP JUMP JUMPDEST PUSH1 0x1 DUP2 DUP2 SLOAD DUP2 LT PUSH2 0x575 JUMPI PUSH1 0x0 DUP1 REVERT JUMPDEST SWAP1 PUSH1 0x0 MSTORE PUSH1 0x20 PUSH1 0x0 KECCAK256 SWAP1 PUSH1 0x3 MUL ADD PUSH1 0x0 SWAP2 POP SWAP1 POP DUP1 PUSH1 0x0 ADD DUP1 SLOAD PUSH2 0x598 SWAP1 PUSH2 0x1559 JUMP JUMPDEST DUP1 PUSH1 0x1F ADD PUSH1 0x20 DUP1 SWAP2 DIV MUL PUSH1 0x20 ADD PUSH1 0x40 MLOAD SWAP1 DUP2 ADD PUSH1 0x40 MSTORE DUP1 SWAP3 SWAP2 SWAP1 DUP2 DUP2 MSTORE PUSH1 0x20 ADD DUP3 DUP1 SLOAD PUSH2 0x5C4 SWAP1 PUSH2 0x1559 JUMP JUMPDEST DUP1 ISZERO PUSH2 0x611 JUMPI DUP1 PUSH1 0x1F LT PUSH2 0x5E6 JUMPI PUSH2 0x100 DUP1 DUP4 SLOAD DIV MUL DUP4 MSTORE SWAP2 PUSH1 0x20 ADD SWAP2 PUSH2 0x611 JUMP JUMPDEST DUP3 ADD SWAP2 SWAP1 PUSH1 0x0 MSTORE PUSH1 0x20 PUSH1 0x0 KECCAK256 SWAP1 JUMPDEST DUP2 SLOAD DUP2 MSTORE SWAP1 PUSH1 0x1 ADD SWAP1 PUSH1 0x20 ADD DUP1 DUP4 GT PUSH2 0x5F4 JUMPI DUP3 SWAP1 SUB PUSH1 0x1F AND DUP3 ADD SWAP2 JUMPDEST POP POP POP POP POP SWAP1 DUP1 PUSH1 0x1 ADD SLOAD SWAP1 DUP1 PUSH1 0x2 ADD PUSH1 0x0 SWAP1 SLOAD SWAP1 PUSH2 0x100 EXP SWAP1 DIV PUSH1 0xFF AND SWAP1 DUP1 PUSH1 0x2 ADD PUSH1 0x1 SWAP1 SLOAD SWAP1 PUSH2 0x100 EXP SWAP1 DIV PUSH1 0xFF AND SWAP1 POP DUP5 JUMP JUMPDEST PUSH1 0x0 PUSH1 0x1 DUP1 SLOAD SWAP1 POP SWAP1 POP SWAP1 JUMP JUMPDEST PUSH1 0x2 PUSH1 0x0 SWAP1 SLOAD SWAP1 PUSH2 0x100 EXP SWAP1 DIV PUSH20 0xFFFFFFFFFFFFFFFFFFFFFFFFFFFFFFFFFFFFFFFF AND DUP2 JUMP JUMPDEST PUSH1 0x2 PUSH1 0x0 SWAP1 SLOAD SWAP1 PUSH2 0x100 EXP SWAP1 DIV PUSH20 0xFFFFFFFFFFFFFFFFFFFFFFFFFFFFFFFFFFFFFFFF AND PUSH20 0xFFFFFFFFFFFFFFFFFFFFFFFFFFFFFFFFFFFFFFFF AND CALLER PUSH20 0xFFFFFFFFFFFFFFFFFFFFFFFFFFFFFFFFFFFFFFFF AND EQ PUSH2 0x70A JUMPI PUSH1 0x40 MLOAD PUSH32 0x8C379A000000000000000000000000000000000000000000000000000000000 DUP2 MSTORE PUSH1 0x4 ADD PUSH2 0x701 SWAP1 PUSH2 0x150A JUMP JUMPDEST PUSH1 0x40 MLOAD DUP1 SWAP2 SUB SWAP1 REVERT JUMPDEST DUP1 PUSH1 0x0 DUP1 DUP5 PUSH20 0xFFFFFFFFFFFFFFFFFFFFFFFFFFFFFFFFFFFFFFFF AND PUSH20 0xFFFFFFFFFFFFFFFFFFFFFFFFFFFFFFFFFFFFFFFF AND DUP2 MSTORE PUSH1 0x20 ADD SWAP1 DUP2 MSTORE PUSH1 0x20 ADD PUSH1 0x0 KECCAK256 PUSH1 0x2 ADD PUSH1 0x0 PUSH2 0x100 EXP DUP2 SLOAD DUP2 PUSH1 0xFF MUL NOT AND SWAP1 DUP4 PUSH1 0x2 DUP2 GT ISZERO PUSH2 0x76E JUMPI PUSH2 0x76D PUSH2 0xFC5 JUMP JUMPDEST JUMPDEST MUL OR SWAP1 SSTORE POP POP POP JUMP JUMPDEST PUSH1 0x2 PUSH1 0x0 SWAP1 SLOAD SWAP1 PUSH2 0x100 EXP SWAP1 DIV PUSH20 0xFFFFFFFFFFFFFFFFFFFFFFFFFFFFFFFFFFFFFFFF AND PUSH20 0xFFFFFFFFFFFFFFFFFFFFFFFFFFFFFFFFFFFFFFFF AND CALLER PUSH20 0xFFFFFFFFFFFFFFFFFFFFFFFFFFFFFFFFFFFFFFFF AND EQ PUSH2 0x807 JUMPI PUSH1 0x40 MLOAD PUSH32 0x8C379A000000000000000000000000000000000000000000000000000000000 DUP2 MSTORE PUSH1 0x4 ADD PUSH2 0x7FE SWAP1 PUSH2 0x150A JUMP JUMPDEST PUSH1 0x40 MLOAD DUP1 SWAP2 SUB SWAP1 REVERT JUMPDEST PUSH1 0x0 DUP1 PUSH1 0x0 DUP7 PUSH20 0xFFFFFFFFFFFFFFFFFFFFFFFFFFFFFFFFFFFFFFFF AND PUSH20 0xFFFFFFFFFFFFFFFFFFFFFFFFFFFFFFFFFFFFFFFF AND DUP2 MSTORE PUSH1 0x20 ADD SWAP1 DUP2 MSTORE PUSH1 0x20 ADD PUSH1 0x0 KECCAK256 PUSH1 0x1 ADD SLOAD EQ PUSH2 0x88B JUMPI PUSH1 0x40 MLOAD PUSH32 0x8C379A000000000000000000000000000000000000000000000000000000000 DUP2 MSTORE PUSH1 0x4 ADD PUSH2 0x882 SWAP1 PUSH2 0x178B JUMP JUMPDEST PUSH1 0x40 MLOAD DUP1 SWAP2 SUB SWAP1 REVERT JUMPDEST PUSH1 0x0 PUSH2 0x897 DUP4 DUP4 PUSH2 0xCE6 JUMP JUMPDEST SWAP1 POP PUSH1 0x40 MLOAD DUP1 PUSH1 0x80 ADD PUSH1 0x40 MSTORE DUP1 DUP6 DUP2 MSTORE PUSH1 0x20 ADD DUP3 DUP2 MSTORE PUSH1 0x20 ADD DUP5 PUSH1 0x2 DUP2 GT ISZERO PUSH2 0x8C3 JUMPI PUSH2 0x8C2 PUSH2 0xFC5 JUMP JUMPDEST JUMPDEST DUP2 MSTORE PUSH1 0x20 ADD DUP4 PUSH1 0x2 DUP2 GT ISZERO PUSH2 0x8DB JUMPI PUSH2 0x8DA PUSH2 0xFC5 JUMP JUMPDEST JUMPDEST DUP2 MSTORE POP PUSH1 0x0 DUP1 CALLER PUSH20 0xFFFFFFFFFFFFFFFFFFFFFFFFFFFFFFFFFFFFFFFF AND PUSH20 0xFFFFFFFFFFFFFFFFFFFFFFFFFFFFFFFFFFFFFFFF AND DUP2 MSTORE PUSH1 0x20 ADD SWAP1 DUP2 MSTORE PUSH1 0x20 ADD PUSH1 0x0 KECCAK256 PUSH1 0x0 DUP3 ADD MLOAD DUP2 PUSH1 0x0 ADD SWAP1 DUP2 PUSH2 0x931 SWAP2 SWAP1 PUSH2 0x1957 JUMP JUMPDEST POP PUSH1 0x20 DUP3 ADD MLOAD DUP2 PUSH1 0x1 ADD SSTORE PUSH1 0x40 DUP3 ADD MLOAD DUP2 PUSH1 0x2 ADD PUSH1 0x0 PUSH2 0x100 EXP DUP2 SLOAD DUP2 PUSH1 0xFF MUL NOT AND SWAP1 DUP4 PUSH1 0x2 DUP2 GT ISZERO PUSH2 0x967 JUMPI PUSH2 0x966 PUSH2 0xFC5 JUMP JUMPDEST JUMPDEST MUL OR SWAP1 SSTORE POP PUSH1 0x60 DUP3 ADD MLOAD DUP2 PUSH1 0x2 ADD PUSH1 0x1 PUSH2 0x100 EXP DUP2 SLOAD DUP2 PUSH1 0xFF MUL NOT AND SWAP1 DUP4 PUSH1 0x2 DUP2 GT ISZERO PUSH2 0x997 JUMPI PUSH2 0x996 PUSH2 0xFC5 JUMP JUMPDEST JUMPDEST MUL OR SWAP1 SSTORE POP SWAP1 POP POP PUSH1 0x1 PUSH1 0x0 DUP1 CALLER PUSH20 0xFFFFFFFFFFFFFFFFFFFFFFFFFFFFFFFFFFFFFFFF AND PUSH20 0xFFFFFFFFFFFFFFFFFFFFFFFFFFFFFFFFFFFFFFFF AND DUP2 MSTORE PUSH1 0x20 ADD SWAP1 DUP2 MSTORE PUSH1 0x20 ADD PUSH1 0x0 KECCAK256 SWAP1 DUP1 PUSH1 0x1 DUP2 SLOAD ADD DUP1 DUP3 SSTORE DUP1 SWAP2 POP POP PUSH1 0x1 SWAP1 SUB SWAP1 PUSH1 0x0 MSTORE PUSH1 0x20 PUSH1 0x0 KECCAK256 SWAP1 PUSH1 0x3 MUL ADD PUSH1 0x0 SWAP1 SWAP2 SWAP1 SWAP2 SWAP1 SWAP2 POP PUSH1 0x0 DUP3 ADD DUP2 PUSH1 0x0 ADD SWAP1 DUP2 PUSH2 0xA1C SWAP2 SWAP1 PUSH2 0x1A3F JUMP JUMPDEST POP PUSH1 0x1 DUP3 ADD SLOAD DUP2 PUSH1 0x1 ADD SSTORE PUSH1 0x2 DUP3 ADD PUSH1 0x0 SWAP1 SLOAD SWAP1 PUSH2 0x100 EXP SWAP1 DIV PUSH1 0xFF AND DUP2 PUSH1 0x2 ADD PUSH1 0x0 PUSH2 0x100 EXP DUP2 SLOAD DUP2 PUSH1 0xFF MUL NOT AND SWAP1 DUP4 PUSH1 0x2 DUP2 GT ISZERO PUSH2 0xA5F JUMPI PUSH2 0xA5E PUSH2 0xFC5 JUMP JUMPDEST JUMPDEST MUL OR SWAP1 SSTORE POP PUSH1 0x2 DUP3 ADD PUSH1 0x1 SWAP1 SLOAD SWAP1 PUSH2 0x100 EXP SWAP1 DIV PUSH1 0xFF AND DUP2 PUSH1 0x2 ADD PUSH1 0x1 PUSH2 0x100 EXP DUP2 SLOAD DUP2 PUSH1 0xFF MUL NOT AND SWAP1 DUP4 PUSH1 0x2 DUP2 GT ISZERO PUSH2 0xA9C JUMPI PUSH2 0xA9B PUSH2 0xFC5 JUMP JUMPDEST JUMPDEST MUL OR SWAP1 SSTORE POP POP POP POP POP POP POP POP JUMP JUMPDEST PUSH2 0xAB2 PUSH2 0xDD8 JUMP JUMPDEST PUSH1 0x0 DUP1 DUP4 PUSH20 0xFFFFFFFFFFFFFFFFFFFFFFFFFFFFFFFFFFFFFFFF AND PUSH20 0xFFFFFFFFFFFFFFFFFFFFFFFFFFFFFFFFFFFFFFFF AND DUP2 MSTORE PUSH1 0x20 ADD SWAP1 DUP2 MSTORE PUSH1 0x20 ADD PUSH1 0x0 KECCAK256 PUSH1 0x40 MLOAD DUP1 PUSH1 0x80 ADD PUSH1 0x40 MSTORE SWAP1 DUP2 PUSH1 0x0 DUP3 ADD DUP1 SLOAD PUSH2 0xB0B SWAP1 PUSH2 0x1559 JUMP JUMPDEST DUP1 PUSH1 0x1F ADD PUSH1 0x20 DUP1 SWAP2 DIV MUL PUSH1 0x20 ADD PUSH1 0x40 MLOAD SWAP1 DUP2 ADD PUSH1 0x40 MSTORE DUP1 SWAP3 SWAP2 SWAP1 DUP2 DUP2 MSTORE PUSH1 0x20 ADD DUP3 DUP1 SLOAD PUSH2 0xB37 SWAP1 PUSH2 0x1559 JUMP JUMPDEST DUP1 ISZERO PUSH2 0xB84 JUMPI DUP1 PUSH1 0x1F LT PUSH2 0xB59 JUMPI PUSH2 0x100 DUP1 DUP4 SLOAD DIV MUL DUP4 MSTORE SWAP2 PUSH1 0x20 ADD SWAP2 PUSH2 0xB84 JUMP JUMPDEST DUP3 ADD SWAP2 SWAP1 PUSH1 0x0 MSTORE PUSH1 0x20 PUSH1 0x0 KECCAK256 SWAP1 JUMPDEST DUP2 SLOAD DUP2 MSTORE SWAP1 PUSH1 0x1 ADD SWAP1 PUSH1 0x20 ADD DUP1 DUP4 GT PUSH2 0xB67 JUMPI DUP3 SWAP1 SUB PUSH1 0x1F AND DUP3 ADD SWAP2 JUMPDEST POP POP POP POP POP DUP2 MSTORE PUSH1 0x20 ADD PUSH1 0x1 DUP3 ADD SLOAD DUP2 MSTORE PUSH1 0x20 ADD PUSH1 0x2 DUP3 ADD PUSH1 0x0 SWAP1 SLOAD SWAP1 PUSH2 0x100 EXP SWAP1 DIV PUSH1 0xFF AND PUSH1 0x2 DUP2 GT ISZERO PUSH2 0xBBC JUMPI PUSH2 0xBBB PUSH2 0xFC5 JUMP JUMPDEST JUMPDEST PUSH1 0x2 DUP2 GT ISZERO PUSH2 0xBCE JUMPI PUSH2 0xBCD PUSH2 0xFC5 JUMP JUMPDEST JUMPDEST DUP2 MSTORE PUSH1 0x20 ADD PUSH1 0x2 DUP3 ADD PUSH1 0x1 SWAP1 SLOAD SWAP1 PUSH2 0x100 EXP SWAP1 DIV PUSH1 0xFF AND PUSH1 0x2 DUP2 GT ISZERO PUSH2 0xBF7 JUMPI PUSH2 0xBF6 PUSH2 0xFC5 JUMP JUMPDEST JUMPDEST PUSH1 0x2 DUP2 GT ISZERO PUSH2 0xC09 JUMPI PUSH2 0xC08 PUSH2 0xFC5 JUMP JUMPDEST JUMPDEST DUP2 MSTORE POP POP SWAP1 POP SWAP2 SWAP1 POP JUMP JUMPDEST PUSH1 0x0 PUSH1 0x20 MSTORE DUP1 PUSH1 0x0 MSTORE PUSH1 0x40 PUSH1 0x0 KECCAK256 PUSH1 0x0 SWAP2 POP SWAP1 POP DUP1 PUSH1 0x0 ADD DUP1 SLOAD PUSH2 0xC37 SWAP1 PUSH2 0x1559 JUMP JUMPDEST DUP1 PUSH1 0x1F ADD PUSH1 0x20 DUP1 SWAP2 DIV MUL PUSH1 0x20 ADD PUSH1 0x40 MLOAD SWAP1 DUP2 ADD PUSH1 0x40 MSTORE DUP1 SWAP3 SWAP2 SWAP1 DUP2 DUP2 MSTORE PUSH1 0x20 ADD DUP3 DUP1 SLOAD PUSH2 0xC63 SWAP1 PUSH2 0x1559 JUMP JUMPDEST DUP1 ISZERO PUSH2 0xCB0 JUMPI DUP1 PUSH1 0x1F LT PUSH2 0xC85 JUMPI PUSH2 0x100 DUP1 DUP4 SLOAD DIV MUL DUP4 MSTORE SWAP2 PUSH1 0x20 ADD SWAP2 PUSH2 0xCB0 JUMP JUMPDEST DUP3 ADD SWAP2 SWAP1 PUSH1 0x0 MSTORE PUSH1 0x20 PUSH1 0x0 KECCAK256 SWAP1 JUMPDEST DUP2 SLOAD DUP2 MSTORE SWAP1 PUSH1 0x1 ADD SWAP1 PUSH1 0x20 ADD DUP1 DUP4 GT PUSH2 0xC93 JUMPI DUP3 SWAP1 SUB PUSH1 0x1F AND DUP3 ADD SWAP2 JUMPDEST POP POP POP POP POP SWAP1 DUP1 PUSH1 0x1 ADD SLOAD SWAP1 DUP1 PUSH1 0x2 ADD PUSH1 0x0 SWAP1 SLOAD SWAP1 PUSH2 0x100 EXP SWAP1 DIV PUSH1 0xFF AND SWAP1 DUP1 PUSH1 0x2 ADD PUSH1 0x1 SWAP1 SLOAD SWAP1 PUSH2 0x100 EXP SWAP1 DIV PUSH1 0xFF AND SWAP1 POP DUP5 JUMP JUMPDEST PUSH1 0x0 DUP1 PUSH1 0x1 PUSH1 0x2 DUP2 GT ISZERO PUSH2 0xCFD JUMPI PUSH2 0xCFC PUSH2 0xFC5 JUMP JUMPDEST JUMPDEST DUP4 PUSH1 0x2 DUP2 GT ISZERO PUSH2 0xD10 JUMPI PUSH2 0xD0F PUSH2 0xFC5 JUMP JUMPDEST JUMPDEST SUB PUSH2 0xD1F JUMPI PUSH2 0x44C SWAP1 POP PUSH2 0xD5C JUMP JUMPDEST PUSH1 0x0 PUSH1 0x2 DUP2 GT ISZERO PUSH2 0xD33 JUMPI PUSH2 0xD32 PUSH2 0xFC5 JUMP JUMPDEST JUMPDEST DUP4 PUSH1 0x2 DUP2 GT ISZERO PUSH2 0xD46 JUMPI PUSH2 0xD45 PUSH2 0xFC5 JUMP JUMPDEST JUMPDEST SUB PUSH2 0xD55 JUMPI PUSH2 0x3E8 SWAP1 POP PUSH2 0xD5B JUMP JUMPDEST PUSH2 0x1F4 SWAP1 POP JUMPDEST JUMPDEST PUSH1 0x2 DUP1 DUP2 GT ISZERO PUSH2 0xD6F JUMPI PUSH2 0xD6E PUSH2 0xFC5 JUMP JUMPDEST JUMPDEST DUP5 PUSH1 0x2 DUP2 GT ISZERO PUSH2 0xD82 JUMPI PUSH2 0xD81 PUSH2 0xFC5 JUMP JUMPDEST JUMPDEST SUB PUSH2 0xD9C JUMPI PUSH2 0x12C DUP2 PUSH2 0xD95 SWAP2 SWAP1 PUSH2 0x1B27 JUMP JUMPDEST SWAP1 POP PUSH2 0xDCE JUMP JUMPDEST PUSH1 0x1 PUSH1 0x2 DUP2 GT ISZERO PUSH2 0xDB0 JUMPI PUSH2 0xDAF PUSH2 0xFC5 JUMP JUMPDEST JUMPDEST DUP5 PUSH1 0x2 DUP2 GT ISZERO PUSH2 0xDC3 JUMPI PUSH2 0xDC2 PUSH2 0xFC5 JUMP JUMPDEST JUMPDEST SUB PUSH2 0xDCD JUMPI PUSH1 0x0 SWAP1 POP JUMPDEST JUMPDEST DUP1 SWAP2 POP POP SWAP3 SWAP2 POP POP JUMP JUMPDEST PUSH1 0x40 MLOAD DUP1 PUSH1 0x80 ADD PUSH1 0x40 MSTORE DUP1 PUSH1 0x60 DUP2 MSTORE PUSH1 0x20 ADD PUSH1 0x0 DUP2 MSTORE PUSH1 0x20 ADD PUSH1 0x0 PUSH1 0x2 DUP2 GT ISZERO PUSH2 0xE05 JUMPI PUSH2 0xE04 PUSH2 0xFC5 JUMP JUMPDEST JUMPDEST DUP2 MSTORE PUSH1 0x20 ADD PUSH1 0x0 PUSH1 0x2 DUP2 GT ISZERO PUSH2 0xE1E JUMPI PUSH2 0xE1D PUSH2 0xFC5 JUMP JUMPDEST JUMPDEST DUP2 MSTORE POP SWAP1 JUMP JUMPDEST PUSH1 0x0 PUSH1 0x40 MLOAD SWAP1 POP SWAP1 JUMP JUMPDEST PUSH1 0x0 DUP1 REVERT JUMPDEST PUSH1 0x0 DUP1 REVERT JUMPDEST PUSH1 0x0 PUSH20 0xFFFFFFFFFFFFFFFFFFFFFFFFFFFFFFFFFFFFFFFF DUP3 AND SWAP1 POP SWAP2 SWAP1 POP JUMP JUMPDEST PUSH1 0x0 PUSH2 0xE63 DUP3 PUSH2 0xE38 JUMP JUMPDEST SWAP1 POP SWAP2 SWAP1 POP JUMP JUMPDEST PUSH2 0xE73 DUP2 PUSH2 0xE58 JUMP JUMPDEST DUP2 EQ PUSH2 0xE7E JUMPI PUSH1 0x0 DUP1 REVERT JUMPDEST POP JUMP JUMPDEST PUSH1 0x0 DUP2 CALLDATALOAD SWAP1 POP PUSH2 0xE90 DUP2 PUSH2 0xE6A JUMP JUMPDEST SWAP3 SWAP2 POP POP JUMP JUMPDEST PUSH1 0x0 PUSH1 0x20 DUP3 DUP5 SUB SLT ISZERO PUSH2 0xEAC JUMPI PUSH2 0xEAB PUSH2 0xE2E JUMP JUMPDEST JUMPDEST PUSH1 0x0 PUSH2 0xEBA DUP5 DUP3 DUP6 ADD PUSH2 0xE81 JUMP JUMPDEST SWAP2 POP POP SWAP3 SWAP2 POP POP JUMP JUMPDEST PUSH1 0x0 DUP2 SWAP1 POP SWAP2 SWAP1 POP JUMP JUMPDEST PUSH2 0xED6 DUP2 PUSH2 0xEC3 JUMP JUMPDEST DUP2 EQ PUSH2 0xEE1 JUMPI PUSH1 0x0 DUP1 REVERT JUMPDEST POP JUMP JUMPDEST PUSH1 0x0 DUP2 CALLDATALOAD SWAP1 POP PUSH2 0xEF3 DUP2 PUSH2 0xECD JUMP JUMPDEST SWAP3 SWAP2 POP POP JUMP JUMPDEST PUSH1 0x0 PUSH1 0x20 DUP3 DUP5 SUB SLT ISZERO PUSH2 0xF0F JUMPI PUSH2 0xF0E PUSH2 0xE2E JUMP JUMPDEST JUMPDEST PUSH1 0x0 PUSH2 0xF1D DUP5 DUP3 DUP6 ADD PUSH2 0xEE4 JUMP JUMPDEST SWAP2 POP POP SWAP3 SWAP2 POP POP JUMP JUMPDEST PUSH1 0x0 DUP2 MLOAD SWAP1 POP SWAP2 SWAP1 POP JUMP JUMPDEST PUSH1 0x0 DUP3 DUP3 MSTORE PUSH1 0x20 DUP3 ADD SWAP1 POP SWAP3 SWAP2 POP POP JUMP JUMPDEST PUSH1 0x0 JUMPDEST DUP4 DUP2 LT ISZERO PUSH2 0xF60 JUMPI DUP1 DUP3 ADD MLOAD DUP2 DUP5 ADD MSTORE PUSH1 0x20 DUP2 ADD SWAP1 POP PUSH2 0xF45 JUMP JUMPDEST PUSH1 0x0 DUP5 DUP5 ADD MSTORE POP POP POP POP JUMP JUMPDEST PUSH1 0x0 PUSH1 0x1F NOT PUSH1 0x1F DUP4 ADD AND SWAP1 POP SWAP2 SWAP1 POP JUMP JUMPDEST PUSH1 0x0 PUSH2 0xF88 DUP3 PUSH2 0xF26 JUMP JUMPDEST PUSH2 0xF92 DUP2 DUP6 PUSH2 0xF31 JUMP JUMPDEST SWAP4 POP PUSH2 0xFA2 DUP2 DUP6 PUSH1 0x20 DUP7 ADD PUSH2 0xF42 JUMP JUMPDEST PUSH2 0xFAB DUP2 PUSH2 0xF6C JUMP JUMPDEST DUP5 ADD SWAP2 POP POP SWAP3 SWAP2 POP POP JUMP JUMPDEST PUSH2 0xFBF DUP2 PUSH2 0xEC3 JUMP JUMPDEST DUP3 MSTORE POP POP JUMP JUMPDEST PUSH32 0x4E487B7100000000000000000000000000000000000000000000000000000000 PUSH1 0x0 MSTORE PUSH1 0x21 PUSH1 0x4 MSTORE PUSH1 0x24 PUSH1 0x0 REVERT JUMPDEST PUSH1 0x3 DUP2 LT PUSH2 0x1005 JUMPI PUSH2 0x1004 PUSH2 0xFC5 JUMP JUMPDEST JUMPDEST POP JUMP JUMPDEST PUSH1 0x0 DUP2 SWAP1 POP PUSH2 0x1016 DUP3 PUSH2 0xFF4 JUMP JUMPDEST SWAP2 SWAP1 POP JUMP JUMPDEST PUSH1 0x0 PUSH2 0x1026 DUP3 PUSH2 0x1008 JUMP JUMPDEST SWAP1 POP SWAP2 SWAP1 POP JUMP JUMPDEST PUSH2 0x1036 DUP2 PUSH2 0x101B JUMP JUMPDEST DUP3 MSTORE POP POP JUMP JUMPDEST PUSH1 0x3 DUP2 LT PUSH2 0x104D JUMPI PUSH2 0x104C PUSH2 0xFC5 JUMP JUMPDEST JUMPDEST POP JUMP JUMPDEST PUSH1 0x0 DUP2 SWAP1 POP PUSH2 0x105E DUP3 PUSH2 0x103C JUMP JUMPDEST SWAP2 SWAP1 POP JUMP JUMPDEST PUSH1 0x0 PUSH2 0x106E DUP3 PUSH2 0x1050 JUMP JUMPDEST SWAP1 POP SWAP2 SWAP1 POP JUMP JUMPDEST PUSH2 0x107E DUP2 PUSH2 0x1063 JUMP JUMPDEST DUP3 MSTORE POP POP JUMP JUMPDEST PUSH1 0x0 PUSH1 0x80 DUP3 ADD SWAP1 POP DUP2 DUP2 SUB PUSH1 0x0 DUP4 ADD MSTORE PUSH2 0x109E DUP2 DUP8 PUSH2 0xF7D JUMP JUMPDEST SWAP1 POP PUSH2 0x10AD PUSH1 0x20 DUP4 ADD DUP7 PUSH2 0xFB6 JUMP JUMPDEST PUSH2 0x10BA PUSH1 0x40 DUP4 ADD DUP6 PUSH2 0x102D JUMP JUMPDEST PUSH2 0x10C7 PUSH1 0x60 DUP4 ADD DUP5 PUSH2 0x1075 JUMP JUMPDEST SWAP6 SWAP5 POP POP POP POP POP JUMP JUMPDEST PUSH1 0x0 PUSH1 0x20 DUP3 ADD SWAP1 POP PUSH2 0x10E5 PUSH1 0x0 DUP4 ADD DUP5 PUSH2 0xFB6 JUMP JUMPDEST SWAP3 SWAP2 POP POP JUMP JUMPDEST PUSH1 0x0 PUSH2 0x10F6 DUP3 PUSH2 0xE38 JUMP JUMPDEST SWAP1 POP SWAP2 SWAP1 POP JUMP JUMPDEST PUSH2 0x1106 DUP2 PUSH2 0x10EB JUMP JUMPDEST DUP3 MSTORE POP POP JUMP JUMPDEST PUSH1 0x0 PUSH1 0x20 DUP3 ADD SWAP1 POP PUSH2 0x1121 PUSH1 0x0 DUP4 ADD DUP5 PUSH2 0x10FD JUMP JUMPDEST SWAP3 SWAP2 POP POP JUMP JUMPDEST PUSH2 0x1130 DUP2 PUSH2 0x10EB JUMP JUMPDEST DUP2 EQ PUSH2 0x113B JUMPI PUSH1 0x0 DUP1 REVERT JUMPDEST POP JUMP JUMPDEST PUSH1 0x0 DUP2 CALLDATALOAD SWAP1 POP PUSH2 0x114D DUP2 PUSH2 0x1127 JUMP JUMPDEST SWAP3 SWAP2 POP POP JUMP JUMPDEST PUSH1 0x3 DUP2 LT PUSH2 0x1160 JUMPI PUSH1 0x0 DUP1 REVERT JUMPDEST POP JUMP JUMPDEST PUSH1 0x0 DUP2 CALLDATALOAD SWAP1 POP PUSH2 0x1172 DUP2 PUSH2 0x1153 JUMP JUMPDEST SWAP3 SWAP2 POP POP JUMP JUMPDEST PUSH1 0x0 DUP1 PUSH1 0x40 DUP4 DUP6 SUB SLT ISZERO PUSH2 0x118F JUMPI PUSH2 0x118E PUSH2 0xE2E JUMP JUMPDEST JUMPDEST PUSH1 0x0 PUSH2 0x119D DUP6 DUP3 DUP7 ADD PUSH2 0x113E JUMP JUMPDEST SWAP3 POP POP PUSH1 0x20 PUSH2 0x11AE DUP6 DUP3 DUP7 ADD PUSH2 0x1163 JUMP JUMPDEST SWAP2 POP POP SWAP3 POP SWAP3 SWAP1 POP JUMP JUMPDEST PUSH1 0x0 DUP1 REVERT JUMPDEST PUSH1 0x0 DUP1 REVERT JUMPDEST PUSH32 0x4E487B7100000000000000000000000000000000000000000000000000000000 PUSH1 0x0 MSTORE PUSH1 0x41 PUSH1 0x4 MSTORE PUSH1 0x24 PUSH1 0x0 REVERT JUMPDEST PUSH2 0x11FA DUP3 PUSH2 0xF6C JUMP JUMPDEST DUP2 ADD DUP2 DUP2 LT PUSH8 0xFFFFFFFFFFFFFFFF DUP3 GT OR ISZERO PUSH2 0x1219 JUMPI PUSH2 0x1218 PUSH2 0x11C2 JUMP JUMPDEST JUMPDEST DUP1 PUSH1 0x40 MSTORE POP POP POP JUMP JUMPDEST PUSH1 0x0 PUSH2 0x122C PUSH2 0xE24 JUMP JUMPDEST SWAP1 POP PUSH2 0x1238 DUP3 DUP3 PUSH2 0x11F1 JUMP JUMPDEST SWAP2 SWAP1 POP JUMP JUMPDEST PUSH1 0x0 PUSH8 0xFFFFFFFFFFFFFFFF DUP3 GT ISZERO PUSH2 0x1258 JUMPI PUSH2 0x1257 PUSH2 0x11C2 JUMP JUMPDEST JUMPDEST PUSH2 0x1261 DUP3 PUSH2 0xF6C JUMP JUMPDEST SWAP1 POP PUSH1 0x20 DUP2 ADD SWAP1 POP SWAP2 SWAP1 POP JUMP JUMPDEST DUP3 DUP2 DUP4 CALLDATACOPY PUSH1 0x0 DUP4 DUP4 ADD MSTORE POP POP POP JUMP JUMPDEST PUSH1 0x0 PUSH2 0x1290 PUSH2 0x128B DUP5 PUSH2 0x123D JUMP JUMPDEST PUSH2 0x1222 JUMP JUMPDEST SWAP1 POP DUP3 DUP2 MSTORE PUSH1 0x20 DUP2 ADD DUP5 DUP5 DUP5 ADD GT ISZERO PUSH2 0x12AC JUMPI PUSH2 0x12AB PUSH2 0x11BD JUMP JUMPDEST JUMPDEST PUSH2 0x12B7 DUP5 DUP3 DUP6 PUSH2 0x126E JUMP JUMPDEST POP SWAP4 SWAP3 POP POP POP JUMP JUMPDEST PUSH1 0x0 DUP3 PUSH1 0x1F DUP4 ADD SLT PUSH2 0x12D4 JUMPI PUSH2 0x12D3 PUSH2 0x11B8 JUMP JUMPDEST JUMPDEST DUP2 CALLDATALOAD PUSH2 0x12E4 DUP5 DUP3 PUSH1 0x20 DUP7 ADD PUSH2 0x127D JUMP JUMPDEST SWAP2 POP POP SWAP3 SWAP2 POP POP JUMP JUMPDEST PUSH1 0x3 DUP2 LT PUSH2 0x12FA JUMPI PUSH1 0x0 DUP1 REVERT JUMPDEST POP JUMP JUMPDEST PUSH1 0x0 DUP2 CALLDATALOAD SWAP1 POP PUSH2 0x130C DUP2 PUSH2 0x12ED JUMP JUMPDEST SWAP3 SWAP2 POP POP JUMP JUMPDEST PUSH1 0x0 DUP1 PUSH1 0x0 DUP1 PUSH1 0x80 DUP6 DUP8 SUB SLT ISZERO PUSH2 0x132C JUMPI PUSH2 0x132B PUSH2 0xE2E JUMP JUMPDEST JUMPDEST PUSH1 0x0 PUSH2 0x133A DUP8 DUP3 DUP9 ADD PUSH2 0x113E JUMP JUMPDEST SWAP5 POP POP PUSH1 0x20 DUP6 ADD CALLDATALOAD PUSH8 0xFFFFFFFFFFFFFFFF DUP2 GT ISZERO PUSH2 0x135B JUMPI PUSH2 0x135A PUSH2 0xE33 JUMP JUMPDEST JUMPDEST PUSH2 0x1367 DUP8 DUP3 DUP9 ADD PUSH2 0x12BF JUMP JUMPDEST SWAP4 POP POP PUSH1 0x40 PUSH2 0x1378 DUP8 DUP3 DUP9 ADD PUSH2 0x1163 JUMP JUMPDEST SWAP3 POP POP PUSH1 0x60 PUSH2 0x1389 DUP8 DUP3 DUP9 ADD PUSH2 0x12FD JUMP JUMPDEST SWAP2 POP POP SWAP3 SWAP6 SWAP2 SWAP5 POP SWAP3 POP JUMP JUMPDEST PUSH1 0x0 PUSH1 0x20 DUP3 DUP5 SUB SLT ISZERO PUSH2 0x13AB JUMPI PUSH2 0x13AA PUSH2 0xE2E JUMP JUMPDEST JUMPDEST PUSH1 0x0 PUSH2 0x13B9 DUP5 DUP3 DUP6 ADD PUSH2 0x113E JUMP JUMPDEST SWAP2 POP POP SWAP3 SWAP2 POP POP JUMP JUMPDEST PUSH1 0x0 DUP3 DUP3 MSTORE PUSH1 0x20 DUP3 ADD SWAP1 POP SWAP3 SWAP2 POP POP JUMP JUMPDEST PUSH1 0x0 PUSH2 0x13DE DUP3 PUSH2 0xF26 JUMP JUMPDEST PUSH2 0x13E8 DUP2 DUP6 PUSH2 0x13C2 JUMP JUMPDEST SWAP4 POP PUSH2 0x13F8 DUP2 DUP6 PUSH1 0x20 DUP7 ADD PUSH2 0xF42 JUMP JUMPDEST PUSH2 0x1401 DUP2 PUSH2 0xF6C JUMP JUMPDEST DUP5 ADD SWAP2 POP POP SWAP3 SWAP2 POP POP JUMP JUMPDEST PUSH2 0x1415 DUP2 PUSH2 0xEC3 JUMP JUMPDEST DUP3 MSTORE POP POP JUMP JUMPDEST PUSH2 0x1424 DUP2 PUSH2 0x101B JUMP JUMPDEST DUP3 MSTORE POP POP JUMP JUMPDEST PUSH2 0x1433 DUP2 PUSH2 0x1063 JUMP JUMPDEST DUP3 MSTORE POP POP JUMP JUMPDEST PUSH1 0x0 PUSH1 0x80 DUP4 ADD PUSH1 0x0 DUP4 ADD MLOAD DUP5 DUP3 SUB PUSH1 0x0 DUP7 ADD MSTORE PUSH2 0x1456 DUP3 DUP3 PUSH2 0x13D3 JUMP JUMPDEST SWAP2 POP POP PUSH1 0x20 DUP4 ADD MLOAD PUSH2 0x146B PUSH1 0x20 DUP7 ADD DUP3 PUSH2 0x140C JUMP JUMPDEST POP PUSH1 0x40 DUP4 ADD MLOAD PUSH2 0x147E PUSH1 0x40 DUP7 ADD DUP3 PUSH2 0x141B JUMP JUMPDEST POP PUSH1 0x60 DUP4 ADD MLOAD PUSH2 0x1491 PUSH1 0x60 DUP7 ADD DUP3 PUSH2 0x142A JUMP JUMPDEST POP DUP1 SWAP2 POP POP SWAP3 SWAP2 POP POP JUMP JUMPDEST PUSH1 0x0 PUSH1 0x20 DUP3 ADD SWAP1 POP DUP2 DUP2 SUB PUSH1 0x0 DUP4 ADD MSTORE PUSH2 0x14B6 DUP2 DUP5 PUSH2 0x1439 JUMP JUMPDEST SWAP1 POP SWAP3 SWAP2 POP POP JUMP JUMPDEST PUSH32 0x4E6F7420617574686F72697A6564000000000000000000000000000000000000 PUSH1 0x0 DUP3 ADD MSTORE POP JUMP JUMPDEST PUSH1 0x0 PUSH2 0x14F4 PUSH1 0xE DUP4 PUSH2 0xF31 JUMP JUMPDEST SWAP2 POP PUSH2 0x14FF DUP3 PUSH2 0x14BE JUMP JUMPDEST PUSH1 0x20 DUP3 ADD SWAP1 POP SWAP2 SWAP1 POP JUMP JUMPDEST PUSH1 0x0 PUSH1 0x20 DUP3 ADD SWAP1 POP DUP2 DUP2 SUB PUSH1 0x0 DUP4 ADD MSTORE PUSH2 0x1523 DUP2 PUSH2 0x14E7 JUMP JUMPDEST SWAP1 POP SWAP2 SWAP1 POP JUMP JUMPDEST PUSH32 0x4E487B7100000000000000000000000000000000000000000000000000000000 PUSH1 0x0 MSTORE PUSH1 0x22 PUSH1 0x4 MSTORE PUSH1 0x24 PUSH1 0x0 REVERT JUMPDEST PUSH1 0x0 PUSH1 0x2 DUP3 DIV SWAP1 POP PUSH1 0x1 DUP3 AND DUP1 PUSH2 0x1571 JUMPI PUSH1 0x7F DUP3 AND SWAP2 POP JUMPDEST PUSH1 0x20 DUP3 LT DUP2 SUB PUSH2 0x1584 JUMPI PUSH2 0x1583 PUSH2 0x152A JUMP JUMPDEST JUMPDEST POP SWAP2 SWAP1 POP JUMP JUMPDEST PUSH32 0x4E6F2073616C6172792061737369676E65640000000000000000000000000000 PUSH1 0x0 DUP3 ADD MSTORE POP JUMP JUMPDEST PUSH1 0x0 PUSH2 0x15C0 PUSH1 0x12 DUP4 PUSH2 0xF31 JUMP JUMPDEST SWAP2 POP PUSH2 0x15CB DUP3 PUSH2 0x158A JUMP JUMPDEST PUSH1 0x20 DUP3 ADD SWAP1 POP SWAP2 SWAP1 POP JUMP JUMPDEST PUSH1 0x0 PUSH1 0x20 DUP3 ADD SWAP1 POP DUP2 DUP2 SUB PUSH1 0x0 DUP4 ADD MSTORE PUSH2 0x15EF DUP2 PUSH2 0x15B3 JUMP JUMPDEST SWAP1 POP SWAP2 SWAP1 POP JUMP JUMPDEST PUSH32 0x5374616666206E6F7420656D706C6F7965640000000000000000000000000000 PUSH1 0x0 DUP3 ADD MSTORE POP JUMP JUMPDEST PUSH1 0x0 PUSH2 0x162C PUSH1 0x12 DUP4 PUSH2 0xF31 JUMP JUMPDEST SWAP2 POP PUSH2 0x1637 DUP3 PUSH2 0x15F6 JUMP JUMPDEST PUSH1 0x20 DUP3 ADD SWAP1 POP SWAP2 SWAP1 POP JUMP JUMPDEST PUSH1 0x0 PUSH1 0x20 DUP3 ADD SWAP1 POP DUP2 DUP2 SUB PUSH1 0x0 DUP4 ADD MSTORE PUSH2 0x165B DUP2 PUSH2 0x161F JUMP JUMPDEST SWAP1 POP SWAP2 SWAP1 POP JUMP JUMPDEST PUSH32 0x4E487B7100000000000000000000000000000000000000000000000000000000 PUSH1 0x0 MSTORE PUSH1 0x11 PUSH1 0x4 MSTORE PUSH1 0x24 PUSH1 0x0 REVERT JUMPDEST PUSH1 0x0 PUSH2 0x169C DUP3 PUSH2 0xEC3 JUMP JUMPDEST SWAP2 POP PUSH2 0x16A7 DUP4 PUSH2 0xEC3 JUMP JUMPDEST SWAP3 POP DUP3 DUP3 MUL PUSH2 0x16B5 DUP2 PUSH2 0xEC3 JUMP JUMPDEST SWAP2 POP DUP3 DUP3 DIV DUP5 EQ DUP4 ISZERO OR PUSH2 0x16CC JUMPI PUSH2 0x16CB PUSH2 0x1662 JUMP JUMPDEST JUMPDEST POP SWAP3 SWAP2 POP POP JUMP JUMPDEST PUSH32 0x496E73756666696369656E7420636F6E74726163742062616C616E6365000000 PUSH1 0x0 DUP3 ADD MSTORE POP JUMP JUMPDEST PUSH1 0x0 PUSH2 0x1709 PUSH1 0x1D DUP4 PUSH2 0xF31 JUMP JUMPDEST SWAP2 POP PUSH2 0x1714 DUP3 PUSH2 0x16D3 JUMP JUMPDEST PUSH1 0x20 DUP3 ADD SWAP1 POP SWAP2 SWAP1 POP JUMP JUMPDEST PUSH1 0x0 PUSH1 0x20 DUP3 ADD SWAP1 POP DUP2 DUP2 SUB PUSH1 0x0 DUP4 ADD MSTORE PUSH2 0x1738 DUP2 PUSH2 0x16FC JUMP JUMPDEST SWAP1 POP SWAP2 SWAP1 POP JUMP JUMPDEST PUSH32 0x537461666620616C726561647920657869737473000000000000000000000000 PUSH1 0x0 DUP3 ADD MSTORE POP JUMP JUMPDEST PUSH1 0x0 PUSH2 0x1775 PUSH1 0x14 DUP4 PUSH2 0xF31 JUMP JUMPDEST SWAP2 POP PUSH2 0x1780 DUP3 PUSH2 0x173F JUMP JUMPDEST PUSH1 0x20 DUP3 ADD SWAP1 POP SWAP2 SWAP1 POP JUMP JUMPDEST PUSH1 0x0 PUSH1 0x20 DUP3 ADD SWAP1 POP DUP2 DUP2 SUB PUSH1 0x0 DUP4 ADD MSTORE PUSH2 0x17A4 DUP2 PUSH2 0x1768 JUMP JUMPDEST SWAP1 POP SWAP2 SWAP1 POP JUMP JUMPDEST PUSH1 0x0 DUP2 SWAP1 POP DUP2 PUSH1 0x0 MSTORE PUSH1 0x20 PUSH1 0x0 KECCAK256 SWAP1 POP SWAP2 SWAP1 POP JUMP JUMPDEST PUSH1 0x0 PUSH1 0x20 PUSH1 0x1F DUP4 ADD DIV SWAP1 POP SWAP2 SWAP1 POP JUMP JUMPDEST PUSH1 0x0 DUP3 DUP3 SHL SWAP1 POP SWAP3 SWAP2 POP POP JUMP JUMPDEST PUSH1 0x0 PUSH1 0x8 DUP4 MUL PUSH2 0x180D PUSH32 0xFFFFFFFFFFFFFFFFFFFFFFFFFFFFFFFFFFFFFFFFFFFFFFFFFFFFFFFFFFFFFFFF DUP3 PUSH2 0x17D0 JUMP JUMPDEST PUSH2 0x1817 DUP7 DUP4 PUSH2 0x17D0 JUMP JUMPDEST SWAP6 POP DUP1 NOT DUP5 AND SWAP4 POP DUP1 DUP7 AND DUP5 OR SWAP3 POP POP POP SWAP4 SWAP3 POP POP POP JUMP JUMPDEST PUSH1 0x0 DUP2 SWAP1 POP SWAP2 SWAP1 POP JUMP JUMPDEST PUSH1 0x0 PUSH2 0x1854 PUSH2 0x184F PUSH2 0x184A DUP5 PUSH2 0xEC3 JUMP JUMPDEST PUSH2 0x182F JUMP JUMPDEST PUSH2 0xEC3 JUMP JUMPDEST SWAP1 POP SWAP2 SWAP1 POP JUMP JUMPDEST PUSH1 0x0 DUP2 SWAP1 POP SWAP2 SWAP1 POP JUMP JUMPDEST PUSH2 0x186E DUP4 PUSH2 0x1839 JUMP JUMPDEST PUSH2 0x1882 PUSH2 0x187A DUP3 PUSH2 0x185B JUMP JUMPDEST DUP5 DUP5 SLOAD PUSH2 0x17DD JUMP JUMPDEST DUP3 SSTORE POP POP POP POP JUMP JUMPDEST PUSH1 0x0 SWAP1 JUMP JUMPDEST PUSH2 0x1897 PUSH2 0x188A JUMP JUMPDEST PUSH2 0x18A2 DUP2 DUP5 DUP5 PUSH2 0x1865 JUMP JUMPDEST POP POP POP JUMP JUMPDEST JUMPDEST DUP2 DUP2 LT ISZERO PUSH2 0x18C6 JUMPI PUSH2 0x18BB PUSH1 0x0 DUP3 PUSH2 0x188F JUMP JUMPDEST PUSH1 0x1 DUP2 ADD SWAP1 POP PUSH2 0x18A8 JUMP JUMPDEST POP POP JUMP JUMPDEST PUSH1 0x1F DUP3 GT ISZERO PUSH2 0x190B JUMPI PUSH2 0x18DC DUP2 PUSH2 0x17AB JUMP JUMPDEST PUSH2 0x18E5 DUP5 PUSH2 0x17C0 JUMP JUMPDEST DUP2 ADD PUSH1 0x20 DUP6 LT ISZERO PUSH2 0x18F4 JUMPI DUP2 SWAP1 POP JUMPDEST PUSH2 0x1908 PUSH2 0x1900 DUP6 PUSH2 0x17C0 JUMP JUMPDEST DUP4 ADD DUP3 PUSH2 0x18A7 JUMP JUMPDEST POP POP JUMPDEST POP POP POP JUMP JUMPDEST PUSH1 0x0 DUP3 DUP3 SHR SWAP1 POP SWAP3 SWAP2 POP POP JUMP JUMPDEST PUSH1 0x0 PUSH2 0x192E PUSH1 0x0 NOT DUP5 PUSH1 0x8 MUL PUSH2 0x1910 JUMP JUMPDEST NOT DUP1 DUP4 AND SWAP2 POP POP SWAP3 SWAP2 POP POP JUMP JUMPDEST PUSH1 0x0 PUSH2 0x1947 DUP4 DUP4 PUSH2 0x191D JUMP JUMPDEST SWAP2 POP DUP3 PUSH1 0x2 MUL DUP3 OR SWAP1 POP SWAP3 SWAP2 POP POP JUMP JUMPDEST PUSH2 0x1960 DUP3 PUSH2 0xF26 JUMP JUMPDEST PUSH8 0xFFFFFFFFFFFFFFFF DUP2 GT ISZERO PUSH2 0x1979 JUMPI PUSH2 0x1978 PUSH2 0x11C2 JUMP JUMPDEST JUMPDEST PUSH2 0x1983 DUP3 SLOAD PUSH2 0x1559 JUMP JUMPDEST PUSH2 0x198E DUP3 DUP3 DUP6 PUSH2 0x18CA JUMP JUMPDEST PUSH1 0x0 PUSH1 0x20 SWAP1 POP PUSH1 0x1F DUP4 GT PUSH1 0x1 DUP2 EQ PUSH2 0x19C1 JUMPI PUSH1 0x0 DUP5 ISZERO PUSH2 0x19AF JUMPI DUP3 DUP8 ADD MLOAD SWAP1 POP JUMPDEST PUSH2 0x19B9 DUP6 DUP3 PUSH2 0x193B JUMP JUMPDEST DUP7 SSTORE POP PUSH2 0x1A21 JUMP JUMPDEST PUSH1 0x1F NOT DUP5 AND PUSH2 0x19CF DUP7 PUSH2 0x17AB JUMP JUMPDEST PUSH1 0x0 JUMPDEST DUP3 DUP2 LT ISZERO PUSH2 0x19F7 JUMPI DUP5 DUP10 ADD MLOAD DUP3 SSTORE PUSH1 0x1 DUP3 ADD SWAP2 POP PUSH1 0x20 DUP6 ADD SWAP5 POP PUSH1 0x20 DUP2 ADD SWAP1 POP PUSH2 0x19D2 JUMP JUMPDEST DUP7 DUP4 LT ISZERO PUSH2 0x1A14 JUMPI DUP5 DUP10 ADD MLOAD PUSH2 0x1A10 PUSH1 0x1F DUP10 AND DUP3 PUSH2 0x191D JUMP JUMPDEST DUP4 SSTORE POP JUMPDEST PUSH1 0x1 PUSH1 0x2 DUP9 MUL ADD DUP9 SSTORE POP POP POP JUMPDEST POP POP POP POP POP POP JUMP JUMPDEST PUSH1 0x0 DUP2 SLOAD SWAP1 POP PUSH2 0x1A38 DUP2 PUSH2 0x1559 JUMP JUMPDEST SWAP1 POP SWAP2 SWAP1 POP JUMP JUMPDEST DUP2 DUP2 SUB PUSH2 0x1A4D JUMPI POP POP PUSH2 0x1B25 JUMP JUMPDEST PUSH2 0x1A56 DUP3 PUSH2 0x1A29 JUMP JUMPDEST PUSH8 0xFFFFFFFFFFFFFFFF DUP2 GT ISZERO PUSH2 0x1A6F JUMPI PUSH2 0x1A6E PUSH2 0x11C2 JUMP JUMPDEST JUMPDEST PUSH2 0x1A79 DUP3 SLOAD PUSH2 0x1559 JUMP JUMPDEST PUSH2 0x1A84 DUP3 DUP3 DUP6 PUSH2 0x18CA JUMP JUMPDEST PUSH1 0x0 PUSH1 0x1F DUP4 GT PUSH1 0x1 DUP2 EQ PUSH2 0x1AB3 JUMPI PUSH1 0x0 DUP5 ISZERO PUSH2 0x1AA1 JUMPI DUP3 DUP8 ADD SLOAD SWAP1 POP JUMPDEST PUSH2 0x1AAB DUP6 DUP3 PUSH2 0x193B JUMP JUMPDEST DUP7 SSTORE POP PUSH2 0x1B1E JUMP JUMPDEST PUSH1 0x1F NOT DUP5 AND PUSH2 0x1AC1 DUP8 PUSH2 0x17AB JUMP JUMPDEST SWAP7 POP PUSH2 0x1ACC DUP7 PUSH2 0x17AB JUMP JUMPDEST PUSH1 0x0 JUMPDEST DUP3 DUP2 LT ISZERO PUSH2 0x1AF4 JUMPI DUP5 DUP10 ADD SLOAD DUP3 SSTORE PUSH1 0x1 DUP3 ADD SWAP2 POP PUSH1 0x1 DUP6 ADD SWAP5 POP PUSH1 0x20 DUP2 ADD SWAP1 POP PUSH2 0x1ACF JUMP JUMPDEST DUP7 DUP4 LT ISZERO PUSH2 0x1B11 JUMPI DUP5 DUP10 ADD SLOAD PUSH2 0x1B0D PUSH1 0x1F DUP10 AND DUP3 PUSH2 0x191D JUMP JUMPDEST DUP4 SSTORE POP JUMPDEST PUSH1 0x1 PUSH1 0x2 DUP9 MUL ADD DUP9 SSTORE POP POP POP JUMPDEST POP POP POP POP POP POP JUMPDEST JUMP JUMPDEST PUSH1 0x0 PUSH2 0x1B32 DUP3 PUSH2 0xEC3 JUMP JUMPDEST SWAP2 POP PUSH2 0x1B3D DUP4 PUSH2 0xEC3 JUMP JUMPDEST SWAP3 POP DUP3 DUP3 SUB SWAP1 POP DUP2 DUP2 GT ISZERO PUSH2 0x1B55 JUMPI PUSH2 0x1B54 PUSH2 0x1662 JUMP JUMPDEST JUMPDEST SWAP3 SWAP2 POP POP JUMP INVALID LOG2 PUSH5 0x6970667358 0x22 SLT KECCAK256 0xE9 MLOAD 0xB9 MUL 0xAF 0xA6 SWAP13 0xDA SIGNEXTEND 0xC0 PUSH19 0xE388448757AEB7C6235CFCF88BA92004CA674D PUSH22 0xBC64736F6C634300081C003300000000000000000000 "
        },
        "methodIdentifiers": {
          "addStaff(address,string,uint8,uint8)": "a95ae38b",
          "addressToStaff(address)": "f17157b6",
          "allStaff(uint256)": "144dceaa",
          "getStaff(address)": "ddd79504",
          "getTotalStaffs()": "238ef027",
          "owner()": "8da5cb5b",
          "paySalary(address)": "0ea37aef",
          "updateStaffStatus(address,uint8)": "a669a10f"
        }
      }
    }
  }
}