{
  "_format": "hh-sol-artifact-1",
  "contractName": "PiggyBank",
  "sourceName": "contracts/PiggyBank.sol",
  "abi": [
    {
      "inputs": [],
      "stateMutability": "nonpayable",
      "type": "constructor"
    },
    {
      "anonymous": false,
      "inputs": [
        {
          "indexed": true,
          "internalType": "uint128",
          "name": "accountId",
          "type": "uint128"
        }
      ],
      "name": "AccountClosed",
      "type": "event"
    },
    {
      "anonymous": false,
      "inputs": [
        {
          "indexed": true,
          "internalType": "uint128",
          "name": "accountId",
          "type": "uint128"
        },
        {
          "indexed": true,
          "internalType": "address",
          "name": "owner",
          "type": "address"
        },
        {
          "indexed": false,
          "internalType": "string",
          "name": "name",
          "type": "string"
        },
        {
          "indexed": false,
          "internalType": "enum PiggyBank.Plan",
          "name": "plan",
          "type": "uint8"
        }
      ],
      "name": "AccountCreated",
      "type": "event"
    },
    {
      "anonymous": false,
      "inputs": [
        {
          "indexed": true,
          "internalType": "address",
          "name": "sender",
          "type": "address"
        },
        {
          "indexed": true,
          "internalType": "uint128",
          "name": "accountId",
          "type": "uint128"
        },
        {
          "indexed": false,
          "internalType": "uint256",
          "name": "amount",
          "type": "uint256"
        },
        {
          "indexed": false,
          "internalType": "enum PiggyBank.AccountType",
          "name": "accountType",
          "type": "uint8"
        }
      ],
      "name": "Deposit",
      "type": "event"
    },
    {
      "anonymous": false,
      "inputs": [
        {
          "indexed": true,
          "internalType": "address",
          "name": "owner",
          "type": "address"
        },
        {
          "indexed": true,
          "internalType": "uint128",
          "name": "accountId",
          "type": "uint128"
        },
        {
          "indexed": false,
          "internalType": "uint256",
          "name": "amount",
          "type": "uint256"
        },
        {
          "indexed": false,
          "internalType": "uint256",
          "name": "interest",
          "type": "uint256"
        }
      ],
      "name": "Withdrawal",
      "type": "event"
    },
    {
      "inputs": [],
      "name": "accountCount",
      "outputs": [
        {
          "internalType": "uint256",
          "name": "",
          "type": "uint256"
        }
      ],
      "stateMutability": "view",
      "type": "function"
    },
    {
      "inputs": [
        {
          "internalType": "uint128",
          "name": "",
          "type": "uint128"
        }
      ],
      "name": "accounts",
      "outputs": [
        {
          "internalType": "uint128",
          "name": "accountId",
          "type": "uint128"
        },
        {
          "internalType": "string",
          "name": "name",
          "type": "string"
        },
        {
          "internalType": "address",
          "name": "owner",
          "type": "address"
        },
        {
          "internalType": "uint256",
          "name": "balance",
          "type": "uint256"
        },
        {
          "internalType": "uint256",
          "name": "created",
          "type": "uint256"
        },
        {
          "internalType": "enum PiggyBank.AccountType",
          "name": "accountType",
          "type": "uint8"
        },
        {
          "internalType": "address",
          "name": "tokenAddress",
          "type": "address"
        },
        {
          "internalType": "enum PiggyBank.Plan",
          "name": "plan",
          "type": "uint8"
        },
        {
          "internalType": "enum PiggyBank.State",
          "name": "state",
          "type": "uint8"
        },
        {
          "internalType": "uint256",
          "name": "maturityDate",
          "type": "uint256"
        }
      ],
      "stateMutability": "view",
      "type": "function"
    },
    {
      "inputs": [],
      "name": "admin",
      "outputs": [
        {
          "internalType": "address",
          "name": "",
          "type": "address"
        }
      ],
      "stateMutability": "view",
      "type": "function"
    },
    {
      "inputs": [],
      "name": "adminWithdrawFees",
      "outputs": [],
      "stateMutability": "nonpayable",
      "type": "function"
    },
    {
      "inputs": [
        {
          "internalType": "address",
          "name": "tokenAddress",
          "type": "address"
        },
        {
          "internalType": "uint256",
          "name": "amount",
          "type": "uint256"
        }
      ],
      "name": "adminWithdrawTokenFees",
      "outputs": [],
      "stateMutability": "nonpayable",
      "type": "function"
    },
    {
      "inputs": [
        {
          "internalType": "uint256",
          "name": "_amount",
          "type": "uint256"
        },
        {
          "internalType": "uint256",
          "name": "_plan",
          "type": "uint256"
        }
      ],
      "name": "calculateInterest",
      "outputs": [
        {
          "internalType": "uint256",
          "name": "",
          "type": "uint256"
        }
      ],
      "stateMutability": "view",
      "type": "function"
    },
    {
      "inputs": [
        {
          "internalType": "address",
          "name": "newAdmin",
          "type": "address"
        }
      ],
      "name": "changeAdmin",
      "outputs": [],
      "stateMutability": "nonpayable",
      "type": "function"
    },
    {
      "inputs": [
        {
          "internalType": "string",
          "name": "_name",
          "type": "string"
        },
        {
          "internalType": "uint256",
          "name": "_plan",
          "type": "uint256"
        },
        {
          "internalType": "enum PiggyBank.AccountType",
          "name": "_accountType",
          "type": "uint8"
        },
        {
          "internalType": "address",
          "name": "_tokenAddress",
          "type": "address"
        }
      ],
      "name": "createAccount",
      "outputs": [],
      "stateMutability": "nonpayable",
      "type": "function"
    },
    {
      "inputs": [
        {
          "internalType": "uint256",
          "name": "_amount",
          "type": "uint256"
        },
        {
          "internalType": "uint128",
          "name": "_accountId",
          "type": "uint128"
        }
      ],
      "name": "deposit",
      "outputs": [],
      "stateMutability": "payable",
      "type": "function"
    },
    {
      "inputs": [
        {
          "internalType": "uint128",
          "name": "_accountId",
          "type": "uint128"
        }
      ],
      "name": "emergencyWithdraw",
      "outputs": [],
      "stateMutability": "nonpayable",
      "type": "function"
    },
    {
      "inputs": [
        {
          "internalType": "uint128",
          "name": "_accountId",
          "type": "uint128"
        }
      ],
      "name": "getAccount",
      "outputs": [
        {
          "components": [
            {
              "internalType": "uint128",
              "name": "accountId",
              "type": "uint128"
            },
            {
              "internalType": "string",
              "name": "name",
              "type": "string"
            },
            {
              "internalType": "address",
              "name": "owner",
              "type": "address"
            },
            {
              "internalType": "uint256",
              "name": "balance",
              "type": "uint256"
            },
            {
              "internalType": "uint256",
              "name": "created",
              "type": "uint256"
            },
            {
              "internalType": "enum PiggyBank.AccountType",
              "name": "accountType",
              "type": "uint8"
            },
            {
              "internalType": "address",
              "name": "tokenAddress",
              "type": "address"
            },
            {
              "internalType": "enum PiggyBank.Plan",
              "name": "plan",
              "type": "uint8"
            },
            {
              "internalType": "enum PiggyBank.State",
              "name": "state",
              "type": "uint8"
            },
            {
              "internalType": "uint256",
              "name": "maturityDate",
              "type": "uint256"
            }
          ],
          "internalType": "struct PiggyBank.Account",
          "name": "",
          "type": "tuple"
        }
      ],
      "stateMutability": "view",
      "type": "function"
    },
    {
      "inputs": [
        {
          "internalType": "uint128",
          "name": "_accountId",
          "type": "uint128"
        }
      ],
      "name": "getAccountBalance",
      "outputs": [
        {
          "internalType": "uint256",
          "name": "",
          "type": "uint256"
        }
      ],
      "stateMutability": "view",
      "type": "function"
    },
    {
      "inputs": [
        {
          "internalType": "uint128",
          "name": "_accountId",
          "type": "uint128"
        }
      ],
      "name": "getTimeToMaturity",
      "outputs": [
        {
          "internalType": "uint256",
          "name": "",
          "type": "uint256"
        }
      ],
      "stateMutability": "view",
      "type": "function"
    },
    {
      "inputs": [],
      "name": "getUserAccountIds",
      "outputs": [
        {
          "internalType": "uint128[]",
          "name": "",
          "type": "uint128[]"
        }
      ],
      "stateMutability": "view",
      "type": "function"
    },
    {
      "inputs": [],
      "name": "getUserAccounts",
      "outputs": [
        {
          "components": [
            {
              "internalType": "uint128",
              "name": "accountId",
              "type": "uint128"
            },
            {
              "internalType": "string",
              "name": "name",
              "type": "string"
            },
            {
              "internalType": "address",
              "name": "owner",
              "type": "address"
            },
            {
              "internalType": "uint256",
              "name": "balance",
              "type": "uint256"
            },
            {
              "internalType": "uint256",
              "name": "created",
              "type": "uint256"
            },
            {
              "internalType": "enum PiggyBank.AccountType",
              "name": "accountType",
              "type": "uint8"
            },
            {
              "internalType": "address",
              "name": "tokenAddress",
              "type": "address"
            },
            {
              "internalType": "enum PiggyBank.Plan",
              "name": "plan",
              "type": "uint8"
            },
            {
              "internalType": "enum PiggyBank.State",
              "name": "state",
              "type": "uint8"
            },
            {
              "internalType": "uint256",
              "name": "maturityDate",
              "type": "uint256"
            }
          ],
          "internalType": "struct PiggyBank.Account[]",
          "name": "",
          "type": "tuple[]"
        }
      ],
      "stateMutability": "view",
      "type": "function"
    },
    {
      "inputs": [
        {
          "internalType": "uint256",
          "name": "_plan",
          "type": "uint256"
        }
      ],
      "name": "interestRate",
      "outputs": [
        {
          "internalType": "uint256",
          "name": "",
          "type": "uint256"
        }
      ],
      "stateMutability": "pure",
      "type": "function"
    },
    {
      "inputs": [
        {
          "internalType": "uint128",
          "name": "_accountId",
          "type": "uint128"
        }
      ],
      "name": "isMatured",
      "outputs": [
        {
          "internalType": "bool",
          "name": "",
          "type": "bool"
        }
      ],
      "stateMutability": "view",
      "type": "function"
    },
    {
      "inputs": [
        {
          "internalType": "address",
          "name": "",
          "type": "address"
        },
        {
          "internalType": "uint256",
          "name": "",
          "type": "uint256"
        }
      ],
      "name": "userAccountIds",
      "outputs": [
        {
          "internalType": "uint128",
          "name": "",
          "type": "uint128"
        }
      ],
      "stateMutability": "view",
      "type": "function"
    },
    {
      "inputs": [
        {
          "internalType": "uint128",
          "name": "_accountId",
          "type": "uint128"
        }
      ],
      "name": "withdraw",
      "outputs": [],
      "stateMutability": "nonpayable",
      "type": "function"
    },
    {
      "stateMutability": "payable",
      "type": "receive"
    }
  ],
  "bytecode": "0x6080604052348015600f57600080fd5b50336000806101000a81548173ffffffffffffffffffffffffffffffffffffffff021916908373ffffffffffffffffffffffffffffffffffffffff16021790555061472a8061005f6000396000f3fe6080604052600436106101185760003560e01c80639e9e2e13116100a0578063dafb4fd911610064578063dafb4fd9146103c8578063e44714c4146103f1578063e4af29fc1461042e578063efdd7c0714610459578063f851a440146104965761011f565b80639e9e2e13146102d5578063a35d2be4146102f1578063a43e567a1461032e578063d6a9a0a514610359578063d6d57916146103825761011f565b806338b17e94116100e757806338b17e94146101f2578063390b3d571461021b57806358f76d8e146102325780637bebb4801461026f5780638f283970146102ac5761011f565b806302387a7b146101245780630dfca6971461014d578063292f9b001461018a5780632b759f4f146101c75761011f565b3661011f57005b600080fd5b34801561013057600080fd5b5061014b60048036038101906101469190612cfd565b6104c1565b005b34801561015957600080fd5b50610174600480360381019061016f9190612d60565b610aac565b6040516101819190612d9c565b60405180910390f35b34801561019657600080fd5b506101b160048036038101906101ac9190612cfd565b610afd565b6040516101be9190612d9c565b60405180910390f35b3480156101d357600080fd5b506101dc610b97565b6040516101e99190612e75565b60405180910390f35b3480156101fe57600080fd5b5061021960048036038101906102149190613060565b610c70565b005b34801561022757600080fd5b5061023061126d565b005b34801561023e57600080fd5b50610259600480360381019061025491906130e3565b6113ad565b6040516102669190613132565b60405180910390f35b34801561027b57600080fd5b5061029660048036038101906102919190612cfd565b611402565b6040516102a39190613168565b60405180910390f35b3480156102b857600080fd5b506102d360048036038101906102ce9190613183565b611449565b005b6102ef60048036038101906102ea91906131b0565b611589565b005b3480156102fd57600080fd5b5061031860048036038101906103139190612cfd565b611bef565b6040516103259190612d9c565b60405180910390f35b34801561033a57600080fd5b50610343611c33565b6040516103509190613530565b60405180910390f35b34801561036557600080fd5b50610380600480360381019061037b91906130e3565b612058565b005b34801561038e57600080fd5b506103a960048036038101906103a49190612cfd565b6121cd565b6040516103bf9a999897969594939291906135d8565b60405180910390f35b3480156103d457600080fd5b506103ef60048036038101906103ea9190612cfd565b61232c565b005b3480156103fd57600080fd5b5061041860048036038101906104139190612cfd565b612814565b6040516104259190613755565b60405180910390f35b34801561043a57600080fd5b50610443612abd565b6040516104509190612d9c565b60405180910390f35b34801561046557600080fd5b50610480600480360381019061047b9190613777565b612ac3565b60405161048d9190612d9c565b60405180910390f35b3480156104a257600080fd5b506104ab612b5e565b6040516104b891906137b7565b60405180910390f35b80600073ffffffffffffffffffffffffffffffffffffffff1660016000836fffffffffffffffffffffffffffffffff166fffffffffffffffffffffffffffffffff16815260200190815260200160002060020160009054906101000a900473ffffffffffffffffffffffffffffffffffffffff1673ffffffffffffffffffffffffffffffffffffffff160361058b576040517f08c379a00000000000000000000000000000000000000000000000000000000081526004016105829061381e565b60405180910390fd5b813373ffffffffffffffffffffffffffffffffffffffff1660016000836fffffffffffffffffffffffffffffffff166fffffffffffffffffffffffffffffffff16815260200190815260200160002060020160009054906101000a900473ffffffffffffffffffffffffffffffffffffffff1673ffffffffffffffffffffffffffffffffffffffff1614610654576040517f08c379a000000000000000000000000000000000000000000000000000000000815260040161064b906138b0565b60405180910390fd5b600060016000856fffffffffffffffffffffffffffffffff166fffffffffffffffffffffffffffffffff1681526020019081526020016000209050600060018111156106a3576106a26132b9565b5b8160050160169054906101000a900460ff1660018111156106c7576106c66132b9565b5b14610707576040517f08c379a00000000000000000000000000000000000000000000000000000000081526004016106fe9061391c565b60405180910390fd5b600081600301541161074e576040517f08c379a000000000000000000000000000000000000000000000000000000000815260040161074590613988565b60405180910390fd5b600081600301549050600082600601544210610806573073ffffffffffffffffffffffffffffffffffffffff1663efdd7c07838560050160159054906101000a900460ff1660028111156107a5576107a46132b9565b5b6040518363ffffffff1660e01b81526004016107c29291906139a8565b602060405180830381865afa1580156107df573d6000803e3d6000fd5b505050506040513d601f19601f8201168201806040525081019061080391906139e6565b90505b600081836108149190613a42565b90506000846003018190555060018460050160166101000a81548160ff02191690836001811115610848576108476132b9565b5b021790555060006001811115610861576108606132b9565b5b8460050160009054906101000a900460ff166001811115610885576108846132b9565b5b0361091957804710156108cd576040517f08c379a00000000000000000000000000000000000000000000000000000000081526004016108c490613ac2565b60405180910390fd5b3373ffffffffffffffffffffffffffffffffffffffff166108fc829081150290604051600060405180830381858888f19350505050158015610913573d6000803e3d6000fd5b50610a01565b60008460050160019054906101000a900473ffffffffffffffffffffffffffffffffffffffff1690508073ffffffffffffffffffffffffffffffffffffffff1663a9059cbb33846040518363ffffffff1660e01b815260040161097d929190613ae2565b6020604051808303816000875af115801561099c573d6000803e3d6000fd5b505050506040513d601f19601f820116820180604052508101906109c09190613b37565b6109ff576040517f08c379a00000000000000000000000000000000000000000000000000000000081526004016109f690613bb0565b60405180910390fd5b505b866fffffffffffffffffffffffffffffffff163373ffffffffffffffffffffffffffffffffffffffff167f2d99092cecc1d6746a8464e0680f73136d2d982d7c0a6a7b909b46ad024b9c988585604051610a5c9291906139a8565b60405180910390a3866fffffffffffffffffffffffffffffffff167f82dcfc2c8ad48161ce301c12019ec6ce9596214e106cb71796d9a6bc56bc8ce060405160405180910390a250505050505050565b6000806002811115610ac157610ac06132b9565b5b8214610af05760016002811115610adb57610ada6132b9565b5b8214610ae8576019610aeb565b600f5b610af3565b600a5b60ff169050919050565b600060016000836fffffffffffffffffffffffffffffffff166fffffffffffffffffffffffffffffffff168152602001908152602001600020600601544210610b495760009050610b92565b4260016000846fffffffffffffffffffffffffffffffff166fffffffffffffffffffffffffffffffff16815260200190815260200160002060060154610b8f9190613bd0565b90505b919050565b6060600360003373ffffffffffffffffffffffffffffffffffffffff1673ffffffffffffffffffffffffffffffffffffffff168152602001908152602001600020805480602002602001604051908101604052809291908181526020018280548015610c6657602002820191906000526020600020906000905b82829054906101000a90046fffffffffffffffffffffffffffffffff166fffffffffffffffffffffffffffffffff1681526020019060100190602082600f01049283019260010382029150808411610c115790505b5050505050905090565b600073ffffffffffffffffffffffffffffffffffffffff163373ffffffffffffffffffffffffffffffffffffffff1603610cdf576040517f08c379a0000000000000000000000000000000000000000000000000000000008152600401610cd690613c50565b60405180910390fd5b600280811115610cf257610cf16132b9565b5b831115610d34576040517f08c379a0000000000000000000000000000000000000000000000000000000008152600401610d2b90613cbc565b60405180910390fd5b6000845111610d78576040517f08c379a0000000000000000000000000000000000000000000000000000000008152600401610d6f90613d28565b60405180910390fd5b600180811115610d8b57610d8a6132b9565b5b826001811115610d9e57610d9d6132b9565b5b03610e1357600073ffffffffffffffffffffffffffffffffffffffff168173ffffffffffffffffffffffffffffffffffffffff1603610e12576040517f08c379a0000000000000000000000000000000000000000000000000000000008152600401610e0990613dba565b60405180910390fd5b5b60026000815480929190610e2690613dda565b91905055506000844233600254604051602001610e469493929190613ec7565b6040516020818303038152906040528051906020012060001c90506000610e6c85612b82565b42610e779190613a42565b90506000604051806101400160405280846fffffffffffffffffffffffffffffffff1681526020018881526020013373ffffffffffffffffffffffffffffffffffffffff16815260200160008152602001428152602001866001811115610ee157610ee06132b9565b5b8152602001600180811115610ef957610ef86132b9565b5b876001811115610f0c57610f0b6132b9565b5b14610f18576000610f1a565b855b73ffffffffffffffffffffffffffffffffffffffff168152602001876002811115610f4857610f476132b9565b5b6002811115610f5a57610f596132b9565b5b815260200160006001811115610f7357610f726132b9565b5b81526020018381525090508060016000856fffffffffffffffffffffffffffffffff166fffffffffffffffffffffffffffffffff16815260200190815260200160002060008201518160000160006101000a8154816fffffffffffffffffffffffffffffffff02191690836fffffffffffffffffffffffffffffffff160217905550602082015181600101908161100a919061411d565b5060408201518160020160006101000a81548173ffffffffffffffffffffffffffffffffffffffff021916908373ffffffffffffffffffffffffffffffffffffffff160217905550606082015181600301556080820151816004015560a08201518160050160006101000a81548160ff02191690836001811115611091576110906132b9565b5b021790555060c08201518160050160016101000a81548173ffffffffffffffffffffffffffffffffffffffff021916908373ffffffffffffffffffffffffffffffffffffffff16021790555060e08201518160050160156101000a81548160ff02191690836002811115611108576111076132b9565b5b02179055506101008201518160050160166101000a81548160ff02191690836001811115611139576111386132b9565b5b02179055506101208201518160060155905050600360003373ffffffffffffffffffffffffffffffffffffffff1673ffffffffffffffffffffffffffffffffffffffff1681526020019081526020016000208390806001815401808255809150506001900390600052602060002090600291828204019190066010029091909190916101000a8154816fffffffffffffffffffffffffffffffff02191690836fffffffffffffffffffffffffffffffff1602179055503373ffffffffffffffffffffffffffffffffffffffff16836fffffffffffffffffffffffffffffffff167f7ff7fde6e9e9814924ad4efd14f841921d3c7ecf49bdb6124e56f9f1d2cad2a98989600281111561124e5761124d6132b9565b5b60405161125c9291906141ef565b60405180910390a350505050505050565b60008054906101000a900473ffffffffffffffffffffffffffffffffffffffff1673ffffffffffffffffffffffffffffffffffffffff163373ffffffffffffffffffffffffffffffffffffffff16146112fb576040517f08c379a00000000000000000000000000000000000000000000000000000000081526004016112f290614291565b60405180910390fd5b600047905060008111611343576040517f08c379a000000000000000000000000000000000000000000000000000000000815260040161133a906142fd565b60405180910390fd5b60008054906101000a900473ffffffffffffffffffffffffffffffffffffffff1673ffffffffffffffffffffffffffffffffffffffff166108fc829081150290604051600060405180830381858888f193505050501580156113a9573d6000803e3d6000fd5b5050565b600360205281600052604060002081815481106113c957600080fd5b9060005260206000209060029182820401919006601002915091509054906101000a90046fffffffffffffffffffffffffffffffff1681565b600060016000836fffffffffffffffffffffffffffffffff166fffffffffffffffffffffffffffffffff168152602001908152602001600020600601544210159050919050565b60008054906101000a900473ffffffffffffffffffffffffffffffffffffffff1673ffffffffffffffffffffffffffffffffffffffff163373ffffffffffffffffffffffffffffffffffffffff16146114d7576040517f08c379a00000000000000000000000000000000000000000000000000000000081526004016114ce90614291565b60405180910390fd5b600073ffffffffffffffffffffffffffffffffffffffff168173ffffffffffffffffffffffffffffffffffffffff1603611546576040517f08c379a000000000000000000000000000000000000000000000000000000000815260040161153d90614369565b60405180910390fd5b806000806101000a81548173ffffffffffffffffffffffffffffffffffffffff021916908373ffffffffffffffffffffffffffffffffffffffff16021790555050565b80600073ffffffffffffffffffffffffffffffffffffffff1660016000836fffffffffffffffffffffffffffffffff166fffffffffffffffffffffffffffffffff16815260200190815260200160002060020160009054906101000a900473ffffffffffffffffffffffffffffffffffffffff1673ffffffffffffffffffffffffffffffffffffffff1603611653576040517f08c379a000000000000000000000000000000000000000000000000000000000815260040161164a9061381e565b60405180910390fd5b813373ffffffffffffffffffffffffffffffffffffffff1660016000836fffffffffffffffffffffffffffffffff166fffffffffffffffffffffffffffffffff16815260200190815260200160002060020160009054906101000a900473ffffffffffffffffffffffffffffffffffffffff1673ffffffffffffffffffffffffffffffffffffffff161461171c576040517f08c379a0000000000000000000000000000000000000000000000000000000008152600401611713906138b0565b60405180910390fd5b6000841161175f576040517f08c379a0000000000000000000000000000000000000000000000000000000008152600401611756906143d5565b60405180910390fd5b60006001811115611773576117726132b9565b5b60016000856fffffffffffffffffffffffffffffffff166fffffffffffffffffffffffffffffffff16815260200190815260200160002060050160169054906101000a900460ff1660018111156117cd576117cc6132b9565b5b1461180d576040517f08c379a000000000000000000000000000000000000000000000000000000000815260040161180490614441565b60405180910390fd5b60006001811115611821576118206132b9565b5b60016000856fffffffffffffffffffffffffffffffff166fffffffffffffffffffffffffffffffff16815260200190815260200160002060050160009054906101000a900460ff16600181111561187b5761187a6132b9565b5b03611918578334146118c2576040517f08c379a00000000000000000000000000000000000000000000000000000000081526004016118b9906144ad565b60405180910390fd5b3460016000856fffffffffffffffffffffffffffffffff166fffffffffffffffffffffffffffffffff168152602001908152602001600020600301600082825461190c9190613a42565b92505081905550611b3f565b60018081111561192b5761192a6132b9565b5b60016000856fffffffffffffffffffffffffffffffff166fffffffffffffffffffffffffffffffff16815260200190815260200160002060050160009054906101000a900460ff166001811115611985576119846132b9565b5b03611b3e57600034146119cd576040517f08c379a00000000000000000000000000000000000000000000000000000000081526004016119c49061453f565b60405180910390fd5b600060016000856fffffffffffffffffffffffffffffffff166fffffffffffffffffffffffffffffffff16815260200190815260200160002060050160019054906101000a900473ffffffffffffffffffffffffffffffffffffffff1690508073ffffffffffffffffffffffffffffffffffffffff166323b872dd3330886040518463ffffffff1660e01b8152600401611a699392919061455f565b6020604051808303816000875af1158015611a88573d6000803e3d6000fd5b505050506040513d601f19601f82011682018060405250810190611aac9190613b37565b611aeb576040517f08c379a0000000000000000000000000000000000000000000000000000000008152600401611ae290613bb0565b60405180910390fd5b8460016000866fffffffffffffffffffffffffffffffff166fffffffffffffffffffffffffffffffff1681526020019081526020016000206003016000828254611b359190613a42565b92505081905550505b5b826fffffffffffffffffffffffffffffffff163373ffffffffffffffffffffffffffffffffffffffff167f5ede471982081484acbefc564b4cf7dae0dd4c4db1ac8209c4045d95b4fbd1b68660016000886fffffffffffffffffffffffffffffffff166fffffffffffffffffffffffffffffffff16815260200190815260200160002060050160009054906101000a900460ff16604051611be1929190614596565b60405180910390a350505050565b600060016000836fffffffffffffffffffffffffffffffff166fffffffffffffffffffffffffffffffff168152602001908152602001600020600301549050919050565b60606000600360003373ffffffffffffffffffffffffffffffffffffffff1673ffffffffffffffffffffffffffffffffffffffff168152602001908152602001600020805480602002602001604051908101604052809291908181526020018280548015611d0457602002820191906000526020600020906000905b82829054906101000a90046fffffffffffffffffffffffffffffffff166fffffffffffffffffffffffffffffffff1681526020019060100190602082600f01049283019260010382029150808411611caf5790505b505050505090506000815167ffffffffffffffff811115611d2857611d27612eb2565b5b604051908082528060200260200182016040528015611d6157816020015b611d4e612bda565b815260200190600190039081611d465790505b50905060005b825181101561204f5760016000848381518110611d8757611d866145bf565b5b60200260200101516fffffffffffffffffffffffffffffffff166fffffffffffffffffffffffffffffffff168152602001908152602001600020604051806101400160405290816000820160009054906101000a90046fffffffffffffffffffffffffffffffff166fffffffffffffffffffffffffffffffff166fffffffffffffffffffffffffffffffff168152602001600182018054611e2790613f40565b80601f0160208091040260200160405190810160405280929190818152602001828054611e5390613f40565b8015611ea05780601f10611e7557610100808354040283529160200191611ea0565b820191906000526020600020905b815481529060010190602001808311611e8357829003601f168201915b505050505081526020016002820160009054906101000a900473ffffffffffffffffffffffffffffffffffffffff1673ffffffffffffffffffffffffffffffffffffffff1673ffffffffffffffffffffffffffffffffffffffff16815260200160038201548152602001600482015481526020016005820160009054906101000a900460ff166001811115611f3857611f376132b9565b5b6001811115611f4a57611f496132b9565b5b81526020016005820160019054906101000a900473ffffffffffffffffffffffffffffffffffffffff1673ffffffffffffffffffffffffffffffffffffffff1673ffffffffffffffffffffffffffffffffffffffff1681526020016005820160159054906101000a900460ff166002811115611fc957611fc86132b9565b5b6002811115611fdb57611fda6132b9565b5b81526020016005820160169054906101000a900460ff166001811115612004576120036132b9565b5b6001811115612016576120156132b9565b5b8152602001600682015481525050828281518110612037576120366145bf565b5b60200260200101819052508080600101915050611d67565b50809250505090565b60008054906101000a900473ffffffffffffffffffffffffffffffffffffffff1673ffffffffffffffffffffffffffffffffffffffff163373ffffffffffffffffffffffffffffffffffffffff16146120e6576040517f08c379a00000000000000000000000000000000000000000000000000000000081526004016120dd90614291565b60405180910390fd5b60008290508073ffffffffffffffffffffffffffffffffffffffff1663a9059cbb60008054906101000a900473ffffffffffffffffffffffffffffffffffffffff16846040518363ffffffff1660e01b8152600401612146929190613ae2565b6020604051808303816000875af1158015612165573d6000803e3d6000fd5b505050506040513d601f19601f820116820180604052508101906121899190613b37565b6121c8576040517f08c379a00000000000000000000000000000000000000000000000000000000081526004016121bf90613bb0565b60405180910390fd5b505050565b60016020528060005260406000206000915090508060000160009054906101000a90046fffffffffffffffffffffffffffffffff169080600101805461221290613f40565b80601f016020809104026020016040519081016040528092919081815260200182805461223e90613f40565b801561228b5780601f106122605761010080835404028352916020019161228b565b820191906000526020600020905b81548152906001019060200180831161226e57829003601f168201915b5050505050908060020160009054906101000a900473ffffffffffffffffffffffffffffffffffffffff16908060030154908060040154908060050160009054906101000a900460ff16908060050160019054906101000a900473ffffffffffffffffffffffffffffffffffffffff16908060050160159054906101000a900460ff16908060050160169054906101000a900460ff1690806006015490508a565b80600073ffffffffffffffffffffffffffffffffffffffff1660016000836fffffffffffffffffffffffffffffffff166fffffffffffffffffffffffffffffffff16815260200190815260200160002060020160009054906101000a900473ffffffffffffffffffffffffffffffffffffffff1673ffffffffffffffffffffffffffffffffffffffff16036123f6576040517f08c379a00000000000000000000000000000000000000000000000000000000081526004016123ed9061381e565b60405180910390fd5b813373ffffffffffffffffffffffffffffffffffffffff1660016000836fffffffffffffffffffffffffffffffff166fffffffffffffffffffffffffffffffff16815260200190815260200160002060020160009054906101000a900473ffffffffffffffffffffffffffffffffffffffff1673ffffffffffffffffffffffffffffffffffffffff16146124bf576040517f08c379a00000000000000000000000000000000000000000000000000000000081526004016124b6906138b0565b60405180910390fd5b600060016000856fffffffffffffffffffffffffffffffff166fffffffffffffffffffffffffffffffff16815260200190815260200160002090506000600181111561250e5761250d6132b9565b5b8160050160169054906101000a900460ff166001811115612532576125316132b9565b5b14612572576040517f08c379a00000000000000000000000000000000000000000000000000000000081526004016125699061391c565b60405180910390fd5b60008160030154116125b9576040517f08c379a00000000000000000000000000000000000000000000000000000000081526004016125b090613988565b60405180910390fd5b6000816003015490506000826003018190555060018260050160166101000a81548160ff021916908360018111156125f4576125f36132b9565b5b02179055506000600181111561260d5761260c6132b9565b5b8260050160009054906101000a900460ff166001811115612631576126306132b9565b5b03612682573373ffffffffffffffffffffffffffffffffffffffff166108fc829081150290604051600060405180830381858888f1935050505015801561267c573d6000803e3d6000fd5b5061276a565b60008260050160019054906101000a900473ffffffffffffffffffffffffffffffffffffffff1690508073ffffffffffffffffffffffffffffffffffffffff1663a9059cbb33846040518363ffffffff1660e01b81526004016126e6929190613ae2565b6020604051808303816000875af1158015612705573d6000803e3d6000fd5b505050506040513d601f19601f820116820180604052508101906127299190613b37565b612768576040517f08c379a000000000000000000000000000000000000000000000000000000000815260040161275f90613bb0565b60405180910390fd5b505b846fffffffffffffffffffffffffffffffff163373ffffffffffffffffffffffffffffffffffffffff167f2d99092cecc1d6746a8464e0680f73136d2d982d7c0a6a7b909b46ad024b9c988360006040516127c6929190614629565b60405180910390a3846fffffffffffffffffffffffffffffffff167f82dcfc2c8ad48161ce301c12019ec6ce9596214e106cb71796d9a6bc56bc8ce060405160405180910390a25050505050565b61281c612bda565b60016000836fffffffffffffffffffffffffffffffff166fffffffffffffffffffffffffffffffff168152602001908152602001600020604051806101400160405290816000820160009054906101000a90046fffffffffffffffffffffffffffffffff166fffffffffffffffffffffffffffffffff166fffffffffffffffffffffffffffffffff1681526020016001820180546128b990613f40565b80601f01602080910402602001604051908101604052809291908181526020018280546128e590613f40565b80156129325780601f1061290757610100808354040283529160200191612932565b820191906000526020600020905b81548152906001019060200180831161291557829003601f168201915b505050505081526020016002820160009054906101000a900473ffffffffffffffffffffffffffffffffffffffff1673ffffffffffffffffffffffffffffffffffffffff1673ffffffffffffffffffffffffffffffffffffffff16815260200160038201548152602001600482015481526020016005820160009054906101000a900460ff1660018111156129ca576129c96132b9565b5b60018111156129dc576129db6132b9565b5b81526020016005820160019054906101000a900473ffffffffffffffffffffffffffffffffffffffff1673ffffffffffffffffffffffffffffffffffffffff1673ffffffffffffffffffffffffffffffffffffffff1681526020016005820160159054906101000a900460ff166002811115612a5b57612a5a6132b9565b5b6002811115612a6d57612a6c6132b9565b5b81526020016005820160169054906101000a900460ff166001811115612a9657612a956132b9565b5b6001811115612aa857612aa76132b9565b5b81526020016006820154815250509050919050565b60025481565b600060643073ffffffffffffffffffffffffffffffffffffffff16630dfca697846040518263ffffffff1660e01b8152600401612b009190612d9c565b602060405180830381865afa158015612b1d573d6000803e3d6000fd5b505050506040513d601f19601f82011682018060405250810190612b4191906139e6565b84612b4c9190614652565b612b5691906146c3565b905092915050565b60008054906101000a900473ffffffffffffffffffffffffffffffffffffffff1681565b6000806002811115612b9757612b966132b9565b5b8203612ba85762278d009050612bd5565b60016002811115612bbc57612bbb6132b9565b5b8203612bcd576276a7009050612bd5565b6301e1338090505b919050565b60405180610140016040528060006fffffffffffffffffffffffffffffffff16815260200160608152602001600073ffffffffffffffffffffffffffffffffffffffff168152602001600081526020016000815260200160006001811115612c4557612c446132b9565b5b8152602001600073ffffffffffffffffffffffffffffffffffffffff16815260200160006002811115612c7b57612c7a6132b9565b5b815260200160006001811115612c9457612c936132b9565b5b8152602001600081525090565b6000604051905090565b600080fd5b600080fd5b60006fffffffffffffffffffffffffffffffff82169050919050565b612cda81612cb5565b8114612ce557600080fd5b50565b600081359050612cf781612cd1565b92915050565b600060208284031215612d1357612d12612cab565b5b6000612d2184828501612ce8565b91505092915050565b6000819050919050565b612d3d81612d2a565b8114612d4857600080fd5b50565b600081359050612d5a81612d34565b92915050565b600060208284031215612d7657612d75612cab565b5b6000612d8484828501612d4b565b91505092915050565b612d9681612d2a565b82525050565b6000602082019050612db16000830184612d8d565b92915050565b600081519050919050565b600082825260208201905092915050565b6000819050602082019050919050565b612dec81612cb5565b82525050565b6000612dfe8383612de3565b60208301905092915050565b6000602082019050919050565b6000612e2282612db7565b612e2c8185612dc2565b9350612e3783612dd3565b8060005b83811015612e68578151612e4f8882612df2565b9750612e5a83612e0a565b925050600181019050612e3b565b5085935050505092915050565b60006020820190508181036000830152612e8f8184612e17565b905092915050565b600080fd5b600080fd5b6000601f19601f8301169050919050565b7f4e487b7100000000000000000000000000000000000000000000000000000000600052604160045260246000fd5b612eea82612ea1565b810181811067ffffffffffffffff82111715612f0957612f08612eb2565b5b80604052505050565b6000612f1c612ca1565b9050612f288282612ee1565b919050565b600067ffffffffffffffff821115612f4857612f47612eb2565b5b612f5182612ea1565b9050602081019050919050565b82818337600083830152505050565b6000612f80612f7b84612f2d565b612f12565b905082815260208101848484011115612f9c57612f9b612e9c565b5b612fa7848285612f5e565b509392505050565b600082601f830112612fc457612fc3612e97565b5b8135612fd4848260208601612f6d565b91505092915050565b60028110612fea57600080fd5b50565b600081359050612ffc81612fdd565b92915050565b600073ffffffffffffffffffffffffffffffffffffffff82169050919050565b600061302d82613002565b9050919050565b61303d81613022565b811461304857600080fd5b50565b60008135905061305a81613034565b92915050565b6000806000806080858703121561307a57613079612cab565b5b600085013567ffffffffffffffff81111561309857613097612cb0565b5b6130a487828801612faf565b94505060206130b587828801612d4b565b93505060406130c687828801612fed565b92505060606130d78782880161304b565b91505092959194509250565b600080604083850312156130fa576130f9612cab565b5b60006131088582860161304b565b925050602061311985828601612d4b565b9150509250929050565b61312c81612cb5565b82525050565b60006020820190506131476000830184613123565b92915050565b60008115159050919050565b6131628161314d565b82525050565b600060208201905061317d6000830184613159565b92915050565b60006020828403121561319957613198612cab565b5b60006131a78482850161304b565b91505092915050565b600080604083850312156131c7576131c6612cab565b5b60006131d585828601612d4b565b92505060206131e685828601612ce8565b9150509250929050565b600081519050919050565b600082825260208201905092915050565b6000819050602082019050919050565b600081519050919050565b600082825260208201905092915050565b60005b8381101561325657808201518184015260208101905061323b565b60008484015250505050565b600061326d8261321c565b6132778185613227565b9350613287818560208601613238565b61329081612ea1565b840191505092915050565b6132a481613022565b82525050565b6132b381612d2a565b82525050565b7f4e487b7100000000000000000000000000000000000000000000000000000000600052602160045260246000fd5b600281106132f9576132f86132b9565b5b50565b600081905061330a826132e8565b919050565b600061331a826132fc565b9050919050565b61332a8161330f565b82525050565b60038110613341576133406132b9565b5b50565b600081905061335282613330565b919050565b600061336282613344565b9050919050565b61337281613357565b82525050565b60028110613389576133886132b9565b5b50565b600081905061339a82613378565b919050565b60006133aa8261338c565b9050919050565b6133ba8161339f565b82525050565b6000610140830160008301516133d96000860182612de3565b50602083015184820360208601526133f18282613262565b9150506040830151613406604086018261329b565b50606083015161341960608601826132aa565b50608083015161342c60808601826132aa565b5060a083015161343f60a0860182613321565b5060c083015161345260c086018261329b565b5060e083015161346560e0860182613369565b5061010083015161347a6101008601826133b1565b5061012083015161348f6101208601826132aa565b508091505092915050565b60006134a683836133c0565b905092915050565b6000602082019050919050565b60006134c6826131f0565b6134d081856131fb565b9350836020820285016134e28561320c565b8060005b8581101561351e57848403895281516134ff858261349a565b945061350a836134ae565b925060208a019950506001810190506134e6565b50829750879550505050505092915050565b6000602082019050818103600083015261354a81846134bb565b905092915050565b600082825260208201905092915050565b600061356e8261321c565b6135788185613552565b9350613588818560208601613238565b61359181612ea1565b840191505092915050565b6135a581613022565b82525050565b6135b48161330f565b82525050565b6135c381613357565b82525050565b6135d28161339f565b82525050565b6000610140820190506135ee600083018d613123565b8181036020830152613600818c613563565b905061360f604083018b61359c565b61361c606083018a612d8d565b6136296080830189612d8d565b61363660a08301886135ab565b61364360c083018761359c565b61365060e08301866135ba565b61365e6101008301856135c9565b61366c610120830184612d8d565b9b9a5050505050505050505050565b6000610140830160008301516136946000860182612de3565b50602083015184820360208601526136ac8282613262565b91505060408301516136c1604086018261329b565b5060608301516136d460608601826132aa565b5060808301516136e760808601826132aa565b5060a08301516136fa60a0860182613321565b5060c083015161370d60c086018261329b565b5060e083015161372060e0860182613369565b506101008301516137356101008601826133b1565b5061012083015161374a6101208601826132aa565b508091505092915050565b6000602082019050818103600083015261376f818461367b565b905092915050565b6000806040838503121561378e5761378d612cab565b5b600061379c85828601612d4b565b92505060206137ad85828601612d4b565b9150509250929050565b60006020820190506137cc600083018461359c565b92915050565b7f4163636f756e7420646f6573206e6f7420657869737400000000000000000000600082015250565b6000613808601683613552565b9150613813826137d2565b602082019050919050565b60006020820190508181036000830152613837816137fb565b9050919050565b7f4f6e6c79206163636f756e74206f776e65722063616e2063616c6c207468697360008201527f2066756e6374696f6e0000000000000000000000000000000000000000000000602082015250565b600061389a602983613552565b91506138a58261383e565b604082019050919050565b600060208201905081810360008301526138c98161388d565b9050919050565b7f4163636f756e7420697320616c726561647920636c6f73656400000000000000600082015250565b6000613906601983613552565b9150613911826138d0565b602082019050919050565b60006020820190508181036000830152613935816138f9565b9050919050565b7f4e6f2066756e647320746f207769746864726177000000000000000000000000600082015250565b6000613972601483613552565b915061397d8261393c565b602082019050919050565b600060208201905081810360008301526139a181613965565b9050919050565b60006040820190506139bd6000830185612d8d565b6139ca6020830184612d8d565b9392505050565b6000815190506139e081612d34565b92915050565b6000602082840312156139fc576139fb612cab565b5b6000613a0a848285016139d1565b91505092915050565b7f4e487b7100000000000000000000000000000000000000000000000000000000600052601160045260246000fd5b6000613a4d82612d2a565b9150613a5883612d2a565b9250828201905080821115613a7057613a6f613a13565b5b92915050565b7f496e73756666696369656e7420636f6e74726163742062616c616e6365000000600082015250565b6000613aac601d83613552565b9150613ab782613a76565b602082019050919050565b60006020820190508181036000830152613adb81613a9f565b9050919050565b6000604082019050613af7600083018561359c565b613b046020830184612d8d565b9392505050565b613b148161314d565b8114613b1f57600080fd5b50565b600081519050613b3181613b0b565b92915050565b600060208284031215613b4d57613b4c612cab565b5b6000613b5b84828501613b22565b91505092915050565b7f546f6b656e207472616e73666572206661696c65640000000000000000000000600082015250565b6000613b9a601583613552565b9150613ba582613b64565b602082019050919050565b60006020820190508181036000830152613bc981613b8d565b9050919050565b6000613bdb82612d2a565b9150613be683612d2a565b9250828203905081811115613bfe57613bfd613a13565b5b92915050565b7f496e76616c69642073656e646572000000000000000000000000000000000000600082015250565b6000613c3a600e83613552565b9150613c4582613c04565b602082019050919050565b60006020820190508181036000830152613c6981613c2d565b9050919050565b7f496e76616c696420706c616e0000000000000000000000000000000000000000600082015250565b6000613ca6600c83613552565b9150613cb182613c70565b602082019050919050565b60006020820190508181036000830152613cd581613c99565b9050919050565b7f4e616d652063616e6e6f7420626520656d707479000000000000000000000000600082015250565b6000613d12601483613552565b9150613d1d82613cdc565b602082019050919050565b60006020820190508181036000830152613d4181613d05565b9050919050565b7f546f6b656e206164647265737320726571756972656420666f7220746f6b656e60008201527f206163636f756e74730000000000000000000000000000000000000000000000602082015250565b6000613da4602983613552565b9150613daf82613d48565b604082019050919050565b60006020820190508181036000830152613dd381613d97565b9050919050565b6000613de582612d2a565b91507fffffffffffffffffffffffffffffffffffffffffffffffffffffffffffffffff8203613e1757613e16613a13565b5b600182019050919050565b600081905092915050565b6000613e388261321c565b613e428185613e22565b9350613e52818560208601613238565b80840191505092915050565b6000819050919050565b613e79613e7482612d2a565b613e5e565b82525050565b60008160601b9050919050565b6000613e9782613e7f565b9050919050565b6000613ea982613e8c565b9050919050565b613ec1613ebc82613022565b613e9e565b82525050565b6000613ed38287613e2d565b9150613edf8286613e68565b602082019150613eef8285613eb0565b601482019150613eff8284613e68565b60208201915081905095945050505050565b7f4e487b7100000000000000000000000000000000000000000000000000000000600052602260045260246000fd5b60006002820490506001821680613f5857607f821691505b602082108103613f6b57613f6a613f11565b5b50919050565b60008190508160005260206000209050919050565b60006020601f8301049050919050565b600082821b905092915050565b600060088302613fd37fffffffffffffffffffffffffffffffffffffffffffffffffffffffffffffffff82613f96565b613fdd8683613f96565b95508019841693508086168417925050509392505050565b6000819050919050565b600061401a61401561401084612d2a565b613ff5565b612d2a565b9050919050565b6000819050919050565b61403483613fff565b61404861404082614021565b848454613fa3565b825550505050565b600090565b61405d614050565b61406881848461402b565b505050565b5b8181101561408c57614081600082614055565b60018101905061406e565b5050565b601f8211156140d1576140a281613f71565b6140ab84613f86565b810160208510156140ba578190505b6140ce6140c685613f86565b83018261406d565b50505b505050565b600082821c905092915050565b60006140f4600019846008026140d6565b1980831691505092915050565b600061410d83836140e3565b9150826002028217905092915050565b6141268261321c565b67ffffffffffffffff81111561413f5761413e612eb2565b5b6141498254613f40565b614154828285614090565b600060209050601f8311600181146141875760008415614175578287015190505b61417f8582614101565b8655506141e7565b601f19841661419586613f71565b60005b828110156141bd57848901518255600182019150602085019450602081019050614198565b868310156141da57848901516141d6601f8916826140e3565b8355505b6001600288020188555050505b505050505050565b600060408201905081810360008301526142098185613563565b905061421860208301846135ba565b9392505050565b7f4f6e6c792061646d696e2063616e2063616c6c20746869732066756e6374696f60008201527f6e00000000000000000000000000000000000000000000000000000000000000602082015250565b600061427b602183613552565b91506142868261421f565b604082019050919050565b600060208201905081810360008301526142aa8161426e565b9050919050565b7f4e6f206665657320746f20776974686472617700000000000000000000000000600082015250565b60006142e7601383613552565b91506142f2826142b1565b602082019050919050565b60006020820190508181036000830152614316816142da565b9050919050565b7f496e76616c69642061646d696e20616464726573730000000000000000000000600082015250565b6000614353601583613552565b915061435e8261431d565b602082019050919050565b6000602082019050818103600083015261438281614346565b9050919050565b7f416d6f756e74206d7573742062652067726561746572207468616e207a65726f600082015250565b60006143bf602083613552565b91506143ca82614389565b602082019050919050565b600060208201905081810360008301526143ee816143b2565b9050919050565b7f4163636f756e7420697320636c6f736564000000000000000000000000000000600082015250565b600061442b601183613552565b9150614436826143f5565b602082019050919050565b6000602082019050818103600083015261445a8161441e565b9050919050565b7f457468657220616d6f756e74206d69736d617463680000000000000000000000600082015250565b6000614497601583613552565b91506144a282614461565b602082019050919050565b600060208201905081810360008301526144c68161448a565b9050919050565b7f4e6f2045746865722073686f756c642062652073656e7420666f7220746f6b6560008201527f6e206465706f7369740000000000000000000000000000000000000000000000602082015250565b6000614529602983613552565b9150614534826144cd565b604082019050919050565b600060208201905081810360008301526145588161451c565b9050919050565b6000606082019050614574600083018661359c565b614581602083018561359c565b61458e6040830184612d8d565b949350505050565b60006040820190506145ab6000830185612d8d565b6145b860208301846135ab565b9392505050565b7f4e487b7100000000000000000000000000000000000000000000000000000000600052603260045260246000fd5b6000819050919050565b600061461361460e614609846145ee565b613ff5565b612d2a565b9050919050565b614623816145f8565b82525050565b600060408201905061463e6000830185612d8d565b61464b602083018461461a565b9392505050565b600061465d82612d2a565b915061466883612d2a565b925082820261467681612d2a565b9150828204841483151761468d5761468c613a13565b5b5092915050565b7f4e487b7100000000000000000000000000000000000000000000000000000000600052601260045260246000fd5b60006146ce82612d2a565b91506146d983612d2a565b9250826146e9576146e8614694565b5b82820490509291505056fea26469706673582212206960f2b52ba99b72e2679c8fea4d6e6357716dfe316b7ae4f746b782924fcf8164736f6c634300081c0033",
  "linkReferences": {},
  "deployedLinkReferences": {}
}