{"contracts/StaffSalaryManagerFactory.sol":{"StaffSalaryManagerFactory":{"abi":[{"inputs":[],"name":"createStaffSalaryManager","outputs":[],"stateMutability":"nonpayable","type":"function"},{"inputs":[],"name":"getStaffSalaryManagers","outputs":[{"internalType":"contract StaffSalaryManager[]","name":"","type":"address[]"}],"stateMutability":"view","type":"function"},{"inputs":[{"internalType":"uint256","name":"","type":"uint256"}],"name":"staffSalaryManagers","outputs":[{"internalType":"contract StaffSalaryManager","name":"","type":"address"}],"stateMutability":"view","type":"function"}],"evm":{"bytecode":{"linkReferences":{},"object":"6080604052348015600f57600080fd5b506120d38061001f6000396000f3fe608060405234801561001057600080fd5b50600436106100415760003560e01c80633442811c1461004657806344280c0c1461006457806360355e981461006e575b600080fd5b61004e61009e565b60405161005b9190610339565b60405180910390f35b61006c61012c565b005b61008860048036038101906100839190610396565b6101bf565b60405161009591906103d2565b60405180910390f35b6060600080548060200260200160405190810160405280929190818152602001828054801561012257602002820191906000526020600020905b8160009054906101000a900473ffffffffffffffffffffffffffffffffffffffff1673ffffffffffffffffffffffffffffffffffffffff16815260200190600101908083116100d8575b5050505050905090565b600060405161013a906101fe565b604051809103906000f080158015610156573d6000803e3d6000fd5b5090506000819080600181540180825580915050600190039060005260206000200160009091909190916101000a81548173ffffffffffffffffffffffffffffffffffffffff021916908373ffffffffffffffffffffffffffffffffffffffff16021790555050565b600081815481106101cf57600080fd5b906000526020600020016000915054906101000a900473ffffffffffffffffffffffffffffffffffffffff1681565b611cb0806103ee83390190565b600081519050919050565b600082825260208201905092915050565b6000819050602082019050919050565b600073ffffffffffffffffffffffffffffffffffffffff82169050919050565b6000819050919050565b600061027c61027761027284610237565b610257565b610237565b9050919050565b600061028e82610261565b9050919050565b60006102a082610283565b9050919050565b6102b081610295565b82525050565b60006102c283836102a7565b60208301905092915050565b6000602082019050919050565b60006102e68261020b565b6102f08185610216565b93506102fb83610227565b8060005b8381101561032c57815161031388826102b6565b975061031e836102ce565b9250506001810190506102ff565b5085935050505092915050565b6000602082019050818103600083015261035381846102db565b905092915050565b600080fd5b6000819050919050565b61037381610360565b811461037e57600080fd5b50565b6000813590506103908161036a565b92915050565b6000602082840312156103ac576103ab61035b565b5b60006103ba84828501610381565b91505092915050565b6103cc81610295565b82525050565b60006020820190506103e760008301846103c3565b9291505056fe6080604052348015600f57600080fd5b5033600260006101000a81548173ffffffffffffffffffffffffffffffffffffffff021916908373ffffffffffffffffffffffffffffffffffffffff160217905550611c50806100606000396000f3fe60806040526004361061007f5760003560e01c80638add50321161004e5780638add5032146101485780638da5cb5b14610171578063ddd795041461019c578063f17157b6146101d957610086565b80630ea37aef1461008b578063144dceaa146100b4578063238ef027146100f4578063424317611461011f57610086565b3661008657005b600080fd5b34801561009757600080fd5b506100b260048036038101906100ad9190610f56565b610219565b005b3480156100c057600080fd5b506100db60048036038101906100d69190610fb9565b610565565b6040516100eb9493929190611144565b60405180910390f35b34801561010057600080fd5b50610109610647565b6040516101169190611190565b60405180910390f35b34801561012b57600080fd5b5061014660048036038101906101419190611233565b610654565b005b34801561015457600080fd5b5061016f600480360381019061016a91906113bb565b610810565b005b34801561017d57600080fd5b50610186610b44565b6040516101939190611439565b60405180910390f35b3480156101a857600080fd5b506101c360048036038101906101be9190611454565b610b6a565b6040516101d0919061155b565b60405180910390f35b3480156101e557600080fd5b5061020060048036038101906101fb9190611454565b610cd4565b6040516102109493929190611144565b60405180910390f35b600260009054906101000a900473ffffffffffffffffffffffffffffffffffffffff1673ffffffffffffffffffffffffffffffffffffffff163373ffffffffffffffffffffffffffffffffffffffff16146102a9576040517f08c379a00000000000000000000000000000000000000000000000000000000081526004016102a0906115c9565b60405180910390fd5b60008060008373ffffffffffffffffffffffffffffffffffffffff1673ffffffffffffffffffffffffffffffffffffffff16815260200190815260200160002060405180608001604052908160008201805461030490611618565b80601f016020809104026020016040519081016040528092919081815260200182805461033090611618565b801561037d5780601f106103525761010080835404028352916020019161037d565b820191906000526020600020905b81548152906001019060200180831161036057829003601f168201915b50505050508152602001600182015481526020016002820160009054906101000a900460ff1660028111156103b5576103b4611085565b5b60028111156103c7576103c6611085565b5b81526020016002820160019054906101000a900460ff1660028111156103f0576103ef611085565b5b600281111561040257610401611085565b5b815250509050600081602001511161044f576040517f08c379a000000000000000000000000000000000000000000000000000000000815260040161044690611695565b60405180910390fd5b6000600281111561046357610462611085565b5b8160400151600281111561047a57610479611085565b5b146104ba576040517f08c379a00000000000000000000000000000000000000000000000000000000081526004016104b190611701565b60405180910390fd5b6000670de0b6b3a764000082602001516104d49190611750565b905080471015610519576040517f08c379a0000000000000000000000000000000000000000000000000000000008152600401610510906117de565b60405180910390fd5b8273ffffffffffffffffffffffffffffffffffffffff166108fc829081150290604051600060405180830381858888f1935050505015801561055f573d6000803e3d6000fd5b50505050565b6001818154811061057557600080fd5b906000526020600020906003020160009150905080600001805461059890611618565b80601f01602080910402602001604051908101604052809291908181526020018280546105c490611618565b80156106115780601f106105e657610100808354040283529160200191610611565b820191906000526020600020905b8154815290600101906020018083116105f457829003601f168201915b5050505050908060010154908060020160009054906101000a900460ff16908060020160019054906101000a900460ff16905084565b6000600180549050905090565b600260009054906101000a900473ffffffffffffffffffffffffffffffffffffffff1673ffffffffffffffffffffffffffffffffffffffff163373ffffffffffffffffffffffffffffffffffffffff16146106e4576040517f08c379a00000000000000000000000000000000000000000000000000000000081526004016106db906115c9565b60405180910390fd5b60006106f08383610da6565b9050826000808673ffffffffffffffffffffffffffffffffffffffff1673ffffffffffffffffffffffffffffffffffffffff16815260200190815260200160002060020160006101000a81548160ff0219169083600281111561075657610755611085565b5b0217905550816000808673ffffffffffffffffffffffffffffffffffffffff1673ffffffffffffffffffffffffffffffffffffffff16815260200190815260200160002060020160016101000a81548160ff021916908360028111156107bf576107be611085565b5b0217905550806000808673ffffffffffffffffffffffffffffffffffffffff1673ffffffffffffffffffffffffffffffffffffffff1681526020019081526020016000206001018190555050505050565b600260009054906101000a900473ffffffffffffffffffffffffffffffffffffffff1673ffffffffffffffffffffffffffffffffffffffff163373ffffffffffffffffffffffffffffffffffffffff16146108a0576040517f08c379a0000000000000000000000000000000000000000000000000000000008152600401610897906115c9565b60405180910390fd5b60008060008573ffffffffffffffffffffffffffffffffffffffff1673ffffffffffffffffffffffffffffffffffffffff1681526020019081526020016000206001015414610924576040517f08c379a000000000000000000000000000000000000000000000000000000000815260040161091b9061184a565b60405180910390fd5b6000806109318284610da6565b9050604051806080016040528085815260200182815260200183600281111561095d5761095c611085565b5b815260200184600281111561097557610974611085565b5b8152506000808773ffffffffffffffffffffffffffffffffffffffff1673ffffffffffffffffffffffffffffffffffffffff16815260200190815260200160002060008201518160000190816109cb9190611a16565b506020820151816001015560408201518160020160006101000a81548160ff02191690836002811115610a0157610a00611085565b5b021790555060608201518160020160016101000a81548160ff02191690836002811115610a3157610a30611085565b5b021790555090505060016000808773ffffffffffffffffffffffffffffffffffffffff1673ffffffffffffffffffffffffffffffffffffffff168152602001908152602001600020908060018154018082558091505060019003906000526020600020906003020160009091909190915060008201816000019081610ab69190611afe565b50600182015481600101556002820160009054906101000a900460ff168160020160006101000a81548160ff02191690836002811115610af957610af8611085565b5b02179055506002820160019054906101000a900460ff168160020160016101000a81548160ff02191690836002811115610b3657610b35611085565b5b021790555050505050505050565b600260009054906101000a900473ffffffffffffffffffffffffffffffffffffffff1681565b610b72610e98565b6000808373ffffffffffffffffffffffffffffffffffffffff1673ffffffffffffffffffffffffffffffffffffffff168152602001908152602001600020604051806080016040529081600082018054610bcb90611618565b80601f0160208091040260200160405190810160405280929190818152602001828054610bf790611618565b8015610c445780601f10610c1957610100808354040283529160200191610c44565b820191906000526020600020905b815481529060010190602001808311610c2757829003601f168201915b50505050508152602001600182015481526020016002820160009054906101000a900460ff166002811115610c7c57610c7b611085565b5b6002811115610c8e57610c8d611085565b5b81526020016002820160019054906101000a900460ff166002811115610cb757610cb6611085565b5b6002811115610cc957610cc8611085565b5b815250509050919050565b6000602052806000526040600020600091509050806000018054610cf790611618565b80601f0160208091040260200160405190810160405280929190818152602001828054610d2390611618565b8015610d705780601f10610d4557610100808354040283529160200191610d70565b820191906000526020600020905b815481529060010190602001808311610d5357829003601f168201915b5050505050908060010154908060020160009054906101000a900460ff16908060020160019054906101000a900460ff16905084565b60008060016002811115610dbd57610dbc611085565b5b836002811115610dd057610dcf611085565b5b03610ddf5761044c9050610e1c565b60006002811115610df357610df2611085565b5b836002811115610e0657610e05611085565b5b03610e15576103e89050610e1b565b6101f490505b5b60016002811115610e3057610e2f611085565b5b846002811115610e4357610e42611085565b5b03610e5d5761012c81610e569190611be6565b9050610e8e565b600280811115610e7057610e6f611085565b5b846002811115610e8357610e82611085565b5b03610e8d57600090505b5b8091505092915050565b6040518060800160405280606081526020016000815260200160006002811115610ec557610ec4611085565b5b815260200160006002811115610ede57610edd611085565b5b81525090565b6000604051905090565b600080fd5b600080fd5b600073ffffffffffffffffffffffffffffffffffffffff82169050919050565b6000610f2382610ef8565b9050919050565b610f3381610f18565b8114610f3e57600080fd5b50565b600081359050610f5081610f2a565b92915050565b600060208284031215610f6c57610f6b610eee565b5b6000610f7a84828501610f41565b91505092915050565b6000819050919050565b610f9681610f83565b8114610fa157600080fd5b50565b600081359050610fb381610f8d565b92915050565b600060208284031215610fcf57610fce610eee565b5b6000610fdd84828501610fa4565b91505092915050565b600081519050919050565b600082825260208201905092915050565b60005b83811015611020578082015181840152602081019050611005565b60008484015250505050565b6000601f19601f8301169050919050565b600061104882610fe6565b6110528185610ff1565b9350611062818560208601611002565b61106b8161102c565b840191505092915050565b61107f81610f83565b82525050565b7f4e487b7100000000000000000000000000000000000000000000000000000000600052602160045260246000fd5b600381106110c5576110c4611085565b5b50565b60008190506110d6826110b4565b919050565b60006110e6826110c8565b9050919050565b6110f6816110db565b82525050565b6003811061110d5761110c611085565b5b50565b600081905061111e826110fc565b919050565b600061112e82611110565b9050919050565b61113e81611123565b82525050565b6000608082019050818103600083015261115e818761103d565b905061116d6020830186611076565b61117a60408301856110ed565b6111876060830184611135565b95945050505050565b60006020820190506111a56000830184611076565b92915050565b60006111b682610ef8565b9050919050565b6111c6816111ab565b81146111d157600080fd5b50565b6000813590506111e3816111bd565b92915050565b600381106111f657600080fd5b50565b600081359050611208816111e9565b92915050565b6003811061121b57600080fd5b50565b60008135905061122d8161120e565b92915050565b60008060006060848603121561124c5761124b610eee565b5b600061125a868287016111d4565b935050602061126b868287016111f9565b925050604061127c8682870161121e565b9150509250925092565b600080fd5b600080fd5b7f4e487b7100000000000000000000000000000000000000000000000000000000600052604160045260246000fd5b6112c88261102c565b810181811067ffffffffffffffff821117156112e7576112e6611290565b5b80604052505050565b60006112fa610ee4565b905061130682826112bf565b919050565b600067ffffffffffffffff82111561132657611325611290565b5b61132f8261102c565b9050602081019050919050565b82818337600083830152505050565b600061135e6113598461130b565b6112f0565b90508281526020810184848401111561137a5761137961128b565b5b61138584828561133c565b509392505050565b600082601f8301126113a2576113a1611286565b5b81356113b284826020860161134b565b91505092915050565b6000806000606084860312156113d4576113d3610eee565b5b60006113e2868287016111d4565b935050602084013567ffffffffffffffff81111561140357611402610ef3565b5b61140f8682870161138d565b92505060406114208682870161121e565b9150509250925092565b611433816111ab565b82525050565b600060208201905061144e600083018461142a565b92915050565b60006020828403121561146a57611469610eee565b5b6000611478848285016111d4565b91505092915050565b600082825260208201905092915050565b600061149d82610fe6565b6114a78185611481565b93506114b7818560208601611002565b6114c08161102c565b840191505092915050565b6114d481610f83565b82525050565b6114e3816110db565b82525050565b6114f281611123565b82525050565b600060808301600083015184820360008601526115158282611492565b915050602083015161152a60208601826114cb565b50604083015161153d60408601826114da565b50606083015161155060608601826114e9565b508091505092915050565b6000602082019050818103600083015261157581846114f8565b905092915050565b7f4e6f7420617574686f72697a6564000000000000000000000000000000000000600082015250565b60006115b3600e83610ff1565b91506115be8261157d565b602082019050919050565b600060208201905081810360008301526115e2816115a6565b9050919050565b7f4e487b7100000000000000000000000000000000000000000000000000000000600052602260045260246000fd5b6000600282049050600182168061163057607f821691505b602082108103611643576116426115e9565b5b50919050565b7f4e6f2073616c6172792061737369676e65640000000000000000000000000000600082015250565b600061167f601283610ff1565b915061168a82611649565b602082019050919050565b600060208201905081810360008301526116ae81611672565b9050919050565b7f5374616666206e6f7420656d706c6f7965640000000000000000000000000000600082015250565b60006116eb601283610ff1565b91506116f6826116b5565b602082019050919050565b6000602082019050818103600083015261171a816116de565b9050919050565b7f4e487b7100000000000000000000000000000000000000000000000000000000600052601160045260246000fd5b600061175b82610f83565b915061176683610f83565b925082820261177481610f83565b9150828204841483151761178b5761178a611721565b5b5092915050565b7f496e73756666696369656e7420636f6e74726163742062616c616e6365000000600082015250565b60006117c8601d83610ff1565b91506117d382611792565b602082019050919050565b600060208201905081810360008301526117f7816117bb565b9050919050565b7f537461666620616c726561647920657869737473000000000000000000000000600082015250565b6000611834601483610ff1565b915061183f826117fe565b602082019050919050565b6000602082019050818103600083015261186381611827565b9050919050565b60008190508160005260206000209050919050565b60006020601f8301049050919050565b600082821b905092915050565b6000600883026118cc7fffffffffffffffffffffffffffffffffffffffffffffffffffffffffffffffff8261188f565b6118d6868361188f565b95508019841693508086168417925050509392505050565b6000819050919050565b600061191361190e61190984610f83565b6118ee565b610f83565b9050919050565b6000819050919050565b61192d836118f8565b6119416119398261191a565b84845461189c565b825550505050565b600090565b611956611949565b611961818484611924565b505050565b5b818110156119855761197a60008261194e565b600181019050611967565b5050565b601f8211156119ca5761199b8161186a565b6119a48461187f565b810160208510156119b3578190505b6119c76119bf8561187f565b830182611966565b50505b505050565b600082821c905092915050565b60006119ed600019846008026119cf565b1980831691505092915050565b6000611a0683836119dc565b9150826002028217905092915050565b611a1f82610fe6565b67ffffffffffffffff811115611a3857611a37611290565b5b611a428254611618565b611a4d828285611989565b600060209050601f831160018114611a805760008415611a6e578287015190505b611a7885826119fa565b865550611ae0565b601f198416611a8e8661186a565b60005b82811015611ab657848901518255600182019150602085019450602081019050611a91565b86831015611ad35784890151611acf601f8916826119dc565b8355505b6001600288020188555050505b505050505050565b600081549050611af781611618565b9050919050565b818103611b0c575050611be4565b611b1582611ae8565b67ffffffffffffffff811115611b2e57611b2d611290565b5b611b388254611618565b611b43828285611989565b6000601f831160018114611b725760008415611b60578287015490505b611b6a85826119fa565b865550611bdd565b601f198416611b808761186a565b9650611b8b8661186a565b60005b82811015611bb357848901548255600182019150600185019450602081019050611b8e565b86831015611bd05784890154611bcc601f8916826119dc565b8355505b6001600288020188555050505b5050505050505b565b6000611bf182610f83565b9150611bfc83610f83565b9250828203905081811115611c1457611c13611721565b5b9291505056fea26469706673582212209aa4745d51ddf7b4c6d4fcc7277ec3d038995820b74dd338df199ae7b8d61ec264736f6c634300081c0033a264697066735822122073f5ed39f7f699c41e7657fe5beffaea063483bae79f9017a20624cca5fa961564736f6c634300081c0033","opcodes":"PUSH1 0x80 PUSH1 0x40 MSTORE CALLVALUE DUP1 ISZERO PUSH1 0xF JUMPI PUSH1 0x0 DUP1 REVERT JUMPDEST POP PUSH2 0x20D3 DUP1 PUSH2 0x1F PUSH1 0x0 CODECOPY PUSH1 0x0 RETURN INVALID PUSH1 0x80 PUSH1 0x40 MSTORE CALLVALUE DUP1 ISZERO PUSH2 0x10 JUMPI PUSH1 0x0 DUP1 REVERT JUMPDEST POP PUSH1 0x4 CALLDATASIZE LT PUSH2 0x41 JUMPI PUSH1 0x0 CALLDATALOAD PUSH1 0xE0 SHR DUP1 PUSH4 0x3442811C EQ PUSH2 0x46 JUMPI DUP1 PUSH4 0x44280C0C EQ PUSH2 0x64 JUMPI DUP1 PUSH4 0x60355E98 EQ PUSH2 0x6E JUMPI JUMPDEST PUSH1 0x0 DUP1 REVERT JUMPDEST PUSH2 0x4E PUSH2 0x9E JUMP JUMPDEST PUSH1 0x40 MLOAD PUSH2 0x5B SWAP2 SWAP1 PUSH2 0x339 JUMP JUMPDEST PUSH1 0x40 MLOAD DUP1 SWAP2 SUB SWAP1 RETURN JUMPDEST PUSH2 0x6C PUSH2 0x12C JUMP JUMPDEST STOP JUMPDEST PUSH2 0x88 PUSH1 0x4 DUP1 CALLDATASIZE SUB DUP2 ADD SWAP1 PUSH2 0x83 SWAP2 SWAP1 PUSH2 0x396 JUMP JUMPDEST PUSH2 0x1BF JUMP JUMPDEST PUSH1 0x40 MLOAD PUSH2 0x95 SWAP2 SWAP1 PUSH2 0x3D2 JUMP JUMPDEST PUSH1 0x40 MLOAD DUP1 SWAP2 SUB SWAP1 RETURN JUMPDEST PUSH1 0x60 PUSH1 0x0 DUP1 SLOAD DUP1 PUSH1 0x20 MUL PUSH1 0x20 ADD PUSH1 0x40 MLOAD SWAP1 DUP2 ADD PUSH1 0x40 MSTORE DUP1 SWAP3 SWAP2 SWAP1 DUP2 DUP2 MSTORE PUSH1 0x20 ADD DUP3 DUP1 SLOAD DUP1 ISZERO PUSH2 0x122 JUMPI PUSH1 0x20 MUL DUP3 ADD SWAP2 SWAP1 PUSH1 0x0 MSTORE PUSH1 0x20 PUSH1 0x0 KECCAK256 SWAP1 JUMPDEST DUP2 PUSH1 0x0 SWAP1 SLOAD SWAP1 PUSH2 0x100 EXP SWAP1 DIV PUSH20 0xFFFFFFFFFFFFFFFFFFFFFFFFFFFFFFFFFFFFFFFF AND PUSH20 0xFFFFFFFFFFFFFFFFFFFFFFFFFFFFFFFFFFFFFFFF AND DUP2 MSTORE PUSH1 0x20 ADD SWAP1 PUSH1 0x1 ADD SWAP1 DUP1 DUP4 GT PUSH2 0xD8 JUMPI JUMPDEST POP POP POP POP POP SWAP1 POP SWAP1 JUMP JUMPDEST PUSH1 0x0 PUSH1 0x40 MLOAD PUSH2 0x13A SWAP1 PUSH2 0x1FE JUMP JUMPDEST PUSH1 0x40 MLOAD DUP1 SWAP2 SUB SWAP1 PUSH1 0x0 CREATE DUP1 ISZERO DUP1 ISZERO PUSH2 0x156 JUMPI RETURNDATASIZE PUSH1 0x0 DUP1 RETURNDATACOPY RETURNDATASIZE PUSH1 0x0 REVERT JUMPDEST POP SWAP1 POP PUSH1 0x0 DUP2 SWAP1 DUP1 PUSH1 0x1 DUP2 SLOAD ADD DUP1 DUP3 SSTORE DUP1 SWAP2 POP POP PUSH1 0x1 SWAP1 SUB SWAP1 PUSH1 0x0 MSTORE PUSH1 0x20 PUSH1 0x0 KECCAK256 ADD PUSH1 0x0 SWAP1 SWAP2 SWAP1 SWAP2 SWAP1 SWAP2 PUSH2 0x100 EXP DUP2 SLOAD DUP2 PUSH20 0xFFFFFFFFFFFFFFFFFFFFFFFFFFFFFFFFFFFFFFFF MUL NOT AND SWAP1 DUP4 PUSH20 0xFFFFFFFFFFFFFFFFFFFFFFFFFFFFFFFFFFFFFFFF AND MUL OR SWAP1 SSTORE POP POP JUMP JUMPDEST PUSH1 0x0 DUP2 DUP2 SLOAD DUP2 LT PUSH2 0x1CF JUMPI PUSH1 0x0 DUP1 REVERT JUMPDEST SWAP1 PUSH1 0x0 MSTORE PUSH1 0x20 PUSH1 0x0 KECCAK256 ADD PUSH1 0x0 SWAP2 POP SLOAD SWAP1 PUSH2 0x100 EXP SWAP1 DIV PUSH20 0xFFFFFFFFFFFFFFFFFFFFFFFFFFFFFFFFFFFFFFFF AND DUP2 JUMP JUMPDEST PUSH2 0x1CB0 DUP1 PUSH2 0x3EE DUP4 CODECOPY ADD SWAP1 JUMP JUMPDEST PUSH1 0x0 DUP2 MLOAD SWAP1 POP SWAP2 SWAP1 POP JUMP JUMPDEST PUSH1 0x0 DUP3 DUP3 MSTORE PUSH1 0x20 DUP3 ADD SWAP1 POP SWAP3 SWAP2 POP POP JUMP JUMPDEST PUSH1 0x0 DUP2 SWAP1 POP PUSH1 0x20 DUP3 ADD SWAP1 POP SWAP2 SWAP1 POP JUMP JUMPDEST PUSH1 0x0 PUSH20 0xFFFFFFFFFFFFFFFFFFFFFFFFFFFFFFFFFFFFFFFF DUP3 AND SWAP1 POP SWAP2 SWAP1 POP JUMP JUMPDEST PUSH1 0x0 DUP2 SWAP1 POP SWAP2 SWAP1 POP JUMP JUMPDEST PUSH1 0x0 PUSH2 0x27C PUSH2 0x277 PUSH2 0x272 DUP5 PUSH2 0x237 JUMP JUMPDEST PUSH2 0x257 JUMP JUMPDEST PUSH2 0x237 JUMP JUMPDEST SWAP1 POP SWAP2 SWAP1 POP JUMP JUMPDEST PUSH1 0x0 PUSH2 0x28E DUP3 PUSH2 0x261 JUMP JUMPDEST SWAP1 POP SWAP2 SWAP1 POP JUMP JUMPDEST PUSH1 0x0 PUSH2 0x2A0 DUP3 PUSH2 0x283 JUMP JUMPDEST SWAP1 POP SWAP2 SWAP1 POP JUMP JUMPDEST PUSH2 0x2B0 DUP2 PUSH2 0x295 JUMP JUMPDEST DUP3 MSTORE POP POP JUMP JUMPDEST PUSH1 0x0 PUSH2 0x2C2 DUP4 DUP4 PUSH2 0x2A7 JUMP JUMPDEST PUSH1 0x20 DUP4 ADD SWAP1 POP SWAP3 SWAP2 POP POP JUMP JUMPDEST PUSH1 0x0 PUSH1 0x20 DUP3 ADD SWAP1 POP SWAP2 SWAP1 POP JUMP JUMPDEST PUSH1 0x0 PUSH2 0x2E6 DUP3 PUSH2 0x20B JUMP JUMPDEST PUSH2 0x2F0 DUP2 DUP6 PUSH2 0x216 JUMP JUMPDEST SWAP4 POP PUSH2 0x2FB DUP4 PUSH2 0x227 JUMP JUMPDEST DUP1 PUSH1 0x0 JUMPDEST DUP4 DUP2 LT ISZERO PUSH2 0x32C JUMPI DUP2 MLOAD PUSH2 0x313 DUP9 DUP3 PUSH2 0x2B6 JUMP JUMPDEST SWAP8 POP PUSH2 0x31E DUP4 PUSH2 0x2CE JUMP JUMPDEST SWAP3 POP POP PUSH1 0x1 DUP2 ADD SWAP1 POP PUSH2 0x2FF JUMP JUMPDEST POP DUP6 SWAP4 POP POP POP POP SWAP3 SWAP2 POP POP JUMP JUMPDEST PUSH1 0x0 PUSH1 0x20 DUP3 ADD SWAP1 POP DUP2 DUP2 SUB PUSH1 0x0 DUP4 ADD MSTORE PUSH2 0x353 DUP2 DUP5 PUSH2 0x2DB JUMP JUMPDEST SWAP1 POP SWAP3 SWAP2 POP POP JUMP JUMPDEST PUSH1 0x0 DUP1 REVERT JUMPDEST PUSH1 0x0 DUP2 SWAP1 POP SWAP2 SWAP1 POP JUMP JUMPDEST PUSH2 0x373 DUP2 PUSH2 0x360 JUMP JUMPDEST DUP2 EQ PUSH2 0x37E JUMPI PUSH1 0x0 DUP1 REVERT JUMPDEST POP JUMP JUMPDEST PUSH1 0x0 DUP2 CALLDATALOAD SWAP1 POP PUSH2 0x390 DUP2 PUSH2 0x36A JUMP JUMPDEST SWAP3 SWAP2 POP POP JUMP JUMPDEST PUSH1 0x0 PUSH1 0x20 DUP3 DUP5 SUB SLT ISZERO PUSH2 0x3AC JUMPI PUSH2 0x3AB PUSH2 0x35B JUMP JUMPDEST JUMPDEST PUSH1 0x0 PUSH2 0x3BA DUP5 DUP3 DUP6 ADD PUSH2 0x381 JUMP JUMPDEST SWAP2 POP POP SWAP3 SWAP2 POP POP JUMP JUMPDEST PUSH2 0x3CC DUP2 PUSH2 0x295 JUMP JUMPDEST DUP3 MSTORE POP POP JUMP JUMPDEST PUSH1 0x0 PUSH1 0x20 DUP3 ADD SWAP1 POP PUSH2 0x3E7 PUSH1 0x0 DUP4 ADD DUP5 PUSH2 0x3C3 JUMP JUMPDEST SWAP3 SWAP2 POP POP JUMP INVALID PUSH1 0x80 PUSH1 0x40 MSTORE CALLVALUE DUP1 ISZERO PUSH1 0xF JUMPI PUSH1 0x0 DUP1 REVERT JUMPDEST POP CALLER PUSH1 0x2 PUSH1 0x0 PUSH2 0x100 EXP DUP2 SLOAD DUP2 PUSH20 0xFFFFFFFFFFFFFFFFFFFFFFFFFFFFFFFFFFFFFFFF MUL NOT AND SWAP1 DUP4 PUSH20 0xFFFFFFFFFFFFFFFFFFFFFFFFFFFFFFFFFFFFFFFF AND MUL OR SWAP1 SSTORE POP PUSH2 0x1C50 DUP1 PUSH2 0x60 PUSH1 0x0 CODECOPY PUSH1 0x0 RETURN INVALID PUSH1 0x80 PUSH1 0x40 MSTORE PUSH1 0x4 CALLDATASIZE LT PUSH2 0x7F JUMPI PUSH1 0x0 CALLDATALOAD PUSH1 0xE0 SHR DUP1 PUSH4 0x8ADD5032 GT PUSH2 0x4E JUMPI DUP1 PUSH4 0x8ADD5032 EQ PUSH2 0x148 JUMPI DUP1 PUSH4 0x8DA5CB5B EQ PUSH2 0x171 JUMPI DUP1 PUSH4 0xDDD79504 EQ PUSH2 0x19C JUMPI DUP1 PUSH4 0xF17157B6 EQ PUSH2 0x1D9 JUMPI PUSH2 0x86 JUMP JUMPDEST DUP1 PUSH4 0xEA37AEF EQ PUSH2 0x8B JUMPI DUP1 PUSH4 0x144DCEAA EQ PUSH2 0xB4 JUMPI DUP1 PUSH4 0x238EF027 EQ PUSH2 0xF4 JUMPI DUP1 PUSH4 0x42431761 EQ PUSH2 0x11F JUMPI PUSH2 0x86 JUMP JUMPDEST CALLDATASIZE PUSH2 0x86 JUMPI STOP JUMPDEST PUSH1 0x0 DUP1 REVERT JUMPDEST CALLVALUE DUP1 ISZERO PUSH2 0x97 JUMPI PUSH1 0x0 DUP1 REVERT JUMPDEST POP PUSH2 0xB2 PUSH1 0x4 DUP1 CALLDATASIZE SUB DUP2 ADD SWAP1 PUSH2 0xAD SWAP2 SWAP1 PUSH2 0xF56 JUMP JUMPDEST PUSH2 0x219 JUMP JUMPDEST STOP JUMPDEST CALLVALUE DUP1 ISZERO PUSH2 0xC0 JUMPI PUSH1 0x0 DUP1 REVERT JUMPDEST POP PUSH2 0xDB PUSH1 0x4 DUP1 CALLDATASIZE SUB DUP2 ADD SWAP1 PUSH2 0xD6 SWAP2 SWAP1 PUSH2 0xFB9 JUMP JUMPDEST PUSH2 0x565 JUMP JUMPDEST PUSH1 0x40 MLOAD PUSH2 0xEB SWAP5 SWAP4 SWAP3 SWAP2 SWAP1 PUSH2 0x1144 JUMP JUMPDEST PUSH1 0x40 MLOAD DUP1 SWAP2 SUB SWAP1 RETURN JUMPDEST CALLVALUE DUP1 ISZERO PUSH2 0x100 JUMPI PUSH1 0x0 DUP1 REVERT JUMPDEST POP PUSH2 0x109 PUSH2 0x647 JUMP JUMPDEST PUSH1 0x40 MLOAD PUSH2 0x116 SWAP2 SWAP1 PUSH2 0x1190 JUMP JUMPDEST PUSH1 0x40 MLOAD DUP1 SWAP2 SUB SWAP1 RETURN JUMPDEST CALLVALUE DUP1 ISZERO PUSH2 0x12B JUMPI PUSH1 0x0 DUP1 REVERT JUMPDEST POP PUSH2 0x146 PUSH1 0x4 DUP1 CALLDATASIZE SUB DUP2 ADD SWAP1 PUSH2 0x141 SWAP2 SWAP1 PUSH2 0x1233 JUMP JUMPDEST PUSH2 0x654 JUMP JUMPDEST STOP JUMPDEST CALLVALUE DUP1 ISZERO PUSH2 0x154 JUMPI PUSH1 0x0 DUP1 REVERT JUMPDEST POP PUSH2 0x16F PUSH1 0x4 DUP1 CALLDATASIZE SUB DUP2 ADD SWAP1 PUSH2 0x16A SWAP2 SWAP1 PUSH2 0x13BB JUMP JUMPDEST PUSH2 0x810 JUMP JUMPDEST STOP JUMPDEST CALLVALUE DUP1 ISZERO PUSH2 0x17D JUMPI PUSH1 0x0 DUP1 REVERT JUMPDEST POP PUSH2 0x186 PUSH2 0xB44 JUMP JUMPDEST PUSH1 0x40 MLOAD PUSH2 0x193 SWAP2 SWAP1 PUSH2 0x1439 JUMP JUMPDEST PUSH1 0x40 MLOAD DUP1 SWAP2 SUB SWAP1 RETURN JUMPDEST CALLVALUE DUP1 ISZERO PUSH2 0x1A8 JUMPI PUSH1 0x0 DUP1 REVERT JUMPDEST POP PUSH2 0x1C3 PUSH1 0x4 DUP1 CALLDATASIZE SUB DUP2 ADD SWAP1 PUSH2 0x1BE SWAP2 SWAP1 PUSH2 0x1454 JUMP JUMPDEST PUSH2 0xB6A JUMP JUMPDEST PUSH1 0x40 MLOAD PUSH2 0x1D0 SWAP2 SWAP1 PUSH2 0x155B JUMP JUMPDEST PUSH1 0x40 MLOAD DUP1 SWAP2 SUB SWAP1 RETURN JUMPDEST CALLVALUE DUP1 ISZERO PUSH2 0x1E5 JUMPI PUSH1 0x0 DUP1 REVERT JUMPDEST POP PUSH2 0x200 PUSH1 0x4 DUP1 CALLDATASIZE SUB DUP2 ADD SWAP1 PUSH2 0x1FB SWAP2 SWAP1 PUSH2 0x1454 JUMP JUMPDEST PUSH2 0xCD4 JUMP JUMPDEST PUSH1 0x40 MLOAD PUSH2 0x210 SWAP5 SWAP4 SWAP3 SWAP2 SWAP1 PUSH2 0x1144 JUMP JUMPDEST PUSH1 0x40 MLOAD DUP1 SWAP2 SUB SWAP1 RETURN JUMPDEST PUSH1 0x2 PUSH1 0x0 SWAP1 SLOAD SWAP1 PUSH2 0x100 EXP SWAP1 DIV PUSH20 0xFFFFFFFFFFFFFFFFFFFFFFFFFFFFFFFFFFFFFFFF AND PUSH20 0xFFFFFFFFFFFFFFFFFFFFFFFFFFFFFFFFFFFFFFFF AND CALLER PUSH20 0xFFFFFFFFFFFFFFFFFFFFFFFFFFFFFFFFFFFFFFFF AND EQ PUSH2 0x2A9 JUMPI PUSH1 0x40 MLOAD PUSH32 0x8C379A000000000000000000000000000000000000000000000000000000000 DUP2 MSTORE PUSH1 0x4 ADD PUSH2 0x2A0 SWAP1 PUSH2 0x15C9 JUMP JUMPDEST PUSH1 0x40 MLOAD DUP1 SWAP2 SUB SWAP1 REVERT JUMPDEST PUSH1 0x0 DUP1 PUSH1 0x0 DUP4 PUSH20 0xFFFFFFFFFFFFFFFFFFFFFFFFFFFFFFFFFFFFFFFF AND PUSH20 0xFFFFFFFFFFFFFFFFFFFFFFFFFFFFFFFFFFFFFFFF AND DUP2 MSTORE PUSH1 0x20 ADD SWAP1 DUP2 MSTORE PUSH1 0x20 ADD PUSH1 0x0 KECCAK256 PUSH1 0x40 MLOAD DUP1 PUSH1 0x80 ADD PUSH1 0x40 MSTORE SWAP1 DUP2 PUSH1 0x0 DUP3 ADD DUP1 SLOAD PUSH2 0x304 SWAP1 PUSH2 0x1618 JUMP JUMPDEST DUP1 PUSH1 0x1F ADD PUSH1 0x20 DUP1 SWAP2 DIV MUL PUSH1 0x20 ADD PUSH1 0x40 MLOAD SWAP1 DUP2 ADD PUSH1 0x40 MSTORE DUP1 SWAP3 SWAP2 SWAP1 DUP2 DUP2 MSTORE PUSH1 0x20 ADD DUP3 DUP1 SLOAD PUSH2 0x330 SWAP1 PUSH2 0x1618 JUMP JUMPDEST DUP1 ISZERO PUSH2 0x37D JUMPI DUP1 PUSH1 0x1F LT PUSH2 0x352 JUMPI PUSH2 0x100 DUP1 DUP4 SLOAD DIV MUL DUP4 MSTORE SWAP2 PUSH1 0x20 ADD SWAP2 PUSH2 0x37D JUMP JUMPDEST DUP3 ADD SWAP2 SWAP1 PUSH1 0x0 MSTORE PUSH1 0x20 PUSH1 0x0 KECCAK256 SWAP1 JUMPDEST DUP2 SLOAD DUP2 MSTORE SWAP1 PUSH1 0x1 ADD SWAP1 PUSH1 0x20 ADD DUP1 DUP4 GT PUSH2 0x360 JUMPI DUP3 SWAP1 SUB PUSH1 0x1F AND DUP3 ADD SWAP2 JUMPDEST POP POP POP POP POP DUP2 MSTORE PUSH1 0x20 ADD PUSH1 0x1 DUP3 ADD SLOAD DUP2 MSTORE PUSH1 0x20 ADD PUSH1 0x2 DUP3 ADD PUSH1 0x0 SWAP1 SLOAD SWAP1 PUSH2 0x100 EXP SWAP1 DIV PUSH1 0xFF AND PUSH1 0x2 DUP2 GT ISZERO PUSH2 0x3B5 JUMPI PUSH2 0x3B4 PUSH2 0x1085 JUMP JUMPDEST JUMPDEST PUSH1 0x2 DUP2 GT ISZERO PUSH2 0x3C7 JUMPI PUSH2 0x3C6 PUSH2 0x1085 JUMP JUMPDEST JUMPDEST DUP2 MSTORE PUSH1 0x20 ADD PUSH1 0x2 DUP3 ADD PUSH1 0x1 SWAP1 SLOAD SWAP1 PUSH2 0x100 EXP SWAP1 DIV PUSH1 0xFF AND PUSH1 0x2 DUP2 GT ISZERO PUSH2 0x3F0 JUMPI PUSH2 0x3EF PUSH2 0x1085 JUMP JUMPDEST JUMPDEST PUSH1 0x2 DUP2 GT ISZERO PUSH2 0x402 JUMPI PUSH2 0x401 PUSH2 0x1085 JUMP JUMPDEST JUMPDEST DUP2 MSTORE POP POP SWAP1 POP PUSH1 0x0 DUP2 PUSH1 0x20 ADD MLOAD GT PUSH2 0x44F JUMPI PUSH1 0x40 MLOAD PUSH32 0x8C379A000000000000000000000000000000000000000000000000000000000 DUP2 MSTORE PUSH1 0x4 ADD PUSH2 0x446 SWAP1 PUSH2 0x1695 JUMP JUMPDEST PUSH1 0x40 MLOAD DUP1 SWAP2 SUB SWAP1 REVERT JUMPDEST PUSH1 0x0 PUSH1 0x2 DUP2 GT ISZERO PUSH2 0x463 JUMPI PUSH2 0x462 PUSH2 0x1085 JUMP JUMPDEST JUMPDEST DUP2 PUSH1 0x40 ADD MLOAD PUSH1 0x2 DUP2 GT ISZERO PUSH2 0x47A JUMPI PUSH2 0x479 PUSH2 0x1085 JUMP JUMPDEST JUMPDEST EQ PUSH2 0x4BA JUMPI PUSH1 0x40 MLOAD PUSH32 0x8C379A000000000000000000000000000000000000000000000000000000000 DUP2 MSTORE PUSH1 0x4 ADD PUSH2 0x4B1 SWAP1 PUSH2 0x1701 JUMP JUMPDEST PUSH1 0x40 MLOAD DUP1 SWAP2 SUB SWAP1 REVERT JUMPDEST PUSH1 0x0 PUSH8 0xDE0B6B3A7640000 DUP3 PUSH1 0x20 ADD MLOAD PUSH2 0x4D4 SWAP2 SWAP1 PUSH2 0x1750 JUMP JUMPDEST SWAP1 POP DUP1 SELFBALANCE LT ISZERO PUSH2 0x519 JUMPI PUSH1 0x40 MLOAD PUSH32 0x8C379A000000000000000000000000000000000000000000000000000000000 DUP2 MSTORE PUSH1 0x4 ADD PUSH2 0x510 SWAP1 PUSH2 0x17DE JUMP JUMPDEST PUSH1 0x40 MLOAD DUP1 SWAP2 SUB SWAP1 REVERT JUMPDEST DUP3 PUSH20 0xFFFFFFFFFFFFFFFFFFFFFFFFFFFFFFFFFFFFFFFF AND PUSH2 0x8FC DUP3 SWAP1 DUP2 ISZERO MUL SWAP1 PUSH1 0x40 MLOAD PUSH1 0x0 PUSH1 0x40 MLOAD DUP1 DUP4 SUB DUP2 DUP6 DUP9 DUP9 CALL SWAP4 POP POP POP POP ISZERO DUP1 ISZERO PUSH2 0x55F JUMPI RETURNDATASIZE PUSH1 0x0 DUP1 RETURNDATACOPY RETURNDATASIZE PUSH1 0x0 REVERT JUMPDEST POP POP POP POP JUMP JUMPDEST PUSH1 0x1 DUP2 DUP2 SLOAD DUP2 LT PUSH2 0x575 JUMPI PUSH1 0x0 DUP1 REVERT JUMPDEST SWAP1 PUSH1 0x0 MSTORE PUSH1 0x20 PUSH1 0x0 KECCAK256 SWAP1 PUSH1 0x3 MUL ADD PUSH1 0x0 SWAP2 POP SWAP1 POP DUP1 PUSH1 0x0 ADD DUP1 SLOAD PUSH2 0x598 SWAP1 PUSH2 0x1618 JUMP JUMPDEST DUP1 PUSH1 0x1F ADD PUSH1 0x20 DUP1 SWAP2 DIV MUL PUSH1 0x20 ADD PUSH1 0x40 MLOAD SWAP1 DUP2 ADD PUSH1 0x40 MSTORE DUP1 SWAP3 SWAP2 SWAP1 DUP2 DUP2 MSTORE PUSH1 0x20 ADD DUP3 DUP1 SLOAD PUSH2 0x5C4 SWAP1 PUSH2 0x1618 JUMP JUMPDEST DUP1 ISZERO PUSH2 0x611 JUMPI DUP1 PUSH1 0x1F LT PUSH2 0x5E6 JUMPI PUSH2 0x100 DUP1 DUP4 SLOAD DIV MUL DUP4 MSTORE SWAP2 PUSH1 0x20 ADD SWAP2 PUSH2 0x611 JUMP JUMPDEST DUP3 ADD SWAP2 SWAP1 PUSH1 0x0 MSTORE PUSH1 0x20 PUSH1 0x0 KECCAK256 SWAP1 JUMPDEST DUP2 SLOAD DUP2 MSTORE SWAP1 PUSH1 0x1 ADD SWAP1 PUSH1 0x20 ADD DUP1 DUP4 GT PUSH2 0x5F4 JUMPI DUP3 SWAP1 SUB PUSH1 0x1F AND DUP3 ADD SWAP2 JUMPDEST POP POP POP POP POP SWAP1 DUP1 PUSH1 0x1 ADD SLOAD SWAP1 DUP1 PUSH1 0x2 ADD PUSH1 0x0 SWAP1 SLOAD SWAP1 PUSH2 0x100 EXP SWAP1 DIV PUSH1 0xFF AND SWAP1 DUP1 PUSH1 0x2 ADD PUSH1 0x1 SWAP1 SLOAD SWAP1 PUSH2 0x100 EXP SWAP1 DIV PUSH1 0xFF AND SWAP1 POP DUP5 JUMP JUMPDEST PUSH1 0x0 PUSH1 0x1 DUP1 SLOAD SWAP1 POP SWAP1 POP SWAP1 JUMP JUMPDEST PUSH1 0x2 PUSH1 0x0 SWAP1 SLOAD SWAP1 PUSH2 0x100 EXP SWAP1 DIV PUSH20 0xFFFFFFFFFFFFFFFFFFFFFFFFFFFFFFFFFFFFFFFF AND PUSH20 0xFFFFFFFFFFFFFFFFFFFFFFFFFFFFFFFFFFFFFFFF AND CALLER PUSH20 0xFFFFFFFFFFFFFFFFFFFFFFFFFFFFFFFFFFFFFFFF AND EQ PUSH2 0x6E4 JUMPI PUSH1 0x40 MLOAD PUSH32 0x8C379A000000000000000000000000000000000000000000000000000000000 DUP2 MSTORE PUSH1 0x4 ADD PUSH2 0x6DB SWAP1 PUSH2 0x15C9 JUMP JUMPDEST PUSH1 0x40 MLOAD DUP1 SWAP2 SUB SWAP1 REVERT JUMPDEST PUSH1 0x0 PUSH2 0x6F0 DUP4 DUP4 PUSH2 0xDA6 JUMP JUMPDEST SWAP1 POP DUP3 PUSH1 0x0 DUP1 DUP7 PUSH20 0xFFFFFFFFFFFFFFFFFFFFFFFFFFFFFFFFFFFFFFFF AND PUSH20 0xFFFFFFFFFFFFFFFFFFFFFFFFFFFFFFFFFFFFFFFF AND DUP2 MSTORE PUSH1 0x20 ADD SWAP1 DUP2 MSTORE PUSH1 0x20 ADD PUSH1 0x0 KECCAK256 PUSH1 0x2 ADD PUSH1 0x0 PUSH2 0x100 EXP DUP2 SLOAD DUP2 PUSH1 0xFF MUL NOT AND SWAP1 DUP4 PUSH1 0x2 DUP2 GT ISZERO PUSH2 0x756 JUMPI PUSH2 0x755 PUSH2 0x1085 JUMP JUMPDEST JUMPDEST MUL OR SWAP1 SSTORE POP DUP2 PUSH1 0x0 DUP1 DUP7 PUSH20 0xFFFFFFFFFFFFFFFFFFFFFFFFFFFFFFFFFFFFFFFF AND PUSH20 0xFFFFFFFFFFFFFFFFFFFFFFFFFFFFFFFFFFFFFFFF AND DUP2 MSTORE PUSH1 0x20 ADD SWAP1 DUP2 MSTORE PUSH1 0x20 ADD PUSH1 0x0 KECCAK256 PUSH1 0x2 ADD PUSH1 0x1 PUSH2 0x100 EXP DUP2 SLOAD DUP2 PUSH1 0xFF MUL NOT AND SWAP1 DUP4 PUSH1 0x2 DUP2 GT ISZERO PUSH2 0x7BF JUMPI PUSH2 0x7BE PUSH2 0x1085 JUMP JUMPDEST JUMPDEST MUL OR SWAP1 SSTORE POP DUP1 PUSH1 0x0 DUP1 DUP7 PUSH20 0xFFFFFFFFFFFFFFFFFFFFFFFFFFFFFFFFFFFFFFFF AND PUSH20 0xFFFFFFFFFFFFFFFFFFFFFFFFFFFFFFFFFFFFFFFF AND DUP2 MSTORE PUSH1 0x20 ADD SWAP1 DUP2 MSTORE PUSH1 0x20 ADD PUSH1 0x0 KECCAK256 PUSH1 0x1 ADD DUP2 SWAP1 SSTORE POP POP POP POP POP JUMP JUMPDEST PUSH1 0x2 PUSH1 0x0 SWAP1 SLOAD SWAP1 PUSH2 0x100 EXP SWAP1 DIV PUSH20 0xFFFFFFFFFFFFFFFFFFFFFFFFFFFFFFFFFFFFFFFF AND PUSH20 0xFFFFFFFFFFFFFFFFFFFFFFFFFFFFFFFFFFFFFFFF AND CALLER PUSH20 0xFFFFFFFFFFFFFFFFFFFFFFFFFFFFFFFFFFFFFFFF AND EQ PUSH2 0x8A0 JUMPI PUSH1 0x40 MLOAD PUSH32 0x8C379A000000000000000000000000000000000000000000000000000000000 DUP2 MSTORE PUSH1 0x4 ADD PUSH2 0x897 SWAP1 PUSH2 0x15C9 JUMP JUMPDEST PUSH1 0x40 MLOAD DUP1 SWAP2 SUB SWAP1 REVERT JUMPDEST PUSH1 0x0 DUP1 PUSH1 0x0 DUP6 PUSH20 0xFFFFFFFFFFFFFFFFFFFFFFFFFFFFFFFFFFFFFFFF AND PUSH20 0xFFFFFFFFFFFFFFFFFFFFFFFFFFFFFFFFFFFFFFFF AND DUP2 MSTORE PUSH1 0x20 ADD SWAP1 DUP2 MSTORE PUSH1 0x20 ADD PUSH1 0x0 KECCAK256 PUSH1 0x1 ADD SLOAD EQ PUSH2 0x924 JUMPI PUSH1 0x40 MLOAD PUSH32 0x8C379A000000000000000000000000000000000000000000000000000000000 DUP2 MSTORE PUSH1 0x4 ADD PUSH2 0x91B SWAP1 PUSH2 0x184A JUMP JUMPDEST PUSH1 0x40 MLOAD DUP1 SWAP2 SUB SWAP1 REVERT JUMPDEST PUSH1 0x0 DUP1 PUSH2 0x931 DUP3 DUP5 PUSH2 0xDA6 JUMP JUMPDEST SWAP1 POP PUSH1 0x40 MLOAD DUP1 PUSH1 0x80 ADD PUSH1 0x40 MSTORE DUP1 DUP6 DUP2 MSTORE PUSH1 0x20 ADD DUP3 DUP2 MSTORE PUSH1 0x20 ADD DUP4 PUSH1 0x2 DUP2 GT ISZERO PUSH2 0x95D JUMPI PUSH2 0x95C PUSH2 0x1085 JUMP JUMPDEST JUMPDEST DUP2 MSTORE PUSH1 0x20 ADD DUP5 PUSH1 0x2 DUP2 GT ISZERO PUSH2 0x975 JUMPI PUSH2 0x974 PUSH2 0x1085 JUMP JUMPDEST JUMPDEST DUP2 MSTORE POP PUSH1 0x0 DUP1 DUP8 PUSH20 0xFFFFFFFFFFFFFFFFFFFFFFFFFFFFFFFFFFFFFFFF AND PUSH20 0xFFFFFFFFFFFFFFFFFFFFFFFFFFFFFFFFFFFFFFFF AND DUP2 MSTORE PUSH1 0x20 ADD SWAP1 DUP2 MSTORE PUSH1 0x20 ADD PUSH1 0x0 KECCAK256 PUSH1 0x0 DUP3 ADD MLOAD DUP2 PUSH1 0x0 ADD SWAP1 DUP2 PUSH2 0x9CB SWAP2 SWAP1 PUSH2 0x1A16 JUMP JUMPDEST POP PUSH1 0x20 DUP3 ADD MLOAD DUP2 PUSH1 0x1 ADD SSTORE PUSH1 0x40 DUP3 ADD MLOAD DUP2 PUSH1 0x2 ADD PUSH1 0x0 PUSH2 0x100 EXP DUP2 SLOAD DUP2 PUSH1 0xFF MUL NOT AND SWAP1 DUP4 PUSH1 0x2 DUP2 GT ISZERO PUSH2 0xA01 JUMPI PUSH2 0xA00 PUSH2 0x1085 JUMP JUMPDEST JUMPDEST MUL OR SWAP1 SSTORE POP PUSH1 0x60 DUP3 ADD MLOAD DUP2 PUSH1 0x2 ADD PUSH1 0x1 PUSH2 0x100 EXP DUP2 SLOAD DUP2 PUSH1 0xFF MUL NOT AND SWAP1 DUP4 PUSH1 0x2 DUP2 GT ISZERO PUSH2 0xA31 JUMPI PUSH2 0xA30 PUSH2 0x1085 JUMP JUMPDEST JUMPDEST MUL OR SWAP1 SSTORE POP SWAP1 POP POP PUSH1 0x1 PUSH1 0x0 DUP1 DUP8 PUSH20 0xFFFFFFFFFFFFFFFFFFFFFFFFFFFFFFFFFFFFFFFF AND PUSH20 0xFFFFFFFFFFFFFFFFFFFFFFFFFFFFFFFFFFFFFFFF AND DUP2 MSTORE PUSH1 0x20 ADD SWAP1 DUP2 MSTORE PUSH1 0x20 ADD PUSH1 0x0 KECCAK256 SWAP1 DUP1 PUSH1 0x1 DUP2 SLOAD ADD DUP1 DUP3 SSTORE DUP1 SWAP2 POP POP PUSH1 0x1 SWAP1 SUB SWAP1 PUSH1 0x0 MSTORE PUSH1 0x20 PUSH1 0x0 KECCAK256 SWAP1 PUSH1 0x3 MUL ADD PUSH1 0x0 SWAP1 SWAP2 SWAP1 SWAP2 SWAP1 SWAP2 POP PUSH1 0x0 DUP3 ADD DUP2 PUSH1 0x0 ADD SWAP1 DUP2 PUSH2 0xAB6 SWAP2 SWAP1 PUSH2 0x1AFE JUMP JUMPDEST POP PUSH1 0x1 DUP3 ADD SLOAD DUP2 PUSH1 0x1 ADD SSTORE PUSH1 0x2 DUP3 ADD PUSH1 0x0 SWAP1 SLOAD SWAP1 PUSH2 0x100 EXP SWAP1 DIV PUSH1 0xFF AND DUP2 PUSH1 0x2 ADD PUSH1 0x0 PUSH2 0x100 EXP DUP2 SLOAD DUP2 PUSH1 0xFF MUL NOT AND SWAP1 DUP4 PUSH1 0x2 DUP2 GT ISZERO PUSH2 0xAF9 JUMPI PUSH2 0xAF8 PUSH2 0x1085 JUMP JUMPDEST JUMPDEST MUL OR SWAP1 SSTORE POP PUSH1 0x2 DUP3 ADD PUSH1 0x1 SWAP1 SLOAD SWAP1 PUSH2 0x100 EXP SWAP1 DIV PUSH1 0xFF AND DUP2 PUSH1 0x2 ADD PUSH1 0x1 PUSH2 0x100 EXP DUP2 SLOAD DUP2 PUSH1 0xFF MUL NOT AND SWAP1 DUP4 PUSH1 0x2 DUP2 GT ISZERO PUSH2 0xB36 JUMPI PUSH2 0xB35 PUSH2 0x1085 JUMP JUMPDEST JUMPDEST MUL OR SWAP1 SSTORE POP POP POP POP POP POP POP POP JUMP JUMPDEST PUSH1 0x2 PUSH1 0x0 SWAP1 SLOAD SWAP1 PUSH2 0x100 EXP SWAP1 DIV PUSH20 0xFFFFFFFFFFFFFFFFFFFFFFFFFFFFFFFFFFFFFFFF AND DUP2 JUMP JUMPDEST PUSH2 0xB72 PUSH2 0xE98 JUMP JUMPDEST PUSH1 0x0 DUP1 DUP4 PUSH20 0xFFFFFFFFFFFFFFFFFFFFFFFFFFFFFFFFFFFFFFFF AND PUSH20 0xFFFFFFFFFFFFFFFFFFFFFFFFFFFFFFFFFFFFFFFF AND DUP2 MSTORE PUSH1 0x20 ADD SWAP1 DUP2 MSTORE PUSH1 0x20 ADD PUSH1 0x0 KECCAK256 PUSH1 0x40 MLOAD DUP1 PUSH1 0x80 ADD PUSH1 0x40 MSTORE SWAP1 DUP2 PUSH1 0x0 DUP3 ADD DUP1 SLOAD PUSH2 0xBCB SWAP1 PUSH2 0x1618 JUMP JUMPDEST DUP1 PUSH1 0x1F ADD PUSH1 0x20 DUP1 SWAP2 DIV MUL PUSH1 0x20 ADD PUSH1 0x40 MLOAD SWAP1 DUP2 ADD PUSH1 0x40 MSTORE DUP1 SWAP3 SWAP2 SWAP1 DUP2 DUP2 MSTORE PUSH1 0x20 ADD DUP3 DUP1 SLOAD PUSH2 0xBF7 SWAP1 PUSH2 0x1618 JUMP JUMPDEST DUP1 ISZERO PUSH2 0xC44 JUMPI DUP1 PUSH1 0x1F LT PUSH2 0xC19 JUMPI PUSH2 0x100 DUP1 DUP4 SLOAD DIV MUL DUP4 MSTORE SWAP2 PUSH1 0x20 ADD SWAP2 PUSH2 0xC44 JUMP JUMPDEST DUP3 ADD SWAP2 SWAP1 PUSH1 0x0 MSTORE PUSH1 0x20 PUSH1 0x0 KECCAK256 SWAP1 JUMPDEST DUP2 SLOAD DUP2 MSTORE SWAP1 PUSH1 0x1 ADD SWAP1 PUSH1 0x20 ADD DUP1 DUP4 GT PUSH2 0xC27 JUMPI DUP3 SWAP1 SUB PUSH1 0x1F AND DUP3 ADD SWAP2 JUMPDEST POP POP POP POP POP DUP2 MSTORE PUSH1 0x20 ADD PUSH1 0x1 DUP3 ADD SLOAD DUP2 MSTORE PUSH1 0x20 ADD PUSH1 0x2 DUP3 ADD PUSH1 0x0 SWAP1 SLOAD SWAP1 PUSH2 0x100 EXP SWAP1 DIV PUSH1 0xFF AND PUSH1 0x2 DUP2 GT ISZERO PUSH2 0xC7C JUMPI PUSH2 0xC7B PUSH2 0x1085 JUMP JUMPDEST JUMPDEST PUSH1 0x2 DUP2 GT ISZERO PUSH2 0xC8E JUMPI PUSH2 0xC8D PUSH2 0x1085 JUMP JUMPDEST JUMPDEST DUP2 MSTORE PUSH1 0x20 ADD PUSH1 0x2 DUP3 ADD PUSH1 0x1 SWAP1 SLOAD SWAP1 PUSH2 0x100 EXP SWAP1 DIV PUSH1 0xFF AND PUSH1 0x2 DUP2 GT ISZERO PUSH2 0xCB7 JUMPI PUSH2 0xCB6 PUSH2 0x1085 JUMP JUMPDEST JUMPDEST PUSH1 0x2 DUP2 GT ISZERO PUSH2 0xCC9 JUMPI PUSH2 0xCC8 PUSH2 0x1085 JUMP JUMPDEST JUMPDEST DUP2 MSTORE POP POP SWAP1 POP SWAP2 SWAP1 POP JUMP JUMPDEST PUSH1 0x0 PUSH1 0x20 MSTORE DUP1 PUSH1 0x0 MSTORE PUSH1 0x40 PUSH1 0x0 KECCAK256 PUSH1 0x0 SWAP2 POP SWAP1 POP DUP1 PUSH1 0x0 ADD DUP1 SLOAD PUSH2 0xCF7 SWAP1 PUSH2 0x1618 JUMP JUMPDEST DUP1 PUSH1 0x1F ADD PUSH1 0x20 DUP1 SWAP2 DIV MUL PUSH1 0x20 ADD PUSH1 0x40 MLOAD SWAP1 DUP2 ADD PUSH1 0x40 MSTORE DUP1 SWAP3 SWAP2 SWAP1 DUP2 DUP2 MSTORE PUSH1 0x20 ADD DUP3 DUP1 SLOAD PUSH2 0xD23 SWAP1 PUSH2 0x1618 JUMP JUMPDEST DUP1 ISZERO PUSH2 0xD70 JUMPI DUP1 PUSH1 0x1F LT PUSH2 0xD45 JUMPI PUSH2 0x100 DUP1 DUP4 SLOAD DIV MUL DUP4 MSTORE SWAP2 PUSH1 0x20 ADD SWAP2 PUSH2 0xD70 JUMP JUMPDEST DUP3 ADD SWAP2 SWAP1 PUSH1 0x0 MSTORE PUSH1 0x20 PUSH1 0x0 KECCAK256 SWAP1 JUMPDEST DUP2 SLOAD DUP2 MSTORE SWAP1 PUSH1 0x1 ADD SWAP1 PUSH1 0x20 ADD DUP1 DUP4 GT PUSH2 0xD53 JUMPI DUP3 SWAP1 SUB PUSH1 0x1F AND DUP3 ADD SWAP2 JUMPDEST POP POP POP POP POP SWAP1 DUP1 PUSH1 0x1 ADD SLOAD SWAP1 DUP1 PUSH1 0x2 ADD PUSH1 0x0 SWAP1 SLOAD SWAP1 PUSH2 0x100 EXP SWAP1 DIV PUSH1 0xFF AND SWAP1 DUP1 PUSH1 0x2 ADD PUSH1 0x1 SWAP1 SLOAD SWAP1 PUSH2 0x100 EXP SWAP1 DIV PUSH1 0xFF AND SWAP1 POP DUP5 JUMP JUMPDEST PUSH1 0x0 DUP1 PUSH1 0x1 PUSH1 0x2 DUP2 GT ISZERO PUSH2 0xDBD JUMPI PUSH2 0xDBC PUSH2 0x1085 JUMP JUMPDEST JUMPDEST DUP4 PUSH1 0x2 DUP2 GT ISZERO PUSH2 0xDD0 JUMPI PUSH2 0xDCF PUSH2 0x1085 JUMP JUMPDEST JUMPDEST SUB PUSH2 0xDDF JUMPI PUSH2 0x44C SWAP1 POP PUSH2 0xE1C JUMP JUMPDEST PUSH1 0x0 PUSH1 0x2 DUP2 GT ISZERO PUSH2 0xDF3 JUMPI PUSH2 0xDF2 PUSH2 0x1085 JUMP JUMPDEST JUMPDEST DUP4 PUSH1 0x2 DUP2 GT ISZERO PUSH2 0xE06 JUMPI PUSH2 0xE05 PUSH2 0x1085 JUMP JUMPDEST JUMPDEST SUB PUSH2 0xE15 JUMPI PUSH2 0x3E8 SWAP1 POP PUSH2 0xE1B JUMP JUMPDEST PUSH2 0x1F4 SWAP1 POP JUMPDEST JUMPDEST PUSH1 0x1 PUSH1 0x2 DUP2 GT ISZERO PUSH2 0xE30 JUMPI PUSH2 0xE2F PUSH2 0x1085 JUMP JUMPDEST JUMPDEST DUP5 PUSH1 0x2 DUP2 GT ISZERO PUSH2 0xE43 JUMPI PUSH2 0xE42 PUSH2 0x1085 JUMP JUMPDEST JUMPDEST SUB PUSH2 0xE5D JUMPI PUSH2 0x12C DUP2 PUSH2 0xE56 SWAP2 SWAP1 PUSH2 0x1BE6 JUMP JUMPDEST SWAP1 POP PUSH2 0xE8E JUMP JUMPDEST PUSH1 0x2 DUP1 DUP2 GT ISZERO PUSH2 0xE70 JUMPI PUSH2 0xE6F PUSH2 0x1085 JUMP JUMPDEST JUMPDEST DUP5 PUSH1 0x2 DUP2 GT ISZERO PUSH2 0xE83 JUMPI PUSH2 0xE82 PUSH2 0x1085 JUMP JUMPDEST JUMPDEST SUB PUSH2 0xE8D JUMPI PUSH1 0x0 SWAP1 POP JUMPDEST JUMPDEST DUP1 SWAP2 POP POP SWAP3 SWAP2 POP POP JUMP JUMPDEST PUSH1 0x40 MLOAD DUP1 PUSH1 0x80 ADD PUSH1 0x40 MSTORE DUP1 PUSH1 0x60 DUP2 MSTORE PUSH1 0x20 ADD PUSH1 0x0 DUP2 MSTORE PUSH1 0x20 ADD PUSH1 0x0 PUSH1 0x2 DUP2 GT ISZERO PUSH2 0xEC5 JUMPI PUSH2 0xEC4 PUSH2 0x1085 JUMP JUMPDEST JUMPDEST DUP2 MSTORE PUSH1 0x20 ADD PUSH1 0x0 PUSH1 0x2 DUP2 GT ISZERO PUSH2 0xEDE JUMPI PUSH2 0xEDD PUSH2 0x1085 JUMP JUMPDEST JUMPDEST DUP2 MSTORE POP SWAP1 JUMP JUMPDEST PUSH1 0x0 PUSH1 0x40 MLOAD SWAP1 POP SWAP1 JUMP JUMPDEST PUSH1 0x0 DUP1 REVERT JUMPDEST PUSH1 0x0 DUP1 REVERT JUMPDEST PUSH1 0x0 PUSH20 0xFFFFFFFFFFFFFFFFFFFFFFFFFFFFFFFFFFFFFFFF DUP3 AND SWAP1 POP SWAP2 SWAP1 POP JUMP JUMPDEST PUSH1 0x0 PUSH2 0xF23 DUP3 PUSH2 0xEF8 JUMP JUMPDEST SWAP1 POP SWAP2 SWAP1 POP JUMP JUMPDEST PUSH2 0xF33 DUP2 PUSH2 0xF18 JUMP JUMPDEST DUP2 EQ PUSH2 0xF3E JUMPI PUSH1 0x0 DUP1 REVERT JUMPDEST POP JUMP JUMPDEST PUSH1 0x0 DUP2 CALLDATALOAD SWAP1 POP PUSH2 0xF50 DUP2 PUSH2 0xF2A JUMP JUMPDEST SWAP3 SWAP2 POP POP JUMP JUMPDEST PUSH1 0x0 PUSH1 0x20 DUP3 DUP5 SUB SLT ISZERO PUSH2 0xF6C JUMPI PUSH2 0xF6B PUSH2 0xEEE JUMP JUMPDEST JUMPDEST PUSH1 0x0 PUSH2 0xF7A DUP5 DUP3 DUP6 ADD PUSH2 0xF41 JUMP JUMPDEST SWAP2 POP POP SWAP3 SWAP2 POP POP JUMP JUMPDEST PUSH1 0x0 DUP2 SWAP1 POP SWAP2 SWAP1 POP JUMP JUMPDEST PUSH2 0xF96 DUP2 PUSH2 0xF83 JUMP JUMPDEST DUP2 EQ PUSH2 0xFA1 JUMPI PUSH1 0x0 DUP1 REVERT JUMPDEST POP JUMP JUMPDEST PUSH1 0x0 DUP2 CALLDATALOAD SWAP1 POP PUSH2 0xFB3 DUP2 PUSH2 0xF8D JUMP JUMPDEST SWAP3 SWAP2 POP POP JUMP JUMPDEST PUSH1 0x0 PUSH1 0x20 DUP3 DUP5 SUB SLT ISZERO PUSH2 0xFCF JUMPI PUSH2 0xFCE PUSH2 0xEEE JUMP JUMPDEST JUMPDEST PUSH1 0x0 PUSH2 0xFDD DUP5 DUP3 DUP6 ADD PUSH2 0xFA4 JUMP JUMPDEST SWAP2 POP POP SWAP3 SWAP2 POP POP JUMP JUMPDEST PUSH1 0x0 DUP2 MLOAD SWAP1 POP SWAP2 SWAP1 POP JUMP JUMPDEST PUSH1 0x0 DUP3 DUP3 MSTORE PUSH1 0x20 DUP3 ADD SWAP1 POP SWAP3 SWAP2 POP POP JUMP JUMPDEST PUSH1 0x0 JUMPDEST DUP4 DUP2 LT ISZERO PUSH2 0x1020 JUMPI DUP1 DUP3 ADD MLOAD DUP2 DUP5 ADD MSTORE PUSH1 0x20 DUP2 ADD SWAP1 POP PUSH2 0x1005 JUMP JUMPDEST PUSH1 0x0 DUP5 DUP5 ADD MSTORE POP POP POP POP JUMP JUMPDEST PUSH1 0x0 PUSH1 0x1F NOT PUSH1 0x1F DUP4 ADD AND SWAP1 POP SWAP2 SWAP1 POP JUMP JUMPDEST PUSH1 0x0 PUSH2 0x1048 DUP3 PUSH2 0xFE6 JUMP JUMPDEST PUSH2 0x1052 DUP2 DUP6 PUSH2 0xFF1 JUMP JUMPDEST SWAP4 POP PUSH2 0x1062 DUP2 DUP6 PUSH1 0x20 DUP7 ADD PUSH2 0x1002 JUMP JUMPDEST PUSH2 0x106B DUP2 PUSH2 0x102C JUMP JUMPDEST DUP5 ADD SWAP2 POP POP SWAP3 SWAP2 POP POP JUMP JUMPDEST PUSH2 0x107F DUP2 PUSH2 0xF83 JUMP JUMPDEST DUP3 MSTORE POP POP JUMP JUMPDEST PUSH32 0x4E487B7100000000000000000000000000000000000000000000000000000000 PUSH1 0x0 MSTORE PUSH1 0x21 PUSH1 0x4 MSTORE PUSH1 0x24 PUSH1 0x0 REVERT JUMPDEST PUSH1 0x3 DUP2 LT PUSH2 0x10C5 JUMPI PUSH2 0x10C4 PUSH2 0x1085 JUMP JUMPDEST JUMPDEST POP JUMP JUMPDEST PUSH1 0x0 DUP2 SWAP1 POP PUSH2 0x10D6 DUP3 PUSH2 0x10B4 JUMP JUMPDEST SWAP2 SWAP1 POP JUMP JUMPDEST PUSH1 0x0 PUSH2 0x10E6 DUP3 PUSH2 0x10C8 JUMP JUMPDEST SWAP1 POP SWAP2 SWAP1 POP JUMP JUMPDEST PUSH2 0x10F6 DUP2 PUSH2 0x10DB JUMP JUMPDEST DUP3 MSTORE POP POP JUMP JUMPDEST PUSH1 0x3 DUP2 LT PUSH2 0x110D JUMPI PUSH2 0x110C PUSH2 0x1085 JUMP JUMPDEST JUMPDEST POP JUMP JUMPDEST PUSH1 0x0 DUP2 SWAP1 POP PUSH2 0x111E DUP3 PUSH2 0x10FC JUMP JUMPDEST SWAP2 SWAP1 POP JUMP JUMPDEST PUSH1 0x0 PUSH2 0x112E DUP3 PUSH2 0x1110 JUMP JUMPDEST SWAP1 POP SWAP2 SWAP1 POP JUMP JUMPDEST PUSH2 0x113E DUP2 PUSH2 0x1123 JUMP JUMPDEST DUP3 MSTORE POP POP JUMP JUMPDEST PUSH1 0x0 PUSH1 0x80 DUP3 ADD SWAP1 POP DUP2 DUP2 SUB PUSH1 0x0 DUP4 ADD MSTORE PUSH2 0x115E DUP2 DUP8 PUSH2 0x103D JUMP JUMPDEST SWAP1 POP PUSH2 0x116D PUSH1 0x20 DUP4 ADD DUP7 PUSH2 0x1076 JUMP JUMPDEST PUSH2 0x117A PUSH1 0x40 DUP4 ADD DUP6 PUSH2 0x10ED JUMP JUMPDEST PUSH2 0x1187 PUSH1 0x60 DUP4 ADD DUP5 PUSH2 0x1135 JUMP JUMPDEST SWAP6 SWAP5 POP POP POP POP POP JUMP JUMPDEST PUSH1 0x0 PUSH1 0x20 DUP3 ADD SWAP1 POP PUSH2 0x11A5 PUSH1 0x0 DUP4 ADD DUP5 PUSH2 0x1076 JUMP JUMPDEST SWAP3 SWAP2 POP POP JUMP JUMPDEST PUSH1 0x0 PUSH2 0x11B6 DUP3 PUSH2 0xEF8 JUMP JUMPDEST SWAP1 POP SWAP2 SWAP1 POP JUMP JUMPDEST PUSH2 0x11C6 DUP2 PUSH2 0x11AB JUMP JUMPDEST DUP2 EQ PUSH2 0x11D1 JUMPI PUSH1 0x0 DUP1 REVERT JUMPDEST POP JUMP JUMPDEST PUSH1 0x0 DUP2 CALLDATALOAD SWAP1 POP PUSH2 0x11E3 DUP2 PUSH2 0x11BD JUMP JUMPDEST SWAP3 SWAP2 POP POP JUMP JUMPDEST PUSH1 0x3 DUP2 LT PUSH2 0x11F6 JUMPI PUSH1 0x0 DUP1 REVERT JUMPDEST POP JUMP JUMPDEST PUSH1 0x0 DUP2 CALLDATALOAD SWAP1 POP PUSH2 0x1208 DUP2 PUSH2 0x11E9 JUMP JUMPDEST SWAP3 SWAP2 POP POP JUMP JUMPDEST PUSH1 0x3 DUP2 LT PUSH2 0x121B JUMPI PUSH1 0x0 DUP1 REVERT JUMPDEST POP JUMP JUMPDEST PUSH1 0x0 DUP2 CALLDATALOAD SWAP1 POP PUSH2 0x122D DUP2 PUSH2 0x120E JUMP JUMPDEST SWAP3 SWAP2 POP POP JUMP JUMPDEST PUSH1 0x0 DUP1 PUSH1 0x0 PUSH1 0x60 DUP5 DUP7 SUB SLT ISZERO PUSH2 0x124C JUMPI PUSH2 0x124B PUSH2 0xEEE JUMP JUMPDEST JUMPDEST PUSH1 0x0 PUSH2 0x125A DUP7 DUP3 DUP8 ADD PUSH2 0x11D4 JUMP JUMPDEST SWAP4 POP POP PUSH1 0x20 PUSH2 0x126B DUP7 DUP3 DUP8 ADD PUSH2 0x11F9 JUMP JUMPDEST SWAP3 POP POP PUSH1 0x40 PUSH2 0x127C DUP7 DUP3 DUP8 ADD PUSH2 0x121E JUMP JUMPDEST SWAP2 POP POP SWAP3 POP SWAP3 POP SWAP3 JUMP JUMPDEST PUSH1 0x0 DUP1 REVERT JUMPDEST PUSH1 0x0 DUP1 REVERT JUMPDEST PUSH32 0x4E487B7100000000000000000000000000000000000000000000000000000000 PUSH1 0x0 MSTORE PUSH1 0x41 PUSH1 0x4 MSTORE PUSH1 0x24 PUSH1 0x0 REVERT JUMPDEST PUSH2 0x12C8 DUP3 PUSH2 0x102C JUMP JUMPDEST DUP2 ADD DUP2 DUP2 LT PUSH8 0xFFFFFFFFFFFFFFFF DUP3 GT OR ISZERO PUSH2 0x12E7 JUMPI PUSH2 0x12E6 PUSH2 0x1290 JUMP JUMPDEST JUMPDEST DUP1 PUSH1 0x40 MSTORE POP POP POP JUMP JUMPDEST PUSH1 0x0 PUSH2 0x12FA PUSH2 0xEE4 JUMP JUMPDEST SWAP1 POP PUSH2 0x1306 DUP3 DUP3 PUSH2 0x12BF JUMP JUMPDEST SWAP2 SWAP1 POP JUMP JUMPDEST PUSH1 0x0 PUSH8 0xFFFFFFFFFFFFFFFF DUP3 GT ISZERO PUSH2 0x1326 JUMPI PUSH2 0x1325 PUSH2 0x1290 JUMP JUMPDEST JUMPDEST PUSH2 0x132F DUP3 PUSH2 0x102C JUMP JUMPDEST SWAP1 POP PUSH1 0x20 DUP2 ADD SWAP1 POP SWAP2 SWAP1 POP JUMP JUMPDEST DUP3 DUP2 DUP4 CALLDATACOPY PUSH1 0x0 DUP4 DUP4 ADD MSTORE POP POP POP JUMP JUMPDEST PUSH1 0x0 PUSH2 0x135E PUSH2 0x1359 DUP5 PUSH2 0x130B JUMP JUMPDEST PUSH2 0x12F0 JUMP JUMPDEST SWAP1 POP DUP3 DUP2 MSTORE PUSH1 0x20 DUP2 ADD DUP5 DUP5 DUP5 ADD GT ISZERO PUSH2 0x137A JUMPI PUSH2 0x1379 PUSH2 0x128B JUMP JUMPDEST JUMPDEST PUSH2 0x1385 DUP5 DUP3 DUP6 PUSH2 0x133C JUMP JUMPDEST POP SWAP4 SWAP3 POP POP POP JUMP JUMPDEST PUSH1 0x0 DUP3 PUSH1 0x1F DUP4 ADD SLT PUSH2 0x13A2 JUMPI PUSH2 0x13A1 PUSH2 0x1286 JUMP JUMPDEST JUMPDEST DUP2 CALLDATALOAD PUSH2 0x13B2 DUP5 DUP3 PUSH1 0x20 DUP7 ADD PUSH2 0x134B JUMP JUMPDEST SWAP2 POP POP SWAP3 SWAP2 POP POP JUMP JUMPDEST PUSH1 0x0 DUP1 PUSH1 0x0 PUSH1 0x60 DUP5 DUP7 SUB SLT ISZERO PUSH2 0x13D4 JUMPI PUSH2 0x13D3 PUSH2 0xEEE JUMP JUMPDEST JUMPDEST PUSH1 0x0 PUSH2 0x13E2 DUP7 DUP3 DUP8 ADD PUSH2 0x11D4 JUMP JUMPDEST SWAP4 POP POP PUSH1 0x20 DUP5 ADD CALLDATALOAD PUSH8 0xFFFFFFFFFFFFFFFF DUP2 GT ISZERO PUSH2 0x1403 JUMPI PUSH2 0x1402 PUSH2 0xEF3 JUMP JUMPDEST JUMPDEST PUSH2 0x140F DUP7 DUP3 DUP8 ADD PUSH2 0x138D JUMP JUMPDEST SWAP3 POP POP PUSH1 0x40 PUSH2 0x1420 DUP7 DUP3 DUP8 ADD PUSH2 0x121E JUMP JUMPDEST SWAP2 POP POP SWAP3 POP SWAP3 POP SWAP3 JUMP JUMPDEST PUSH2 0x1433 DUP2 PUSH2 0x11AB JUMP JUMPDEST DUP3 MSTORE POP POP JUMP JUMPDEST PUSH1 0x0 PUSH1 0x20 DUP3 ADD SWAP1 POP PUSH2 0x144E PUSH1 0x0 DUP4 ADD DUP5 PUSH2 0x142A JUMP JUMPDEST SWAP3 SWAP2 POP POP JUMP JUMPDEST PUSH1 0x0 PUSH1 0x20 DUP3 DUP5 SUB SLT ISZERO PUSH2 0x146A JUMPI PUSH2 0x1469 PUSH2 0xEEE JUMP JUMPDEST JUMPDEST PUSH1 0x0 PUSH2 0x1478 DUP5 DUP3 DUP6 ADD PUSH2 0x11D4 JUMP JUMPDEST SWAP2 POP POP SWAP3 SWAP2 POP POP JUMP JUMPDEST PUSH1 0x0 DUP3 DUP3 MSTORE PUSH1 0x20 DUP3 ADD SWAP1 POP SWAP3 SWAP2 POP POP JUMP JUMPDEST PUSH1 0x0 PUSH2 0x149D DUP3 PUSH2 0xFE6 JUMP JUMPDEST PUSH2 0x14A7 DUP2 DUP6 PUSH2 0x1481 JUMP JUMPDEST SWAP4 POP PUSH2 0x14B7 DUP2 DUP6 PUSH1 0x20 DUP7 ADD PUSH2 0x1002 JUMP JUMPDEST PUSH2 0x14C0 DUP2 PUSH2 0x102C JUMP JUMPDEST DUP5 ADD SWAP2 POP POP SWAP3 SWAP2 POP POP JUMP JUMPDEST PUSH2 0x14D4 DUP2 PUSH2 0xF83 JUMP JUMPDEST DUP3 MSTORE POP POP JUMP JUMPDEST PUSH2 0x14E3 DUP2 PUSH2 0x10DB JUMP JUMPDEST DUP3 MSTORE POP POP JUMP JUMPDEST PUSH2 0x14F2 DUP2 PUSH2 0x1123 JUMP JUMPDEST DUP3 MSTORE POP POP JUMP JUMPDEST PUSH1 0x0 PUSH1 0x80 DUP4 ADD PUSH1 0x0 DUP4 ADD MLOAD DUP5 DUP3 SUB PUSH1 0x0 DUP7 ADD MSTORE PUSH2 0x1515 DUP3 DUP3 PUSH2 0x1492 JUMP JUMPDEST SWAP2 POP POP PUSH1 0x20 DUP4 ADD MLOAD PUSH2 0x152A PUSH1 0x20 DUP7 ADD DUP3 PUSH2 0x14CB JUMP JUMPDEST POP PUSH1 0x40 DUP4 ADD MLOAD PUSH2 0x153D PUSH1 0x40 DUP7 ADD DUP3 PUSH2 0x14DA JUMP JUMPDEST POP PUSH1 0x60 DUP4 ADD MLOAD PUSH2 0x1550 PUSH1 0x60 DUP7 ADD DUP3 PUSH2 0x14E9 JUMP JUMPDEST POP DUP1 SWAP2 POP POP SWAP3 SWAP2 POP POP JUMP JUMPDEST PUSH1 0x0 PUSH1 0x20 DUP3 ADD SWAP1 POP DUP2 DUP2 SUB PUSH1 0x0 DUP4 ADD MSTORE PUSH2 0x1575 DUP2 DUP5 PUSH2 0x14F8 JUMP JUMPDEST SWAP1 POP SWAP3 SWAP2 POP POP JUMP JUMPDEST PUSH32 0x4E6F7420617574686F72697A6564000000000000000000000000000000000000 PUSH1 0x0 DUP3 ADD MSTORE POP JUMP JUMPDEST PUSH1 0x0 PUSH2 0x15B3 PUSH1 0xE DUP4 PUSH2 0xFF1 JUMP JUMPDEST SWAP2 POP PUSH2 0x15BE DUP3 PUSH2 0x157D JUMP JUMPDEST PUSH1 0x20 DUP3 ADD SWAP1 POP SWAP2 SWAP1 POP JUMP JUMPDEST PUSH1 0x0 PUSH1 0x20 DUP3 ADD SWAP1 POP DUP2 DUP2 SUB PUSH1 0x0 DUP4 ADD MSTORE PUSH2 0x15E2 DUP2 PUSH2 0x15A6 JUMP JUMPDEST SWAP1 POP SWAP2 SWAP1 POP JUMP JUMPDEST PUSH32 0x4E487B7100000000000000000000000000000000000000000000000000000000 PUSH1 0x0 MSTORE PUSH1 0x22 PUSH1 0x4 MSTORE PUSH1 0x24 PUSH1 0x0 REVERT JUMPDEST PUSH1 0x0 PUSH1 0x2 DUP3 DIV SWAP1 POP PUSH1 0x1 DUP3 AND DUP1 PUSH2 0x1630 JUMPI PUSH1 0x7F DUP3 AND SWAP2 POP JUMPDEST PUSH1 0x20 DUP3 LT DUP2 SUB PUSH2 0x1643 JUMPI PUSH2 0x1642 PUSH2 0x15E9 JUMP JUMPDEST JUMPDEST POP SWAP2 SWAP1 POP JUMP JUMPDEST PUSH32 0x4E6F2073616C6172792061737369676E65640000000000000000000000000000 PUSH1 0x0 DUP3 ADD MSTORE POP JUMP JUMPDEST PUSH1 0x0 PUSH2 0x167F PUSH1 0x12 DUP4 PUSH2 0xFF1 JUMP JUMPDEST SWAP2 POP PUSH2 0x168A DUP3 PUSH2 0x1649 JUMP JUMPDEST PUSH1 0x20 DUP3 ADD SWAP1 POP SWAP2 SWAP1 POP JUMP JUMPDEST PUSH1 0x0 PUSH1 0x20 DUP3 ADD SWAP1 POP DUP2 DUP2 SUB PUSH1 0x0 DUP4 ADD MSTORE PUSH2 0x16AE DUP2 PUSH2 0x1672 JUMP JUMPDEST SWAP1 POP SWAP2 SWAP1 POP JUMP JUMPDEST PUSH32 0x5374616666206E6F7420656D706C6F7965640000000000000000000000000000 PUSH1 0x0 DUP3 ADD MSTORE POP JUMP JUMPDEST PUSH1 0x0 PUSH2 0x16EB PUSH1 0x12 DUP4 PUSH2 0xFF1 JUMP JUMPDEST SWAP2 POP PUSH2 0x16F6 DUP3 PUSH2 0x16B5 JUMP JUMPDEST PUSH1 0x20 DUP3 ADD SWAP1 POP SWAP2 SWAP1 POP JUMP JUMPDEST PUSH1 0x0 PUSH1 0x20 DUP3 ADD SWAP1 POP DUP2 DUP2 SUB PUSH1 0x0 DUP4 ADD MSTORE PUSH2 0x171A DUP2 PUSH2 0x16DE JUMP JUMPDEST SWAP1 POP SWAP2 SWAP1 POP JUMP JUMPDEST PUSH32 0x4E487B7100000000000000000000000000000000000000000000000000000000 PUSH1 0x0 MSTORE PUSH1 0x11 PUSH1 0x4 MSTORE PUSH1 0x24 PUSH1 0x0 REVERT JUMPDEST PUSH1 0x0 PUSH2 0x175B DUP3 PUSH2 0xF83 JUMP JUMPDEST SWAP2 POP PUSH2 0x1766 DUP4 PUSH2 0xF83 JUMP JUMPDEST SWAP3 POP DUP3 DUP3 MUL PUSH2 0x1774 DUP2 PUSH2 0xF83 JUMP JUMPDEST SWAP2 POP DUP3 DUP3 DIV DUP5 EQ DUP4 ISZERO OR PUSH2 0x178B JUMPI PUSH2 0x178A PUSH2 0x1721 JUMP JUMPDEST JUMPDEST POP SWAP3 SWAP2 POP POP JUMP JUMPDEST PUSH32 0x496E73756666696369656E7420636F6E74726163742062616C616E6365000000 PUSH1 0x0 DUP3 ADD MSTORE POP JUMP JUMPDEST PUSH1 0x0 PUSH2 0x17C8 PUSH1 0x1D DUP4 PUSH2 0xFF1 JUMP JUMPDEST SWAP2 POP PUSH2 0x17D3 DUP3 PUSH2 0x1792 JUMP JUMPDEST PUSH1 0x20 DUP3 ADD SWAP1 POP SWAP2 SWAP1 POP JUMP JUMPDEST PUSH1 0x0 PUSH1 0x20 DUP3 ADD SWAP1 POP DUP2 DUP2 SUB PUSH1 0x0 DUP4 ADD MSTORE PUSH2 0x17F7 DUP2 PUSH2 0x17BB JUMP JUMPDEST SWAP1 POP SWAP2 SWAP1 POP JUMP JUMPDEST PUSH32 0x537461666620616C726561647920657869737473000000000000000000000000 PUSH1 0x0 DUP3 ADD MSTORE POP JUMP JUMPDEST PUSH1 0x0 PUSH2 0x1834 PUSH1 0x14 DUP4 PUSH2 0xFF1 JUMP JUMPDEST SWAP2 POP PUSH2 0x183F DUP3 PUSH2 0x17FE JUMP JUMPDEST PUSH1 0x20 DUP3 ADD SWAP1 POP SWAP2 SWAP1 POP JUMP JUMPDEST PUSH1 0x0 PUSH1 0x20 DUP3 ADD SWAP1 POP DUP2 DUP2 SUB PUSH1 0x0 DUP4 ADD MSTORE PUSH2 0x1863 DUP2 PUSH2 0x1827 JUMP JUMPDEST SWAP1 POP SWAP2 SWAP1 POP JUMP JUMPDEST PUSH1 0x0 DUP2 SWAP1 POP DUP2 PUSH1 0x0 MSTORE PUSH1 0x20 PUSH1 0x0 KECCAK256 SWAP1 POP SWAP2 SWAP1 POP JUMP JUMPDEST PUSH1 0x0 PUSH1 0x20 PUSH1 0x1F DUP4 ADD DIV SWAP1 POP SWAP2 SWAP1 POP JUMP JUMPDEST PUSH1 0x0 DUP3 DUP3 SHL SWAP1 POP SWAP3 SWAP2 POP POP JUMP JUMPDEST PUSH1 0x0 PUSH1 0x8 DUP4 MUL PUSH2 0x18CC PUSH32 0xFFFFFFFFFFFFFFFFFFFFFFFFFFFFFFFFFFFFFFFFFFFFFFFFFFFFFFFFFFFFFFFF DUP3 PUSH2 0x188F JUMP JUMPDEST PUSH2 0x18D6 DUP7 DUP4 PUSH2 0x188F JUMP JUMPDEST SWAP6 POP DUP1 NOT DUP5 AND SWAP4 POP DUP1 DUP7 AND DUP5 OR SWAP3 POP POP POP SWAP4 SWAP3 POP POP POP JUMP JUMPDEST PUSH1 0x0 DUP2 SWAP1 POP SWAP2 SWAP1 POP JUMP JUMPDEST PUSH1 0x0 PUSH2 0x1913 PUSH2 0x190E PUSH2 0x1909 DUP5 PUSH2 0xF83 JUMP JUMPDEST PUSH2 0x18EE JUMP JUMPDEST PUSH2 0xF83 JUMP JUMPDEST SWAP1 POP SWAP2 SWAP1 POP JUMP JUMPDEST PUSH1 0x0 DUP2 SWAP1 POP SWAP2 SWAP1 POP JUMP JUMPDEST PUSH2 0x192D DUP4 PUSH2 0x18F8 JUMP JUMPDEST PUSH2 0x1941 PUSH2 0x1939 DUP3 PUSH2 0x191A JUMP JUMPDEST DUP5 DUP5 SLOAD PUSH2 0x189C JUMP JUMPDEST DUP3 SSTORE POP POP POP POP JUMP JUMPDEST PUSH1 0x0 SWAP1 JUMP JUMPDEST PUSH2 0x1956 PUSH2 0x1949 JUMP JUMPDEST PUSH2 0x1961 DUP2 DUP5 DUP5 PUSH2 0x1924 JUMP JUMPDEST POP POP POP JUMP JUMPDEST JUMPDEST DUP2 DUP2 LT ISZERO PUSH2 0x1985 JUMPI PUSH2 0x197A PUSH1 0x0 DUP3 PUSH2 0x194E JUMP JUMPDEST PUSH1 0x1 DUP2 ADD SWAP1 POP PUSH2 0x1967 JUMP JUMPDEST POP POP JUMP JUMPDEST PUSH1 0x1F DUP3 GT ISZERO PUSH2 0x19CA JUMPI PUSH2 0x199B DUP2 PUSH2 0x186A JUMP JUMPDEST PUSH2 0x19A4 DUP5 PUSH2 0x187F JUMP JUMPDEST DUP2 ADD PUSH1 0x20 DUP6 LT ISZERO PUSH2 0x19B3 JUMPI DUP2 SWAP1 POP JUMPDEST PUSH2 0x19C7 PUSH2 0x19BF DUP6 PUSH2 0x187F JUMP JUMPDEST DUP4 ADD DUP3 PUSH2 0x1966 JUMP JUMPDEST POP POP JUMPDEST POP POP POP JUMP JUMPDEST PUSH1 0x0 DUP3 DUP3 SHR SWAP1 POP SWAP3 SWAP2 POP POP JUMP JUMPDEST PUSH1 0x0 PUSH2 0x19ED PUSH1 0x0 NOT DUP5 PUSH1 0x8 MUL PUSH2 0x19CF JUMP JUMPDEST NOT DUP1 DUP4 AND SWAP2 POP POP SWAP3 SWAP2 POP POP JUMP JUMPDEST PUSH1 0x0 PUSH2 0x1A06 DUP4 DUP4 PUSH2 0x19DC JUMP JUMPDEST SWAP2 POP DUP3 PUSH1 0x2 MUL DUP3 OR SWAP1 POP SWAP3 SWAP2 POP POP JUMP JUMPDEST PUSH2 0x1A1F DUP3 PUSH2 0xFE6 JUMP JUMPDEST PUSH8 0xFFFFFFFFFFFFFFFF DUP2 GT ISZERO PUSH2 0x1A38 JUMPI PUSH2 0x1A37 PUSH2 0x1290 JUMP JUMPDEST JUMPDEST PUSH2 0x1A42 DUP3 SLOAD PUSH2 0x1618 JUMP JUMPDEST PUSH2 0x1A4D DUP3 DUP3 DUP6 PUSH2 0x1989 JUMP JUMPDEST PUSH1 0x0 PUSH1 0x20 SWAP1 POP PUSH1 0x1F DUP4 GT PUSH1 0x1 DUP2 EQ PUSH2 0x1A80 JUMPI PUSH1 0x0 DUP5 ISZERO PUSH2 0x1A6E JUMPI DUP3 DUP8 ADD MLOAD SWAP1 POP JUMPDEST PUSH2 0x1A78 DUP6 DUP3 PUSH2 0x19FA JUMP JUMPDEST DUP7 SSTORE POP PUSH2 0x1AE0 JUMP JUMPDEST PUSH1 0x1F NOT DUP5 AND PUSH2 0x1A8E DUP7 PUSH2 0x186A JUMP JUMPDEST PUSH1 0x0 JUMPDEST DUP3 DUP2 LT ISZERO PUSH2 0x1AB6 JUMPI DUP5 DUP10 ADD MLOAD DUP3 SSTORE PUSH1 0x1 DUP3 ADD SWAP2 POP PUSH1 0x20 DUP6 ADD SWAP5 POP PUSH1 0x20 DUP2 ADD SWAP1 POP PUSH2 0x1A91 JUMP JUMPDEST DUP7 DUP4 LT ISZERO PUSH2 0x1AD3 JUMPI DUP5 DUP10 ADD MLOAD PUSH2 0x1ACF PUSH1 0x1F DUP10 AND DUP3 PUSH2 0x19DC JUMP JUMPDEST DUP4 SSTORE POP JUMPDEST PUSH1 0x1 PUSH1 0x2 DUP9 MUL ADD DUP9 SSTORE POP POP POP JUMPDEST POP POP POP POP POP POP JUMP JUMPDEST PUSH1 0x0 DUP2 SLOAD SWAP1 POP PUSH2 0x1AF7 DUP2 PUSH2 0x1618 JUMP JUMPDEST SWAP1 POP SWAP2 SWAP1 POP JUMP JUMPDEST DUP2 DUP2 SUB PUSH2 0x1B0C JUMPI POP POP PUSH2 0x1BE4 JUMP JUMPDEST PUSH2 0x1B15 DUP3 PUSH2 0x1AE8 JUMP JUMPDEST PUSH8 0xFFFFFFFFFFFFFFFF DUP2 GT ISZERO PUSH2 0x1B2E JUMPI PUSH2 0x1B2D PUSH2 0x1290 JUMP JUMPDEST JUMPDEST PUSH2 0x1B38 DUP3 SLOAD PUSH2 0x1618 JUMP JUMPDEST PUSH2 0x1B43 DUP3 DUP3 DUP6 PUSH2 0x1989 JUMP JUMPDEST PUSH1 0x0 PUSH1 0x1F DUP4 GT PUSH1 0x1 DUP2 EQ PUSH2 0x1B72 JUMPI PUSH1 0x0 DUP5 ISZERO PUSH2 0x1B60 JUMPI DUP3 DUP8 ADD SLOAD SWAP1 POP JUMPDEST PUSH2 0x1B6A DUP6 DUP3 PUSH2 0x19FA JUMP JUMPDEST DUP7 SSTORE POP PUSH2 0x1BDD JUMP JUMPDEST PUSH1 0x1F NOT DUP5 AND PUSH2 0x1B80 DUP8 PUSH2 0x186A JUMP JUMPDEST SWAP7 POP PUSH2 0x1B8B DUP7 PUSH2 0x186A JUMP JUMPDEST PUSH1 0x0 JUMPDEST DUP3 DUP2 LT ISZERO PUSH2 0x1BB3 JUMPI DUP5 DUP10 ADD SLOAD DUP3 SSTORE PUSH1 0x1 DUP3 ADD SWAP2 POP PUSH1 0x1 DUP6 ADD SWAP5 POP PUSH1 0x20 DUP2 ADD SWAP1 POP PUSH2 0x1B8E JUMP JUMPDEST DUP7 DUP4 LT ISZERO PUSH2 0x1BD0 JUMPI DUP5 DUP10 ADD SLOAD PUSH2 0x1BCC PUSH1 0x1F DUP10 AND DUP3 PUSH2 0x19DC JUMP JUMPDEST DUP4 SSTORE POP JUMPDEST PUSH1 0x1 PUSH1 0x2 DUP9 MUL ADD DUP9 SSTORE POP POP POP JUMPDEST POP POP POP POP POP POP JUMPDEST JUMP JUMPDEST PUSH1 0x0 PUSH2 0x1BF1 DUP3 PUSH2 0xF83 JUMP JUMPDEST SWAP2 POP PUSH2 0x1BFC DUP4 PUSH2 0xF83 JUMP JUMPDEST SWAP3 POP DUP3 DUP3 SUB SWAP1 POP DUP2 DUP2 GT ISZERO PUSH2 0x1C14 JUMPI PUSH2 0x1C13 PUSH2 0x1721 JUMP JUMPDEST JUMPDEST SWAP3 SWAP2 POP POP JUMP INVALID LOG2 PUSH5 0x6970667358 0x22 SLT KECCAK256 SWAP11 LOG4 PUSH21 0x5D51DDF7B4C6D4FCC7277EC3D038995820B74DD338 0xDF NOT SWAP11 0xE7 0xB8 0xD6 0x1E 0xC2 PUSH5 0x736F6C6343 STOP ADDMOD SHR STOP CALLER LOG2 PUSH5 0x6970667358 0x22 SLT KECCAK256 PUSH20 0xF5ED39F7F699C41E7657FE5BEFFAEA063483BAE7 SWAP16 SWAP1 OR LOG2 MOD 0x24 0xCC 0xA5 STATICCALL SWAP7 ISZERO PUSH5 0x736F6C6343 STOP ADDMOD SHR STOP CALLER "},"methodIdentifiers":{"createStaffSalaryManager()":"44280c0c","getStaffSalaryManagers()":"3442811c","staffSalaryManagers(uint256)":"60355e98"}}}}}